:100000000C948D040C9498150C94D4040C94D40482
:100010000C94D4040C94D4040C94D4040C94D40400
:100020000C94D4040C94D4040C9459290C942B2AC9
:100030000C9498230C94D4040C94D4040C94D404FD
:100040000C94D4040C94D4040C94D4040C94D404D0
:100050000C94D4040C9400240C94D4040C94D40474
:100060000C94D4040C94D4040C94D4040C94D404B0
:100070000C94D4040C94D4040C94D4040C94D404A0
:100080000C94D4040C94D4040C94D4040C94D40490
:100090000C94D4040C94D4040C94D4040C94D40480
:1000A0000C94D4040C94D4040C94D404880F8B0FB7
:1000B000900F970F9C0FA10FA60FAB0FB00FB50FAE
:1000C000BA0FBF0FC20FC20FC20FC20FC20FC20FB3
:1000D000C20FC20F80198019B219B219FF19621B21
:1000E000621B621B1F1ABC1ACD1ACD1A2E1B371B9E
:1000F000621B5B1BE01BE01BF21BF21BE91BF21BEC
:10010000F21BF21BE01BE01BEE1BF21BF21BEE1BB3
:10011000982ABF2AB12BBF2AB12B0B2B2E2BB12B28
:10012000842B932B2E001E001F0020002100220094
:100130002B0014001A000800150017002900040005
:100140001600070009000A00E0001D621B000600FF
:100150001900050000000000E300E2002A004C0046
:100160002D00270026002500240023002F00130067
:1001700012000C0018001C00340033000F000E00A9
:100180000D000B00E50038003700360010001100AC
:1001900000000000310028422C43350029001400E3
:1001A0001A000800150017002B00040016000700B5
:1001B00009000A00E1001D001B00060019000500EF
:1001C000E0001E001F0020002100220000000000AF
:1001D0000A002C002A00E2002D002700260025003E
:1001E000240023002F00130012000C0018001C0034
:1001F000340033000F000E000D000B00E500380046
:1002000037003600100011000000000031002842C5
:100210002C43350000003A003B003C003D003E000E
:100220000000890035002405270537020000000082
:1002300032002502260236020000000031022505A8
:10024000260535020000000000000000000000004C
:10025000000056005500540040003F0000005700C9
:10026000610060005F003102000085005E005D00FB
:100270005C000000000067005B005A0059000000AD
:10028000000000006200000000000000115010504B
:1002900000000000D45CD25C000000000000C95CDB
:1002A000CA5CD05CE100C25CC35CC55CC65CCE5C71
:1002B000E00000000000C75CC85CCF5C00000000EC
:1002C000E700E20000000000A900000000000000BC
:1002D00000000000AA000000BB005200BC000000AB
:1002E000000000004F00510050000000000000001E
:1002F000AB00AE00AC0000000000000000000000F9
:100300000000000044454255473A20646973616229
:100310006C65642E0A0044454255473A20656E617B
:10032000626C65642E0A000A0025303862003A20AB
:100330000025303258000A722F63203031323334B6
:100340003536370A007267626C69676874207365B6
:100350007420687376205B4E4F454550524F4D5D7B
:100360003A2025752C25752C25750A007267626C5C
:10037000696768742073657420687376205B4545EF
:1003800050524F4D5D3A2025752C25752C25750A48
:10039000007267626C696768742064697361626C7B
:1003A00065205B4E4F454550524F4D5D3A20726778
:1003B000626C696768745F636F6E6669672E656EED
:1003C00061626C65203D2025750A007267626C6968
:1003D0006768742064697361626C65205B45455091
:1003E000524F4D5D3A207267626C696768745F6353
:1003F0006F6E6669672E656E61626C65203D2025B3
:10040000750A007267626C6967687420656E616264
:100410006C65205B454550524F4D5D3A20726762D6
:100420006C696768745F636F6E6669672E656E617D
:10043000626C65203D2025750A007267626C6967F1
:10044000687420746F67676C65205B454550524F38
:100450004D5D3A207267626C696768745F636F6EA6
:100460006669672E656E61626C65203D2025750AA0
:10047000007267626C69676874206D6F6465205BE9
:100480004E4F454550524F4D5D3A2025750A00723A
:1004900067626C69676874206D6F6465205B4545B1
:1004A00050524F4D5D3A2025750A007267626C69A3
:1004B0006768745F696E6974207267626C696768E7
:1004C000745F636F6E6669672E6D6F6465203D2093
:1004D000302E2057726974652064656661756C748E
:1004E0002076616C75657320746F20454550524FBE
:1004F0004D2E0A007267626C696768745F696E6985
:1005000074206565636F6E666967206973206E6F1E
:100510007420656E61626C65642E0A007267626C9D
:10052000696768745F696E6974207374617274219D
:100530000A007267626C696768745F696E6974202B
:1005400063616C6C65642E0A007267626C6967682F
:10055000745F636F6E6669672E7370656564203DB6
:100560002025640A007267626C696768745F636F54
:100570006E6669672E76616C203D2025640A0072E4
:1005800067626C696768745F636F6E6669672E7314
:100590006174203D2025640A007267626C69676897
:1005A000745F636F6E6669672E687565203D2025F0
:1005B000640A007267686C696768745F636F6E666F
:1005C00069672E6D6F6465203D2025640A0072679F
:1005D000626C696768745F636F6E6669672E656ECB
:1005E00061626C65203D2025640A007267626C6957
:1005F0006768745F636F6E66696720454550524F48
:100600004D3A0A006261636B6C69676874207374A9
:1006100065703A2025750A006261636B6C696768D2
:10062000742064697361626C650A006261636B6C5B
:100630006967687420656E61626C650A0062616357
:100640006B6C6967687420746F67676C653A202506
:10065000750A006261636B6C696768742064656326
:1006600072656173653A2025750A006261636B6C7F
:100670006967687420696E6372656173653A2025E5
:10068000750A0000010101010101010101020202DC
:10069000020202020202030303030303030304042E
:1006A00004040404040505050505060606060607F8
:1006B0000707070708080808090909090A0A0A0BB1
:1006C0000B0B0C0C0C0D0D0D0E0E0E0F0F0F101052
:1006D00011111112121313141415151616171718D9
:1006E0001819191A1A1B1B1C1D1D1E1E1F20202144
:1006F0002222232424252626272829292A2B2C2D8B
:100700002D2E2F30313232333435363738393A3BAB
:100710003C3D3E3F404142434445464748494A4CA0
:100720004D4E4F50515354555658595A5B5D5E5F6C
:10073000616264656668696B6C6D6F707273757702
:10074000787A7B7D7E8082838587888A8C8E8F9164
:10075000939596989A9C9EA0A2A3A5A7A9ABADAF8E
:10076000B1B3B5B7BABCBEC0C2C4C6C9CBCDCFD178
:10077000D4D6D8DBDDDFE2E4E7E9EBEEF0F3F5F821
:10078000FAFDFF0A002530325820006B6579626F50
:100790006172645F7265706F72743A20000A00259E
:1007A000303258006B6579626F6172645F73657493
:1007B0005F6C65643A20005B735D004B6579626F26
:1007C0006172642073746172742E0A005B575D005D
:1007D0005B535D005B525D005B445D005B435D000D
:1007E0000403300000001C0349007200690073001C
:1007F00020004B006500790062006F00610072000C
:10080000640000000E034B00650065006200690093
:100810006F0000000403090409025B00030100A04B
:10082000FA0904000001030101000921110100017E
:100830002240000705810308000A090401000103A2
:100840000000000921110100012232000705820386
:1008500020000A090402000203000000092111011E
:10086000000122220007058303200001070503037E
:10087000200001120110010000000810CB561200E8
:1008800004010203010631FF0974A1010975150075
:1008900026FF009520750881020976150026FF00C5
:1008A000952075089102C005010980A101850319F1
:1008B000012AB700150126B700950175108100C007
:1008C000050C0901A101850419012AA002150126C0
:1008D000A002950175108100C005010906A101055E
:1008E0000719E029E7150025019508750181029592
:1008F00001750881010507190029FF150026FF0071
:1009000095067508810005081901290595057501E9
:100910009102950175039101C00011241FBECFEF14
:10092000DAE0DEBFCDBF04B603FE27C08091D1025E
:100930009091D202A091D302B091D4028730904B13
:10094000A740B04BD1F41092D1021092D202109273
:10095000D3021092D40214BE84B7877F84BF0FB62F
:10096000F894A8958091600088618093600010924F
:1009700060000FBEE0E0F8E3099511E0A0E0B1E00F
:10098000E0E4F9E502C005900D92AC3BB107D9F760
:1009900022E0ACEBB1E001C01D92A13DB207E1F74E
:1009A0000E9479260C949E2C0C940000FF93EF93E8
:1009B000E091BC01F091BD01309709F00995EF91EC
:1009C000FF910895FC018591803011F0EFDFFBCF9E
:1009D0000895FF27E0E230E247FF0CC0419597FF02
:1009E00009C0EDE26095709580959095611D711D2F
:1009F000811D911D27FF02C0219530E350E2AA27F7
:100A0000660F771F881F991FAA1FA41710F0A41B39
:100A100063955A95A9F7AA3008F0A95FA05DAF9336
:100A2000F395611571058105910541F7ED3211F4DA
:100A3000EF93F395F21718F43F93F395FBCF8F9153
:100A4000B5DFFA95E1F70895E991F9918591803044
:100A500021F0853219F0AADFF9CF089520E0E8945B
:100A600055915532C1F3503311F4689455915A336E
:100A700048F4505390F3220F022E220F220F200D24
:100A8000250FF4CF0EF4219589919991533619F3DE
:100A9000533729F1533559F1BC0188279927E89438
:100AA0005C3621F48991999168945591543639F4C2
:100AB00046EF7EF077FF0DC08FEF9FEF0AC05537EE
:100AC0004AE039F0583540E121F0523642E009F071
:100AD0000895FF93EF937DDFEF91FF91B7CFFF93E1
:100AE000EF93FC0181918030B9F360DFFBCFFF937E
:100AF000EF9368DFF1CFDF93CF93CDB7DEB72596C5
:100B0000A3DFCF91DF91089581E0089581E00895FA
:100B10000C9486051F93CF93DF9300D000D01F92D3
:100B2000CDB7DEB749835A832091F80189819A8134
:100B3000211112C0662349F00E940721182F682F47
:100B400089819A810E94AA2003C00E94DA20182F6E
:100B500069817A81812F04C00E94072169817A818D
:100B60000F900F900F900F900F90DF91CF911F91EA
:100B70000C945406FC01408151816281738184810F
:100B80000C948A050E945222811102C00E94FB220D
:100B90000E9485110E94CF110C9485080E94311289
:100BA0000C94880808950C94D20581E008950C9463
:100BB000D505CF93C82F0E94D3058C2F0E94D7054F
:100BC000CF91089508950E94D01B0E94E2052FEF57
:100BD00084E39CE0215080409040E1F700C0000099
:100BE0000C9426240F931F93CF93DF93EC010E9464
:100BF000BA058C01BE010E948805882309F449C00A
:100C0000BE01C8010E944213882309F442C0BE01FC
:100C1000C8010E9483138823E1F1BE01C8010E942C
:100C2000AE148823B1F1BE01C8010E94710F882360
:100C300081F18A81882331F101308CE5180751F068
:100C40000E3D8CE51807D9F001151C45D9F40E941A
:100C5000E3051FC080916E02C82FC095C170C0FB14
:100C600080F980936E02CC2329F086E193E00E9404
:100C7000E2040FC084E093E00E94E2040BC00E94F3
:100C8000FB2207C0CE01DF91CF911F910F910C94F1
:100C90008405C0E08C2FDF91CF911F910F910895B3
:100CA00080E090E00895089596E0799FF001112486
:100CB0009CE3899FE00DF11D1124E60FF11DEE0F5D
:100CC000FF1FEC5DFE4F859194910895880F991F49
:100CD000FC01E95DFC4F859194910895CF93DF93DA
:100CE0000E9454060E94AD07EC01811522E592078F
:100CF00008F046C0811531E5930708F0FBC0883E37
:100D0000910500F5803E910508F023C1883A9105D0
:100D100070F4853A910508F0B1C08130910509F46D
:100D200018C108F414C1049708F013C110C18F3B17
:100D3000910508F4ABC0803C910508F408C1805CC3
:100D40009109AFC0811540E4940790F4C11580E388
:100D5000D80708F0AAC0C11521E0D20708F4F7C0EF
:100D6000C11530E2D30708F4F4C0CE019F7099C0DA
:100D7000811540E5940708F0A2C0DF70D06AE9C091
:100D8000C11589E5D807B8F5C11528E5D20708F0DF
:100D9000CAC0C11534E5D307D0F42C2F269526956B
:100DA000CE0183709927C115D34508F0A8C040E251
:100DB000249F90011124C1E0D0E002C0CC0FDD1FC0
:100DC0008A95E2F72C2B3D2BE901DC68C2C0C115E6
:100DD00085E5D80708F4A2C0C11526E5D20708F0BA
:100DE000B6C08C2F0E9441088F71C82FD0E0DC2F35
:100DF000CC27D062AEC0CD3B3CE5D30709F49EC002
:100E0000E0F4CB3B8CE5D80709F492C008F093C01E
:100E1000C1153AE5D30708F09AC08C2F8F700E9455
:100E2000410894E0D695C7959A95E1F7CF70D0E048
:100E3000DC2FCC27D069C82B8CC0C03C4CE5D40734
:100E400009F482C060F4CE3B2CE5D20709F479C0E6
:100E5000CF3BDC4509F07BC0C0E0D2ED7AC0CE01CB
:100E600090568115904208F072C08D2F8F710E94AC
:100E70004108DD27D0628F71D82B6BC0C55AD0E0F6
:100E8000CA59DE4FC881D0E0D06463C0C85AD0E0F0
:100E9000CC0FDD1FC85CDE4F0990D881C02DD46413
:100EA00058C00E946606EC0154C0CE019927D3FFBA
:100EB00003C0EC01D86C4DC0EC01D06C4AC083700B
:100EC00021E030E002C0220F331F8A95E2F73C6830
:100ED000CE0174E0969587957A95E1F78370382B6B
:100EE000CF70C695C69580E2C89FE0011124C22B41
:100EF000D32B2FC0D82FCC27C16FD06A2AC040E295
:100F0000249F90011124C1E0D0E002C0CC0FDD1F6E
:100F10008A95E2F7C22BD32BDA681BC0DC2FCC27D3
:100F2000C46FD06A16C0DC2FCC27C06FD06A11C046
:100F3000C0E0D4ED0EC0C0E0D5ED0BC0C0E0D1EDF7
:100F400008C0C0E0D0ED05C0C0E0D3ED02C0C0E0F5
:100F5000D0E0CE01DF91CF9108958238910569F1FB
:100F6000B0F48133910509F46DC048F489329105DC
:100F700009F463C08A32910509F469C00895853384
:100F8000910509F455C089339105B9F00895833E60
:100F9000910569F138F4803E9105B1F0823E9105EA
:100FA00009F10895863E9105A9F1873E9105B9F1B1
:100FB000843E910509F064C023C02091C20220FD47
:100FC0004FC021FD4DC008958091C20280FD44C0F4
:100FD0008091C30280FF44C08091C20284FD42C060
:100FE00083EE4DC08091C20282FF38C0F5CF809160
:100FF000C20282FD33C08091C30280FD31C0ECCFBC
:101000008091C30281FF32C08091C20284FD2AC058
:1010100087EE35C08091C20283FF26C0F5CF809154
:10102000C20283FD21C08091C30281FD1FC0ECCFAD
:101030008091C20285FD1CC01DC08091C20285FD49
:1010400019C016C08091C20286FD16C017C08091DB
:10105000C20286FD13C010C089E311C082EE0FC02A
:1010600080EE0DC080E00BC086EE09C084EE07C0A4
:1010700089E205C085E303C08AE201C081E390E014
:1010800008959091C20292FF0DC0282F2871283038
:1010900019F4877F846006C0282F2471243011F44E
:1010A0008B7F886093FF0DC0282F2871283119F499
:1010B000877E846106C0282F2471243111F48B7E31
:1010C00088612091C30220FF0DC0382F387138305D
:1010D00019F4877F816006C0382F3171313011F4E7
:1010E0008E7F886021FF0DC0282F2871283119F4C8
:1010F000877E816106C0282F2171213111F48E7EF7
:10110000886194FD877E089508950C94840808955D
:101110000C948708E82FF0E0E857FD4F8081089590
:10112000CF92DF92EF92FF920F931F93CF93DF93B3
:1011300086E393E00E94E20488E8E82E82E0F82E3D
:10114000C0E0D0E091E3C92E93E0D92E09E213E08C
:10115000DF93CF93DF92CF920E947B058EE293E0E4
:101160000E94E204F70181917F010E943C221F92BC
:101170008F931F930F930E947B0587E293E00E9459
:10118000E20421968DB79EB708960FB6F8949EBFDD
:101190000FBE8DBFCA30D105D9F6DF91CF911F9117
:1011A0000F91FF90EF90DF90CF90089580EA8A959D
:1011B000F1F708950895CF93DF93CDB7DEB7609729
:1011C0000FB6F894DEBF0FBECDBF0E94AC0A80916F
:1011D000100181112CC0FE0131968AE0DF011D92C1
:1011E0008A95E9F781E3898382E38A8382E98B83A5
:1011F00081EF8C8384EF8D83A6E0B1E08AE08E0FCF
:1012000091919D938E13FCCF86E0E2E3F1E0DE0145
:101210001B9601900D928A95E1F7A0E0B1E0FE01E6
:101220003B9686E08E0F91919D938E13FCCF80911B
:101230001001811102C095E001C090E090939302EB
:1012400085E0891B80939202A6E0B1E041E050E086
:1012500025E02A0F8D91E82FE295EF70F0E031A1A3
:101260008F70BA0102C0660F771F8A95E2F7CB0133
:10127000962F9095932391A392A1892B82A32A1351
:10128000E9CFA0E0B1E041E050E026E02A0F8D91E7
:10129000E82FE295EF70F0E031A18F70BA0102C043
:1012A000660F771F8A95E2F7CB01962F90959323CF
:1012B00091A392A1892B82A32A13E9CFA8E8B2E0D7
:1012C000EEE7F2E08AE08E0F11921D928E13FCCFB2
:1012D00085E00E94510A0E94C20560960FB6F894FC
:1012E000DEBF0FBECDBFDF91CF910C94C00A0E942C
:1012F0008F0A882321F18091920290E088579D4FB8
:101300000E94F00A811117C08091BE018F5F809307
:10131000BE01863090F02091920280E090E030E0B3
:10132000FC01E20FF31FE857FD4F10820196853054
:101330009105B1F702C01092BE010C94CE058091C8
:10134000930290E088579D4F0E941D0B0E9431121E
:101350000C94DA089F92AF92BF92CF92DF92EF92F5
:10136000FF920F931F93CF93DF9306E011E0CEE738
:10137000D2E0B12CEE24E394F12CAC2E45E0A40E87
:101380006E0198801882F8018081E82FE295EF7055
:10139000F0E021A18F70A70102C0440F551F8A956C
:1013A000E2F7CA01822B81A3F8019081E92FE2952F
:1013B000EF70F0E022A19F70A70102C0440F551FFB
:1013C0009A95E2F7CA018095822382A30E94D608EB
:1013D000E0E0F1E080E090E03191A32FA295AF70C2
:1013E000B0E090964C91688150E03F7002C05595F6
:1013F00047953A95E2F740FD07C02E2D082E01C013
:10140000220F0A94EAF701C020E0262B28830196D8
:101410008630910509F7F8018081E82FE295EF7099
:10142000F0E091A18F70A70101C0440F8A95EAF7FF
:101430004095492341A3F80181918F01E82FE2955E
:10144000EF70F0E022A18F70A70102C0440F551F7A
:101450008A95E2F7CA01822B82A3219681E0F601E8
:101460009081991201C080E0B82AAC1289CF6091B6
:10147000930270E068577D4F2B2D45E08EE792E098
:101480000E94520A0E9477098B2DDF91CF911F9104
:101490000F91FF90EF90DF90CF90BF90AF909F9013
:1014A00008950895FF920F931F93CF93DF938C01BC
:1014B000F62ED72FC42F222349F081E08093C1015B
:1014C0000E94CA239093C0018093BF018091C10103
:1014D0008823C1F08091BF019091C0010E94D62362
:1014E000069780F0EF2DFD2FD8014C2F50E0CD0155
:1014F000801B910B841795071CF48D918193F7CF76
:101500001092C101DF91CF911F910F91FF9008952B
:1015100055985D9889B185FB882780F90895809159
:10152000C201811112C08091D80080618093D800DF
:101530008AE18A95F1F700C08091D90080FD02C050
:1015400082E001C081E08093C20181E09091C201FC
:10155000913009F080E008950E94880A809310017C
:101560008091100166E0882311F080E001C086E0E0
:101570000E94D50B0E948F0A81110C94C70A08950E
:101580000E948F0A811102C00C94CD0A089562E076
:1015900070E081E191E00C943D1562E070E081E142
:1015A00091E00C9446150E942B0F882361F08CEC7F
:1015B00091E00E94310F81E090E00E942816892B73
:1015C00011F40C942E0F08958091CB01883039F4DA
:1015D00060E08CEC91E00E94440F1092CB010895E2
:1015E000CF93DF93D82FC92F0E94D30A80E090E0D9
:1015F0000E942816892BE9F4ED2FFC2F80E090E063
:10160000DC01AB53BE4F2C9121930196853091059F
:10161000B9F70E94C70F882319F00E94CB0F01C0B1
:1016200080E08093C4018AEC91E00E94A21281E0E4
:1016300001C080E0DF91CF910895CF93DF9300D078
:10164000CDB7DEB789839A830E94E40A8981E82FA7
:101650009A81F92F80E090E02191DC01AB53BE4FDD
:101660002C93019685309105B9F78091C4010E94B1
:1016700028118AEC91E00F900F90DF91CF910C949C
:101680009912AF92BF92CF92DF92FF920F931F9366
:10169000CF93DF93D62E372FE82FF0E0711106C0DD
:1016A000ED57F94F6491762F862F75C0C72FD0E084
:1016B000ED57F94F2491F22E022F10E046E0649F7F
:1016C000C0011124EFEFF0E0BF010E94002CAB013C
:1016D0006BEA6403C001659F900D11248D0D911D6F
:1016E0008D0D911D982F990F890FDF01AC1BBD0B3C
:1016F0000A9FB0010B9F700D1A9F700D1124972F38
:10170000839FD0011124AB2FBB276F01CA1ADB0ABC
:101710000C9DD0010D9DB00D1C9DB00D11245F01DD
:10172000A81AB108AC9E6001AD9ED00CBC9ED00C36
:101730001124CD2DDD27EC1BFD0B0E9FE0010F9F2B
:10174000D00D1E9FD00D1124ED2F4230510591F088
:101750004CF441155105E1F041305105B9F4E22F47
:101760002B2F16C04430510569F044F04630510526
:1017700079F00CC0E22F272F9D2F0AC0272F9F2D15
:10178000EB2F06C0E72F922F2D2F02C0E72F9B2FA4
:101790006E2F722F892FDF91CF911F910F91FF90A4
:1017A000DF90CF90BF90AF9008958093D501609364
:1017B00022010895CF93DF93762FE901682F842FBC
:1017C0000E94410B798368838A83DF91CF910895CA
:1017D00080919402982F9695913021F081708260CB
:1017E00080939402089588E090E00C945E2CCF934F
:1017F000DF9300D000D0CDB7DEB7AB01BC01498389
:101800005A836B837C830E94E80B49815A816B81E8
:101810007C8188E090E00F900F900F900F90DF9107
:10182000CF910C947C2CE4E9F2E083E08083118278
:101830008FEF828383831482A7EDB1E012968C919F
:101840001297836012968C9360817181828193815B
:101850000C94F70B80916E0280FF08C08BEE95E030
:101860009F938F930E947B050F900F9080916E0243
:1018700080FF0FC08091940281701F928F938EEC35
:1018800095E09F938F930E947B050F900F900F9090
:101890000F9080916E0280FF0FC080919402869518
:1018A0001F928F9383EB95E09F938F930E947B050C
:1018B0000F900F900F900F9080916E0280FF0EC0DE
:1018C000809195021F928F9389E995E09F938F9362
:1018D0000E947B050F900F900F900F9080916E02E9
:1018E00080FF0EC0809196021F928F938FE795E044
:1018F0009F938F930E947B050F900F900F900F90F6
:1019000080916E0280FF0EC0809197021F928F938C
:1019100085E695E09F938F930E947B050F900F9033
:101920000F900F9080916E0280FF0EC08091980200
:101930001F928F9389E495E09F938F930E947B057C
:101940000F900F900F900F90089580919802833020
:1019500018F48F5F809398026091940270919502C1
:1019600080919602909197020C94F70B80919802C7
:10197000882319F0815080939802609194027091AD
:10198000950280919602909197020C94F70B6091CA
:10199000220170E08091940280FF0AC08091D501FD
:1019A00023E0829FC001112487569D4F0C94C911DA
:1019B0008091D40190912101891780F7E82FF0E000
:1019C0009F01220F331FE20FF31FE756FD4F1182D5
:1019D000108212828F5FF0CF809194028E7F80936D
:1019E0009402609194027091950280919602909178
:1019F00097020E94F70B80916E0280FF0FC08091CA
:101A0000940281701F928F938BEC93E09F938F933E
:101A10000E947B050F900F900F900F908091D9013D
:101A200081608093D9012FEF80E792E021508040C0
:101A30009040E1F700C000000C94C70C8091940224
:101A40008E7F8093940280916E0280FF0CC01F9263
:101A50001F9281E993E09F938F930E947B050F90E3
:101A60000F900F900F908091D90181608093D901E0
:101A70002FEF80E792E0215080409040E1F700C0D6
:101A800000000C94C70C9091940290FF16C09091A6
:101A9000D40120912101921770F4E92FF0E0DF01C9
:101AA000AA0FBB1FEA0FFB1FE756FD4F8183608320
:101AB00042839F5FF0CF0C94C70C0895EF92FF9282
:101AC0000F931F93CF93DF9300D01F92CDB7DEB754
:101AD0009091940290FF65C0E22EF42E062F182FED
:101AE000E92FE695F0E0E759FE4F80818093D7011A
:101AF0009E7F923059F49E012F5F3F4F812F0E94AD
:101B0000DA0B4B8169818A810E94430D8091950295
:101B1000811308C080919602801304C080919702BF
:101B20008F1529F08091D90182608093D90110939B
:101B3000950200939602F0929702EE20E9F06091F0
:101B400094027091950280919602909197020E9462
:101B5000F70B80916E0280FF24C0809197021F9244
:101B60008F93809196021F928F93809195021F927E
:101B70008F938CE693E00CC080916E0280FF11C0C1
:101B80001F92FF921F920F931F921F9385E493E081
:101B90009F938F930E947B050FB6F894DEBF0FBE14
:101BA000CDBF0F900F900F90DF91CF911F910F91AC
:101BB000FF90EF900895E4E9F2E09181282F4381AE
:101BC000628188E0890F0C945E0D81E00C94DB0D3E
:101BD000E4E9F2E09181282F4381628188EF890F47
:101BE0000C945E0D81E00C94E80DE4E9F2E0628172
:101BF00021E1620F08F46FEF282F438181810C945B
:101C00005E0D81E00C94F50DE4E9F2E0628121E1E2
:101C1000621B08F460E0282F438181810C945E0DE3
:101C200081E00C94040EE4E9F2E0438121E1420FEB
:101C300008F44FEF282F628181810C945E0D81E0C2
:101C40000C94130EE4E9F2E0438121E1421B08F415
:101C500040E0282F628181810C945E0D81E00C941C
:101C6000220E20E00C945E0D8091940280FF3AC019
:101C700081708260809394028091D9018160809309
:101C8000D9016623B1F06091940270919502809120
:101C90009602909197020E94F70B80916E0280FF4E
:101CA00019C08091940286951F928F938FE894E0DB
:101CB00009C080916E0280FF0DC01F9281E08F935A
:101CC00081E794E09F938F930E947B050F900F9084
:101CD0000F900F904091970260919602809195022B
:101CE0000C94310E0895682F81E00C94340E81E03D
:101CF0000C94730E682F9091940296958FEF890F34
:101D000009F481E00C94340E81E00C947A0E61E0C9
:101D10000C94340E8091940281608093940280919F
:101D20006E0280FF0DC01F9281E08F9383E094E0EC
:101D30009F938F930E947B050F900F900F900F90B1
:101D40008091940286950C94870E80916E0280FF9C
:101D500010C080919402809581701F928F938AE3C6
:101D600094E09F938F930E947B050F900F900F90AC
:101D70000F908091940280FD0C94EC0C0C948A0ED0
:101D800060E00C94340E8091D601811163C0809183
:101D90006E0280FF08C082E395E09F938F930E94BC
:101DA0007B050F900F9080916E0280FF08C08CE140
:101DB00095E09F938F930E947B050F900F900E9458
:101DC0005222811110C080916E0280FF08C084EF02
:101DD00094E09F938F930E947B050F900F900E9439
:101DE000FB220E94130C0E94F30B609394027093E9
:101DF000950280939602909397028091D901836017
:101E00008093D9016E7FC1F480916E0280FF08C07B
:101E10008BEA94E09F938F930E947B050F900F9025
:101E20000E94130C0E94F30B60939402709395022E
:101E300080939602909397020E94E80B0E942A0CCE
:101E40008091940280FF03C086950E94C00E81E0BD
:101E50008093D60108958091D90108951092D901F7
:101E6000089525E0E4E9F2E0DC0101900D922A9565
:101E7000E1F72091D7013091D8014091D901FC01BF
:101E800025833683478308951F93CF93DF93EC0117
:101E9000162F8F8180FF0FC0888180FF0AC080913C
:101EA0009402816080939402888186950E94340E0A
:101EB00002C00E941E0D8F8181FF09C0212F4B811E
:101EC0006A818981DF91CF911F910C945E0DDF9122
:101ED000CF911F910895882311F0FA0101C0FB01F1
:101EE00009941F93CF93DF93FB01128111114AC014
:101EF000EC010E9487218272FE01E25CFC45E43124
:101F0000F10520F4EA5AFF4F0C94362C11E03AC048
:101F10000E94A50E37C044E85EE067E77EE004C09B
:101F200047E75EE064E87EE00E946B0F2BC042EF63
:101F30005DE065EE7DE0F8CF45EE5DE062EF7DE0CF
:101F4000F3CF40E15EE061E07EE0EECF41E05EE0B5
:101F500060E17EE0E9CF4EE25EE06FE17EE0E4CF5B
:101F60004FE15EE06EE27EE0DFCF46EB5CE065EAEB
:101F70007CE0DACF45EA5CE066EB7CE0D5CF81E03F
:101F80000E94870E812FDF91CF911F91089580913C
:101F9000BD02817008958091BD02869586958695D3
:101FA00008950E945222811102C00E94FB220E94C9
:101FB00083228093BD02282F26952695269530E012
:101FC0002630310524F0877088628093BD028091AD
:101FD000BD0280FF04C086958695869501C080E08D
:101FE0000C9428112091BD02822F869586958695A6
:101FF000482F50E04530510554F48F5F982F990FCA
:10200000990F990F822F8770892B8093BD02809141
:10201000BD0281608093BD020E94872280916E0282
:1020200080FF11C08091BD028695869586951F928E
:102030008F938BE696E09F938F930E947B050F9082
:102040000F900F900F908091BD0286958695869592
:102050000C9428118091BD02982F9695969596958F
:10206000A1F0915E990F990F990F8770892B80933A
:10207000BD02887F91E009F490E08091BD0290FB61
:1020800080F98093BD020E94872280916E0280FFBA
:1020900011C08091BD028695869586951F928F937B
:1020A00083E596E09F938F930E947B050F900F909E
:1020B0000F900F908091BD028695869586950C9421
:1020C00028118091BD0280FD1FC081608093BD02F8
:1020D000813019F489E08093BD028091BD020E9495
:1020E000872280916E0280FF08C08BE296E09F936A
:1020F0008F930E947B050F900F908091BD02869573
:10210000869586950C94281108958091BD0280FFD4
:1021100014C08E7F8093BD020E94872280916E0240
:1021200080FF08C088E196E09F938F930E947B0513
:102130000F900F9080E00C9428110895CF93C091D8
:10214000BD02C17080916E0280FF0CC01F92CF93C0
:102150008DE396E09F938F930E947B050F900F90E5
:102160000F900F90CC2319F0CF910C948510CF9144
:102170000C9461109091BD02892F86958695869565
:102180008F5F8F719770863038F4880F880F880FB3
:10219000892B8093BD0202C09093BD028091BD0245
:1021A000887F91E009F490E08091BD0290FB80F976
:1021B0008093BD020E94872280916E0280FF11C031
:1021C0008091BD028695869586951F928F9384E0B7
:1021D00096E09F938F930E947B050F900F900F9036
:1021E0000F908091BD028695869586950C94281156
:1021F000863008F085E09091BD029770282F220F5D
:10220000220F220F922B9093BD02987F21E009F4B8
:1022100020E09091BD0220FB90F99093BD020C94B8
:1022200028110E94F8108091BD020C948722E82F9B
:10223000E295EF70F0E032A1282F2F7081E090E05E
:1022400001C0880F2A95EAF78095832382A3089519
:10225000CF92DF92EF92FF92863030F4811105C069
:10226000909180009F7704C085E0909180009068F5
:1022700090938000282F30E0AFEFBFEF0E943C2CFE
:1022800025E030E040E050E00E94142C2C3784E13F
:1022900038074105510530F4C90169E070E00E943A
:1022A000002C29C0DA01C9018A50974DAF4FBF4FAA
:1022B0006627782F892F9A2F25EF38E241E050E0EA
:1022C0000E94142C69017A01CA01B9010E94E42B11
:1022D0009B01AC01C701B6010E94E42BBB27A92FCB
:1022E000982F872F009721E0A207B10511F0BC01BC
:1022F00002C06FEF7FEF7093890060938800FF90BA
:10230000EF90DF90CF9008950895259A85E30E947D
:10231000171182E88093800089E1809381008FEF1C
:102320009FEF90938700809386000C94D10F2BB180
:10233000342F309523233BB1432B3FB7F894FC0156
:10234000680F791FE617F70789F0819198E04BB97C
:10235000000000C087FF2BB9880F000000C000C03C
:1023600000C02BB900C09A9591F7ECCF3FBF0895FC
:102370002AB1242B2AB99B01220F331F620F731F2E
:102380000E94971187EC90E00197F1F700C00000E0
:10239000089540E40C94B81108950C94CC118091E8
:1023A0001001882309F448C020912401A22FA2958E
:1023B000AF70B0E091966C9191972F7081E090E0B2
:1023C000AC01022E01C0440F0A94EAF7342F309575
:1023D000362391963C93919792963C919297432BFA
:1023E00092964C93929740912301E42FE295EF70DF
:1023F000F0E031A14F70042E01C0880F0A94EAF773
:10240000982F9095932391A392A1892B82A39096C4
:102410008C9190E002C0959587952A95E2F781709E
:10242000992720A130E002C0359527954A95E2F71B
:1024300020FD09C020E008C087EF8093240186EFCB
:1024400080932301B1CF22E0822B8093DF01909112
:10245000100181E098279093DB01891B8093DA01BA
:102460000895CF93E091DF015E2F550F550F209116
:102470002401E22FE295EF70F0E080A190E02F7050
:1024800002C0959587952A95E2F78170992740912A
:102490002301E42FE295EF70F0E020A130E04F70CF
:1024A00002C0359527954A95E2F7F901E170FF27BB
:1024B00020FF02C0E2E0F0E0E82BF92BE52BE093EF
:1024C000DF01C091DB01EF70F0E0E559FE4F908134
:1024D0008091DE01890F8093DE0184306CF0EC2F57
:1024E0000C2E000CFF0BE452FE4F80818F5F808327
:1024F00061E08C2F0E94CD118091DE018D3F6CF444
:10250000EC2F0C2E000CFF0BE452FE4F808181500B
:10251000808360E08C2F0E94CD118091DE01837852
:1025200087FF03C081508C6F8F5F8093DE01CF9156
:102530000895E091DB01F0E0E452FE4F2081FC01C0
:1025400020830895FF920F931F93CF93DF93D09131
:10255000DA010D2F10E004521E4FFC01C081F8017A
:102560008081C81BFC2E1F1454F4FA94F80180815A
:102570008F5F808361E08D2F0E94CD11F4CF8C2F6F
:10258000C7FD80E0C81BCC2351F0CF5FF8018081EC
:102590008150808360E08D2F0E94CD11F4CFDF91B8
:1025A000CF911F910F91FF9008950F931F93CF9399
:1025B000DF93C62FD42F022FFC0182818823C9F01C
:1025C0006093E2010E94CA239093E1018093E001AD
:1025D00080E28C0F883008F050C0C77081E001C0E5
:1025E000880FCA95EAF7DF91CF911F910F910C9454
:1025F00040191091E201161330C08091E0019091D2
:10260000E1010E94D623883C910538F5C0E2CD0F48
:102610001D17B9F080E2810F883040F4177081E017
:1026200001C0880F1A95EAF70E944719C83048F48C
:1026300081E09D2F977001C0880F9A95EAF70E945C
:102640004019802F0E942D19C830B8F4D77081E04E
:1026500001C0880FDA95EAF70AC080E28C0F883053
:1026600060F4C77081E001C0880FCA95EAF7DF9176
:10267000CF911F910F910C944719DF91CF911F912A
:102680000F9108959C01CB01233F4CE53407F9F0ED
:1026900078F4283DFCE53F07B9F0293D4CE53407C7
:1026A00011F1273D3C4531F526E241EE61EE1EC0B9
:1026B000253FFCE53F0799F070F0263F3C45D1F4FB
:1026C00027E245EE66EE12C027E245EE0EC026E296
:1026D00041EE60EE0BC027E245EE64EE07C026E255
:1026E00041EE62EE03C028E241E065EE0E94D512A1
:1026F00080E00895FC018281882319F01092E201A4
:10270000089581E00895CF93DF93EC01FB0182816E
:10271000882309F41FC1C230FCE5DF0708F41BC1A0
:10272000C6319CE5D90738F09E012A5F3C45293027
:10273000310508F010C10E9465229093C302809376
:10274000C202C031ECE5DE0709F4C3C008F041C0A5
:10275000C8308CE5D80709F49AC0F0F4C430ECE531
:10276000DE0709F487C068F4C2308CE5D80709F4A5
:1027700077C0C330DC4509F0E3C08091C2028260BB
:1027800076C0C630ECE5DE0709F46EC008F07BC009
:102790008091C20288606BC0CC308CE5D80709F408
:1027A00085C068F4CA30ECE5DE0709F474C008F0AF
:1027B00079C00E94D01B8091C202806858C0CE3080
:1027C0008CE5D80709F476C008F07FC08091C2027A
:1027D0008BC0CB3FECE5DE0709F44FC018F5C331E1
:1027E0008CE5D80709F47DC078F4C131ECE5DE074B
:1027F00009F473C0C231DC4509F0A2C00E94D01BAD
:102800008091C2028F7733C0C5318CE5D80709F4B7
:1028100072C008F486C0CA3FDC4509F091C08091BF
:10282000C3023EC0CF3FFCE5DF0709F45FC058F4A8
:10283000CD3F9CE5D90709F444C008F43FC080911E
:10284000C30282602DC0C130FDE5DF0709F475C009
:1028500008F45DC0C230DD4509F072C080E06EC092
:102860008091C202816003C08091C2028061809326
:10287000C20266C08091C20211C08091C302826010
:102880008093C3025DC08091C2028062F0CF8091CC
:10289000C2028064ECCF8091C20288608460E7CF7E
:1028A0008160EECF8091C2028E7FE1CF8091C20223
:1028B0008D7FDDCF8091C202877FD9CF8091C30207
:1028C00018C08091C3028D7FDBCF8091C2028F7EC2
:1028D000CECF8091C2028F7DCACF8091C2028F7B02
:1028E000C6CF8091C202877F8B7FC1CF8091C30208
:1028F0008D7F8E7FC5CF8091C20282FB222720F977
:1029000091E0922790FB82F990FB83F9B0CF809100
:10291000C302982F909591708E7F892B90FB81F93F
:10292000AFCF0E94D01B8091C20287FB222720F9E3
:1029300091E0922790FB87F99ACF81E00E94FD22D7
:102940008091C2029091C3020E9476220E94D01B05
:1029500080E001C081E0DF91CF910895CF93DF93B4
:1029600086319C4541F5EB010E948721282F8A8101
:102970004091250150912601882379F02A7A91E02F
:1029800009F490E09093E301911102C069E201C063
:1029900065E3CA010E9434230AC08091E3018111DA
:1029A00002C069E201C065E3CA010E9436230E94A9
:1029B000D32180E001C081E0DF91CF9108958EE1C5
:1029C000489B02C08150E1F7489BFECF089558987C
:1029D00080E28A95F1F7589A0895FC013AE03A9519
:1029E000F1F720E090E080E031E0961779F040E1E7
:1029F0004A95F1F7880F489B02C08160232700C0E9
:102A0000000040E14A95F1F79F5FEFCF90E19A9582
:102A1000F1F799B100C0000030E13A95F1F79170FB
:102A200092272081920F90830895EF92FF920F9347
:102A30001F93CF93DF931F92CDB7DEB7F62E198287
:102A4000E82E8C01802F8E198F1558F40E94DF1408
:102A500068E0CE0101960E94ED14F80181938F0188
:102A6000F1CF81E09981911180E00F90DF91CF91BA
:102A70001F910F91FF90EF9008959093E60180933E
:102A8000E5016093E401509A589A08959093E60105
:102A90008093E5016093E4015098589AE89AE9E63A
:102AA000F0E080818C7F80830895615091E001C0C7
:102AB000990F6A95EAF720E031E0992361F0492FF8
:102AC000482319F0589A232701C0589840E24A95A4
:102AD000F1F79695F2CF222311F0589A01C0589839
:102AE00080E28A95F1F758980895EF92FF920F933C
:102AF0001F93CF93DF931F92CDB7DEB7162F082F0A
:102B00007C018E2D801B811758F4F70181917F0184
:102B100089830E94E71468E089810E945515F1CFEE
:102B20000F90DF91CF911F910F91FF90EF9008953B
:102B30001F920F920FB60F9211240F931F932F9392
:102B40003F934F935F936F937F938F939F93AF9335
:102B5000BF93EF93FF93CF93DF931F92CDB7DEB771
:102B600019820E94DF1467E0CE0101960E94ED14E5
:102B7000382F369536953695932F96959570232F49
:102B80002570920F292F2370969596958770920F36
:102B9000891348C08981811145C08091E401831760
:102BA00008F440C080E18A95F1F7589A509AA2E063
:102BB000AA95F1F700C00091E5011091E601B8E097
:102BC0003B9F000D111D11245898F8016581662363
:102BD00021F0868197810E9475150E94E714F0E12B
:102BE000FA95F1F758985098589A80E18A95F1F73C
:102BF000D80112966C911297662369F013968D9105
:102C00009C9114970E941515D801ED91FC918111AA
:102C100005C082E004C0D801ED91FC9188E080837A
:102C20000E94DF140F90DF91CF91FF91EF91BF9140
:102C3000AF919F918F917F916F915F914F913F9154
:102C40002F911F910F910F900FBE0F901F9018950D
:102C50000F931F93CF93DF932091E40130E0281767
:102C600039070CF471C09C0193E0220F331F9A9531
:102C7000E1F7C091E501D091E601C20FD31FF894AE
:102C8000509A589845E04A95F1F70000982F96958C
:102C900095708570890F982F937086958695890F0A
:102CA0008901082B0E94E71484E08A95F1F700C09F
:102CB00067E0802F0E94551540E14A95F1F7509842
:102CC000589A489902C000C0FCCF87E090E0489B2A
:102CD0000EC0019751F4509A589AE881F98181E029
:102CE0008083789481E090E031C000C0F0CF6D81A6
:102CF000662381F08E819F810E94151581110AC083
:102D0000509A589AE881F98182E08083789482E031
:102D100090E01CC00E94DF1480E28A95F1F7589879
:102D2000509A40E14A95F1F76A81662321F08B8140
:102D30009C810E9475150E94E714E881F981108238
:102D4000789480E090E002C084E090E0DF91CF9141
:102D50001F910F9108959093EC018093EB010895DA
:102D6000E091EB01F091EC01309721F00190F081BE
:102D7000E02D099480E00895EF92FF920F931F9346
:102D8000CF93DF93E091EB01F091EC013097B1F13B
:102D90008C010280F381E02D099580916E0282FF03
:102DA0002DC080FF04C08BE897E00E94E204E80198
:102DB00018E085E8E82E87E0F82E80916E0280FF0B
:102DC0000BC088811F928F93FF92EF920E947B0528
:102DD0000F900F900F900F90115021961111EDCF81
:102DE00080916E0280FF0AC083E897E0DF91CF9167
:102DF0001F910F91FF90EF900C94E204DF91CF911F
:102E00001F910F91FF90EF9008952091E90130916B
:102E1000EA018217930771F09093EA018093E90128
:102E2000E091EB01F091EC01309721F00680F78101
:102E3000E02D099408952091E7013091E80182176F
:102E4000930771F09093E8018093E701E091EB0123
:102E5000F091EC01309721F00084F185E02D099488
:102E6000089585B7806885BF85B7806885BF089558
:102E7000089508950C94391708950C943C170E94F6
:102E800031170E9438170C943A170E94C1230E94F0
:102E9000DB080E944A240E94D10F0E94C30E0C94AA
:102EA0003D17CF93C82F80916E0282FF1EC080FF16
:102EB00004C084EA97E00E94E20480916E0280FFE1
:102EC0000CC01F92CF938FE997E09F938F930E943E
:102ED0007B050F900F900F900F9080916E0280FFF6
:102EE00004C08DE997E00E94E2048C2FCF910C94EE
:102EF000D905BF92CF92DF92EF92FF920F931F936B
:102F0000CF93DF93CDB7DEB72B970FB6F894DEBF24
:102F10000FBECDBF0E94AA090E948F0A811111C065
:102F20008FEF89838A831B820E94CA238160782F56
:102F30009D838C8349815A816B818D810E941018F9
:102F400042C08EEEC82E81E0D82E00E010E0B02EF8
:102F5000802F0E948A08F601E1906F01E82631F483
:102F60000F5F1F4F0A30110591F7DACF90916E0273
:102F700091FF04C08B870E9490088B8590E0FF240E
:102F8000F3942F2D2E21D1F09E83BF828F2191E0CB
:102F900009F490E098870E94CA238160782F9A876D
:102FA00089874E815F8168858A850E941018F801A3
:102FB000E251FE4F8081F826F08205C09F5FFF0C32
:102FC0009630F9F6CDCF0E9484111091ED010E9448
:102FD000B0161817A9F00E94B0168093ED012B9639
:102FE0000FB6F894DEBF0FBECDBFDF91CF911F911A
:102FF0000F91FF90EF90DF90CF90BF900C945117FE
:103000002B960FB6F894DEBF0FBECDBFDF91CF91E8
:103010001F910F91FF90EF90DF90CF90BF90089598
:10302000CF93DF93CDB7DEB72B970FB6F894DEBF03
:103030000FBECDBF4F83588769877A878B87DE01A4
:10304000119686E0FD0111928A95E9F785E0FE016F
:10305000379601900D928A95E1F749815A816B81EB
:103060007C818D819E810E947A1E2B960FB6F894EA
:10307000DEBF0FBECDBFDF91CF910895FC018081EF
:1030800091810E9448210895882309F486C0682F01
:103090008238C1F40E94B01681FD7FC069E380913F
:1030A0002501909126010E9434230E94D3212FEF05
:1030B00081EE94E0215080409040E1F700C0000094
:1030C00069E319C08338F9F40E94B01680FD65C029
:1030D00063E580912501909126010E9434230E948E
:1030E000D3212FEF81EE94E0215080409040E1F712
:1030F00000C0000063E580912501909126010E94A7
:1031000036230C94D3218438C1F40E94B01682FD7A
:1031100044C067E480912501909126010E943423E8
:103120000E94D3212FEF81EE94E021508040904007
:10313000E1F700C0000067E4DECF8CEF860F813A34
:1031400038F480912501909126010E943423D9CF33
:1031500080E2860F883048F4677081E001C0880FF4
:103160006A95EAF70E948A21CCCFEBE5E60FE330BF
:1031700038F4F0E0E755FE4F808190E00C9405179D
:10318000685A673150F4E62FF0E0EE0FFF1FE55864
:10319000FE4F808191810C941B170895882309F4B8
:1031A0005BC0682F823879F40E94B01681FF54C04A
:1031B00069E380912501909126010E9434230E94A9
:1031C000D32169E310C08338B1F40E94B01680FFA8
:1031D00043C063E580912501909126010E9434232C
:1031E0000E94D32163E580912501909126010E94E0
:1031F00036230C94D321843879F40E94B01682FFD0
:103200002BC067E480912501909126010E94342310
:103210000E94D32167E4E7CF8CEF860F813A18F341
:1032200080E2860F883048F4677081E001C0880F23
:103230006A95EAF70E949021DCCF8BE5860F8330F8
:1032400020F480E090E00C940517685A673120F470
:1032500080E090E00C941B170895CF93C82F0E9434
:103260004418C93349F42FEF87EE93E02150804092
:103270009040E1F700C000008C2FCF910C94CE1845
:10328000882321F00E948A210C94D3210895882359
:1032900021F00E9490210C94D3210895BF92CF92E7
:1032A000DF92EF92FF920F931F93CF93DF937C01F6
:1032B000062FC72FFC01158112951F70D281D111E5
:1032C0000E94A7210E948021882379F0DD2369F0E4
:1032D00080E2800F883048F082E00E941E220E9427
:1032E000802191E0B82EB92601C0B12CCC2EC29419
:1032F0008FE0C822D12CF601E659FF4F0C94362CF2
:103300008C2F807FCF70882311F0C295C07FDD2382
:1033100099F0CC2309F48DC180E2800F883010F041
:10332000011104C08C2F0E948A2103C08C2F0E949F
:103330009A210E94D3217DC1802F0E94CE18CC23D8
:1033400009F4C0C180E2800F883010F0011104C080
:103350008C2F0E94902103C08C2F0E94A0210E94DC
:10336000D321B0C18C2F807FCF70803211F0C295F5
:10337000C07F002319F00130C9F022C0DD2371F0B5
:10338000112341F0113031F40E94BA218C2B0E949C
:10339000C02198C10E94BA218C2B1DC0112319F0A5
:1033A000113009F48FC10E94C92125C0DD2321F00D
:1033B000163008F087C10EC0153008F083C11BC05D
:1033C000DD2361F0112331F0F701858180FF31C1E8
:1033D0008F7085838C2F0E94401974C1112359F07E
:1033E000093309F037C1FFEF27EE83E0F1502040A9
:1033F0008040E1F72DC18C2F0E94471963C18C2FAB
:1034000086958695837090E0009719F0019761F09A
:1034100059C1DD2321F0802F9C2F937002C080E0E2
:1034200090E00E94051759C1DD2321F0802F9C2FC9
:10343000937002C080E090E00E941B174EC18C2F59
:10344000837009F049C0D11144C1402F429546957F
:103450004770440F440F602F6F70862F90E0A0E0FC
:10346000B0E0042E04C0880F991FAA1FBB1F0A9446
:10347000D2F704FF10C00FE010E020E030E004C0FD
:10348000000F111F221F331F4A95D2F70095109588
:103490002095309503C000E010E09801C695C695D0
:1034A000C370D0E0BC01CD01602B712B822B932B1C
:1034B000C230D10559F0C330D10559F0219719F028
:1034C0000E94BF1F06C10E94AD1F03C10E94D11FF1
:1034D00000C10E94AB1FFDC0DD2319F08C2F81704D
:1034E00001C08695882309F4F4C0402F4295469583
:1034F0004770440F440F602F6F70862F90E0A0E05C
:10350000B0E0042E04C0880F991FAA1FBB1F0A94A5
:10351000D2F704FF10C00FE010E020E030E004C05C
:10352000000F111F221F331F4A95D2F700951095E7
:103530002095309503C000E010E09801C695C6952F
:10354000C370D0E0BC01CD01602B712B822B932B7B
:10355000C230D10559F0C330D10559F0219719F087
:103560000E948520B6C00E947320B3C00E9497209D
:10357000B0C00E94E61FADC0CF70DD2339F08C2FA4
:103580000E940C20802F0E944019A3C0802F0E940F
:1035900047198C2F0E942D209CC0023F01F128F476
:1035A000003F41F0013FA1F040C0033FF9F0043F6C
:1035B00039F13BC0DD2341F0153008F083C08C2F7A
:1035C0008F710E9452207EC0163008F07BC0F7CF6A
:1035D000DD2339F08C2F8F710E940C2073C0DD2306
:1035E000C9F38C2F8F710E942D206CC0DD2329F030
:1035F0008C2F8F710E94F71F65C00E94F21F62C05E
:10360000DD2349F0CF718C2F0E940C2063E08C2FBA
:103610000E94092257C081E00E941E22123008F445
:1036200051C082E00E941E224DC0DD2331F01123E3
:1036300089F2802F0E94441845C0112391F209336A
:1036400049F49FEFE7EEF3E09150E040F040E1F7FE
:1036500000C00000802F0E94CE1834C04C2F4F7045
:10366000602FC7010E9450060E941E1F36C0D11154
:1036700034C0CF70D0E0C230D10599F03CF420972F
:1036800069F02197F9F40E942A1027C0C430D105AF
:1036900071F054F02597B1F480E00AC00E94F20F57
:1036A0001CC00E949E1019C00E94BA1016C085E06E
:1036B0000E94111112C04C2F4F70602FC7010E9441
:1036C00053060BC028E0C21AD10884E0C816D10402
:1036D00020F40E94B0160E94D905BB20D1F00E94B0
:1036E0007C2180FD16C0F70112820E9476210E9483
:1036F0000C20C7010E94931B0E947621DF91CF917D
:103700001F910F91FF90EF90DF90CF90BF900C949E
:103710002D20DF91CF911F910F91FF90EF90DF90BF
:10372000CF90BF9008950F931F93CF93DF93EC0139
:10373000888199812B813C81232BB9F09F3F11F423
:103740008F3F99F0CE010E94F205882371F06881C5
:1037500079818A810E9453218C010E94A9200E94B4
:10376000AA1FB801CE010E944E19DF91CF911F917F
:103770000F9108950E94A7210E94B7210E94D32192
:1037800080E090E00E94051780E090E00C941B1709
:1037900080912501909126010E9438230C94BA1B38
:1037A0000E9497210C94C81BE92FE295EF70F0E07E
:1037B0003297EE30F105B0F4E658FF4F0C94362CFA
:1037C000803F91F018F4883E68F40EC0843F51F4B5
:1037D0000BC0883E48F0813F29F406C093FB882740
:1037E00080F9089580E0089581E008950E944821BD
:1037F0000E94D41B0895CF93DF9300D000D01F9276
:10380000CDB7DEB70F900F900F900F900F90DF9114
:10381000CF910895CF93DF9300D000D000D0CDB7E3
:10382000DEB726960FB6F894DEBF0FBECDBFDF9190
:10383000CF9108951F93CF93DF93C091F90116E0C4
:103840008091FA01C81799F0D0E01C9FF0011D9FEC
:10385000F00D1124E550FE4F40815181628173814A
:10386000848195810E940A1C2196C770E9CFDF915F
:10387000CF911F91089540912B0250912C0260919D
:103880002D0270912E0280912F02909130020C94A3
:103890000A1C8091300282958F7009F054C080918B
:1038A0002D02882309F44FC08091F901A091FA01FB
:1038B00060912B0270912C0240912E0250912F02A8
:1038C000B6E08A1709F43FC090E041155105C1F1F7
:1038D0007F3F11F46F3FA1F1B89FF001B99FF00D48
:1038E0001124E550FE4F218172132AC020816213FA
:1038F00027C02281211124C0238134812417350758
:1039000010F421503109241B350B283C3105C0F43B
:10391000209130022F7020612093300226E0289FF2
:10392000F001299FF00D1124E050FE4F80818F702F
:10393000806180838BE292E00E94931B0C941A1C9E
:1039400001968770BECF0895CF92DF92EF92FF92DB
:103950000F931F93CF93DF93CDB7DEB762970FB668
:10396000F894DEBF0FBECDBF8C0185E0F801DE010B
:103970001D9601900D928A95E1F7D8014C91119610
:103980005C91119712966C9112971396CD90DC90E2
:10399000149730912B0270912C0280912E029091FD
:1039A0002F02009709F46BC17F3F19F43F3F09F4E0
:1039B00066C1E0902D02EE2009F4C0C020913002D3
:1039C000C816D90628F0F601E81BF90BCF0104C090
:1039D000809590958C0D9D1DFF24F394883C910556
:1039E00078F0F12C207F09F0C6C07C2DD98AC88AD6
:1039F00089890E94FB1B8BE292E00E94931BB1C05D
:103A0000822F807F09F046C0751314C0341312C092
:103A1000611110C02F702061209330020E943B1C66
:103A20008BE292E00E94931B80913002D8011596A0
:103A30008C932EC0CD2819F15F3F11F44F3FF9F060
:103A4000F62E61111CC08091F9012091FA0136E037
:103A5000821709F45AC090E0389FF001399FF00DA9
:103A60001124E550FE4F7181571306C07081471332
:103A700003C07281711103C001968770E9CFF62EE1
:103A8000662309F427C1809130028160809330025F
:103A9000F12C20C1751308C0341306C0611104C095
:103AA00080913002D801C3C04D875E878D859E8589
:103AB0006A8B0E94F61B6A898823E1F16623D1F1A3
:103AC00020913002822F82958F7090E0029774F0DF
:103AD00080912B0290912C0298878F831986DB8628
:103AE000CA862C87CE0107960E94931B86E0F801B8
:103AF000ABE2B2E001900D928A95E1F70E94491C79
:103B00000E943B1CFF24F394E5C04D875E878D85A2
:103B10009E850E944821292F22952F7030E0223067
:103B200031050CF0CBC09F7009F0C5C0805E8830B5
:103B300008F4D0C0C8010E94931BE4CFC816D90670
:103B400008F453C0F601E81BF90BCF01883C91053E
:103B500008F450C0F12C7C2DD98AC88A89890E942A
:103B6000FB1BEBE2F2E086E0DF011D928A95E9F7AC
:103B70000E943B1CAFC0751314C0341312C06111F6
:103B800010C080913002F8018583C8010E94931B08
:103B900086E0EBE2F2E0DF011D928A95E9F7FE2C68
:103BA00099C04D875E878D859E856A8B0E94F61B26
:103BB0006A89882309F4BECF662309F4BBCF20911C
:103BC0003002822F82958F7090E002970CF48ECF96
:103BD00080912B0290912C029A8389831B82DD8233
:103BE000CC822E83CE0101967FCF809590958C0D4F
:103BF0009D1DACCFF62E662309F49CCF75132EC005
:103C000034132CC02091300220FD1FC0822F8295DA
:103C10008F70D9F0D80115962C9315978F3049F0F5
:103C20008F5F982F9295907F822F8F70892B15969A
:103C30008C93C8010E94931B86E0F801ABE2B2E0CE
:103C400001900D928A95E1F793CF86E0F801ABE2FF
:103C5000B2E001900D928A95E1F73CC04D875E87F6
:103C60008D859E850E94F61B811140CF8091300288
:103C7000816080933002C8010E94931B2BC0662391
:103C800009F458CF4D875E878D859E850E94F61B6F
:103C9000F82E882309F44ECF86E0F801ABE2B2E0BB
:103CA00001900D928A95E1F78BE292E00E943E1816
:103CB0000E94491C5DCF811139CF0CC024303105E1
:103CC0000CF038CF9F7009F431CFF8019581907FC7
:103CD00009F02CCF8F2D62960FB6F894DEBF0FBE81
:103CE000CDBFDF91CF911F910F91FF90EF90DF90AB
:103CF000CF9008951F93CF93DF93CDB7DEB72C9766
:103D00000FB6F894DEBF0FBECDBF4F8358876987CB
:103D10007A878B879C87CE0107960E94A41C8823F4
:103D200069F08F8198852A853B85232BF1F19F3F90
:103D300009F063C08F3F09F060C037C086E0FE0124
:103D40003796DE01119601900D928A95E1F76F8109
:103D50007885EA85FB85309741F17F3F11F46F3F0D
:103D600021F12091FA0130E0C9010196877099276D
:103D70004091F90150E08417950709F447C0698321
:103D80007A83FD83EC8396E0929FD001939FB00DE0
:103D90001124A550BE4FFE01319601900D929A95C7
:103DA000E1F78093FA010E941A1C16E08091F90154
:103DB0009091FA018917C1F1189FC0011124855013
:103DC0009E4F0E94A41C882379F1E091F9011E9F67
:103DD000F0011124E550FE4F4081518162817381D1
:103DE000848195810E940A1C8091F90190E00196DE
:103DF000877099278093F901D9CF4F8158856985BC
:103E00007A858B859C850E940A1CCFCF0E94D01B8F
:103E10001092FA011092F901EBE2F2E086E0DF0184
:103E20001D928A95E9F7C1CF2C960FB6F894DEBFA4
:103E30000FBECDBFDF91CF911F910895EF92FF92FA
:103E40000F931F93CF93DF938C01892B09F46CC0E0
:103E5000F12CEE24E394E8012196F8018491843753
:103E600040F4843008F051C0813081F0823019F183
:103E70005BC0853709F444C0A8F19CE7980F9037E0
:103E800008F052C08F770E94CE1841C00E5F1F4FBE
:103E9000FE01C49180E28C0F883048F4C7708E2DEB
:103EA00001C0880FCA95EAF70E94AA2114C08C2F7E
:103EB0000E9444182DC00E5F1F4FFE01C49180E286
:103EC0008C0F883058F4C7708E2D01C0880FCA95AA
:103ED000EAF70E94B0210E94D3211AC08C2F0E94C1
:103EE000CE1816C00E5F1F4FFE01C491CC2381F087
:103EF0008FE99FE00197F1F700C00000C150F6CFB5
:103F00000E5F1F4FFE01F49003C00E9444188E0103
:103F10008F2D882309F49FCFEFE9FFE03197F1F768
:103F200000C000008150F5CFDF91CF911F910F911C
:103F3000FF90EF90089508950C949B1F0E949C1F82
:103F400060935D0270935E0280935F0290936002C3
:103F50000C94BA1B08950C949E1F0F931F9300910D
:103F60005D0210915E0220915F0230916002602B31
:103F7000712B822B932B1F910F910C949E1F0F93EB
:103F80001F9300915D0210915E0220915F023091BB
:103F9000600260237123822393231F910F910C945D
:103FA0009E1F0F931F9300915D0210915E0220915E
:103FB0005F023091600260277127822793271F914B
:103FC0000F910C949E1F08950C94E31F0E94E41F10
:103FD0006093590270935A0280935B0290935C0243
:103FE0000C94BA1B60E070E0CB010C94E61F0F93B9
:103FF0001F9341E050E060E070E08A019B0104C043
:10400000000F111F221F331F8A95D2F7C901B80173
:104010001F910F910C94E61F0F931F9341E050E006
:1040200060E070E004C0440F551F661F771F8A953B
:10403000D2F78091590290915A02A0915B02B091FF
:104040005C028A019B01082B192B2A2B3B2BC901EF
:10405000B8011F910F910C94E61F0F931F9341E03D
:1040600050E060E070E004C0440F551F661F771FEA
:104070008A95D2F740955095609570958091590238
:1040800090915A02A0915B02B0915C028A019B015F
:10409000082319232A233B23C901B8011F910F913B
:1040A0000C94E61F0F931F9341E050E060E070E036
:1040B00004C0440F551F661F771F8A95D2F7809161
:1040C000590290915A02A0915B02B0915C028A0160
:1040D0009B01082719272A273B27C901B8011F91EF
:1040E0000F910C94E61F0F931F93009159021091AA
:1040F0005A0220915B0230915C02602B712B822B63
:10410000932B1F910F910C94E61F0F931F93009117
:10411000590210915A0220915B0230915C02602397
:104120007123822393231F910F910C94E61F0F9309
:104130001F930091590210915A0220915B02309115
:104140005C0260277127822793271F910F910C949F
:10415000E61F0895292F220F920F990F890FA82F7C
:10416000A695A695A695877051E001C0550F8A9532
:10417000EAF785E0A89FD001112420E030E070E04C
:10418000F901EA0FFB1FEF5CFD4F4081CB01022ECE
:1041900002C0969587950A94E2F7817099278195D8
:1041A00084278523842780832F5F3F4F2530310567
:1041B00039F70895292F220F920F990F890F682F31
:1041C000669566956695982F977085E0689FB00113
:1041D000112440E050E080E0FA01E60FF71FEF5CA9
:1041E000FD4F208130E0092E02C0369527950A94B4
:1041F000E2F721703327042E01C0220F0A94EAF758
:10420000822B4F5F5F4F4530510531F70895BF92C4
:10421000CF92DF92EF92FF920F931F93CF93DF9392
:104220008C01C0905D02D0905E02E0905F02F09041
:1042300060028091590290915A02A0915B02B09164
:104240005C02C82AD92AEA2AFB2ACFE1D0E0D701AA
:10425000C6010C2E04C0B695A795979587950A942C
:10426000D2F780FF07C0BC2EB8018C2F0E946E06CB
:10427000019719F4219758F7B12C8B2DDF91CF912D
:104280001F910F91FF90EF90DF90CF90BF90089516
:10429000CF93DF93EC010E940721BE010E946E06BE
:1042A000DF91CF9108951F93CF93DF93EB0190910E
:1042B000F801992321F0CB010E94482113C08823E3
:1042C00049F0CB010E940721182F682FCE010E94D0
:1042D000AA2004C0CB010E94DA20182FBE01812F32
:1042E0000E946E06DF91CF911F9108958091610227
:1042F00085958595859508958091610287700895CB
:1043000090916102977081E009F480E008958091B6
:104310006D02089590916D02892B80936D0208952E
:10432000809590916D02892380936D02089510927B
:104330006D02089590916C02892B80936C02089510
:10434000809590916C02892380936C02089510925D
:104350006C02089590916B02892B80936B020895F3
:10436000809590916B02892380936B02089510923F
:104370006B02089580916202089508950C94BD2106
:1043800090916202981721F0809362020C94BE21F2
:10439000089580916202882329F01092620280E0E1
:1043A0000C94BE210895E0912501F09126018091A1
:1043B0006D028083E0912501F0912601908180912A
:1043C0006C02892B8083E0912501F0912601908178
:1043D00080916B02892B808380916202882381F017
:1043E000E0912501F09126019081892B80838091B5
:1043F0002501909126010E94022381110E94C9216A
:1044000080912501909126010C94BC1608950C947E
:10441000062298E0899F90011124262B20936102A7
:104420000E940C20809161028595859585950C945C
:1044300007221092610280E00C9407222091610211
:104440008095822380936102982F977079F430E0F1
:10445000482F082E000C550B2417350739F0859589
:10446000859585950E942D200C941922089590938E
:10447000BD018093BC0108958295982F9C7C392FB3
:1044800036953695282F237344E0249FC0011124CC
:10449000932F982B292F2A7A2695892F8575880F97
:1044A000822B089580E090E00E94642C21E08C3EF5
:1044B0009E4F09F020E0822F089582E090E00C9456
:1044C000562C83E090E00C94562CCF9384E090E03F
:1044D0000E94562CC82F81E290E00E94562C2C2F6F
:1044E00030E0A901582BCA01CF910895CF93C92F6D
:1044F000682F84E090E00E946A2C6C2F81E290E0AB
:10450000CF910C946A2C86E090E00C94562C682F86
:1045100086E090E00C946A2CAB01BC018FE090E047
:104520000C947C2CAB01BC0183E190E00C947C2CBE
:1045300060E070E0CB010C94922260E070E0CB016F
:104540000E948C220C9498226CEE7EEF80E090E02A
:104550000E94882C60E082E090E00E946A2C60E07B
:1045600083E090E00E946A2C10925D0210925E023D
:1045700010925F021092600260E084E090E00E947E
:104580006A2C60E081E290E00E946A2C60E085E0A5
:1045900090E00E946A2C60E086E090E00E946A2C25
:1045A0006FEF87E090E00E946A2C40E050E0BA0193
:1045B00088E090E00E947C2C60E08DE090E00E941A
:1045C0006A2C40E050E0BA0188E190E00E947C2C27
:1045D00060E087E190E00E946A2C40E050E0BA0180
:1045E0008CE190E00E947C2C60E080E290E00E94F0
:1045F0006A2C0C949D220C94A422682F8EE090E0EB
:104600000C946A2CFC01329697E080E0915029F0DE
:1046100021912223D9F38F5FF9CF08959C01FC01EA
:1046200032969FEF80E04191461789F09F3F19F441
:10463000411101C0982F8F5F8630A9F79F3F39F055
:10464000F901E90FF11D97FDFA9562830895089528
:10465000FC01329608962081261301C01082319603
:10466000E817F907C1F708950C940E230C9428233A
:10467000029626E0FC0111922A95E9F70895089523
:104680000C943F230E9440238091C802843061F142
:1046900010926F0220E488E190E00FB6F894A8959C
:1046A000809360000FBE2093600080E00E9428117C
:1046B00080E00E94D9050E94402383B7817F8460F7
:1046C00083BF83B7816083BF7894889583B78E7FDB
:1046D00083BF0FB6F894A89580916000886180939D
:1046E0006000109260000FBE089508950895CF9362
:1046F0000E9475230E94AA090E947623C0E08C2F95
:104700000E948A08811104C0CF5FCA30C1F701C07E
:1047100081E0CF91089508950C948B230E94D01BC3
:104720000E94D10F0E94B0160E94D9050C948C23D0
:104730001F920F920FB60F9211248F939F93AF93F6
:10474000BF9380916F02811113C08091BE0290913E
:10475000BF02A091C002B091C1024196A11DB11D3E
:104760008093BE029093BF02A093C002B093C10297
:10477000BF91AF919F918F910F900FBE0F901F909F
:10478000189582E084BD93E095BD9AEF97BD809324
:104790006E0008952FB7F8948091BE029091BF02E9
:1047A000A091C002B091C1022FBF0895CF92DF92B5
:1047B000EF92FF920F931F932FB7F8944091BE0290
:1047C0005091BF026091C0027091C1022FBF6A0177
:1047D0007B01EE24FF248C0120E030E0C016D106DE
:1047E000E206F30610F4415051099A01281B390BD7
:1047F000C9011F910F91FF90EF90DF90CF90089526
:1048000078941F920F920FB60F9211248F939F935B
:10481000AF93BF938091BE029091BF02A091C0025E
:10482000B091C1020196A11DB11D8093BE0290936B
:10483000BF02A093C002B093C102BF91AF919F91FC
:104840008F910F900FBE0F901F90189581E080936D
:10485000E00080E28093D8001092C9008FE19EE4CE
:104860000197F1F700C0000087E090EBDC01809336
:10487000D1029093D202A093D302B093D4029CE0D1
:1048800088E10FB6F894A895809360000FBE9093CE
:104890006000FFCF0E945222811102C00E94FB22C1
:1048A0000E945D2280936E020E9465229093C30253
:1048B0008093C2020E946122682F70E080E090E045
:1048C0000C94AB1F80917B02089508959FB7F894D4
:1048D000109272029FBF9091C802943009F057C0A5
:1048E0009091E9009F703091EC00232F217030FDF2
:1048F00020E8922B23E02093E9002091EB0020FF99
:1049000043C02091EE0027FF3FC020917002222378
:1049100021F02091E80025FF37C01092700226E0B8
:104920003091E80035FD15C03091C802343061F592
:104930003091EB0035FD28C0215021F481E08093B7
:10494000700222C0EFE9FFE03197F1F700C00000EC
:10495000E7CF8093F1008091E80085FD0AC0809147
:10496000E80080FFFCCF8091E8008E778093E8001C
:1049700006C08FB7F89421E0209372028FBF9F701A
:104980009093E90080E008959F709093E9008FEF85
:104990000895CF93DF9300D01F92CDB7DEB79091EB
:1049A000C802943019F589837B836A8382E08093FF
:1049B000E9008FEF9091E800815095FD06C095EDDC
:1049C0009A95F1F700008111F5CF8091E80085FFFD
:1049D0000DC040E050E063E070E0CE0101960E941F
:1049E00049278091E8008E778093E8000F900F9020
:1049F0000F90DF91CF910895CF93DF93EC010E9448
:104A00002C27823011F0843031F4BE0184E0DF9134
:104A1000CF910C94C924DF91CF910895BC0183E01C
:104A20000C94C924CF93DF93EC010E942C27823091
:104A300011F0843039F581E08093E9008FEF909197
:104A4000E800815095FD06C095ED9A95F1F70000BC
:104A50008111F5CF8091E80085FF14C040E050E05F
:104A600068E070E0CE010E9449278091E8008E77CF
:104A70008093E80088E0FE01A3E7B2E001900D9288
:104A80008A95E1F7DF91CF9108958CED97E00E9430
:104A9000E2048091C702811109C00E94DE280E94B1
:104AA0003B298091E20084608093E200089588EDC4
:104AB00097E00E94E2041092C702089584ED97E007
:104AC0000C94E20480ED97E00C94E2048CEC97E007
:104AD0000E94E2040C948E23209171022F5F822F9A
:104AE00062E30E94F42B992319F020937102089538
:104AF0001092710280917202882371F18091C80234
:104B0000843041F58091E9008F702091EC00922F64
:104B1000917020FD90E8892B93E09093E9009091AB
:104B2000EB0090FF14C09091EE0097FF10C09091A1
:104B3000E80095FF03C01092F100F9CF9091E800D2
:104B400090FF05C09091E8009E779093E8008F70E9
:104B50008093E90010927202089542E061EC81E0D6
:104B60000E94582842E261EC82E00E94582842E20A
:104B700061EC83E00C9458288091CA02833009F4D8
:104B800060C030F4813071F0823009F499C008952A
:104B90008A3009F485C08B3009F46BC0893009F084
:104BA000A7C020C08091C902813A09F0A1C08091BC
:104BB000E800877F8093E8008091CD029091CE023B
:104BC000892B21F468E083E792E003C060E080E095
:104BD00090E070E00E9494278091E8008B778093AA
:104BE000E80008958091C902813209F081C0809166
:104BF000CD029091CE02029708F07AC08091E80031
:104C0000877F8093E8008091E80082FD05C0809155
:104C1000C8028111F8CF6CC02091F3008091F2009E
:104C200090E0922B029729F48091F1008B7F8130E4
:104C300021F48091F10080937B028091E8008B77D2
:104C400053C08091C902813A09F052C08091CD02CF
:104C50009091CE02892B09F04BC08091E800877FAC
:104C60008093E8008091E80080FFFCCF80913101C3
:104C700036C08091C9028132D9F58091CD029091E0
:104C8000CE02892BA9F58091E800877F8093E80008
:104C90000E948D288091CB02809331010C94D01B0F
:104CA0008091C902813221F58091E800877F80934D
:104CB000E8000E948D288091CC0280937C020895A8
:104CC0008091C902813AA1F48091E800877F8093A6
:104CD000E8008091E80080FFFCCF80917C02809307
:104CE000F1008091E8008E778093E8000C948D2885
:104CF000089584B7877F84BF0FB6F894A8958091F4
:104D00006000886180936000109260000FBE90E0A8
:104D100080E80FB6F89480936100909361000FBE15
:104D20000E943F170E94DE280E943B298091E200EA
:104D300084608093E20086E694E20E9437227894B1
:104D40000E94C92B0E94451787E291E00E94AB1692
:104D50008BEB97E00E94E2048091C802853089F4D1
:104D600087EB97E00E94E2040E9442238091C602F2
:104D7000882391F30E947723882371F30E943327BD
:104D8000EBCF0E947917E8CF0C94C626292F332742
:104D900023303105C9F064F42130310581F022302F
:104DA000310509F049C08BE590E028E138E048C0C2
:104DB0002132310521F12232310571F13DC082E10C
:104DC00090E023E738E03CC099278130910571F0ED
:104DD0002CF4892B89F5E4E1F8E00DC082309105CF
:104DE00041F0039749F5E0EEF7E005C0E4E0F8E0B4
:104DF00002C0E6EEF7E0849190E09F0121C06330AD
:104E00007105D0F4660F771FFB01EB54FE4F208134
:104E1000318189E090E014C06330710568F4FB01D2
:104E2000EE0FFF1FE155FE4F20813181FB01E4555C
:104E3000FE4F808190E004C080E090E020E030E010
:104E4000FA013183208308958091C802843011F0E3
:104E500081E0089582E0089580917D02811102C071
:104E60000C942427089580E189BD82E189BD09B4AD
:104E700000FEFDCF8091D8008F7D8093D800809177
:104E8000E00082608093E0008091E00081FDFCCF33
:104E90000895CF92DF92EF92FF920F931F93CF93DB
:104EA000DF93EC018B016A010E94AC28811133C0B1
:104EB000C114D10439F0F60180819181081B190BCE
:104EC000C80FD91FE12CF12C0115110519F18091A2
:104ED000E80085FD16C08091E8008E778093E80099
:104EE000C114D10449F0F60180819181E80EF91EC8
:104EF000F182E08285E00FC00E94AC28882321F374
:104F00000AC089918093F10001501109FFEFEF1A57
:104F1000FF0ADACF80E0DF91CF911F910F91FF90D0
:104F2000EF90DF90CF9008952091CF023091D00282
:104F30002617370748F06115710539F42091E8000C
:104F40002E772093E80001C0B90140E0611571059A
:104F5000A9F12091C802222309F443C0253009F4A5
:104F600042C02091E80023FD40C02091E80022FDCE
:104F700032C02091E80020FFE9CF4091F30020915A
:104F8000F20030E0342BFC01CF016115710559F0BE
:104F90002830310540F481918093F100615071090E
:104FA0002F5F3F4FF1CF41E02830310509F040E05D
:104FB0002091E8002E772093E800C8CF4111C9CF97
:104FC0000AC08091C802882361F0853061F0809129
:104FD000E80083FD0AC08091E80082FFF2CF80E004
:104FE000089582E0089583E0089581E00895209176
:104FF000CF023091D0022617370748F061157105AE
:1050000039F42091E8002E772093E80001C0B9011F
:10501000FC0120E06115710591F18091C80288239F
:1050200009F440C0853009F43FC08091E80083FD59
:105030003DC08091E80082FD2FC08091E80080FF94
:10504000E9CF2091F3008091F20090E0922B61155E
:10505000710559F08830910540F424912093F100B6
:105060003196615071090196F2CF21E0089709F05D
:1050700020E08091E8008E778093E800CBCF21116B
:10508000CCCF0AC08091C802882361F0853061F0DE
:105090008091E80083FD0AC08091E80082FFF2CF92
:1050A00080E0089582E0089583E0089581E0089506
:1050B000982F973058F59093E900981739F0709130
:1050C000EC002091ED005091F00003C0242F762FCA
:1050D00050E021FF19C03091EB003E7F3093EB0090
:1050E0003091ED003D7F3093ED003091EB00316069
:1050F0003093EB007093EC002093ED005093F000A0
:105100002091EE0027FF07C09F5FD3CF8F70809361
:10511000E90081E0089580E008958091C90287FF49
:1051200011C08091E80082FD05C08091C802811104
:10513000F8CF11C08091E8008B770BC08091C80236
:10514000882349F08091E80080FFF8CF8091E80043
:105150008E778093E80008952091E4003091E50077
:1051600095E64091EC00842F817040FF22C0809131
:10517000E80080FD1CC08091C802882391F0853032
:1051800091F08091EB0085FD10C04091E4005091BA
:10519000E5004217530729F39A01915011F784E073
:1051A000089582E0089583E0089581E0089580E005
:1051B00008954091E80042FFDECF08950E944C29F7
:1051C0000E945429E0EEF0E0808181608083E8ED68
:1051D000F0E080818F77808319BCA7EDB0E08C91DF
:1051E0008E7F8C9380818F7E80831092C70208957A
:1051F0000F931F93CF93DF930E944C290E94542951
:10520000C8EDD0E088818F77888388818068888323
:1052100088818F7D888319BC1092C8021092C402C5
:105220001092C6021092C50200EE10E0F8018081D3
:105230008B7F808388818160888342E060E080E0AA
:105240000E945828E1EEF0E080818E7F8083E2EEBC
:10525000F0E0808181608083808188608083F801B4
:1052600080818E7F8083888180618883DF91CF9168
:105270001F910F910895E8EDF0E080818F7E80838B
:10528000E7EDF0E080818160808384E082BF81E08F
:105290008093C7020C94F828E8EDF0E080818E7FBF
:1052A00080831092E20008951092DA001092E100DB
:1052B00008951F920F920FB60F9211242F933F93D0
:1052C0004F935F936F937F938F939F93AF93BF930E
:1052D000EF93FF938091E10082FF0BC08091E20089
:1052E00082FF07C08091E1008B7F8093E1000E94E4
:1052F0006C258091DA0080FF1FC08091D80080FF6C
:105300001BC08091DA008E7F8093DA008091D900F3
:1053100080FF0DC080E189BD82E189BD09B400FE36
:10532000FDCF81E08093C8020E94452505C019BCCD
:105330001092C8020E9457258091E10080FF19C099
:105340008091E20080FF15C08091E2008E7F809303
:10535000E2008091E20080618093E2008091D800B9
:1053600080628093D80019BC85E08093C8020E94B7
:1053700062258091E10084FF30C08091E20084FFCB
:105380002CC080E189BD82E189BD09B400FEFDCF5A
:105390008091D8008F7D8093D8008091E1008F7E2E
:1053A0008093E1008091E2008F7E8093E200809103
:1053B000E20081608093E2008091C402882311F0B2
:1053C00084E007C08091E30087FD02C081E001C056
:1053D00083E08093C8020E9466258091E10083FFEC
:1053E00029C08091E20083FF25C08091E100877F82
:1053F0008093E10082E08093C8021092C402809101
:10540000E1008E7F8093E1008091E2008E7F8093A7
:10541000E2008091E20080618093E20042E060E07F
:1054200080E00E9458288091F00088608093F0000E
:105430000E945E25FF91EF91BF91AF919F918F9157
:105440007F916F915F914F913F912F910F900FBE80
:105450000F901F9018951F920F920FB60F92112464
:105460002F933F934F935F936F937F938F939F936C
:10547000AF93BF93CF93DF93EF93FF93C091E90076
:10548000CF708091EC00D82FD17080FDD0E81092C1
:10549000E9008091F000877F8093F00078940E946B
:1054A0006F2A1092E9008091F00088608093F000EC
:1054B000CD2BCF70C093E900FF91EF91DF91CF9199
:1054C000BF91AF919F918F917F916F915F914F911C
:1054D0003F912F910F900FBE0F901F9018951F9323
:1054E000CF93DF93CDB7DEB7AA970FB6F894DEBFA0
:1054F0000FBECDBFE9ECF2E088E08E0F9091F10095
:1055000091938E13FBCF0E94BC258091E80083FF0E
:1055100028C18091C9029091CA02492F50E04A30B7
:10552000510508F01EC1FA01E857FF4F0C94362CC4
:10553000803821F0823809F014C108C08091C5027A
:105540009091C602992389F082600FC08091CD02AC
:105550008F70873008F005C18093E9008091EB00DF
:1055600085FB882780F91092E9009091E800977FE9
:105570009093E8008093F1001092F100D0C0282FA2
:105580002D7F09F0EEC0882319F0823061F0E9C068
:105590008091CB02813009F0E4C0933009F080E0C3
:1055A0008093C6022EC08091CB0281112AC08091C7
:1055B000CD028F702FEF280F263008F0D2C08093D5
:1055C000E9002091EB0020FF1CC0933021F4809172
:1055D000EB00806214C09091EB0090619093EB001F
:1055E00021E030E0A90102C0440F551F8A95E2F77F
:1055F0004093EA001092EA008091EB00886080936B
:10560000EB001092E9008091E800877F8093E8002A
:105610000E948D28A6C08111A4C01091CB021F77D3
:105620008091E3008078812B8093E3008091E800F3
:10563000877F8093E8000E948D288091E80080FF9A
:10564000FCCF8091E30080688093E300111102C0D9
:1056500082E001C083E08093C80283C0805882301A
:1056600008F07FC08091CB029091CC028C3D53E03A
:10567000950779F583E08A838AE289834FB7F894A6
:10568000DE01139620E03EE051E2E32FF0E050937C
:105690005700E49120FF03C0E295EF703F5FEF7089
:1056A0008E2F90E0EA3010F0C79601C0C0968D931F
:1056B0009D932F5F243149F74FBF8091E800877F8A
:1056C0008093E8006AE270E0CE0101960E94942780
:1056D00015C06091CD027091CE02AE014F5F5F4F59
:1056E0000E94C426BC01892BE1F19091E800977FCC
:1056F0009093E80089819A810E94F7278091E800C1
:105700008B778093E8002DC0803859F58091E800B0
:10571000877F8093E8008091C4028093F10080919C
:10572000E8008E7773CF81111CC09091CB0292302C
:10573000C0F48091E800877F8093E8009093C402D2
:105740000E948D288091C402811106C08091E300DF
:1057500087FD02C081E001C084E08093C8020E94FE
:10576000AD258091E80083FF0AC08091E800877F23
:105770008093E8008091EB0080628093EB00AA9612
:105780000FB6F894DEBF0FBECDBFDF91CF911F9152
:105790000895CF938091C8028823A1F0C091E900B9
:1057A000CF709091EC00892F817090FD80E8C82B1C
:1057B0001092E9008091E80083FD0E946F2ACF706B
:1057C000C093E900CF910895DB018F939F930E94CE
:1057D0004B2CBF91AF91A29F800D911DA39F900D67
:1057E000B29F900D11240895991B79E004C0991F70
:1057F000961708F0961B881F7A95C9F7809508952B
:10580000AA1BBB1B51E107C0AA1FBB1FA617B707E6
:1058100010F0A61BB70B881F991F5A95A9F7809502
:105820009095BC01CD010895A1E21A2EAA1BBB1BC5
:10583000FD010DC0AA1FBB1FEE1FFF1FA217B3075C
:10584000E407F50720F0A21BB30BE40BF50B661F72
:10585000771F881F991F1A9469F760957095809536
:1058600090959B01AC01BD01CF010895EE0FFF1F84
:105870000590F491E02D0994A29FB001B39FC0015F
:10588000A39F700D811D1124911DB29F700D811D6C
:105890001124911D08950E943C2CA59F900DB49F4A
:1058A000900DA49F800D911D11240895F999FECFAC
:1058B00092BD81BDF89A992780B50895A6E1B0E020
:1058C00044E050E00C94902CA8E1B0E042E050E0BD
:1058D0000C94902C262FF999FECF92BD81BDF89A99
:1058E000019700B4021639F01FBA20BD0FB6F89424
:1058F000FA9AF99A0FBE08950396272F0E946B2CEF
:105900000E946A2C252F0E946B2C242F0C946B2C48
:105910000196272F0E946B2C0C946A2CDC01CB0182
:10592000FC01F999FECF06C0F2BDE1BDF89A3196AF
:1059300000B40D9241505040B8F70895F894FFCF4D
:10594000F1F49392379431F0F5F6F700000000007F
:1059500001C30101C40106C501CB0108CC0100004F
:10596000000C0C333263026224122565240E25FCE0
:10597000240194979337F033E200E900EA00B50080
:10598000B600B700CD008301CC008A0192019401DA
:105990002102230224022502260227022A02B30042
:1059A000B4006F007000818283000100FF010001DC
:1059B0000000FFFF0000010001FF00E200E900EA33
:1059C00000B500B600B700CD008301CC008A01927B
:1059D0000194012102230224022502260227022A21
:1059E00002B300B4006F007000818283403222D97C
:0C59F00008A70885082A0843085C080086
:00000001FF
