:100000000C948F040C9424160C94D6040C94D604EF
:100010000C94D6040C94D6040C94D6040C94D604F8
:100020000C94D6040C94D6040C94982A0C946A2B45
:100030000C94AF240C94D6040C94D6040C94D604DF
:100040000C94D6040C94D6040C94D6040C94D604C8
:100050000C94D6040C9417250C94D6040C94D60456
:100060000C94D6040C94D6040C94D6040C94D604A8
:100070000C94D6040C94D6040C94D6040C94D60498
:100080000C94D6040C94D6040C94D6040C94D60488
:100090000C94D6040C94D6040C94D6040C94D60478
:1000A0000C94D6040C94D6040C94D6044510481035
:1000B0004D10541059105E10631068106D107210BE
:1000C00077107C107F107F107F107F107F107F10C3
:1000D0007F107F10971A971AC91AC91A161B791C14
:1000E000791C791C361BD31BE41BE41B451C4E1CDE
:1000F000791C721CF71CF71C091D091D001D091D28
:10010000091D091DF71CF71C051D091D091D051DED
:10011000D72BFE2BF02CFE2BF02C4A2C6D2CF02C28
:10012000C32CD22C2E001E001F0020002100220014
:100130002B0014001A000800150017002900040005
:100140001600070009000A00E0001D621B000600FF
:100150001900050000000000E300E2002A004C0046
:100160002D00270026002500240023002F00130067
:1001700012000C0018001C00340033000F000E00A9
:100180000D000B00E50038003700360010001100AC
:1001900000000000310028422C43350029001E00D9
:1001A0001F002000210022002B0014001A0008006C
:1001B00015001700E10004001600070009000A00FE
:1001C000E0001D001B0006001900050000000000F3
:1001D0000A002C002A00E2002D002700260025003E
:1001E000240023002F00130012000C0018001C0034
:1001F000340033000F000E000D000B00E500380046
:1002000037003600100011000000000031002842C5
:100210002C43350000003A003B003C003D003E000E
:100220000000000000002405270500000000000079
:100230000000250226020000000000000000250545
:10024000260535020000000000000000000000004C
:10025000000056005500540040003F0000005700C9
:10026000610060005F000000000085005E005D002E
:100270005C000000000067005B005A0059000000AD
:10028000000000006200000000000000115010504B
:1002900000000000D45CD25C000000000000C95CDB
:1002A000CA5CD05CE100C25CC35CC55CC65CCE5C71
:1002B000E00000000000C75CC85CCF5C00000000EC
:1002C000E700E20000000000A900000000000000BC
:1002D00000000000AA000000BB005200BC000000AB
:1002E000000000004F00510050000000000000001E
:1002F000AB00AE00AC0000000000000000000000F9
:100300000000000044454255473A20646973616229
:100310006C65642E0A0044454255473A20656E617B
:10032000626C65642E0A000A0025303862003A20AB
:100330000025303258000A722F63203031323334B6
:100340003536370A007267626C69676874207365B6
:100350007420687376205B4E4F454550524F4D5D7B
:100360003A2025752C25752C25750A007267626C5C
:10037000696768742073657420687376205B4545EF
:1003800050524F4D5D3A2025752C25752C25750A48
:10039000007267626C696768742064697361626C7B
:1003A00065205B4E4F454550524F4D5D3A20726778
:1003B000626C696768745F636F6E6669672E656EED
:1003C00061626C65203D2025750A007267626C6968
:1003D0006768742064697361626C65205B45455091
:1003E000524F4D5D3A207267626C696768745F6353
:1003F0006F6E6669672E656E61626C65203D2025B3
:10040000750A007267626C6967687420656E616264
:100410006C65205B454550524F4D5D3A20726762D6
:100420006C696768745F636F6E6669672E656E617D
:10043000626C65203D2025750A007267626C6967F1
:10044000687420746F67676C65205B454550524F38
:100450004D5D3A207267626C696768745F636F6EA6
:100460006669672E656E61626C65203D2025750AA0
:10047000007267626C69676874206D6F6465205BE9
:100480004E4F454550524F4D5D3A2025750A00723A
:1004900067626C69676874206D6F6465205B4545B1
:1004A00050524F4D5D3A2025750A007267626C69A3
:1004B0006768745F696E6974207267626C696768E7
:1004C000745F636F6E6669672E6D6F6465203D2093
:1004D000302E2057726974652064656661756C748E
:1004E0002076616C75657320746F20454550524FBE
:1004F0004D2E0A007267626C696768745F696E6985
:1005000074206565636F6E666967206973206E6F1E
:100510007420656E61626C65642E0A007267626C9D
:10052000696768745F696E6974207374617274219D
:100530000A007267626C696768745F696E6974202B
:1005400063616C6C65642E0A007267626C6967682F
:10055000745F636F6E6669672E7370656564203DB6
:100560002025640A007267626C696768745F636F54
:100570006E6669672E76616C203D2025640A0072E4
:1005800067626C696768745F636F6E6669672E7314
:100590006174203D2025640A007267626C69676897
:1005A000745F636F6E6669672E687565203D2025F0
:1005B000640A007267686C696768745F636F6E666F
:1005C00069672E6D6F6465203D2025640A0072679F
:1005D000626C696768745F636F6E6669672E656ECB
:1005E00061626C65203D2025640A007267626C6957
:1005F0006768745F636F6E66696720454550524F48
:100600004D3A0A006261636B6C69676874207374A9
:1006100065703A2025750A006261636B6C696768D2
:10062000742064697361626C650A006261636B6C5B
:100630006967687420656E61626C650A0062616357
:100640006B6C6967687420746F67676C653A202506
:10065000750A006261636B6C696768742064656326
:1006600072656173653A2025750A006261636B6C7F
:100670006967687420696E6372656173653A2025E5
:10068000750A0000010101010101010101020202DC
:10069000020202020202030303030303030304042E
:1006A00004040404040505050505060606060607F8
:1006B0000707070708080808090909090A0A0A0BB1
:1006C0000B0B0C0C0C0D0D0D0E0E0E0F0F0F101052
:1006D00011111112121313141415151616171718D9
:1006E0001819191A1A1B1B1C1D1D1E1E1F20202144
:1006F0002222232424252626272829292A2B2C2D8B
:100700002D2E2F30313232333435363738393A3BAB
:100710003C3D3E3F404142434445464748494A4CA0
:100720004D4E4F50515354555658595A5B5D5E5F6C
:10073000616264656668696B6C6D6F707273757702
:10074000787A7B7D7E8082838587888A8C8E8F9164
:10075000939596989A9C9EA0A2A3A5A7A9ABADAF8E
:10076000B1B3B5B7BABCBEC0C2C4C6C9CBCDCFD178
:10077000D4D6D8DBDDDFE2E4E7E9EBEEF0F3F5F821
:10078000FAFDFF0A002530325820006B6579626F50
:100790006172645F7265706F72743A20000A00259E
:1007A000303258006B6579626F6172645F73657493
:1007B0005F6C65643A20005B735D004B6579626F26
:1007C0006172642073746172742E0A005B575D005D
:1007D0005B535D005B525D005B445D005B435D000D
:1007E0000403300000001C0349007200690073001C
:1007F00020004B006500790062006F00610072000C
:10080000640000000E034B00650065006200690093
:100810006F0000000403090409025B00030100A04B
:10082000FA0904000001030101000921110100017E
:100830002240000705810308000A090401000103A2
:100840000000000921110100012236000705820382
:1008500020000A090402000203000000092111011E
:10086000000122220007058303200001070503037E
:10087000200001120110010000000810CB561200E8
:1008800004010203010631FF0974A1010975150075
:1008900026FF009520750881020976150026FF00C5
:1008A000952075089102C005010980A10185031AF0
:1008B00081002A830016010026030095017510812E
:1008C00000C0050C0901A10185041A01002A9C023F
:1008D000160100269C02950175108100C0050109D2
:1008E00006A101050719E029E715002501950875FE
:1008F0000181029501750881010507190029FF157D
:100900000026FF00950675088100050819012905D4
:10091000950575019102950175039101C00011249F
:100920001FBECFEFDAE0DEBFCDBF04B603FE27C0A7
:1009300080916F0290917002A0917102B091720249
:100940008730904BA740B04BD1F410926F021092B9
:100950007002109271021092720214BE84B7877FE7
:1009600084BF0FB6F894A895809160008861809349
:100970006000109260000FBEE0E0F8E3099511E01E
:10098000A0E0B1E0EEEBFBE502C005900D92AA35C8
:10099000B107D9F722E0AAE5B1E001C01D92AF3658
:1009A000B207E1F70E94B8270C94DD2D0C940000EB
:1009B000FF93EF93E0915A01F0915B01309709F0BA
:1009C0000995EF91FF910895FC018591803011F018
:1009D000EFDFFBCF0895FF27E0E230E247FF0CC0D6
:1009E000419597FF09C0EDE26095709580959095CF
:1009F000611D711D811D911D27FF02C0219530E3EE
:100A000050E2AA27660F771F881F991FAA1FA417F5
:100A100010F0A41B63955A95A9F7AA3008F0A95FB6
:100A2000A05DAF93F395611571058105910541F7BF
:100A3000ED3211F4EF93F395F21718F43F93F39519
:100A4000FBCF8F91B5DFFA95E1F70895E991F99120
:100A50008591803021F0853219F0AADFF9CF089511
:100A600020E0E89455915532C1F3503311F4689465
:100A700055915A3348F4505390F3220F022E220F0F
:100A8000220F200D250FF4CF0EF421958991999115
:100A9000533619F3533729F1533559F1BC018827DF
:100AA0009927E8945C3621F489919991689455913D
:100AB000543639F446EF7EF077FF0DC08FEF9FEF8D
:100AC0000AC055374AE039F0583540E121F0523636
:100AD00042E009F00895FF93EF937DDFEF91FF91DE
:100AE000B7CFFF93EF93FC0181918030B9F360DFC2
:100AF000FBCFFF93EF9368DFF1CFDF93CF93CDB7B9
:100B0000DEB72596A3DFCF91DF91089581E00895A8
:100B100081E008950C9488051F93CF93DF9300D054
:100B200000D01F92CDB7DEB749835A832091AA0126
:100B300089819A81211112C0662349F00E941E22E8
:100B4000182F682F89819A810E94C12103C00E94B9
:100B5000F121182F69817A81812F04C00E941E2201
:100B600069817A810F900F900F900F900F90DF9115
:100B7000CF911F910C948006FC01408151816281CC
:100B8000738184810C948C050E946923811102C0B9
:100B90000E9412240E9442120E948C120C9453094B
:100BA0000E9441120E94EE120C94560908950C9472
:100BB000D60581E008950C94D905CF93C82F0E94E3
:100BC000D7058C2F0E94DB05CF91089508950E94D0
:100BD000E71C0E94E6052FEF84E39CE02150804053
:100BE0009040E1F700C000000C943D250F931F9347
:100BF000CF93DF938C010E94BC05EC01B8010E94E9
:100C00008A05882309F471C0B801CE010E94FF1340
:100C1000882309F46AC0B801CE010E9440148823D9
:100C200009F463C0B801CE010E942E10882309F494
:100C30005CC0F8018281882339F1C1308CE5D80786
:100C400059F0CE3DECE5DE07E1F0C115FCE5DF072C
:100C5000D9F40E94E70549C080912002C82FC095B1
:100C6000C170C0FB80F980932002CC2329F086E17B
:100C700093E00E94E40439C084E093E00E94E4041D
:100C800035C00E94122431C0C631DC4539F50E94BE
:100C90009E22282FF8018281409125015091260142
:100CA000882379F02A7A91E009F490E090935C012E
:100CB000911102C069E201C065E3CA010E944B24A0
:100CC0000AC080915C01811102C069E201C065E344
:100CD000CA010E944D240E94EA2207C0C801DF9188
:100CE000CF911F910F910C948605C0E08C2FDF915E
:100CF000CF911F910F91089580E090E0089508959D
:100D000096E0799FF00111249CE3899FE00DF11D8D
:100D10001124E60FF11DEE0FFF1FEC5DFE4F8591D4
:100D200094910895880F991FFC01E95DFC4F85910E
:100D300094910895CF93DF930E9480060E947B08D0
:100D4000EC01811522E5920708F046C0811531E5D6
:100D5000930708F052C1883E910500F5803E910549
:100D600008F0C5C1883A910570F4853A910508F0FC
:100D7000B1C08130910509F4BAC108F46BC1049780
:100D800008F0B5C167C18F3B910508F4AEC0803C47
:100D9000910508F45FC1805C910906C1811540E4AA
:100DA000940790F4C11580E3D80708F001C1C1157C
:100DB00021E0D20708F44EC1C11530E2D30708F490
:100DC00096C1CE019F70F0C0811540E5940708F0F0
:100DD000F9C0DF70D06A8BC1C11589E5D807B8F5B5
:100DE000C11528E5D20708F021C1C11534E5D307A4
:100DF000D0F42C2F26952695CE0183709927C11506
:100E0000D34508F0FFC040E2249F90011124C1E0C7
:100E1000D0E002C0CC0FDD1F8A95E2F72C2B3D2BD2
:100E2000E901DC6864C1C11585E5D80708F4F9C09B
:100E3000C11526E5D20708F00DC18C2F0E940F09BD
:100E40008F71C82FD0E0DC2FCC27D06250C1CD3BB2
:100E50003CE5D30709F4F5C0E0F4CB3B8CE5D807BB
:100E600009F4E9C008F0EAC0C1153AE5D30708F073
:100E7000F1C08C2F8F700E940F0994E0D695C79512
:100E80009A95E1F7CF70D0E0DC2FCC27D069C82B42
:100E90002EC1C03C4CE5D40709F4D9C060F4CE3B68
:100EA0002CE5D20709F4D0C0CF3BDC4509F0D2C015
:100EB000C0E0D2ED1CC1CE0190568115904208F0E1
:100EC000C9C08D2F8F710E940F09DD27D0628F71ED
:100ED000D82B0DC1853A910509F4BFC0863A91051A
:100EE00009F0BEC0C2E8D0E402C1883A910509F415
:100EF000BAC0893A910509F4B9C08A3A910509F452
:100F0000B8C08B3A910509F4B7C08C3A910509F441
:100F1000B6C08B3B910509F4B5C08C3B910509F433
:100F2000B4C08D3A910509F4B3C0803B910509F432
:100F3000B2C08E3A910509F4B1C08F3A910509F417
:100F4000B0C0813B910509F4AFC0823B910509F423
:100F5000AEC0833B910509F4ADC0843B910509F413
:100F6000ACC0853B910509F4ABC0863B910509F403
:100F7000AAC0873B910509F4A9C0883B910509F4F3
:100F8000A8C0893B910509F4A7C08D3B910509F4E0
:100F9000A6C08E3B910509F4A5C08A3B910509F4D2
:100FA000A4C0C0E0D4E4A3C00E949206EC019FC09C
:100FB000CE019927D3FF03C0EC01D86C98C0EC0197
:100FC000D06C95C0837021E030E002C0220F331F47
:100FD0008A95E2F73C68CE0174E0969587957A95FC
:100FE000E1F78370382BCF70C695C69580E2C89F15
:100FF000E0011124C22BD32B7AC0D82FCC27C16F8C
:10100000D06A75C040E2249F90011124C1E0D0E075
:1010100002C0CC0FDD1F8A95E2F7C22BD32BDA6812
:1010200066C0DC2FCC27C46FD06A61C0DC2FCC2710
:10103000C06FD06A5CC0C0E0D4ED59C0C0E0D5ED4F
:1010400056C0C0E0D1ED53C0C0E0D0ED50C0C0E00C
:10105000D3ED4DC0C0E0D0E04AC0C1E8D0E447C005
:10106000C3E8D0E444C0C2EED4E441C0C9EED4E445
:101070003EC0CAEED4E43BC0C5EBD4E438C0C6EBF6
:10108000D4E435C0C3EBD4E432C0C4EBD4E42FC005
:10109000C7EBD4E42CC0CCECD4E429C0CDECD4E430
:1010A00026C0C3E8D5E423C0CAE8D5E420C0C2E91D
:1010B000D5E41DC0C4E9D5E41AC0C1E2D6E417C026
:1010C000C3E2D6E414C0C4E2D6E411C0C5E2D6E45B
:1010D0000EC0C6E2D6E40BC0C7E2D6E408C0CFE635
:1010E000D4E405C0C0E7D4E402C0CAE2D6E4CE012D
:1010F000DF91CF9108958238910569F1B0F4813381
:10110000910509F46DC048F48932910509F463C072
:101110008A32910509F469C008958533910509F46F
:1011200055C089339105B9F00895833E910569F161
:1011300038F4803E9105B1F0823E910509F10895A1
:10114000863E9105A9F1873E9105B9F1843E91054E
:1011500009F064C023C02091600220FD4FC021FD32
:101160004DC008958091600280FD44C0809161026D
:1011700080FF44C08091600284FD42C083EE4DC078
:101180008091600282FF38C0F5CF8091600282FDBD
:1011900033C08091610280FD31C0ECCF809161024B
:1011A00081FF32C08091600284FD2AC087EE35C085
:1011B0008091600283FF26C0F5CF8091600283FD9D
:1011C00021C08091610281FD1FC0ECCF809160023F
:1011D00085FD1CC01DC08091600285FD19C016C030
:1011E0008091600286FD16C017C08091600286FD66
:1011F00013C010C089E311C082EE0FC080EE0DC095
:1012000080E00BC086EE09C084EE07C089E205C00D
:1012100085E303C08AE201C081E390E008959091E4
:10122000600292FF0DC0282F2871283019F4877FA3
:10123000846006C0282F2471243011F48B7F8860CD
:1012400093FF0DC0282F2871283119F4877E8461FF
:1012500006C0282F2471243111F48B7E88612091DF
:10126000610220FF0DC0382F3871383019F4877FA4
:10127000816006C0382F3171313011F48E7F886063
:1012800021FF0DC0282F2871283119F4877E816134
:1012900006C0282F2171213111F48E7E886194FDC2
:1012A000877E089508950C94520908950C94550969
:1012B000EF92FF920F931F93CF93DF9386E393E018
:1012C0000E94E404C0E0D0E081E3E82E83E0F82E41
:1012D00009E213E0DF93CF93FF92EF920E947D0526
:1012E0008EE293E00E94E4048C2F0E9497090E94F2
:1012F00053231F928F931F930F930E947D0587E2C4
:1013000093E00E94E40421968DB79EB708960FB62D
:10131000F8949EBF0FBE8DBFCA30D105D9F6DF91BC
:10132000CF911F910F91FF90EF9008950895E82FAE
:10133000F0E0E25AFE4F80810895CF93DF93CDB75E
:10134000DEB760970FB6F894DEBF0FBECDBF0E9428
:101350006F0B8091100181112CC0FE0131968AE043
:10136000DF011D928A95E9F781E3898382E38A830D
:1013700082E98B8381EF8C8384EF8D83A6E0B1E0DB
:101380008AE08E0F91919D938E13FCCF86E0E2E36D
:10139000F1E0DE011B9601900D928A95E1F7A0E045
:1013A000B1E0FE013B9686E08E0F91919D938E13E6
:1013B000FCCF80911001811102C095E001C090E046
:1013C0009093310285E0891B80933002A6E0B1E062
:1013D00041E050E025E02A0F8D91E82FE295EF7073
:1013E000F0E031A18F70BA0102C0660F771F8A95B5
:1013F000E2F7CB01962F9095932391A392A1892B8D
:1014000082A32A13E9CFA0E0B1E041E050E026E05A
:101410002A0F8D91E82FE295EF70F0E031A18F70E7
:10142000BA0102C0660F771F8A95E2F7CB01962FAB
:101430009095932391A392A1892B82A32A13E9CF9C
:10144000AEE5B1E0E8E6F1E08AE08E0F11921D9280
:101450008E13FCCF85E00E94150B60960FB6F894B2
:10146000DEBF0FBECDBFDF91CF910C94C4050E94AB
:10147000520B882321F18091300290E0825A9E4FD6
:101480000E94AD0B811117C080915D018F5F809329
:101490005D01863090F02091300280E090E030E0F5
:1014A000FC01E20FF31FE25AFE4F108201968530D5
:1014B0009105B1F702C010925D010C94D0058091A6
:1014C000310290E0825A9E4F0E94DA0B0E94EE1287
:1014D0000C949609CF92DF92EF92FF920F931F9395
:1014E000CF93DF93A6E0B1E0E8E6F1E0D12C41E054
:1014F00050E085E0C82ECE0ECF01F08010826C91B6
:10150000262F22952F7030E0E90119A16F70EA01B2
:1015100002C0CC0FDD1F6A95E2F7BE01612BE90125
:1015200069A33C91632F62956F7070E0EB011AA183
:101530003F70EA0102C0CC0FDD1F3A95E2F79E0131
:1015400020952123EB012AA3D0EADA95F1F700E0F8
:1015500011E020E030E0E801E9908E016E2D629507
:101560006F7070E0EB0168A170E0DE2DDF7002C0EB
:1015700075956795DA95E2F760FD07C0BA01022E0E
:1015800001C0660F0A94EAF702C060E070E0708163
:10159000672B60832F5F3F4F26303105E1F67C914A
:1015A000272F22952F7030E0E90119A17F70EA0101
:1015B00002C0CC0FDD1F7A95E2F7BE016095612372
:1015C000E90169A36D91262F22952F7030E0E90182
:1015D0001AA16F70EA0102C0CC0FDD1F6A95E2F715
:1015E000BE01612BE9016AA3319621E0EC018881FB
:1015F000F81201C020E0D22ACE127ECF60913102D3
:1016000070E0625A7E4F2D2D45E088E691E00E9401
:10161000160B0E94370A8D2DDF91CF911F910F91EC
:10162000FF90EF90DF90CF9008950895FF920F9371
:101630001F93CF93DF938C01F62ED72FC42F222335
:1016400049F081E0809374010E94E124909373013A
:1016500080937201809174018823C1F0809172019E
:10166000909173010E94ED24069780F0EF2DFD2FDD
:10167000D8014C2F50E0CD01801B910B84179507AA
:101680001CF48D918193F7CF10927401DF91CF916B
:101690001F910F91FF900895559889B185FB882778
:1016A00080F9089580917501811112C08091D80050
:1016B00080618093D8008AE18A95F1F700C080911B
:1016C000D90080FD02C082E001C081E080937501F5
:1016D00081E090917501913009F080E008950E94B9
:1016E0004C0B809310018091100166E0882311F06B
:1016F00080E001C086E00E94920C0E94520B811192
:101700000C94840B0C948A0B62E070E081E191E010
:101710000C94C91562E070E081E191E00C94D2155F
:101720000E94E80F882361F08FE791E00E94EE0F9E
:1017300081E090E00E94B416892B11F40C94EB0F19
:10174000089580917E01883039F460E08FE791E060
:101750000E94011010927E010895CF93DF93D82F3D
:10176000C92F0E94900B80E090E00E94B416892B54
:10177000E9F4ED2FFC2F80E090E0DC01A858BE4F8B
:101780002C912193019685309105B9F70E946D1136
:10179000882319F00E94CE1101C080E08093770168
:1017A0008DE791E00E945F1381E001C080E0DF914E
:1017B000CF910895CF93DF9300D0CDB7DEB7898363
:1017C0009A830E94A10B8981E82F9A81F92F80E0EA
:1017D00090E02191DC01A858BE4F2C9301968530F2
:1017E0009105B9F7809177010E94E5118DE791E0AD
:1017F0000F900F90DF91CF910C945613AF92BF9240
:10180000CF92DF92FF920F931F93CF93DF93D62E49
:10181000372FE82FF0E0711106C0ED57F94F6491B2
:10182000762F862F75C0C72FD0E0ED57F94F249142
:10183000F22E022F10E046E0649FC0011124EFEF6A
:10184000F0E0BF010E943F2DAB016BEA6403C001D1
:10185000659F900D11248D0D911D8D0D911D982F5B
:10186000990F890FDF01AC1BBD0B0A9FB0010B9FC5
:10187000700D1A9F700D1124972F839FD001112492
:10188000AB2FBB276F01CA1ADB0A0C9DD0010D9D3F
:10189000B00D1C9DB00D11245F01A81AB108AC9EBB
:1018A0006001AD9ED00CBC9ED00C1124CD2DDD2747
:1018B000EC1BFD0B0E9FE0010F9FD00D1E9FD00D66
:1018C0001124ED2F4230510591F04CF44115510592
:1018D000E1F041305105B9F4E22F2B2F16C044300E
:1018E000510569F044F04630510579F00CC0E22F03
:1018F000272F9D2F0AC0272F9F2DEB2F06C0E72FE4
:10190000922F2D2F02C0E72F9B2F6E2F722F892F22
:10191000DF91CF911F910F91FF90DF90CF90BF90FB
:10192000AF90089580938801609322010895CF932A
:10193000DF93762FE901682F842F0E94FE0B7983B5
:1019400068838A83DF91CF91089580913202982F26
:101950009695913021F081708260809332020895D3
:1019600088E090E00C949D2DCF93DF9300D000D0C1
:10197000CDB7DEB7AB01BC0149835A836B837C834F
:101980000E94A50C49815A816B817C8188E090E09E
:101990000F900F900F900F90DF91CF910C94BB2D73
:1019A000E2E3F2E083E0808311828FEF828383831E
:1019B0001482AAE8B1E012968C9112978360129675
:1019C0008C9360817181828193810C94B40C80919D
:1019D000200280FF08C08BEE95E09F938F930E94BA
:1019E0007D050F900F908091200280FF0FC08091A5
:1019F000320281701F928F938EEC95E09F938F93AC
:101A00000E947D050F900F900F900F908091200203
:101A100080FF0FC08091320286951F928F9383EBD7
:101A200095E09F938F930E947D050F900F900F90EC
:101A30000F908091200280FF0EC0809133021F9290
:101A40008F9389E995E09F938F930E947D050F9076
:101A50000F900F900F908091200280FF0EC0809118
:101A600034021F928F938FE795E09F938F930E948C
:101A70007D050F900F900F900F908091200280FFB6
:101A80000EC0809135021F928F9385E695E09F935B
:101A90008F930E947D050F900F900F900F90809173
:101AA000200280FF0EC0809136021F928F9389E43E
:101AB00095E09F938F930E947D050F900F900F905C
:101AC0000F90089580913602833018F48F5F8093D1
:101AD000360260913202709133028091340290910B
:101AE00035020C94B40C80913602882319F0815091
:101AF00080933602609132027091330280913402F9
:101B0000909135020C94B40C6091220170E08091A8
:101B1000320280FF0AC08091880123E0829FC001C9
:101B20001124895C9D4F0C948612809187019091BD
:101B30002101891780F7E82FF0E09F01220F331F62
:101B4000E20FF31FE95CFD4F1182108212828F5F5A
:101B5000F0CF809132028E7F809332026091320208
:101B60007091330280913402909135020E94B40C3E
:101B70008091200280FF0FC08091320281701F92FD
:101B80008F938BEC93E09F938F930E947D050F9032
:101B90000F900F900F9080918C01816080938C0149
:101BA0002FEF80E792E0215080409040E1F700C0A5
:101BB00000000C94840D809132028E7F809332025B
:101BC0008091200280FF0CC01F921F9281E993E058
:101BD0009F938F930E947D050F900F900F900F9011
:101BE00080918C01816080938C012FEF80E792E0DF
:101BF000215080409040E1F700C000000C94840D1B
:101C00009091320290FF16C090918701209121019E
:101C1000921770F4E92FF0E0DF01AA0FBB1FEA0F63
:101C2000FB1FE95CFD4F8183608342839F5FF0CFA0
:101C30000C94840D0895EF92FF920F931F93CF930E
:101C4000DF9300D01F92CDB7DEB79091320290FFA4
:101C500065C0E22EF42E062F182FE92FE695F0E04E
:101C6000E85CFE4F808180938A019E7F923059F418
:101C70009E012F5F3F4F812F0E94970C4B816981FE
:101C80008A810E94000E80913302811308C08091E6
:101C90003402801304C0809135028F1529F08091A1
:101CA0008C01826080938C01109333020093340284
:101CB000F0923502EE20E9F0609132027091330229
:101CC00080913402909135020E94B40C80912002E0
:101CD00080FF24C0809135021F928F93809134023F
:101CE0001F928F93809133021F928F938CE693E023
:101CF0000CC08091200280FF11C01F92FF921F92A2
:101D00000F931F921F9385E493E09F938F930E94FC
:101D10007D050FB6F894DEBF0FBECDBF0F900F90BC
:101D20000F90DF91CF911F910F91FF90EF90089549
:101D3000E2E3F2E09181282F4381628188E0890FFC
:101D40000C941B0E81E00C94980EE2E3F2E091817A
:101D5000282F4381628188EF890F0C941B0E81E04C
:101D60000C94A50EE2E3F2E0628121E1620F08F437
:101D70006FEF282F438181810C941B0E81E00C941E
:101D8000B20EE2E3F2E0628121E1621B08F460E05E
:101D9000282F438181810C941B0E81E00C94C10E8D
:101DA000E2E3F2E0438121E1420F08F44FEF282FF4
:101DB000628181810C941B0E81E00C94D00EE2E3D1
:101DC000F2E0438121E1421B08F440E0282F6281C8
:101DD00081810C941B0E81E00C94DF0E20E00C94AA
:101DE0001B0E8091320280FF3AC081708260809326
:101DF000320280918C01816080938C016623B1F066
:101E000060913202709133028091340290913502D8
:101E10000E94B40C8091200280FF19C08091320290
:101E200086951F928F938FE894E009C080912002DD
:101E300080FF0DC01F9281E08F9381E794E09F9314
:101E40008F930E947D050F900F900F900F904091FF
:101E5000350260913402809133020C94EE0E0895A5
:101E6000682F81E00C94F10E81E00C94300F682F04
:101E70009091320296958FEF890F09F481E00C94CE
:101E8000F10E81E00C94370F61E00C94F10E80911B
:101E900032028160809332028091200280FF0DC067
:101EA0001F9281E08F9383E094E09F938F930E9431
:101EB0007D050F900F900F900F90809132028695C4
:101EC0000C94440F8091200280FF10C08091320258
:101ED000809581701F928F938AE394E09F938F93F4
:101EE0000E947D050F900F900F900F90809132020D
:101EF00080FD0C94A90D0C94470F60E00C94F10E3A
:101F000080918901811163C08091200280FF08C007
:101F100082E395E09F938F930E947D050F900F9031
:101F20008091200280FF08C08CE195E09F938F9301
:101F30000E947D050F900F900E946923811110C0AF
:101F40008091200280FF08C084EF94E09F938F93DC
:101F50000E947D050F900F900E9412240E94D00CC9
:101F60000E94B00C6093320270933302809334026B
:101F70009093350280918C01836080938C016E7FF9
:101F8000C1F48091200280FF08C08BEA94E09F9307
:101F90008F930E947D050F900F900E94D00C0E949D
:101FA000B00C6093320270933302809334029093AA
:101FB00035020E94A50C0E94E70C8091320280FF3E
:101FC00003C086950E947D0F81E08093890108956A
:101FD00080918C01089510928C01089525E0E2E330
:101FE000F2E0DC0101900D922A95E1F720918A013F
:101FF00030918B0140918C01FC012583368347830E
:1020000008951F93CF93DF93EC01162F8F8180FFEC
:102010000FC0888180FF0AC0809132028160809366
:102020003202888186950E94F10E02C00E94DB0D6B
:102030008F8181FF09C0212F4B816A818981DF91C6
:10204000CF911F910C941B0EDF91CF911F9108959A
:10205000882311F0FA0101C0FB0109941F93CF936B
:10206000DF93FB01128111114AC0EC010E949E22F4
:102070008272FE01E25CFC45E431F10520F4EA5A8B
:10208000FF4F0C94752D11E03AC00E94620F37C0CB
:1020900041E45FE064E37FE004C044E35FE061E4C7
:1020A0007FE00E9428102BC04FEA5EE062EA7EE0EB
:1020B000F8CF42EA5EE06FEA7EE0F3CF4DEC5EE0FF
:1020C0006EEB7EE0EECF4EEB5EE06DEC7EE0E9CFB6
:1020D0004BEE5EE06CED7EE0E4CF4CED5EE06BEE4F
:1020E0007EE0DFCF43E75DE062E67DE0DACF42E607
:1020F0005DE063E77DE0D5CF81E00E94440F812F52
:10210000DF91CF911F9108950E946923811102C030
:102110000E9412240E949A2380935B02282F269506
:102120002695269530E02630310524F087708862A8
:1021300080935B0280915B0280FF04C08695869548
:10214000869501C080E00C94E51120915B02822FFE
:10215000869586958695482F50E04530510554F474
:102160008F5F982F990F990F990F822F8770892B66
:1021700080935B0280915B02816080935B020E948E
:102180009E238091200280FF11C080915B02869582
:10219000869586951F928F938BE696E09F938F93FB
:1021A0000E947D050F900F900F900F9080915B0221
:1021B0008695869586950C94E51180915B02982F03
:1021C000969596959695A1F0915E990F990F990F16
:1021D0008770892B80935B02887F91E009F490E0FF
:1021E00080915B0290FB80F980935B020E949E23AA
:1021F0008091200280FF11C080915B0286958695B8
:1022000086951F928F9383E596E09F938F930E940C
:102210007D050F900F900F900F9080915B02869537
:10222000869586950C94E51180915B0280FD1FC018
:10223000816080935B02813019F489E080935B02B6
:1022400080915B020E949E238091200280FF08C043
:102250008BE296E09F938F930E947D050F900F90E5
:1022600080915B028695869586950C94E51108957C
:1022700080915B0280FF14C08E7F80935B020E947E
:102280009E238091200280FF08C088E196E09F9302
:102290008F930E947D050F900F9080E00C94E511C4
:1022A0000895CF93C0915B02C1708091200280FF9E
:1022B0000CC01F92CF938DE396E09F938F930E9463
:1022C0007D050F900F900F900F90CC2319F0CF91B8
:1022D0000C943811CF910C94141180915B02817091
:1022E000089590915B02892F8695869586958F5FDC
:1022F0008F719770863038F4880F880F880F892B7C
:1023000080935B0202C090935B0280915B02887FA6
:1023100091E009F490E080915B0290FB80F980935A
:102320005B020E949E238091200280FF11C0809159
:102330005B028695869586951F928F9384E096E042
:102340009F938F930E947D050F900F900F900F9099
:1023500080915B028695869586950C94E511863072
:1023600008F085E0880F880F880F90915B029770C6
:10237000892B80935B02887F91E009F490E0809143
:102380005B0290FB80F980935B020E949E23809108
:102390005B028695869586950C94E51180915B028B
:1023A0008695869586950895E82FE295EF70F0E082
:1023B00032A1282F2F7081E090E001C0880F2A956C
:1023C000EAF78095832382A30895CF92DF92EF925C
:1023D000FF92863030F4811105C0909180009F7784
:1023E00004C085E090918000906890938000282F31
:1023F00030E0AFEFBFEF0E947B2D25E030E040E002
:1024000050E00E94532D2C3784E1380741055105D7
:1024100030F4C90169E070E00E943F2D29C0DA0163
:10242000C9018A50974DAF4FBF4F6627782F892F2C
:102430009A2F25EF38E241E050E00E94532D6901C8
:102440007A01CA01B9010E94232D9B01AC01C70189
:10245000B6010E94232DBB27A92F982F872F009705
:1024600021E0A207B10511F0BC0102C06FEF7FEFC0
:102470007093890060938800FF90EF90DF90CF9079
:1024800008950895259A85E30E94D41182E88093E7
:10249000800089E1809381008FEF9FEF9093870008
:1024A000809386000C9484102BB1342F3095232315
:1024B0003BB1432B3FB7F894FC01680F791FE61737
:1024C000F70789F0819198E04BB9000000C087FFC1
:1024D0002BB9880F000000C000C000C02BB900C09D
:1024E0009A9591F7ECCF3FBF08952AB1242B2AB9D2
:1024F0009B01220F331F620F731F0E94541287EC3F
:1025000090E00197F1F700C00000089540E40C94BA
:10251000751208950C94891280911001882309F492
:1025200048C020912401A22FA295AF70B0E09196EF
:102530006C9191972F7081E090E0AC01022E01C068
:10254000440F0A94EAF7342F3095362391963C9342
:10255000919792963C919297432B92964C93929797
:1025600040912301E42FE295EF70F0E031A14F702C
:10257000042E01C0880F0A94EAF7982F90959323B0
:1025800091A392A1892B82A390968C9190E002C096
:10259000959587952A95E2F78170992720A130E0DB
:1025A00002C0359527954A95E2F720FD09C020E045
:1025B00008C087EF8093240186EF80932301B1CF79
:1025C00022E0822B809392019091100181E0982764
:1025D00090938E01891B80938D010895CF93E09194
:1025E00092015E2F550F550F20912401E22FE295A5
:1025F000EF70F0E080A190E02F7002C09595879574
:102600002A95E2F78170992740912301E42FE29502
:10261000EF70F0E020A130E04F7002C035952795B3
:102620004A95E2F7F901E170FF2720FF02C0E2E0DE
:10263000F0E0E82BF92BE52BE0939201C0918E019D
:10264000EF70F0E0E65CFE4F908180919101890F80
:102650008093910184306CF0EC2F0C2E000CFF0B5A
:10266000E157FE4F80818F5F808361E08C2F0E9455
:102670008A12809191018D3F6CF4EC2F0C2E000C8E
:10268000FF0BE157FE4F80818150808360E08C2FEB
:102690000E948A1280919101837887FF03C0815044
:1026A0008C6F8F5F80939101CF910895E0918E019F
:1026B000F0E0E157FE4F2081FC0120830895FF9256
:1026C0000F931F93CF93DF93D0918D010D2F10E0C7
:1026D00001571E4FFC01C081F8018081C81BFC2EF0
:1026E0001F1454F4FA94F80180818F5F808361E0B5
:1026F0008D2F0E948A12F4CF8C2FC7FD80E0C81B5B
:10270000CC2351F0CF5FF80180818150808360E05D
:102710008D2F0E948A12F4CFDF91CF911F910F91DC
:10272000FF9008950F931F93CF93DF93C62FD42F5D
:10273000022FFC0182818823C9F0609395010E94D9
:10274000E124909394018093930180E28C0F883070
:1027500008F050C0C77081E001C0880FCA95EAF741
:10276000DF91CF911F910F910C94571A1091950101
:10277000161330C080919301909194010E94ED2432
:10278000883C910538F5C0E2CD0F1D17B9F080E205
:10279000810F883040F4177081E001C0880F1A95CE
:1027A000EAF70E945E1AC83048F481E09D2F9770C6
:1027B00001C0880F9A95EAF70E94571A802F0E944D
:1027C000441AC830B8F4D77081E001C0880FDA9598
:1027D000EAF70AC080E28C0F883060F4C77081E0AD
:1027E00001C0880FCA95EAF7DF91CF911F910F9131
:1027F0000C945E1ADF91CF911F910F9108959C0167
:10280000CB01233F4CE53407F9F078F4283DFCE593
:102810003F07B9F0293D4CE5340711F1273D3C4510
:1028200031F526E241EE61EE1EC0253FFCE53F0793
:1028300099F070F0263F3C45D1F427E245EE66EE74
:1028400012C027E245EE0EC026E241EE60EE0BC05C
:1028500027E245EE64EE07C026E241EE62EE03C0D9
:1028600028E241E065EE0E94921380E00895FC01A9
:102870008281882319F010929501089581E00895CE
:10288000CF93DF93EC01FB018281882309F41FC100
:10289000C230FCE5DF0708F41BC1C6319CE5D9074F
:1028A00038F09E012A5F3C452930310508F010C1FF
:1028B0000E947C239093610280936002C031ECE51A
:1028C000DE0709F4C3C008F041C0C8308CE5D80762
:1028D00009F49AC0F0F4C430ECE5DE0709F487C0CF
:1028E00068F4C2308CE5D80709F477C0C330DC4502
:1028F00009F0E3C080916002826076C0C630ECE5EA
:10290000DE0709F46EC008F07BC080916002886029
:102910006BC0CC308CE5D80709F485C068F4CA30A8
:10292000ECE5DE0709F474C008F079C00E94E71CEA
:1029300080916002806858C0CE308CE5D80709F4D9
:1029400076C008F07FC0809160028BC0CB3FECE581
:10295000DE0709F44FC018F5C3318CE5D80709F438
:102960007DC078F4C131ECE5DE0709F473C0C231F3
:10297000DC4509F0A2C00E94E71C809160028F77BD
:1029800033C0C5318CE5D80709F472C008F486C09D
:10299000CA3FDC4509F091C0809161023EC0CF3F43
:1029A000FCE5DF0709F45FC058F4CD3F9CE5D9078B
:1029B00009F444C008F43FC08091610282602DC0D8
:1029C000C130FDE5DF0709F475C008F45DC0C23011
:1029D000DD4509F072C080E06EC0809160028160C8
:1029E00003C08091600280618093600266C0809124
:1029F000600211C0809161028260809361025DC0BB
:102A0000809160028062F0CF809160028064ECCFA0
:102A10008091600288608460E7CF8160EECF809112
:102A200060028E7FE1CF809160028D7FDDCF80914B
:102A30006002877FD9CF8091610218C080916102C6
:102A40008D7FDBCF809160028F7ECECF8091600240
:102A50008F7DCACF809160028F7BC6CF809160024C
:102A6000877F8B7FC1CF809161028D7F8E7FC5CFA5
:102A70008091600282FB222720F991E0922790FB4F
:102A800082F990FB83F9B0CF80916102982F9095E5
:102A900091708E7F892B90FB81F9AFCF0E94E71C4C
:102AA0008091600287FB222720F991E0922790FB1A
:102AB00087F99ACF81E00E9414248091600290915E
:102AC00061020E948D230E94E71C80E001C081E02A
:102AD000DF91CF9108958EE1489B02C08150E1F7CC
:102AE000489BFECF0895589880E28A95F1F7589A4E
:102AF0000895FC013AE03A95F1F720E090E080E09B
:102B000031E0961779F040E14A95F1F7880F489B3C
:102B100002C08160232700C0000040E14A95F1F720
:102B20009F5FEFCF90E19A95F1F799B100C0000057
:102B300030E13A95F1F7917092272081920F9083BE
:102B40000895EF92FF920F931F93CF93DF931F92FD
:102B5000CDB7DEB7F62E1982E82E8C01802F8E19A4
:102B60008F1558F40E946B1568E0CE0101960E9403
:102B70007915F80181938F01F1CF81E0998191114D
:102B800080E00F90DF91CF911F910F91FF90EF9018
:102B90000895909398018093970160939601509ABD
:102BA000589A0895909398018093970160939601A5
:102BB0005098589AE89AE9E6F0E080818C7F80830B
:102BC0000895615091E001C0990F6A95EAF720E0FD
:102BD00031E0992361F0492F482319F0589A2327AF
:102BE00001C0589840E24A95F1F79695F2CF22231A
:102BF00011F0589A01C0589880E28A95F1F75898D8
:102C00000895EF92FF920F931F93CF93DF931F923C
:102C1000CDB7DEB7162F082F7C018E2D801B8117B4
:102C200058F4F70181917F0189830E94731568E050
:102C300089810E94E115F1CF0F90DF91CF911F9113
:102C40000F91FF90EF9008951F920F920FB60F9281
:102C500011240F931F932F933F934F935F936F9381
:102C60007F938F939F93AF93BF93EF93FF93CF93F4
:102C7000DF931F92CDB7DEB719820E946B1567E014
:102C8000CE0101960E947915382F369536953695E6
:102C9000932F96959570232F2570920F292F2370CF
:102CA000969596958770920F891348C089818111F6
:102CB00045C080919601831708F440C080E18A9551
:102CC000F1F7589A509AA2E0AA95F1F700C0009146
:102CD000970110919801B8E03B9F000D111D112440
:102CE0005898F8016581662321F0868197810E94BA
:102CF00001160E947315F0E1FA95F1F75898509873
:102D0000589A80E18A95F1F7D80112966C91129742
:102D1000662369F013968D919C9114970E94A115DA
:102D2000D801ED91FC91811105C082E004C0D80169
:102D3000ED91FC9188E080830E946B150F90DF91EC
:102D4000CF91FF91EF91BF91AF919F918F917F9123
:102D50006F915F914F913F912F911F910F910F9024
:102D60000FBE0F901F9018950F931F93CF93DF9373
:102D70002091960130E0281739070CF471C09C01AE
:102D800093E0220F331F9A95E1F7C0919701D091FC
:102D90009801C20FD31FF894509A589845E04A956D
:102DA000F1F70000982F969595708570890F982FF0
:102DB000937086958695890F8901082B0E9473155B
:102DC00084E08A95F1F700C067E0802F0E94E1154A
:102DD00040E14A95F1F75098589A489902C000C0CE
:102DE000FCCF87E090E0489B0EC0019751F4509AC9
:102DF000589AE881F98181E08083789481E090E0BD
:102E000031C000C0F0CF6D81662381F08E819F813B
:102E10000E94A11581110AC0509A589AE881F9813F
:102E200082E08083789482E090E01CC00E946B1561
:102E300080E28A95F1F75898509A40E14A95F1F767
:102E40006A81662321F08B819C810E9401160E9479
:102E50007315E881F9811082789480E090E002C0D7
:102E600084E090E0DF91CF911F910F9108959093AE
:102E70009E0180939D010895E0919D01F0919E0136
:102E8000309721F00190F081E02D099480E00895C1
:102E9000EF92FF920F931F93CF93DF93E0919D01E9
:102EA000F0919E013097B1F18C010280F381E02D09
:102EB00009958091200282FF2DC080FF04C08BE81D
:102EC00097E00E94E404E80118E085E8E82E87E036
:102ED000F82E8091200280FF0BC088811F928F9373
:102EE000FF92EF920E947D050F900F900F900F9030
:102EF000115021961111EDCF8091200280FF0AC060
:102F000083E897E0DF91CF911F910F91FF90EF90B1
:102F10000C94E404DF91CF911F910F91FF90EF90FB
:102F2000089520919B0130919C018217930771F0C5
:102F300090939C0180939B01E0919D01F0919E01F3
:102F4000309721F00680F781E02D099408952091B3
:102F5000990130919A018217930771F090939A0129
:102F600080939901E0919D01F0919E01309721F0AD
:102F70000084F185E02D0994089585B7806885BFA8
:102F800085B7806885BF0895089508950C94C51786
:102F900008950C94C8170E94BD170E94C4170C9482
:102FA000C6170E94D8240E949D090E9461250E9494
:102FB00084100E94800F0C94C917CF93C82F809162
:102FC000200282FF1EC080FF04C084EA97E00E94B6
:102FD000E4048091200280FF0CC01F92CF938FE900
:102FE00097E09F938F930E947D050F900F900F9015
:102FF0000F908091200280FF04C08DE997E00E942D
:10300000E4048C2FCF910C94DD05BF92CF92DF9218
:10301000EF92FF920F931F93CF93DF93CDB7DEB75D
:103020002B970FB6F894DEBF0FBECDBF0E946A0A81
:103030000E94520B811111C08FEF89838A831B82FA
:103040000E94E1248160782F9D838C8349815A817D
:103050006B818D810E949A1842C080EAC82E81E05F
:10306000D82E00E010E0B02E802F0E949709F601C4
:10307000E1906F01E82631F40F5F1F4F0A30110510
:1030800091F7DACF9091200291FF04C08B870E94C4
:1030900058098B8590E0FF24F3942F2D2E21D1F039
:1030A0009E83BF828F2191E009F490E098870E946F
:1030B000E1248160782F9A8789874E815F816885B6
:1030C0008A850E949A18F801E056FE4F8081F82602
:1030D000F08205C09F5FFF0C9630F9F6CDCF1091BE
:1030E0009F010E943C171817A9F00E943C1780937B
:1030F0009F012B960FB6F894DEBF0FBECDBFDF91B8
:10310000CF911F910F91FF90EF90DF90CF90BF90E4
:103110000C94DD172B960FB6F894DEBF0FBECDBF13
:10312000DF91CF911F910F91FF90EF90DF90CF90A3
:10313000BF900895CF93DF93CDB7DEB72B970FB62F
:10314000F894DEBF0FBECDBF4F83588769877A875B
:103150008B87DE01119686E0FD0111928A95E9F7D1
:1031600085E0FE01379601900D928A95E1F749813D
:103170005A816B817C818D819E810E94911F2B964B
:103180000FB6F894DEBF0FBECDBFDF91CF9108958B
:10319000FC01808191810E945F220895882309F4B7
:1031A00013C1682F8238C1F40E943C1781FD0CC105
:1031B00069E380912501909126010E944B240E9491
:1031C000EA222FEF81EE94E0215080409040E1F719
:1031D00000C0000069E319C08338F9F40E943C176D
:1031E00080FDF2C063E580912501909126010E9447
:1031F0004B240E94EA222FEF81EE94E02150804080
:103200009040E1F700C0000063E5809125019091B6
:1032100026010E944D240C94EA228438C1F40E94B5
:103220003C1782FDD1C067E4809125019091260171
:103230000E944B240E94EA222FEF81EE94E021505D
:1032400080409040E1F700C0000067E4DECF8CEFE3
:10325000860F813A38F480912501909126010E94D1
:103260004B24D9CF80E2860F883048F4677081E024
:1032700001C0880F6A95EAF70E94A122CCCF8BE5A6
:10328000860F833070F4653A29F0663A31F083E8AE
:1032900090E005C081E890E002C082E890E00C94E4
:1032A000911788E5860F873108F08EC0683A09F4D7
:1032B00045C0693A09F445C06A3A09F445C06B3A19
:1032C00009F445C06C3A09F445C06B3B09F445C0AC
:1032D0006C3B09F445C06D3A09F445C0603B09F404
:1032E00045C06E3A09F445C06F3A09F445C0613BE8
:1032F00009F445C0623B09F445C0633B09F445C08D
:10330000643B09F445C0653B09F445C0663B09F4DC
:1033100045C0673B09F445C0683B09F445C0693BBB
:1033200009F445C06D3B09F445C06E3B09F445C046
:103330006A3B09F445C080E090E044C082EE90E032
:1033400041C089EE90E03EC08AEE90E03BC085EB44
:1033500090E038C086EB90E035C083EB90E032C05F
:1033600084EB90E02FC087EB90E02CC08CEC90E0D9
:1033700029C08DEC90E026C083E891E023C08AE864
:1033800091E020C082E991E01DC084E991E01AC07B
:1033900081E292E017C083E292E014C084E292E0FE
:1033A00011C085E292E00EC086E292E00BC087E297
:1033B00092E008C08FE690E005C080E790E002C090
:1033C0008AE292E00C94A7170895882309F45BC061
:1033D000682F823879F40E943C1781FF54C069E35A
:1033E00080912501909126010E944B240E94EA229F
:1033F00069E310C08338B1F40E943C1780FF43C0DA
:1034000063E580912501909126010E944B240E9442
:10341000EA2263E580912501909126010E944D24C6
:103420000C94EA22843879F40E943C1782FF2BC066
:1034300067E480912501909126010E944B240E940F
:10344000EA2267E4E7CF8CEF860F813A18F380E237
:10345000860F883048F4677081E001C0880F6A9554
:10346000EAF70E94A722DCCF8BE5860F833020F499
:1034700080E090E00C949117685A673120F480E066
:1034800090E00C94A7170895CF93C82F0E94CE18F0
:10349000C93349F42FEF87EE93E0215080409040EC
:1034A000E1F700C000008C2FCF910C94E519882320
:1034B00021F00E94A1220C94EA220895882321F091
:1034C0000E94A7220C94EA220895BF92CF92DF9225
:1034D000EF92FF920F931F93CF93DF937C01062F00
:1034E000C72FFC01158112951F70D281D1110E9446
:1034F000BE220E949722882379F0DD2369F080E2C2
:10350000800F883048F082E00E9435230E94972285
:1035100091E0B82EB92601C0B12CCC2EC2948FE018
:10352000C822D12CF601E659FF4F0C94752D8C2F33
:10353000807FCF70882311F0C295C07FDD2399F082
:10354000CC2309F48DC180E2800F883010F0011186
:1035500004C08C2F0E94A12203C08C2F0E94B12294
:103560000E94EA227DC1802F0E94E519CC2309F434
:10357000C0C180E2800F883010F0011104C08C2F90
:103580000E94A72203C08C2F0E94B7220E94EA2229
:10359000B0C18C2F807FCF70803211F0C295C07F78
:1035A000002319F00130C9F022C0DD2371F011238E
:1035B00041F0113031F40E94D1228C2B0E94D7228D
:1035C00098C10E94D1228C2B1DC0112319F01130FB
:1035D00009F48FC10E94E02225C0DD2321F01630BE
:1035E00008F087C10EC0153008F083C11BC0DD2371
:1035F00061F0112331F0F701858180FF31C18F70B7
:1036000085838C2F0E94571A74C1112359F00933F6
:1036100009F037C1FFEF27EE83E0F15020408040F2
:10362000E1F72DC18C2F0E945E1A63C18C2F869505
:103630008695837090E0009719F0019761F059C169
:10364000DD2321F0802F9C2F937002C080E090E05A
:103650000E94911759C1DD2321F0802F9C2F937078
:1036600002C080E090E00E94A7174EC18C2F8370AB
:1036700009F049C0D11144C1402F42954695477089
:10368000440F440F602F6F70862F90E0A0E0B0E0F1
:10369000042E04C0880F991FAA1FBB1F0A94D2F7DB
:1036A00004FF10C00FE010E020E030E004C0000F85
:1036B000111F221F331F4A95D2F7009510952095B0
:1036C000309503C000E010E09801C695C695C37020
:1036D000D0E0BC01CD01602B712B822B932BC2302B
:1036E000D10559F0C330D10559F0219719F00E9446
:1036F000D62006C10E94C42003C10E94E82000C158
:103700000E94C220FDC0DD2319F08C2F817001C002
:103710008695882309F4F4C0402F4295469547705A
:10372000440F440F602F6F70862F90E0A0E0B0E050
:10373000042E04C0880F991FAA1FBB1F0A94D2F73A
:1037400004FF10C00FE010E020E030E004C0000FE4
:10375000111F221F331F4A95D2F70095109520950F
:10376000309503C000E010E09801C695C695C3707F
:10377000D0E0BC01CD01602B712B822B932BC2308A
:10378000D10559F0C330D10559F0219719F00E94A5
:103790009C21B6C00E948A21B3C00E94AE21B0C055
:1037A0000E94FD20ADC0CF70DD2339F08C2F0E9428
:1037B0002321802F0E94571AA3C0802F0E945E1AD7
:1037C0008C2F0E9444219CC0023F01F128F4003F4D
:1037D00041F0013FA1F040C0033FF9F0043F39F14F
:1037E0003BC0DD2341F0153008F083C08C2F8F7172
:1037F0000E9469217EC0163008F07BC0F7CFDD2320
:1038000039F08C2F8F710E94232173C0DD23C9F3FF
:103810008C2F8F710E9444216CC0DD2329F08C2FE6
:103820008F710E940E2165C00E94092162C0DD23B4
:1038300049F0CF718C2F0E94232163E08C2F0E94CE
:10384000202357C081E00E943523123008F451C074
:1038500082E00E9435234DC0DD2331F0112389F22F
:10386000802F0E94CE1845C0112391F2093349F4EC
:103870009FEFE7EEF3E09150E040F040E1F700C049
:103880000000802F0E94E51934C04C2F4F70602F2C
:10389000C7010E947C060E94352036C0D11134C079
:1038A000CF70D0E0C230D10599F03CF4209769F098
:1038B0002197F9F40E94DD1027C0C430D10571F0C2
:1038C00054F02597B1F480E00AC00E94A5101CC0F6
:1038D0000E94511119C00E94711116C085E00E940A
:1038E000AF1112C04C2F4F70602FC7010E947F068E
:1038F0000BC028E0C21AD10884E0C816D10420F415
:103900000E943C170E94DD05BB20D1F00E9493224B
:1039100080FD16C0F70112820E948D220E94232191
:10392000C7010E94AA1C0E948D22DF91CF911F9196
:103930000F91FF90EF90DF90CF90BF900C944421B7
:10394000DF91CF911F910F91FF90EF90DF90CF907B
:10395000BF9008950F931F93CF93DF93EC0188815D
:1039600099812B813C81232BB9F09F3F11F48F3F2C
:1039700099F0CE010E94F605882371F06881798163
:103980008A810E946A228C010E94C0210E94C1206B
:10399000B801CE010E94651ADF91CF911F910F915E
:1039A00008950E94BE220E94CE220E94EA2280E058
:1039B00090E00E94911780E090E00C94A71780910E
:1039C0002501909126010E944F240C94D11C0E9445
:1039D000AE220C94DF1CE92FE295EF70F0E03297F5
:1039E000EE30F105B0F4E658FF4F0C94752D803F92
:1039F00091F018F4883E68F40EC0843F51F40BC077
:103A0000883E48F0813F29F406C093FB882780F95F
:103A1000089580E0089581E008950E945F220E9449
:103A2000EB1C0895CF93DF9300D000D01F92CDB749
:103A3000DEB70F900F900F900F900F90DF91CF9106
:103A40000895CF93DF9300D000D000D0CDB7DEB77C
:103A500026960FB6F894DEBF0FBECDBFDF91CF9193
:103A600008951F93CF93DF93C091AB0116E080912F
:103A7000AC01C81799F0D0E01C9FF0011D9FF00D1C
:103A80001124E355FE4F408151816281738184810D
:103A900095810E94211D2196C770E9CFDF91CF91BA
:103AA0001F9108954091DD015091DE016091DF0189
:103AB0007091E0018091E1019091E2010C94211D4F
:103AC0008091E20182958F7009F054C08091DF01EE
:103AD000882309F44FC08091AB01A091AC016091A3
:103AE000DD017091DE014091E0015091E101B6E00D
:103AF0008A1709F43FC090E041155105C1F17F3F9D
:103B000011F46F3FA1F1B89FF001B99FF00D11249E
:103B1000E355FE4F218172132AC02081621327C012
:103B20002281211124C0238134812417350710F408
:103B300021503109241B350B283C3105C0F420915C
:103B4000E2012F7020612093E20126E0289FF0011E
:103B5000299FF00D1124EE54FE4F80818F708061FB
:103B600080838DED91E00E94AA1C0C94311D01967A
:103B70008770BECF0895CF92DF92EF92FF920F939E
:103B80001F93CF93DF93CDB7DEB762970FB6F8944C
:103B9000DEBF0FBECDBF8C0185E0F801DE011D96B2
:103BA00001900D928A95E1F7D8014C9111965C91A4
:103BB000119712966C9112971396CD90DC901497F2
:103BC0003091DD017091DE018091E0019091E10181
:103BD000009709F46BC17F3F19F43F3F09F466C1B8
:103BE000E090DF01EE2009F4C0C02091E201C81688
:103BF000D90628F0F601E81BF90BCF0104C0809527
:103C000090958C0D9D1DFF24F394883C910578F0D0
:103C1000F12C207F09F0C6C07C2DD98AC88A8989F9
:103C20000E94121D8DED91E00E94AA1CB1C0822F4E
:103C3000807F09F046C0751314C0341312C061119F
:103C400010C02F7020612093E2010E94521D8DED63
:103C500091E00E94AA1C8091E201D80115968C93F4
:103C60002EC0CD2819F15F3F11F44F3FF9F0F62E29
:103C700061111CC08091AB012091AC0136E082172C
:103C800009F45AC090E0389FF001399FF00D1124DB
:103C9000E355FE4F7181571306C07081471303C06F
:103CA0007281711103C001968770E9CFF62E6623E9
:103CB00009F427C18091E20181608093E201F12C37
:103CC00020C1751308C0341306C0611104C080916F
:103CD000E201D801C3C04D875E878D859E856A8BC2
:103CE0000E940D1D6A898823E1F16623D1F120919C
:103CF000E201822F82958F7090E0029774F080919C
:103D0000DD019091DE0198878F831986DB86CA8654
:103D10002C87CE0107960E94AA1C86E0F801ADED23
:103D2000B1E001900D928A95E1F70E94601D0E941A
:103D3000521DFF24F394E5C04D875E878D859E85D7
:103D40000E945F22292F22952F7030E0223031050A
:103D50000CF0CBC09F7009F0C5C0805E883008F4BD
:103D6000D0C0C8010E94AA1CE4CFC816D90608F426
:103D700053C0F601E81BF90BCF01883C910508F40C
:103D800050C0F12C7C2DD98AC88A89890E94121DC5
:103D9000EDEDF1E086E0DF011D928A95E9F70E94E2
:103DA000521DAFC0751314C0341312C0611110C07E
:103DB0008091E201F8018583C8010E94AA1C86E077
:103DC000EDEDF1E0DF011D928A95E9F7FE2C99C037
:103DD0004D875E878D859E856A8B0E940D1D6A8941
:103DE000882309F4BECF662309F4BBCF2091E201FA
:103DF000822F82958F7090E002970CF48ECF809185
:103E0000DD019091DE019A8389831B82DD82CC8261
:103E10002E83CE0101967FCF809590958C0D9D1DB0
:103E2000ACCFF62E662309F49CCF75132EC0341345
:103E30002CC02091E20120FD1FC0822F82958F703F
:103E4000D9F0D80115962C9315978F3049F08F5FD4
:103E5000982F9295907F822F8F70892B15968C9337
:103E6000C8010E94AA1C86E0F801ADEDB1E0019006
:103E70000D928A95E1F793CF86E0F801ADEDB1E0C0
:103E800001900D928A95E1F73CC04D875E878D8544
:103E90009E850E940D1D811140CF8091E2018160BD
:103EA0008093E201C8010E94AA1C2BC0662309F47A
:103EB00058CF4D875E878D859E850E940D1DF82EFB
:103EC000882309F44ECF86E0F801ADEDB1E0019012
:103ED0000D928A95E1F78DED91E00E94C8180E943D
:103EE000601D5DCF811139CF0CC0243031050CF03D
:103EF00038CF9F7009F431CFF8019581907F09F098
:103F00002CCF8F2D62960FB6F894DEBF0FBECDBFBB
:103F1000DF91CF911F910F91FF90EF90DF90CF90A5
:103F200008951F93CF93DF93CDB7DEB72C970FB6CD
:103F3000F894DEBF0FBECDBF4F83588769877A875D
:103F40008B879C87CE0107960E94BB1D882369F052
:103F50008F8198852A853B85232BF1F19F3F09F0BE
:103F600063C08F3F09F060C037C086E0FE0137961E
:103F7000DE01119601900D928A95E1F76F817885A7
:103F8000EA85FB85309741F17F3F11F46F3F21F1C6
:103F90002091AC0130E0C9010196877099274091CA
:103FA000AB0150E08417950709F447C069837A8311
:103FB000FD83EC8396E0929FD001939FB00D112476
:103FC000A355BE4FFE01319601900D929A95E1F7EF
:103FD0008093AC010E94311D16E08091AB0190915D
:103FE000AC018917C1F1189FC001112483559E4F60
:103FF0000E94BB1D882379F1E091AB011E9FF00167
:104000001124E355FE4F4081518162817381848187
:1040100095810E94211D8091AB0190E001968770EF
:1040200099278093AB01D9CF4F81588569857A85CF
:104030008B859C850E94211DCFCF0E94E71C10928A
:10404000AC011092AB01EDEDF1E086E0DF011D92D5
:104050008A95E9F7C1CF2C960FB6F894DEBF0FBE54
:10406000CDBFDF91CF911F910895EF92FF920F93F3
:104070001F93CF93DF938C01892B09F46CC0F12C33
:10408000EE24E394E8012196F8018491843740F40A
:10409000843008F051C0813081F0823019F15BC06A
:1040A000853709F444C0A8F19CE7980F903708F0D1
:1040B00052C08F770E94E51941C00E5F1F4FFE016D
:1040C000C49180E28C0F883048F4C7708E2D01C0F7
:1040D000880FCA95EAF70E94C12214C08C2F0E9453
:1040E000CE182DC00E5F1F4FFE01C49180E28C0FD1
:1040F000883058F4C7708E2D01C0880FCA95EAF732
:104100000E94C7220E94EA221AC08C2F0E94E51941
:1041100016C00E5F1F4FFE01C491CC2381F08FE9C2
:104120009FE00197F1F700C00000C150F6CF0E5F8D
:104130001F4FFE01F49003C00E94CE188E018F2DF8
:10414000882309F49FCFEFE9FFE03197F1F700C032
:1041500000008150F5CFDF91CF911F910F91FF901B
:10416000EF90089508950C94B2200E94B3206093BC
:104170000F027093100280931102909312020C941C
:10418000D11C08950C94B5200F931F9300910F023A
:10419000109110022091110230911202602B712BAC
:1041A000822B932B1F910F910C94B5200F931F938B
:1041B00000910F0210911002209111023091120211
:1041C00060237123822393231F910F910C94B520B8
:1041D0000F931F9300910F02109110022091110272
:1041E0003091120260277127822793271F910F9128
:1041F0000C94B52008950C94FA200E94FB20609343
:104200000B0270930C0280930D0290930E020C949B
:10421000D11C60E070E0CB010C94FD200F931F9344
:1042200041E050E060E070E08A019B0104C0000FB3
:10423000111F221F331F8A95D2F7C901B8011F91A0
:104240000F910C94FD200F931F9341E050E060E02C
:1042500070E004C0440F551F661F771F8A95D2F780
:1042600080910B0290910C02A0910D02B0910E0270
:104270008A019B01082B192B2A2B3B2BC901B80162
:104280001F910F910C94FD200F931F9341E050E07C
:1042900060E070E004C0440F551F661F771F8A95C9
:1042A000D2F7409550956095709580910B02909152
:1042B0000C02A0910D02B0910E028A019B0108230D
:1042C00019232A233B23C901B8011F910F910C9494
:1042D000FD200F931F9341E050E060E070E004C0C8
:1042E000440F551F661F771F8A95D2F780910B02E6
:1042F00090910C02A0910D02B0910E028A019B01D7
:10430000082719272A273B27C901B8011F910F91B8
:104310000C94FD200F931F9300910B0210910C023F
:1043200020910D0230910E02602B712B822B932B6A
:104330001F910F910C94FD200F931F9300910B027E
:1043400010910C0220910D0230910E026023712316
:10435000822393231F910F910C94FD200F931F93A1
:1043600000910B0210910C0220910D0230910E026F
:1043700060277127822793271F910F910C94FD20AE
:104380000895292F220F920F990F890FA82FA69514
:10439000A695A695877051E001C0550F8A95EAF75A
:1043A00085E0A89FD001112420E030E070E0F90101
:1043B000EA0FFB1FED51FE4F4081CB01022E02C0E0
:1043C000969587950A94E2F78170992781958427BD
:1043D0008523842780832F5F3F4F2530310539F7B0
:1043E0000895292F220F920F990F890F682F669534
:1043F00066956695982F977085E0689FB0011124A7
:1044000040E050E080E0FA01E60FF71FED51FE4F6B
:10441000208130E0092E02C0369527950A94E2F7F4
:1044200021703327042E01C0220F0A94EAF7822B51
:104430004F5F5F4F4530510531F70895BF92CF92DE
:10444000DF92EF92FF920F931F93CF93DF938C0134
:10445000C0900F02D0901002E0901102F090120272
:1044600080910B0290910C02A0910D02B0910E026E
:10447000C82AD92AEA2AFB2ACFE1D0E0D701C6010F
:104480000C2E04C0B695A795979587950A94D2F7F8
:1044900080FF07C0BC2EB8018C2F0E949A0601979E
:1044A00019F4219758F7B12C8B2DDF91CF911F91E3
:1044B0000F91FF90EF90DF90CF90BF900895CF9332
:1044C000DF93EC010E941E22BE010E949A06DF913A
:1044D000CF9108951F93CF93DF93EB019091AA01A1
:1044E000992321F0CB010E945F2213C0882349F059
:1044F000CB010E941E22182F682FCE010E94C121DD
:1045000004C0CB010E94F121182FBE01812F0E940F
:104510009A06DF91CF911F9108958091130285959E
:1045200085958595089580911302877008959091DF
:104530001302977081E009F480E0089580911F02D2
:10454000089590911F02892B80931F0208958095F2
:1045500090911F02892380931F02089510921F02D9
:10456000089590911E02892B80931E0208958095D4
:1045700090911E02892380931E02089510921E02BC
:10458000089590911D02892B80931D0208958095B6
:1045900090911D02892380931D02089510921D029F
:1045A000089580911402089508950C94D422909156
:1045B0001402981721F0809314020C94D5220895C8
:1045C00080911402882329F01092140280E00C9448
:1045D000D5220895E0912501F091260180911F02D6
:1045E0008083E0912501F0912601908180911E0247
:1045F000892B8083E0912501F091260190818091A3
:104600001D02892B808380911402882381F0E09120
:104610002501F09126019081892B808380912501CD
:10462000909126010E94192481110E94E02280911C
:104630002501909126010C94481708950C941D2390
:1046400098E0899F90011124262B209313020E9449
:104650002321809113028595859585950C941E23C1
:104660001092130280E00C941E2320911302809577
:10467000822380931302982F977079F430E0482FAB
:10468000082E000C550B2417350739F085958595B4
:1046900085950E9444210C943023089590935B01EA
:1046A00080935A0108958295982F9C7C392F3695D6
:1046B0003695282F237344E0249FC0011124932FA3
:1046C000982B292F2A7A2695892F8575880F822B7A
:1046D000089580E090E00E94A32D21E08C3E9E4F43
:1046E00009F020E0822F089582E090E00C94952D4F
:1046F00083E090E00C94952DCF9384E090E00E94AD
:10470000952DC82F81E290E00E94952D2C2F30E04E
:10471000A901582BCA01CF910895CF93C92F682FB3
:1047200084E090E00E94A92D6C2F81E290E0CF916F
:104730000C94A92D86E090E00C94952D682F86E0CE
:1047400090E00C94A92DAB01BC018FE090E00C949B
:10475000BB2DAB01BC0183E190E00C94BB2D60E06C
:1047600070E0CB010C94A92360E070E0CB010E94C3
:10477000A3230C94AF236CEE7EEF80E090E00E94C8
:10478000C72D60E082E090E00E94A92D60E083E008
:1047900090E00E94A92D10920F0210921002109228
:1047A00011021092120260E084E090E00E94A92DB4
:1047B00060E081E290E00E94A92D60E085E090E059
:1047C0000E94A92D60E086E090E00E94A92D6FEF85
:1047D00087E090E00E94A92D40E050E0BA0188E017
:1047E00090E00E94BB2D60E08DE090E00E94A92D3A
:1047F00040E050E0BA0188E190E00E94BB2D60E00B
:1048000087E190E00E94A92D40E050E0BA018CE1E0
:1048100090E00E94BB2D60E080E290E00E94A92D14
:104820000C94B4230C94BB23682F8EE090E00C947E
:10483000A92DFC01329697E080E0915029F021915A
:104840002223D9F38F5FF9CF08959C01FC013296A2
:104850009FEF80E04191461789F09F3F19F4411185
:1048600001C0982F8F5F8630A9F79F3F39F0F9017B
:10487000E90FF11D97FDFA95628308950895FC01F3
:10488000329608962081261301C010823196E817CF
:10489000F907C1F708950C9425240C943F2402963F
:1048A00026E0FC0111922A95E9F7089508950C94E9
:1048B00056240E94572480916602843061F1109240
:1048C000210220E488E190E00FB6F894A895809347
:1048D00060000FBE2093600080E00E94E51180E040
:1048E0000E94DD050E94572483B7817F846083BFC7
:1048F00083B7816083BF7894889583B78E7F83BFA9
:104900000FB6F894A895809160008861809360004C
:10491000109260000FBE089508950895CF930E94ED
:104920008C240E946A0A0E948D24C0E08C2F0E9471
:104930009709811104C0CF5FCA30C1F701C081E07F
:10494000CF91089508950C94A2240E94E71C0E9420
:1049500084100E943C170E94DD050C94A3241F9232
:104960000F920FB60F9211248F939F93AF93BF9323
:1049700080912102811113C080915C0290915D02AF
:10498000A0915E02B0915F024196A11DB11D80937E
:104990005C0290935D02A0935E02B0935F02BF91B0
:1049A000AF919F918F910F900FBE0F901F90189510
:1049B00082E084BD93E095BD9AEF97BD80936E0031
:1049C00008952FB7F89480915C0290915D02A091B8
:1049D0005E02B0915F022FBF0895CF92DF92EF92F7
:1049E000FF920F931F932FB7F89440915C02509160
:1049F0005D0260915E0270915F022FBF6A017B01D0
:104A0000EE24FF248C0120E030E0C016D106E2063F
:104A1000F30610F4415051099A01281B390BC901C2
:104A20001F910F91FF90EF90DF90CF9008957894B1
:104A30001F920F920FB60F9211248F939F93AF93F3
:104A4000BF9380915C0290915D02A0915E02B09153
:104A50005F020196A11DB11D80935C0290935D02DF
:104A6000A0935E02B0935F02BF91AF919F918F912F
:104A70000F900FBE0F901F90189581E08093E0007B
:104A800080E28093D8001092C9008FE19EE40197E4
:104A9000F1F700C0000087E090EBDC0180936F022B
:104AA00090937002A0937102B09372029CE088E12F
:104AB0000FB6F894A895809360000FBE90936000A5
:104AC000FFCF0E946923811102C00E9412240E941C
:104AD0007423809320020E947C2390936102809330
:104AE00060020E947823682F70E080E090E00C94D0
:104AF000C22080912D02089508959FB7F8941092D6
:104B000024029FBF90916602943009F057C09091A3
:104B1000E9009F703091EC00232F217030FD20E8D8
:104B2000922B23E02093E9002091EB0020FF43C06B
:104B30002091EE0027FF3FC020912202222321F086
:104B40002091E80025FF37C01092220226E0309124
:104B5000E80035FD15C030916602343061F53091C2
:104B6000EB0035FD28C0215021F481E08093220222
:104B700022C0EFE9FFE03197F1F700C00000E7CF76
:104B80008093F1008091E80085FD0AC08091E800E3
:104B900080FFFCCF8091E8008E778093E80006C00C
:104BA0008FB7F89421E0209324028FBF9F709093D9
:104BB000E90080E008959F709093E9008FEF0895D9
:104BC0000F931F93CF93DF9300D01F92CDB7DEB723
:104BD0008C010E946B28823011F0843021F584E032
:104BE00089831B830A8382E08093E9008FEF909191
:104BF000E800815095FD06C095ED9A95F1F700000B
:104C00008111F5CF8091E80085FF0DC040E050E0B4
:104C100063E070E0CE0101960E9488288091E80050
:104C20008E778093E8000F900F900F90DF91CF91D7
:104C30001F910F910895CF93DF9300D01F92CDB7AE
:104C4000DEB720916602243031F523E029838058B5
:104C500091099B838A8382E08093E9008FEF909192
:104C6000E800815095FD06C095ED9A95F1F700009A
:104C70008111F5CF8091E80085FF0DC040E050E044
:104C800063E070E0CE0101960E9488288091E800E0
:104C90008E778093E8000F900F900F90DF91CF9167
:104CA0000895CF93DF93EC010E946B28823011F0BE
:104CB000843039F581E08093E9008FEF9091E8002E
:104CC000815095FD06C095ED9A95F1F70000811190
:104CD000F5CF8091E80085FF14C040E050E068E027
:104CE00070E0CE010E9488288091E8008E77809342
:104CF000E80088E0FE01A5E2B2E001900D928A95FD
:104D0000E1F7DF91CF9108958CED97E00E94E404E4
:104D100080916502811109C00E941D2A0E947A2A91
:104D20008091E20084608093E200089588ED97E02E
:104D30000E94E40410926502089584ED97E00C94BB
:104D4000E40480ED97E00C94E4048CEC97E00E947E
:104D5000E4040C94A524209123022F5F822F62E3A8
:104D60000E94332D992319F0209323020895109265
:104D7000230280912402882371F18091660284309D
:104D800041F58091E9008F702091EC00922F917095
:104D900020FD90E8892B93E09093E9009091EB003F
:104DA00090FF14C09091EE0097FF10C09091E80022
:104DB00095FF03C01092F100F9CF9091E80090FFA9
:104DC00005C09091E8009E779093E8008F708093E3
:104DD000E90010922402089542E061EC81E00E9413
:104DE000972942E261EC82E00E94972942E261EC5D
:104DF00083E00C94972980916802833009F460C0A5
:104E000030F4813071F0823009F499C008958A300D
:104E100009F485C08B3009F46BC0893009F0A7C054
:104E200020C080916702813A09F0A1C08091E8001A
:104E3000877F8093E80080916B0290916C02892BB0
:104E400021F468E085E292E003C060E080E090E059
:104E500070E00E94D3288091E8008B778093E8006F
:104E6000089580916702813209F081C080916B02C0
:104E700090916C02029708F07AC08091E800877FD9
:104E80008093E8008091E80082FD05C08091660271
:104E90008111F8CF6CC02091F3008091F20090E076
:104EA000922B029729F48091F1008B7F813021F4BD
:104EB0008091F10080932D028091E8008B7753C0A0
:104EC00080916702813A09F052C080916B02909103
:104ED0006C02892B09F04BC08091E800877F80939A
:104EE000E8008091E80080FFFCCF8091310136C05E
:104EF000809167028132D9F580916B0290916C02AA
:104F0000892BA9F58091E800877F8093E8000E94B3
:104F1000CC2980916902809331010C94E71C809127
:104F20006702813221F58091E800877F8093E80055
:104F30000E94CC2980916A0280932E02089580916C
:104F40006702813AA1F48091E800877F8093E800AE
:104F50008091E80080FFFCCF80912E028093F100C9
:104F60008091E8008E778093E8000C94CC29089516
:104F700084B7877F84BF0FB6F894A89580916000AE
:104F8000886180936000109260000FBE90E080E81E
:104F90000FB6F89480936100909361000FBE0E9459
:104FA000CB170E941D2A0E947A2A8091E200846019
:104FB0008093E2008DE795E20E944E2378940E9450
:104FC000082D0E94D11787E291E00E9437178BEBE2
:104FD00097E00E94E40480916602853089F487EBB3
:104FE00097E00E94E4040E9459248091640288237F
:104FF00091F30E948E24882371F30E947228EBCFD4
:105000000E940518E8CF0C940528292F3327233058
:105010003105C9F064F42130310581F022303105C9
:1050200009F049C08BE590E028E138E048C0213222
:10503000310521F12232310571F13DC082E190E06C
:1050400023E738E03CC099278130910571F02CF4BA
:10505000892B89F5E4E1F8E00DC08230910541F03B
:10506000039749F5E0EEF7E005C0E4E0F8E002C0A0
:10507000E6EEF7E0849190E09F0121C06330710576
:10508000D0F4660F771FFB01ED5AFE4F208131816E
:1050900089E090E014C06330710568F4FB01EE0F05
:1050A000FF1FE35BFE4F20813181FB01E65BFE4F7A
:1050B000808190E004C080E090E020E030E0FA01E0
:1050C00031832083089580916602843011F081E05D
:1050D000089582E0089580912F02811102C00C94FE
:1050E0006328089580E189BD82E189BD09B400FE8D
:1050F000FDCF8091D8008F7D8093D8008091E00013
:1051000082608093E0008091E00081FDFCCF0895F3
:10511000CF92DF92EF92FF920F931F93CF93DF9383
:10512000EC018B016A010E94EB29811133C0C1148B
:10513000D10439F0F60180819181081B190BC80F49
:10514000D91FE12CF12C0115110519F18091E8000E
:1051500085FD16C08091E8008E778093E800C11429
:10516000D10449F0F60180819181E80EF91EF182A7
:10517000E08285E00FC00E94EB29882321F30AC05A
:1051800089918093F10001501109FFEFEF1AFF0A96
:10519000DACF80E0DF91CF911F910F91FF90EF90D8
:1051A000DF90CF90089520916D0230916E02261706
:1051B000370748F06115710539F42091E8002E7722
:1051C0002093E80001C0B90140E061157105A9F123
:1051D00020916602222309F443C0253009F442C01D
:1051E0002091E80023FD40C02091E80022FD32C05C
:1051F0002091E80020FFE9CF4091F3002091F200D8
:1052000030E0342BFC01CF016115710559F02830D5
:10521000310540F481918093F100615071092F5F55
:105220003F4FF1CF41E02830310509F040E02091B7
:10523000E8002E772093E800C8CF4111C9CF0AC0FB
:1052400080916602882361F0853061F08091E800EA
:1052500083FD0AC08091E80082FFF2CF80E00895CC
:1052600082E0089583E0089581E0089520916D0221
:1052700030916E022617370748F06115710539F431
:105280002091E8002E772093E80001C0B901FC01CD
:1052900020E06115710591F180916602882309F47F
:1052A00040C0853009F43FC08091E80083FD3DC0D7
:1052B0008091E80082FD2FC08091E80080FFE9CF57
:1052C0002091F3008091F20090E0922B611571051E
:1052D00059F08830910540F424912093F1003196E3
:1052E000615071090196F2CF21E0089709F020E0A2
:1052F0008091E8008E778093E800CBCF2111CCCF4E
:105300000AC080916602882361F0853061F0809147
:10531000E80083FD0AC08091E80082FFF2CF80E0C0
:10532000089582E0089583E0089581E00895982F1C
:10533000973058F59093E900981739F07091EC0088
:105340002091ED005091F00003C0242F762F50E003
:1053500021FF19C03091EB003E7F3093EB0030917C
:10536000ED003D7F3093ED003091EB0031603093E4
:10537000EB007093EC002093ED005093F00020912F
:10538000EE0027FF07C09F5FD3CF8F708093E900A7
:1053900081E0089580E008958091670287FF11C041
:1053A0008091E80082FD05C0809166028111F8CFEE
:1053B00011C08091E8008B770BC080916602882332
:1053C00049F08091E80080FFF8CF8091E8008E7767
:1053D0008093E80008952091E4003091E50095E67F
:1053E0004091EC00842F817040FF22C08091E80042
:1053F00080FD1CC080916602882391F0853091F079
:105400008091EB0085FD10C04091E4005091E500D3
:105410004217530729F39A01915011F784E0089538
:1054200082E0089583E0089581E0089580E0089582
:105430004091E80042FFDECF08950E948B2A0E942F
:10544000932AE0EEF0E0808181608083E8EDF0E077
:1054500080818F77808319BCA7EDB0E08C918E7F1F
:105460008C9380818F7E80831092650208950F93C4
:105470001F93CF93DF930E948B2A0E94932AC8ED3B
:10548000D0E088818F77888388818068888388814D
:105490008F7D888319BC109266021092620210926E
:1054A00064021092630200EE10E0F80180818B7FAD
:1054B000808388818160888342E060E080E00E9490
:1054C0009729E1EEF0E080818E7F8083E2EEF0E0CC
:1054D000808181608083808188608083F801808101
:1054E0008E7F8083888180618883DF91CF911F9137
:1054F0000F910895E8EDF0E080818F7E8083E7EDE5
:10550000F0E080818160808384E082BF81E08093CD
:1055100065020C94372AE8EDF0E080818E7F80836D
:105520001092E20008951092DA001092E1000895BE
:105530001F920F920FB60F9211242F933F934F9308
:105540005F936F937F938F939F93AF93BF93EF93EB
:10555000FF938091E10082FF0BC08091E20082FF07
:1055600007C08091E1008B7F8093E1000E94AB2611
:105570008091DA0080FF1FC08091D80080FF1BC09F
:105580008091DA008E7F8093DA008091D90080FFCD
:105590000DC080E189BD82E189BD09B400FEFDCF67
:1055A00081E0809366020E94842605C019BC109297
:1055B00066020E9496268091E10080FF19C08091CA
:1055C000E20080FF15C08091E2008E7F8093E200B0
:1055D0008091E20080618093E2008091D800806237
:1055E0008093D80019BC85E0809366020E94A126B2
:1055F0008091E10084FF30C08091E20084FF2CC0E4
:1056000080E189BD82E189BD09B400FEFDCF8091B2
:10561000D8008F7D8093D8008091E1008F7E8093A9
:10562000E1008091E2008F7E8093E2008091E200B1
:1056300081608093E20080916202882311F084E00F
:1056400007C08091E30087FD02C081E001C083E0D4
:10565000809366020E94A5268091E10083FF29C005
:105660008091E20083FF25C08091E100877F8093D5
:10567000E10082E080936602109262028091E10074
:105680008E7F8093E1008091E2008E7F8093E20024
:105690008091E20080618093E20042E060E080E07F
:1056A0000E9497298091F00088608093F0000E940A
:1056B0009D26FF91EF91BF91AF919F918F917F9127
:1056C0006F915F914F913F912F910F900FBE0F906F
:1056D0001F9018951F920F920FB60F9211242F93BF
:1056E0003F934F935F936F937F938F939F93AF936A
:1056F000BF93CF93DF93EF93FF93C091E900CF70F7
:105700008091EC00D82FD17080FDD0E81092E90094
:105710008091F000877F8093F00078940E94AE2BF8
:105720001092E9008091F00088608093F000CD2B0A
:10573000CF70C093E900FF91EF91DF91CF91BF91BE
:10574000AF919F918F917F916F915F914F913F9119
:105750002F910F900FBE0F901F9018951F93CF930E
:10576000DF93CDB7DEB7AA970FB6F894DEBF0FBEB2
:10577000CDBFE7E6F2E088E08E0F9091F1009193C3
:105780008E13FBCF0E94FB268091E80083FF28C187
:105790008091670290916802492F50E04A3051058C
:1057A00008F01EC1FA01E857FF4F0C94752D8038A0
:1057B00021F0823809F014C108C0809163029091F1
:1057C0006402992389F082600FC080916B028F7010
:1057D000873008F005C18093E9008091EB0085FBDC
:1057E000882780F91092E9009091E800977F9093C4
:1057F000E8008093F1001092F100D0C0282F2D7F97
:1058000009F0EEC0882319F0823061F0E9C0809180
:105810006902813009F0E4C0933009F080E08093A0
:1058200064022EC08091690281112AC080916B02AE
:105830008F702FEF280F263008F0D2C08093E90038
:105840002091EB0020FF1CC0933021F48091EB00ED
:10585000806214C09091EB0090619093EB0021E086
:1058600030E0A90102C0440F551F8A95E2F740932A
:10587000EA001092EA008091EB0088608093EB00D0
:105880001092E9008091E800877F8093E8000E94F1
:10589000CC29A6C08111A4C0109169021F77809104
:1058A000E3008078812B8093E3008091E800877F7C
:1058B0008093E8000E94CC298091E80080FFFCCF13
:1058C0008091E30080688093E300111102C082E0C0
:1058D00001C083E08093660283C08058823008F064
:1058E0007FC08091690290916A028C3D53E09507D8
:1058F00079F583E08A838AE289834FB7F894DE01E1
:10590000139620E03EE051E2E32FF0E05093570081
:10591000E49120FF03C0E295EF703F5FEF708E2FA0
:1059200090E0EA3010F0C79601C0C0968D939D9329
:105930002F5F243149F74FBF8091E800877F809324
:10594000E8006AE270E0CE0101960E94D32815C0FB
:1059500060916B0270916C02AE014F5F5F4F0E94CD
:105960000328BC01892BE1F19091E800977F909387
:10597000E80089819A810E9436298091E8008B771E
:105980008093E8002DC0803859F58091E800877F2A
:105990008093E800809162028093F1008091E8009A
:1059A0008E7773CF81111CC0909169029230C0F440
:1059B0008091E800877F8093E800909362020E94C4
:1059C000CC2980916202811106C08091E30087FD9D
:1059D00002C081E001C084E0809366020E94EC2650
:1059E0008091E80083FF0AC08091E800877F809360
:1059F000E8008091EB0080628093EB00AA960FB6DE
:105A0000F894DEBF0FBECDBFDF91CF911F910895F7
:105A1000CF93809166028823A1F0C091E900CF70F6
:105A20009091EC00892F817090FD80E8C82B109236
:105A3000E9008091E80083FD0E94AE2BCF70C093F7
:105A4000E900CF910895DB018F939F930E948A2DE7
:105A5000BF91AF91A29F800D911DA39F900DB29F0A
:105A6000900D11240895991B79E004C0991F961791
:105A700008F0961B881F7A95C9F780950895AA1B90
:105A8000BB1B51E107C0AA1FBB1FA617B70710F029
:105A9000A61BB70B881F991F5A95A9F7809590955B
:105AA000BC01CD010895A1E21A2EAA1BBB1BFD016A
:105AB0000DC0AA1FBB1FEE1FFF1FA217B307E407ED
:105AC000F50720F0A21BB30BE40BF50B661F771F45
:105AD000881F991F1A9469F7609570958095909525
