:100000000C941D030C94320E0C9464030C94640342
:100010000C9464030C9464030C9464030C946403C4
:100020000C9464030C9464030C9463250C9435269F
:100030000C94111C0C9464030C9464030C946403DE
:100040000C9464030C9464030C9464030C94640394
:100050000C9464030C94791C0C9464030C94640356
:100060000C9464030C9464030C9464030C94640374
:100070000C9464030C9464030C9464030C94640364
:100080000C9464030C9464030C9464030C94640354
:100090000C9464030C9464030C9464030C94640344
:1000A0000C9464030C9464030C946403FE0A010B27
:1000B000060B0D0B120B170B1C0B210B260B2B0B1E
:1000C000300B350B380B380B380B380B380B380B23
:1000D000380B380B03120312351235128212A2129A
:1000E00002140214E412811392139213F2130214F5
:1000F0000214FB1384148414961496148D1496140D
:1001000096149614841484149214961496149214CB
:10011000A226C926BB27C926BB2715273827BB27F8
:100120008E279D272E001E001F0020002100220088
:1001300000442B0014001A00080015001700000FDF
:10014000290004001600070009000A000608E10063
:100150001D001B000600190005001908E000E20060
:10016000E300004200412A004C002D002700260039
:1001700025002400230031022F00130012000C0080
:1001800018001C000007344233420F000E000D001F
:100190000B00A900E50052003700360010001100E6
:1001A000AA004F0051005000380038412C002800B0
:1001B000C35C3A003B003C003D003E000000C45CD4
:1001C0001E021F022F02300231020000C25C200218
:1001D0002102260227023500C85CCB5C22022302E2
:1001E0002F0030003502C75CCA5CCF5CD05CCD5CB0
:1001F0000000C65CC55C4400430042004100400072
:100200003F00000045005500610060005F000000F5
:100210000000000057005E005D005C000000C95C4B
:10022000000054005B005A0059002402CA5CCE5CF6
:100230002E00630062000000BE5CBD5C0000000098
:100240000000000000000000000000000000F000BE
:10025000F000F900000000000000F200F200F100E0
:10026000F30000000000000000000000000000009B
:10027000000000000000000000000000F400F20098
:100280000000A900000000000000000000000000C5
:10029000AA000000000000000000000000000000B4
:1002A0000000BB00AE00BC005000000000000000D9
:1002B0000000000000000000000000000000AA0094
:1002C000A9000000F300000000003A003B003C00E1
:1002D0003D003E00C55C0000005CCD5CC25CC35CC0
:1002E000C65C0000000000000000000000000000EC
:1002F00001000000000000000000000000000000FD
:1003000000000000000000000000000000000000ED
:1003100043004200410040003F00C85C0000000074
:100320000000C95CCA5CC75C00000000000000005F
:1003300000000000000001000000000000000000BC
:1003400000000000000000000000000000000000AD
:10035000000000000000000000000000000000009D
:10036000000000000000000000000000000000008D
:10037000000000000000000000000000000000007D
:10038000000000000000000000000000000000006D
:10039000000000000000000000000000000000005D
:1003A000000000000000005C0000000000000000F1
:1003B000000000000000000000000000000000003D
:1003C000000000000000000000000000000000002D
:1003D000000000000000000000000000000000001D
:1003E00000010101010101010101020202020202F8
:1003F00002020203030303030303030404040404CB
:100400000404050505050506060606060707070791
:100410000708080808090909090A0A0A0B0B0B0C46
:100420000C0C0D0D0D0E0E0E0F0F0F1010111111E3
:100430001212131314141515161617171818191964
:100440001A1A1B1B1C1D1D1E1E1F202021222223C9
:100450002424252626272829292A2B2C2D2D2E2F0A
:1004600030313232333435363738393A3B3C3D3E21
:100470003F404142434445464748494A4C4D4E4F10
:1004800050515354555658595A5B5D5E5F616264D2
:10049000656668696B6C6D6F7072737577787A7B5F
:1004A0007D7E8082838587888A8C8E8F91939596B6
:1004B000989A9C9EA0A2A3A5A7A9ABADAFB1B3B5D6
:1004C000B7BABCBEC0C2C4C6C9CBCDCFD1D4D6D8B2
:1004D000DBDDDFE2E4E7E9EBEEF0F3F5F8FAFDFF50
:1004E000040330000000260354006800650020006B
:1004F0005200650064006F00780020004B0065002A
:10050000790062006F006100720064000000140353
:10051000460061006C0062006100740065006300C9
:10052000680000000403090409023B00020100A066
:10053000FA09040000010301010009211101000171
:100540002240000705810308000A09040100010395
:100550000000000921110100012285000705820326
:1005600020000A1201100100000008EDFE0000004A
:10057000010102030105010902A10185020901A18E
:100580000005091901290515002501950575018149
:100590000295017503810105010930093115812595
:1005A0007F95027508810609381581257F950175AB
:1005B000088106050C0A38021581257F950175080A
:1005C0008106C0C005010980A10185031A81002AA6
:1005D0008300160100260300950175108100C005F7
:1005E0000C0901A10185041A01002A9C02160100D0
:1005F000269C02950175108100C005010906A10124
:10060000050719E029E71500250195087501810204
:100610009501750881010507190029FF150026FFBE
:1006200000950675088100050819012905950575CD
:10063000019102950175039101C011241FBECFEFF6
:10064000DAE0DEBFCDBF04B603FE27C080915202C0
:1006500090915302A0915402B09155028730904B73
:10066000A740B04BD1F41092520210925302109254
:1006700054021092550214BE84B7877F84BF0FB610
:10068000F894A89580916000886180936000109232
:1006900060000FBEE0E0F8E3099511E0A0E0B1E0F2
:1006A000EEECF0E502C005900D92AC33B107D9F73E
:1006B00022E0ACE3B1E001C01D92A235B207E1F740
:1006C0000E948C220C9465280C9400000C94C206A5
:1006D00081E0089581E008950C946A031F93CF93FD
:1006E000DF9300D000D01F92CDB7DEB749835A8385
:1006F0002091640189819A81211112C0662349F0F9
:100700000E94A919182F682F89819A810E944E1979
:1007100003C00E947D19182F69817A81812F04C03E
:100720000E94A91969817A810F900F900F900F9004
:100730000F90DF91CF911F910C941C04FC0140811C
:1007400051816281738184810C946E030E94D91A55
:10075000811102C00E94791B0C9466030C94C4069C
:1007600008950C94B00381E008950C94B303CF93E3
:10077000C82F0E94B1038C2F0E94B503CF9108951A
:1007800008950E9474140E94C0032FEF84E39CE03C
:10079000215080409040E1F700C0000087E797E7D4
:1007A00090930108809300080C949F1C0F931F9353
:1007B000CF93DF93EC010E949E038C01BE010E9447
:1007C0006C03882379F1BE01C8010E94DF0B8823E6
:1007D00049F1BE01C8010E94200C882319F1BE0115
:1007E000C8010E944B0D8823E9F0BE01C8010E9498
:1007F000E70A8823B9F08A81882369F001158CE51E
:10080000180731F00E3D1C4531F40E94791B0AC0D7
:100810000E94C10307C0CE01DF91CF911F910F91BC
:100820000C94680380E0DF91CF911F910F910895A0
:1008300080E090E00895089597E0799FF0011124F9
:1008400096E4899FE00DF11D1124E60FF11DEE0FD6
:10085000FF1FEC5DFE4F859194910895880F991FBD
:10086000FC01E052FC4F859194910895CF93DF9362
:100870000E941C040E94EB05EC01811520E5920703
:10088000F0F5811530E4930708F024C1883E910506
:1008900000F5803E910508F09AC1883A910570F400
:1008A000853A910508F09FC08130910509F48FC108
:1008B00008F440C1049708F08AC13CC18F3B910500
:1008C00008F49CC0803C910508F434C1805C910917
:1008D000F4C0811540E2940758F4C11581E0D807AF
:1008E00008F075C1C03FD10508F424C1D0656FC1BF
:1008F000811520E3920708F0E4C09F70DEC08115E7
:1009000035E5930708F044C0811544E5940708F0E5
:10091000F8C0C11582E5D80708F5C11521E5D20751
:1009200008F0DBC08C2F837021E030E002C0220F82
:10093000331F8A95E2F73C68CE0174E0969587955F
:100940007A95E1F78370382BCF70C695C69580E213
:10095000C89FE0011124C22BD32B39C12C2F26951F
:100960002695CE0183709927C115D34508F0BAC0EA
:1009700040E2249F90011124C1E0D0E002C0CC0FDE
:10098000DD1F8A95E2F72C2B3D2BE901DC681FC1A6
:10099000811549E59407A0F4C11588E5D80708F04A
:1009A000B5C0C11526E5D20708F0C4C08C2F0E943F
:1009B0007F068F71C82FD0E0DC2FCC27D06207C113
:1009C00081153AE5930708F4A6C090568115904228
:1009D00008F0B0C08D2F8F710E947F06DD27D06296
:1009E0008F71D82BF4C0853A910509F4A6C0863AD8
:1009F000910509F0A5C0C2E8D0E4E9C0883A9105A4
:100A000009F4A1C0893A910509F4A0C08A3A910578
:100A100009F49FC08B3A910509F49EC08C3A910568
:100A200009F49DC08B3B910509F49CC08C3B91055A
:100A300009F49BC08D3A910509F49AC0803B910559
:100A400009F499C08E3A910509F498C08F3A91053E
:100A500009F497C0813B910509F496C0823B91054A
:100A600009F495C0833B910509F494C0843B91053A
:100A700009F493C0853B910509F492C0863B91052A
:100A800009F491C0873B910509F490C0883B91051A
:100A900009F48FC0893B910509F48EC08D3B910507
:100AA00009F48DC08E3B910509F48CC08A3B9105F9
:100AB00009F48BC0C0E0D4E48AC00E942E04EC018B
:100AC00086C09927D3FF03C0EC01D86C80C0EC012D
:100AD000D06C7DC0DF70D06A7AC0DC2FCC27C16FAC
:100AE000D06A75C040E2249F90011124C1E0D0E09B
:100AF00002C0CC0FDD1F8A95E2F7C22BD32BDA6838
:100B000066C0D82FCC27C46FD06A61C0DC2FCC2739
:100B1000C06FD06A5CC08F700E947F0694E0D6954B
:100B2000C7959A95E1F7CF70D0E0DC2FCC27D0693C
:100B3000C82B4DC0C0E0D0E04AC0C1E8D0E447C0F7
:100B4000C3E8D0E444C0C2EED4E441C0C9EED4E46A
:100B50003EC0CAEED4E43BC0C5EBD4E438C0C6EB1B
:100B6000D4E435C0C3EBD4E432C0C4EBD4E42FC02A
:100B7000C7EBD4E42CC0CCECD4E429C0CDECD4E455
:100B800026C0C3E8D5E423C0CAE8D5E420C0C2E942
:100B9000D5E41DC0C4E9D5E41AC0C1E2D6E417C04B
:100BA000C3E2D6E414C0C4E2D6E411C0C5E2D6E480
:100BB0000EC0C6E2D6E40BC0C7E2D6E408C0CFE65A
:100BC000D4E405C0C0E7D4E402C0CAE2D6E4CE0152
:100BD000DF91CF9108958238910569F1B0F48133A6
:100BE000910509F46DC048F48932910509F463C098
:100BF0008A32910509F469C008958533910509F495
:100C000055C089339105B9F00895833E910569F186
:100C100038F4803E9105B1F0823E910509F10895C6
:100C2000863E9105A9F1873E9105B9F1843E910573
:100C300009F064C023C02091430220FD4FC021FD74
:100C40004DC008958091430280FD44C080914402CC
:100C500080FF44C08091430284FD42C083EE4DC0BA
:100C60008091430282FF38C0F5CF8091430282FD1C
:100C700033C08091440280FD31C0ECCF80914402AA
:100C800081FF32C08091430284FD2AC087EE35C0C7
:100C90008091430283FF26C0F5CF8091430283FDFC
:100CA00021C08091440281FD1FC0ECCF809143029E
:100CB00085FD1CC01DC08091430285FD19C016C072
:100CC0008091430286FD16C017C08091430286FDC5
:100CD00013C010C089E311C082EE0FC080EE0DC0BA
:100CE00080E00BC086EE09C084EE07C089E205C033
:100CF00085E303C08AE201C081E390E0089590910A
:100D0000430292FF0DC0282F2871283019F4877FE5
:100D1000846006C0282F2471243011F48B7F8860F2
:100D200093FF0DC0282F2871283119F4877E846124
:100D300006C0282F2471243111F48B7E8861209104
:100D4000440220FF0DC0382F3871383019F4877FE6
:100D5000816006C0382F3171313011F48E7F886088
:100D600021FF0DC0282F2871283119F4877E816159
:100D700006C0282F2171213111F48E7E886194FDE7
:100D8000877E0895089508950C94C306E82FF0E037
:100D9000EE5FFD4F80810895089508950E94380800
:100DA0008091000180910001811102C095E001C095
:100DB00090E090930D0285E0891B80930C02A5E2E0
:100DC000B1E041E050E025E02A0F8D91E82FE29557
:100DD000EF70F0E031A18F70BA0102C0660F771F8B
:100DE0008A95E2F7CB01962F9095932391A392A138
:100DF000892B82A32A13E9CFAEE1B1E041E050E0B4
:100E000027E02A0F8D91E82FE295EF70F0E031A1F5
:100E10008F70BA0102C0660F771F8A95E2F7CB0187
:100E2000962F9095932391A392A1892B82A32A13A5
:100E3000E9CFA2E0B2E0E8EFF1E08AE08E0F119294
:100E40001D928E13FCCF85E00E94E2070C94A6034E
:100E50000E941908882321F180910C0290E08E5F96
:100E60009D4F0E944F08811117C080913C018F5FF8
:100E700080933C01863090F020910C0280E090E05D
:100E800030E0FC01E20FF31FEE5FFD4F1082019690
:100E900085309105B1F702C010923C010C94AE036D
:100EA00080910D0290E08E5F9D4F0E946A080C9425
:100EB000CD067F928F929F92AF92BF92CF92DF9298
:100EC000EF92FF920F931F93CF93DF9365E271E050
:100ED000A8EFB1E0812C01E010E095E09A0F7D01D0
:100EE0007C901C92EB018991BE01E82FE295EF7096
:100EF000F0E021A18F70A80101C0440F8A95EAF7A4
:100F0000822F842B81A322A1842F8095282322A3C2
:100F1000D0EADA95F1F7CEE1AC2EC1E0BC2E20E0AC
:100F200030E0E50199905E01C92CC2945FE0C522D2
:100F3000D12CE601C8A0D12CD92DDF7002C0D594E8
:100F4000C794DA95E2F7C0FC07C06801022E01C021
:100F5000CC0C0A94EAF702C0C12CD12CDC90CD282D
:100F6000CC922F5F3F4F27303105D9F621A1822344
:100F700081A382A1482B42A3119681E0F701208131
:100F8000721201C080E0882A9A13A9CF60910D02E5
:100F900070E06E5F7D4F282D45E088EF91E00E9464
:100FA000E3070E942807882DDF91CF911F910F91B1
:100FB000FF90EF90DF90CF90BF90AF909F908F9079
:100FC0007F9008950895FF920F931F93CF93DF931F
:100FD0008C01F62ED72FC42F222349F081E0809375
:100FE0003F010E94431C90933E0180933D018091FC
:100FF0003F018823C1F080913D0190913E010E9404
:101000004F1C069780F0EF2DFD2FD8014C2F50E09C
:10101000CD01801B910B841795071CF48D91819352
:10102000F7CF10923F01DF91CF911F910F91FF9069
:10103000089580914001811112C08091D800806193
:101040008093D8008AE18A95F1F700C08091D90099
:1010500080FD02C082E001C081E08093400181E018
:1010600090914001913009F080E008950C941908A6
:101070000E943608809300010E94190881110C9487
:1010800043080C94490861E070E081E091E00C9421
:10109000D70D61E070E081E091E00C94E00DCF931A
:1010A000DF93D82FC92F0E94830E892B79F4ED2F5F
:1010B000FC2F80E090E0DC01AE5BBE4F2C912193D1
:1010C000019685309105B9F781E001C080E0DF919C
:1010D000CF91089520E030E0FC014191CF01F9016A
:1010E000EE5BFE4F40832F5F3F4F25303105A1F768
:1010F0000895AF92BF92CF92DF92FF920F931F930A
:10110000CF93DF93D62E372FE82FF0E0711106C072
:10111000E052FC4F6491762F862F75C0C72FD0E028
:10112000E052FC4F2491F22E022F10E046E0649F23
:10113000C0011124EFEFF0E0BF010E94EF27AB01E7
:101140006BEA6403C001659F900D11248D0D911D04
:101150008D0D911D982F990F890FDF01AC1BBD0BD1
:101160000A9FB0010B9F700D1A9F700D1124972FCD
:10117000839FD0011124AB2FBB276F01CA1ADB0A52
:101180000C9DD0010D9DB00D1C9DB00D11245F0173
:10119000A81AB108AC9E6001AD9ED00CBC9ED00CCC
:1011A0001124CD2DDD27EC1BFD0B0E9FE0010F9FC1
:1011B000D00D1E9FD00D1124ED2F4230510591F01E
:1011C0004CF441155105E1F041305105B9F4E22FDD
:1011D0002B2F16C04430510569F044F046305105BC
:1011E00079F00CC0E22F272F9D2F0AC0272F9F2DAB
:1011F000EB2F06C0E72F922F2D2F02C0E72F9B2F3A
:101200006E2F722F892FDF91CF911F910F91FF9039
:10121000DF90CF90BF90AF900895CF93DF93762F5C
:10122000E901682F842F0E947908798368838A8373
:10123000DF91CF91089580910E02982F969591306D
:1012400021F08170826080930E02089588E090E022
:101250000C942528CF93DF9300D000D0CDB7DEB714
:10126000AB01BC0149835A836B837C830E941B09B9
:1012700049815A816B817C8188E090E00F900F90CA
:101280000F900F90DF91CF910C944328EEE0F2E0A5
:1012900083E0808311828FEF828383831482608155
:1012A0007181828193810C942A098091120283308A
:1012B00018F48F5F8093120260910E0270910F02FA
:1012C00080911002909111020C942A0980911202CF
:1012D000882319F081508093120260910E02709160
:1012E0000F0280911002909111020C942A096091D2
:1012F0000A0170E080910E0280FF0AC080914801CF
:1013000023E0829FC00111248D5E9D4F0C946F0BD2
:101310008091470190910901891780F7E82FF0E04B
:101320009F01220F331FE20FF31FED5EFD4F11826D
:10133000108212828F5FF0CFEEE0F2E080818E7F2C
:10134000808360817181828193810E942A092FEFBD
:1013500080E792E0215080409040E1F700C000001B
:101360000C94770990910E0290FF16C0909147015E
:1013700020910901921770F4E92FF0E0DF01AA0F24
:10138000BB1FEA0FFB1FED5EFD4F8183608342832D
:101390009F5FF0CF0C9477090895EF92FF920F931F
:1013A0001F93CF93DF9300D01F92CDB7DEB79091FC
:1013B0000E0290FF2CC0E22E142F062FF82EE92FDC
:1013C000E695F0E0E15DFE4F808180934A019E7FCB
:1013D000923059F49E012F5F3F4F8F2D0E940D09CF
:1013E0004B8169818A810E94B209F0920F020093B9
:1013F000100210931102EE2051F060910E027091D4
:101400000F0280911002909111020E942A090F9000
:101410000F900F90DF91CF911F910F91FF90EF9060
:101420000895EEE0F2E09181282F4381628188E007
:10143000890F0C94CD0981E00C94110AEEE0F2E0E2
:101440009181282F4381628188EF890F0C94CD0907
:1014500081E00C941E0AEEE0F2E0628121E1620F6D
:1014600008F46FEF282F438181810C94CD0981E02E
:101470000C942B0AEEE0F2E0628121E1621B08F499
:1014800060E0282F438181810C94CD0981E00C9488
:101490003A0AEEE0F2E0438121E1420F08F44FEF17
:1014A000282F628181810C94CD0981E00C94490A36
:1014B000EEE0F2E0438121E1421B08F440E0282FF6
:1014C000628181810C94CD0981E00C94580A20E05E
:1014D0000C94CD0980910E0280FF18C0817082604B
:1014E00080930E02662351F060910E0270910F02FC
:1014F00080911002909111020E942A0940911102DC
:101500006091100280910F020C94670A0895682F71
:1015100081E00C946A0A81E00C94870A682F90910C
:101520000E0296958FEF890F09F481E00C946A0AF8
:1015300081E00C948E0A61E00C946A0AEEE0F2E01D
:1015400080818160808386950C949B0A80910E0235
:1015500080FD0C949C090C949E0A60E00C946A0A2D
:101560008091490181112CC00E94D91A811104C0B7
:101570000E94791B0E9446090E94260960930E0270
:1015800070930F0280931002909311026E7F61F4AA
:101590000E9446090E94260960930E0270930F0272
:1015A00080931002909311020E941B0980910E02F9
:1015B00080FF03C086950E94AD0A81E080934901B7
:1015C0000895882311F0FA0101C0FB0109941F93CB
:1015D000CF93DF93FB01128111114AC0EC010E94ED
:1015E000291A8272FE01E25CFC45E431F10520F427
:1015F000EA5AFF4F0C94172811E03AC00E94A60A3D
:1016000037C048E95AE06BE87AE004C04BE85AE09A
:1016100068E97AE00E94E10A2BC048E25AE06BE1F7
:101620007AE0F8CF4BE15AE068E27AE0F3CF46E4A3
:101630005AE067E37AE0EECF47E35AE066E47AE007
:10164000E9CF44E65AE065E57AE0E4CF45E55AE0C3
:1016500064E67AE0DFCF46E659E065E579E0DACF87
:1016600045E559E066E679E0D5CF81E00E949B0A26
:10167000812FDF91CF911F9108952BB1342F309599
:1016800023233BB1432B3FB7F894FC01680F791F2C
:10169000E617F70789F0819198E04BB9000000C088
:1016A00087FF2BB9880F000000C000C000C02BB915
:1016B00000C09A9591F7ECCF3FBF08952AB1242B33
:1016C0002AB99B01220F331F620F731F0E943D0B2B
:1016D00087EC90E00197F1F700C00000089548E022
:1016E0000C945E0B0F931F93CF93DF93C62FD42FD1
:1016F000022FFC0182818823C9F060934E010E9471
:10170000431C90934D0180934C0180E28C0F8830F4
:1017100008F050C0C77081E001C0880FCA95EAF791
:10172000DF91CF911F910F910C94C31110914E0135
:10173000161330C080914C0190914D010E944F1CB6
:10174000883C910538F5C0E2CD0F1D17B9F080E255
:10175000810F883040F4177081E001C0880F1A951E
:10176000EAF70E94CA11C83048F481E09D2F9770B3
:1017700001C0880F9A95EAF70E94C311802F0E943A
:10178000B011C830B8F4D77081E001C0880FDA9585
:10179000EAF70AC080E28C0F883060F4C77081E0FD
:1017A00001C0880FCA95EAF7DF91CF911F910F9181
:1017B0000C94CA11DF91CF911F910F9108959C0154
:1017C000CB01233F4CE53407F9F078F4283DFCE5E4
:1017D0003F07B9F0293D4CE5340711F1273D3C4561
:1017E00031F526E241EE61EE1EC0253FFCE53F07E4
:1017F00099F070F0263F3C45D1F427E245EE66EEC5
:1018000012C027E245EE0EC026E241EE60EE0BC0AC
:1018100027E245EE64EE07C026E241EE62EE03C029
:1018200028E241E065EE0E94720B80E00895FC0121
:101830008281882319F010924E01089581E0089565
:10184000CF93DF93EC01FB018281882309F41FC150
:10185000C230FCE5DF0708F41BC1C6319CE5D9079F
:1018600038F09E012A5F3C452930310508F010C14F
:101870000E94EC1A9093440280934302C031ECE53D
:10188000DE0709F4C3C008F041C0C8308CE5D807B2
:1018900009F49AC0F0F4C430ECE5DE0709F487C01F
:1018A00068F4C2308CE5D80709F477C0C330DC4552
:1018B00009F0E3C080914302826076C0C630ECE557
:1018C000DE0709F46EC008F07BC080914302886097
:1018D0006BC0CC308CE5D80709F485C068F4CA30F9
:1018E000ECE5DE0709F474C008F079C00E947414B6
:1018F00080914302806858C0CE308CE5D80709F447
:1019000076C008F07FC0809143028BC0CB3FECE5EE
:10191000DE0709F44FC018F5C3318CE5D80709F488
:101920007DC078F4C131ECE5DE0709F473C0C23143
:10193000DC4509F0A2C00E947414809143028F77A5
:1019400033C0C5318CE5D80709F472C008F486C0ED
:10195000CA3FDC4509F091C0809144023EC0CF3FB0
:10196000FCE5DF0709F45FC058F4CD3F9CE5D907DB
:1019700009F444C008F43FC08091440282602DC045
:10198000C130FDE5DF0709F475C008F45DC0C23061
:10199000DD4509F072C080E06EC080914302816035
:1019A00003C08091430280618093430266C08091AE
:1019B000430211C0809144028260809344025DC062
:1019C000809143028062F0CF809143028064ECCF2B
:1019D0008091430288608460E7CF8160EECF809180
:1019E00043028E7FE1CF809143028D7FDDCF8091D6
:1019F0004302877FD9CF8091440218C0809144026E
:101A00008D7FDBCF809143028F7ECECF80914302CA
:101A10008F7DCACF809143028F7BC6CF80914302D6
:101A2000877F8B7FC1CF809144028D7F8E7FC5CF12
:101A30008091430282FB222720F991E0922790FBBC
:101A400082F990FB83F9B0CF80914402982F909552
:101A500091708E7F892B90FB81F9AFCF0E94741417
:101A60008091430287FB222720F991E0922790FB87
:101A700087F99ACF81E00E947B1B8091430290916D
:101A800044020E94FD1A0E94741480E001C081E0AB
:101A9000DF91CF910895CF93DF9386319C4541F537
:101AA000EB010E94291A282F8A8140910B01509145
:101AB0000C01882379F02A7A91E009F490E0909360
:101AC0004F01911102C069E201C065E3CA010E94A1
:101AD000B21B0AC080914F01811102C069E201C0AE
:101AE00065E3CA010E94B41B0E94751A80E001C020
:101AF00081E0DF91CF9108958EE1489B02C0815033
:101B0000E1F7489BFECF0895589880E28A95F1F757
:101B1000589A0895FC013AE03A95F1F798E020E0F0
:101B200080E031E040E14A95F1F7880F489B02C020
:101B30008160232700C0000040E14A95F1F79150F1
:101B400089F790E19A95F1F799B100C0000030E172
:101B50003A95F1F7917092272081920F9083089522
:101B6000FF920F931F93CF93DF9300D0CDB7DEB7D3
:101B70001982F82E8C01802F8F19861760F46A83E2
:101B80000E947C0DCE0101960E948A0DF80181937E
:101B90008F016A81F0CF81E09981911180E00F90EF
:101BA0000F90DF91CF911F910F91FF900895909327
:101BB00052018093510160935001509A589A0895B0
:101BC0009093520180935101609350015098589A1C
:101BD000E89AE9E6F0E080818C7F80830895615087
:101BE00091E001C0990F6A95EAF720E031E099236E
:101BF00061F0492F482319F0589A232701C05898BB
:101C000040E24A95F1F79695F2CF222311F0589AC7
:101C100001C0589880E28A95F1F758980895EF929C
:101C2000FF920F931F93CF93DF931F92CDB7DEB731
:101C3000162F082F7C018E2D801B811758F4F70179
:101C400081917F0189830E94840D68E089810E94CF
:101C5000EF0DF1CF0F90DF91CF911F910F91FF907A
:101C6000EF9008951F920F920FB60F9211242F93A9
:101C70003F934F935F936F937F938F939F93AF9314
:101C8000BF93CF93DF93EF93FF935898509AC091EF
:101C90005101D09152016D81662321F08E819F8187
:101CA0000E940F0E0E94840D80E18A95F1F75898EA
:101CB0005098589A80E18A95F1F76A81662351F02D
:101CC0008B819C810E94B00DE881F981811104C053
:101CD00082E003C0E881F98188E080830E947C0D66
:101CE000FF91EF91DF91CF91BF91AF919F918F9134
:101CF0007F916F915F914F913F912F910F900FBE08
:101D00000F901F901895CF93DF93C0915101D09100
:101D10005201F894509A589885E08A95F1F700009E
:101D20005098589A80E28A95F1F7489B0AC0509AD9
:101D3000589AE881F98181E08083789481E090E08D
:101D40002CC06D81662381F08E819F810E94B00D31
:101D500081110AC0509A589AE881F98182E0808303
:101D6000789482E090E019C00E947C0D80E28A9510
:101D7000F1F75898509A80E18A95F1F76A816623C5
:101D800021F08B819C810E940F0E0E94840DE881BE
:101D9000F9811082789480E090E0DF91CF910895EE
:101DA00090935801809357010895E0915701F09165
:101DB0005801309721F00190F081E02D099480E0E6
:101DC0000895E0915701F0915801309721F0028079
:101DD000F381E02D09940895E0915701F0915801A5
:101DE000309739F022E0DC012C930480F581E02D5E
:101DF0000994089520915501309156018217930757
:101E000071F09093560180935501E0915701F09144
:101E10005801309721F00680F781E02D099408954C
:101E200020915301309154018217930771F09093E0
:101E3000540180935301E0915701F091580130977C
:101E400021F00084F185E02D0994089585B780681C
:101E500085BF85B7806885BF0895089508950C945F
:101E60002E0F08950C94310F0E94260F0E942D0F03
:101E70000C942F0F0E943A1C0E94CE060E94B01CA8
:101E80000E94B00A0C94320FBF92CF92DF92EF9271
:101E9000FF920F931F93CF93DF93CDB7DEB72B97AE
:101EA0000FB6F894DEBF0FBECDBF0E9459070E9447
:101EB0001908811111C08FEF89838A831B820E94C8
:101EC000431C8160782F9D838C8349815A816B816B
:101ED0008D810E94DB0F42C08AE5C82E81E0D82E9A
:101EE00000E010E0B02E802F0E94C606F601E190BF
:101EF0006F01E82631F40F5F1F4F0A30110591F78B
:101F0000DACF9091DF0191FF04C08B870E94CC064D
:101F10008B8590E0FF24F3942F2D2E21D1F09E830A
:101F2000BF828F2191E009F490E098870E94431CC2
:101F30008160782F9A8789874E815F8168858A853D
:101F40000E94DB0FF801E65AFE4F8081F826F082EE
:101F500005C09F5FFF0C9730F9F6CDCF0E94421E5F
:101F6000109159010E94D50E1817A9F00E94D50EA4
:101F7000809359012B960FB6F894DEBF0FBECDBFEC
:101F8000DF91CF911F910F91FF90EF90DF90CF9055
:101F9000BF900C94B7032B960FB6F894DEBF0FBE1C
:101FA000CDBFDF91CF911F910F91FF90EF90DF9008
:101FB000CF90BF900895CF93DF93CDB7DEB72B9727
:101FC0000FB6F894DEBF0FBECDBF4F835887698729
:101FD0007A878B87DE01119686E0FD0111928A9542
:101FE000E9F785E0FE01379601900D928A95E1F7B9
:101FF00049815A816B817C818D819E810E941E174F
:102000002B960FB6F894DEBF0FBECDBFDF91CF91F8
:102010000895FC01808191810E94EA190895CF936F
:10202000DF931F92CDB7DEB7882309F42DC1682F47
:102030008238C1F40E94D50E81FD26C169E38091EA
:102040000B0190910C010E94B21B0E94751A2FEF98
:1020500081EE94E0215080409040E1F700C0000004
:1020600069E319C0833811F50E94D50E80FD0CC1BB
:1020700063E580910B0190910C010E94B21B0E94BC
:10208000751A2FEF81EE94E0215080409040E1F7E7
:1020900000C0000063E580910B0190910C010E944B
:1020A000B41B0F90DF91CF910C94751A8438C1F452
:1020B0000E94D50E82FDE8C067E480910B019091EB
:1020C0000C010E94B21B0E94751A2FEF81EE94E062
:1020D000215080409040E1F700C0000067E4DBCF72
:1020E0008CEF860F813A70F4862F69830E947320EB
:1020F00069818111C9C080910B0190910C010E94EE
:10210000B21BCFCF80E2860F883048F4677081E041
:1021100001C0880F6A95EAF70E942C1AC2CF8BE59E
:10212000860F833088F4653A29F0663A31F083E807
:1021300090E005C081E890E002C082E890E00F9056
:10214000DF91CF910C94FA0E88E5860F873108F065
:1021500091C0683A09F445C0693A09F445C06A3A41
:1021600009F445C06B3A09F445C06C3A09F445C01E
:102170006B3B09F445C06C3B09F445C06D3A09F46A
:1021800045C0603B09F445C06E3A09F445C06F3A5A
:1021900009F445C0613B09F445C0623B09F445C000
:1021A000633B09F445C0643B09F445C0653B09F451
:1021B00045C0663B09F445C0673B09F445C0683B30
:1021C00009F445C0693B09F445C06D3B09F445C0BD
:1021D0006E3B09F445C06A3B09F445C080E090E0DD
:1021E00044C082EE90E041C089EE90E03EC08AEEAD
:1021F00090E03BC085EB90E038C086EB90E035C0C6
:1022000083EB90E032C084EB90E02FC087EB90E04E
:102210002CC08CEC90E029C08DEC90E026C083E8C7
:1022200091E023C08AE891E020C082E991E01DC0DE
:1022300084E991E01AC081E292E017C083E292E063
:1022400014C084E292E011C085E292E00EC086E202
:1022500092E00BC087E292E008C08FE690E005C0F4
:1022600080E790E002C08AE292E00F90DF91CF9188
:102270000C94100F603F40F0862F0E944A1D0F9073
:10228000DF91CF910C94371E0F90DF91CF9108957D
:10229000882309F464C0823879F40E94D50E81FF46
:1022A0005EC069E380910B0190910C010E94B21B0A
:1022B0000E94751A69E310C08338B1F40E94D50EEC
:1022C00080FF4DC063E580910B0190910C010E944D
:1022D000B21B0E94751A63E580910B0190910C016D
:1022E0000E94B41B0C94751A843879F40E94D50EA0
:1022F00082FF35C067E480910B0190910C010E9430
:10230000B21B0E94751A67E4E7CF9CEF980F913AD1
:1023100010F4682FE1CF90E2980F983050F4877056
:1023200091E001C0990F8A95EAF7892F0E94321A2D
:10233000D9CF9BE5980F933020F480E090E00C9487
:10234000FA0E98E5980F973120F480E090E00C9415
:10235000100F803F20F00E94B21D0C94371E08958C
:10236000CF93C82F0E940F10C93349F42FEF87EE87
:1023700093E0215080409040E1F700C000008C2F96
:10238000CF910C944811882321F00E942C1A0C94B0
:10239000751A0895882321F00E94321A0C94751A38
:1023A0000895BF92CF92DF92EF92FF920F931F9307
:1023B000CF93DF937C01062FC72FFC011581129567
:1023C0001F70D281D1110E94491A0E94221A8823BB
:1023D00079F0DD2369F080E2800F883048F082E0F8
:1023E0000E94C01A0E94221A91E0B82EB92601C09C
:1023F000B12CCC2EC2948FE0C822D12CF601E65924
:10240000FF4F0C9417288C2F807FCF70882311F0FA
:10241000C295C07FDD2399F0CC2309F4CEC180E2C0
:10242000800F883010F0011104C08C2F0E942C1AEC
:1024300003C08C2F0E943C1A0E94751ABEC1802FC7
:102440000E944811CC2309F4DDC180E2800F88305E
:1024500010F0011104C08C2F0E94321A03C08C2F7F
:102460000E94421A0E94751ACDC18C2F807FCF70B6
:10247000803211F0C295C07F002319F00130C9F0FD
:1024800022C0DD2371F0112341F0113031F40E949C
:102490005C1A8C2B0E94621AB5C10E945C1A8C2BAC
:1024A0001DC0112319F0113009F4ACC10E946B1A40
:1024B00025C0DD2321F0163008F0A4C10EC0153070
:1024C00008F0A0C11BC0DD2361F0112331F0F7013A
:1024D000858180FF72C18F7085838C2F0E94C3110C
:1024E00091C1112359F0093309F078C1FFEF27EEAC
:1024F00083E0F15020408040E1F76EC18C2F0E94B4
:10250000CA1180C18C2F86958695837090E00097C4
:1025100019F0019761F076C1DD2321F0802F9C2F07
:10252000937002C080E090E00E94FA0E76C1DD2335
:1025300021F0802F9C2F937002C080E090E00E94D9
:10254000100F6BC1DD23F9F0053F51F0063F71F02C
:10255000043FA9F480913D0290913E0281600BC03E
:1025600080913D0290913E02826005C080913D02C3
:1025700090913E02846090933E0280933D02802FB2
:102580000E944A1D1EC0053F51F0063F71F0043FF6
:10259000A9F480913D0290913E028E7F0BC0809104
:1025A0003D0290913E028D7F05C080913D02909149
:1025B0003E028B7F90933E0280933D02802F0E94CB
:1025C000B21D0E94371E29C18C2F837009F049C0AB
:1025D000D1111FC1402F429546954770440F440FBB
:1025E000602F6F70862F90E0A0E0B0E0042E04C052
:1025F000880F991FAA1FBB1F0A94D2F704FF10C0AF
:102600000FE010E020E030E004C0000F111F221F97
:10261000331F4A95D2F7009510952095309503C049
:1026200000E010E09801C695C695C370D0E0BC01EB
:10263000CD01602B712B822B932BC230D10559F029
:10264000C330D10559F0219719F00E946318E1C0F9
:102650000E945118DEC00E947518DBC00E944F18FE
:10266000D8C0DD2319F08C2F817001C08695882396
:1026700009F4CFC0402F429546954770440F440F50
:10268000602F6F70862F90E0A0E0B0E0042E04C0B1
:10269000880F991FAA1FBB1F0A94D2F704FF10C00E
:1026A0000FE010E020E030E004C0000F111F221FF7
:1026B000331F4A95D2F7009510952095309503C0A9
:1026C00000E010E09801C695C695C370D0E0BC014B
:1026D000CD01602B712B822B932BC230D10559F089
:1026E000C330D10559F0219719F00E94291991C0E2
:1026F0000E9417198EC00E943B198BC00E948A1835
:1027000088C0CF70DD2339F08C2F0E94B018802F45
:102710000E94C3117EC0802F0E94CA118C2F0E947C
:10272000D11877C0023F01F128F4003F41F0013F8A
:10273000A1F03FC0033FF9F0043F39F13AC0DD2377
:1027400041F0153008F05EC08C2F8F710E94F61892
:1027500059C0163008F056C0F7CFDD2339F08C2F62
:102760008F710E94B0184EC0DD23C9F38C2F8F717A
:102770000E94D11847C0DD2329F08C2F8F710E9451
:102780009B1840C00E9496183DC0DD2349F0CF71D0
:102790008C2F0E94B01863E08C2F0E94AB1A32C0BD
:1027A00081E00E94C01A123068F182E00E94C01AD3
:1027B00029C0DD2331F0112391F2802F0E940F10E8
:1027C00021C0112399F2093349F49FEFE7EEF3E0BA
:1027D0009150E040F040E1F700C00000802F0E94DF
:1027E000481110C04C2F4F70602FC7010E94180471
:1027F0000E94C21712C04C2F4F70602FC7010E9459
:102800001B040BC028E0C21AD10884E0C816D1040A
:1028100020F40E94D50E0E94B703BB20D1F00E9485
:102820001E1A80FD16C0F70112820E94181A0E941B
:10283000B018C7010E9433140E94181ADF91CF917B
:102840001F910F91FF90EF90DF90CF90BF900C946D
:10285000D118DF91CF911F910F91FF90EF90DF90F2
:10286000CF90BF9008950F931F93CF93DF93EC0108
:10287000888199812B813C81232BB9F09F3F11F4F2
:102880008F3F99F0CE010E94D603882371F06881B2
:1028900079818A810E94F5198C010E944D190E944C
:1028A0004E18B801CE010E94D111DF91CF911F9136
:1028B0000F9108950E94491A0E94591A0E94751A90
:1028C0000E94DD1E0E94371E80E090E00E94FA0EFA
:1028D00080E090E00C94100F80910B0190910C011E
:1028E0000E94B61B0C945A140E94391A0C946C1452
:1028F000E92FE295EF70F0E03297EE30F105B0F499
:10290000E658FF4F0C941728803F91F018F4883E4A
:1029100068F40EC0843F51F40BC0883E48F0813FFC
:1029200029F406C093FB882780F9089580E0089574
:1029300081E008950E94EA190E9478140895CF93C7
:10294000DF9300D000D01F92CDB7DEB70F900F906D
:102950000F900F900F90DF91CF910895CF93DF9359
:1029600000D000D000D0CDB7DEB726960FB6F894D1
:10297000DEBF0FBECDBFDF91CF9108951F93CF93E0
:10298000DF93C091650116E080916601C81799F048
:10299000D0E01C9FF0011D9FF00D1124E959FE4F5E
:1029A0004081518162817381848195810E94AE143E
:1029B0002196C770E9CFDF91CF911F910895409183
:1029C0009701509198016091990170919A018091BD
:1029D0009B0190919C010C94AE1480919C01829576
:1029E0008F7009F054C080919901882309F44FC079
:1029F00080916501A09166016091970170919801A5
:102A000040919A0150919B01B6E08A1709F43FC0AA
:102A100090E041155105C1F17F3F11F46F3FA1F1E5
:102A2000B89FF001B99FF00D1124E959FE4F2181A3
:102A300072132AC02081621327C02281211124C071
:102A4000238134812417350710F421503109241BC8
:102A5000350B283C3105C0F420919C012F7020617A
:102A600020939C0126E0289FF001299FF00D11245E
:102A7000E459FE4F80818F708061808387E991E007
:102A80000E9433140C94BE1401968770BECF089533
:102A9000CF92DF92EF92FF920F931F93CF93DF932A
:102AA000CDB7DEB762970FB6F894DEBF0FBECDBFCD
:102AB0008C0185E0F801DE011D9601900D928A954A
:102AC000E1F7D8014C9111965C91119712966C9197
:102AD00012971396CD90DC901497309197017091D6
:102AE000980180919A0190919B01009709F46BC124
:102AF0007F3F19F43F3F09F466C1E0909901EE2051
:102B000009F4C0C020919C01C816D90628F0F6012E
:102B1000E81BF90BCF0104C0809590958C0D9D1D8D
:102B2000FF24F394883C910578F0F12C207F09F084
:102B3000C6C07C2DD98AC88A89890E949F1487E9DA
:102B400091E00E943314B1C0822F807F09F046C00B
:102B5000751314C0341312C0611110C02F7020619E
:102B600020939C010E94DF1487E991E00E943314B6
:102B700080919C01D80115968C932EC0CD2819F117
:102B80005F3F11F44F3FF9F0F62E61111CC08091A8
:102B900065012091660136E0821709F45AC090E081
:102BA000389FF001399FF00D1124E959FE4F7181D2
:102BB000571306C07081471303C07281711103C09F
:102BC00001968770E9CFF62E662309F427C180911C
:102BD0009C01816080939C01F12C20C1751308C079
:102BE000341306C0611104C080919C01D801C3C098
:102BF0004D875E878D859E856A8B0E949A146A89AF
:102C00008823E1F16623D1F120919C01822F8295E6
:102C10008F7090E0029774F08091970190919801E5
:102C200098878F831986DB86CA862C87CE01079604
:102C30000E94331486E0F801A7E9B1E001900D92FB
:102C40008A95E1F70E94ED140E94DF14FF24F394AB
:102C5000E5C04D875E878D859E850E94EA19292FE4
:102C600022952F7030E0223031050CF0CBC09F70E0
:102C700009F0C5C0805E883008F4D0C0C8010E9449
:102C80003314E4CFC816D90608F453C0F601E81B84
:102C9000F90BCF01883C910508F450C0F12C7C2D34
:102CA000D98AC88A89890E949F14E7E9F1E086E001
:102CB000DF011D928A95E9F70E94DF14AFC07513FA
:102CC00014C0341312C0611110C080919C01F8012E
:102CD0008583C8010E94331486E0E7E9F1E0DF0153
:102CE0001D928A95E9F7FE2C99C04D875E878D85E8
:102CF0009E856A8B0E949A146A89882309F4BECF44
:102D0000662309F4BBCF20919C01822F82958F709E
:102D100090E002970CF48ECF8091970190919801EA
:102D20009A8389831B82DD82CC822E83CE01019619
:102D30007FCF809590958C0D9D1DACCFF62E662390
:102D400009F49CCF75132EC034132CC020919C0124
:102D500020FD1FC0822F82958F70D9F0D801159663
:102D60002C9315978F3049F08F5F982F9295907F15
:102D7000822F8F70892B15968C93C8010E94331473
:102D800086E0F801A7E9B1E001900D928A95E1F79C
:102D900093CF86E0F801A7E9B1E001900D928A9502
:102DA000E1F73CC04D875E878D859E850E949A1411
:102DB000811140CF80919C01816080939C01C8016A
:102DC0000E9433142BC0662309F458CF4D875E87C9
:102DD0008D859E850E949A14F82E882309F44ECF83
:102DE00086E0F801A7E9B1E001900D928A95E1F73C
:102DF00087E991E00E9409100E94ED145DCF8111D6
:102E000039CF0CC0243031050CF038CF9F7009F455
:102E100031CFF8019581907F09F02CCF8F2D6296EC
:102E20000FB6F894DEBF0FBECDBFDF91CF911F91DB
:102E30000F91FF90EF90DF90CF9008951F93CF9365
:102E4000DF93CDB7DEB72C970FB6F894DEBF0FBE79
:102E5000CDBF4F83588769877A878B879C87CE0140
:102E600007960E944815882369F08F8198852A85E6
:102E70003B85232BF1F19F3F09F063C08F3F09F0A1
:102E800060C037C086E0FE013796DE0111960190E2
:102E90000D928A95E1F76F817885EA85FB853097F9
:102EA00041F17F3F11F46F3F21F12091660130E045
:102EB000C9010196877099274091650150E08417F8
:102EC000950709F447C069837A83FD83EC8396E014
:102ED000929FD001939FB00D1124A959BE4FFE01BE
:102EE000319601900D929A95E1F7809366010E94C8
:102EF000BE1416E080916501909166018917C1F1B9
:102F0000189FC001112489599E4F0E94481588239B
:102F100079F1E09165011E9FF0011124E959FE4FFE
:102F20004081518162817381848195810E94AE14B8
:102F30008091650190E001968770992780936501E3
:102F4000D9CF4F81588569857A858B859C850E946C
:102F5000AE14CFCF0E9474141092660110926501D6
:102F6000E7E9F1E086E0DF011D928A95E9F7C1CF3C
:102F70002C960FB6F894DEBF0FBECDBFDF91CF9178
:102F80001F910895EF92FF920F931F93CF93DF93BA
:102F90008C01892B09F46CC0F12CEE24E394E80138
:102FA0002196F8018491843740F4843008F051C0B0
:102FB000813081F0823019F15BC0853709F444C05B
:102FC000A8F19CE7980F903708F052C08F770E94C5
:102FD000481141C00E5F1F4FFE01C49180E28C0F6B
:102FE000883048F4C7708E2D01C0880FCA95EAF763
:102FF0000E944C1A14C08C2F0E940F102DC00E5F1F
:103000001F4FFE01C49180E28C0F883058F4C770C6
:103010008E2D01C0880FCA95EAF70E94521A0E94AD
:10302000751A1AC08C2F0E94481116C00E5F1F4FD0
:10303000FE01C491CC2381F08FE99FE00197F1F765
:1030400000C00000C150F6CF0E5F1F4FFE01F4908C
:1030500003C00E940F108E018F2D882309F49FCF8B
:10306000EFE9FFE03197F1F700C000008150F5CFA4
:10307000DF91CF911F910F91FF90EF9008950895E8
:103080000C943F180E9440186093CE017093CF01BA
:103090008093D0019093D1010C945A1408950C940C
:1030A00042180F931F930091CE011091CF012091F0
:1030B000D0013091D101602B712B822B932B1F916A
:1030C0000F910C9442180F931F930091CE01109111
:1030D000CF012091D0013091D1016023712382234F
:1030E00093231F910F910C9442180F931F930091FB
:1030F000CE011091CF012091D0013091D1016027F4
:103100007127822793271F910F910C9442180895DD
:103110000C9487180E9488186093CA017093CB01A1
:103120008093CC019093CD010C945A1460E070E030
:10313000CB010C948A180F931F9341E050E060E09C
:1031400070E08A019B0104C0000F111F221F331F72
:103150008A95D2F7C901B8011F910F910C948A1872
:103160000F931F9341E050E060E070E004C0440F13
:10317000551F661F771F8A95D2F78091CA019091DB
:10318000CB01A091CC01B091CD018A019B01082B0C
:10319000192B2A2B3B2BC901B8011F910F910C94BD
:1031A0008A180F931F9341E050E060E070E004C084
:1031B000440F551F661F771F8A95D2F7409550958B
:1031C000609570958091CA019091CB01A091CC013E
:1031D000B091CD018A019B01082319232A233B23A7
:1031E000C901B8011F910F910C948A180F931F9376
:1031F00041E050E060E070E004C0440F551F661FDE
:10320000771F8A95D2F78091CA019091CB01A09146
:10321000CC01B091CD018A019B01082719272A27EB
:103220003B27C901B8011F910F910C948A180F9385
:103230001F930091CA011091CB012091CC013091D4
:10324000CD01602B712B822B932B1F910F910C942E
:103250008A180F931F930091CA011091CB012091FE
:10326000CC013091CD0160237123822393231F91E0
:103270000F910C948A180F931F930091CA0110911B
:10328000CB012091CC013091CD016027712782279D
:1032900093271F910F910C948A18089527E0929F0D
:1032A000800D1124A82FA695A695A695877051E0AC
:1032B00001C0550F8A95EAF785E0A89FD001112437
:1032C00020E030E070E0F901EA0FFB1FE356FE4F0B
:1032D0004081CB01022E02C0969587950A94E2F7B1
:1032E00081709927819584278523842780832F5F88
:1032F0003F4F2530310539F7089527E0929F800D23
:103300001124682F669566956695982F977085E0CD
:10331000689FB001112440E050E080E0FA01E60F20
:10332000F71FE356FE4F208130E0092E02C036958C
:1033300027950A94E2F721703327042E01C0220F4B
:103340000A94EAF7822B4F5F5F4F4530510531F702
:103350000895BF92CF92DF92EF92FF920F931F9347
:10336000CF93DF938C01C090CE01D090CF01E0903D
:10337000D001F090D1018091CA019091CB01A09130
:10338000CC01B091CD01C82AD92AEA2AFB2ACFE183
:10339000D0E0D701C6010C2E04C0B695A79597952D
:1033A00087950A94D2F780FF07C0BC2EB8018C2FF6
:1033B0000E943604019719F4219758F7B12C8B2DF0
:1033C000DF91CF911F910F91FF90EF90DF90CF9001
:1033D000BF900895CF93DF93EC010E94A919BE011D
:1033E0000E943604DF91CF9108951F93CF93DF930E
:1033F000EB0190916401992321F0CB010E94EA191D
:1034000013C0882349F0CB010E94A919182F682FF7
:10341000CE010E944E1904C0CB010E947D19182FC5
:10342000BE01812F0E943604DF91CF911F91089534
:103430008091D20185958595859508958091D201D9
:10344000877008959091D201977081E009F480E02F
:1034500008958091DE0108959091DE01892B80937B
:10346000DE01089580959091DE0189238093DE012D
:1034700008951092DE0108959091DD01892B8093CB
:10348000DD01089580959091DD0189238093DD0110
:1034900008951092DD0108959091DC01892B8093AD
:1034A000DC01089580959091DC0189238093DC01F3
:1034B00008951092DC0108958091D3010895089534
:1034C0000C945F1A9091D301981721F08093D30147
:1034D0000C94601A08958091D301882329F01092EA
:1034E000D30180E00C94601A0895E0910B01F091F3
:1034F0000C018091DE018083E0910B01F0910C01C1
:1035000090818091DD01892B8083E0910B01F09106
:103510000C0190818091DC01892B80838091D30103
:10352000882381F0E0910B01F0910C019081892BAF
:10353000808380910B0190910C010E94801B81116E
:103540000E946B1A80910B0190910C010C94E10E7A
:1035500008950C94A81A98E0899F90011124262BB5
:103560002093D2010E94B0188091D2018595859553
:1035700085950C94A91A1092D20180E00C94A91A96
:103580002091D201809582238093D201982F977049
:1035900079F430E0482F082E000C550B241735071E
:1035A00039F08595859585950E94D1180C94BB1AA4
:1035B000089580E090E00E942B2821E08C3E9E4FF1
:1035C00009F020E0822F089582E090E00C941D28FD
:1035D00083E090E00C941D28CF9384E090E00E945B
:1035E0001D28C82F81E290E00E941D282C2F30E07A
:1035F000A901582BCA01CF910895CF93C92F682FE5
:1036000084E090E00E9431286C2F81E290E0CF911D
:103610000C943128AB01BC018FE090E00C9443285E
:10362000AB01BC0183E190E00C94432860E070E0C2
:10363000CB010C94101B60E070E0CB010E940A1BD0
:103640000C94161B6CEE7EEF80E090E00E944F28F9
:1036500060E082E090E00E94312860E083E090E04A
:103660000E9431281092CE011092CF011092D00109
:103670001092D10160E084E090E00E94312860E087
:1036800081E290E00E94312860E085E090E00E94B5
:10369000312860E086E090E00E9431286FEF87E0FB
:1036A00090E00E94312840E050E0BA0188E090E0CC
:1036B0000E94432860E08DE090E00E94312840E0C5
:1036C00050E0BA0188E190E00E94432860E087E181
:1036D00090E00E94312840E050E0BA018CE190E097
:1036E0000E94432860E080E290E00E9431280C9420
:1036F0001B1B0C94221B682F8EE090E00C94312849
:10370000FC01329697E080E0915029F0219122232C
:10371000D9F38F5FF9CF08959C01FC0132969FEF9A
:1037200080E04191461789F09F3F19F4411101C093
:10373000982F8F5F8630A9F79F3F39F0F901E90F85
:10374000F11D97FDFA95628308950895FC01329664
:1037500008962081261301C010823196E817F907D8
:10376000C1F708950C948C1B0C94A61B029626E0BE
:10377000FC0111922A95E9F7089508950C94BD1B58
:103780000E94BE1B80914902843049F11092E001F1
:1037900020E488E190E00FB6F894A895809360004B
:1037A0000FBE2093600080E00E94B7030E94BE1B02
:1037B00083B7817F846083BF83B7816083BF789440
:1037C000889583B78E7F83BF0FB6F894A8958091B4
:1037D0006000886180936000109260000FBE0895C1
:1037E00008950895CF930E94F01B0E9459070E94EC
:1037F000F11BC0E08C2F0E94C606811104C0CF5F70
:10380000CA30C1F701C081E0CF91089508950C94AA
:10381000061C0E9474140E94D50E0E94B7030C94DB
:10382000071C1F920F920FB60F9211248F939F9334
:10383000AF93BF938091E001811113C080913F024B
:1038400090914002A0914102B09142024196A11D87
:10385000B11D80933F0290934002A0934102B09328
:103860004202BF91AF919F918F910F900FBE0F9029
:103870001F90189582E084BD93E095BD9AEF97BDA7
:1038800080936E0008952FB7F89480913F02909135
:103890004002A0914102B09142022FBF0895CF9201
:1038A000DF92EF92FF920F931F932FB7F8944091FE
:1038B0003F025091400260914102709142022FBF3D
:1038C0006A017B01EE24FF248C0120E030E0C01669
:1038D000D106E206F30610F4415051099A01281B63
:1038E000390BC9011F910F91FF90EF90DF90CF909E
:1038F000089578941F920F920FB60F9211248F9310
:103900009F93AF93BF9380913F0290914002A0910B
:103910004102B09142020196A11DB11D80933F0268
:1039200090934002A0934102B0934202BF91AF91A5
:103930009F918F910F900FBE0F901F90189587E762
:1039400097E790930108809300089AE088E10FB60A
:10395000F894A895809360000FBE90936000FFCF0D
:103960000E94D91A811102C00E94791B0E94E41A98
:103970008093DF010E94EC1A9093440280934302EB
:103980000E94E81A682F70E080E090E00C944F18D5
:103990008091E40180FF0BC06091100185E0689F79
:1039A000B001112475956795759567952BC081FFBA
:1039B00009C06091100185E0689FB00111247595E0
:1039C000679520C082FF07C06091100185E0689F65
:1039D000B001112417C09091E3019923D1F06091B7
:1039E0000F01961788F72091100185E0289F90011C
:1039F0001124929FA001939F500D112470E0CA01E1
:103A00000E9403286038710540F46115710539F092
:103A100002C065E070E0862F08958FE7089581E089
:103A200008958091E40180FF08C060910E0170E06C
:103A3000759567957595679521C081FF06C0609162
:103A40000E0170E07595679519C082FF04C0609102
:103A50000E0170E010C09091E3019923C1F06091D4
:103A60000D019617A0F780910E01899FC0011124C6
:103A700070E00E9403286038710528F46115710513
:103A800021F0862F08958FE7089581E0089561E081
:103A900070E0F4CF803F21F40E94C81C819504C0DF
:103AA000813F29F40E94C81C8093E8010895823F59
:103AB00021F40E94C81C819504C0833F29F40E9410
:103AC000C81C8093E7010895893F19F40E94111DD5
:103AD00005C08A3F31F40E94111D81958093E90150
:103AE00008958B3F21F40E94111D819504C08C3FE5
:103AF00029F40E94111D8093EA010895843F21F466
:103B00008091E601816017C0853F21F48091E60134
:103B1000826011C0863F21F48091E60184600BC071
:103B2000873F21F48091E601886005C0883F31F429
:103B30008091E60180618093E60108958D3F21F434
:103B40008091E40181600BC08E3F21F48091E401FB
:103B5000826005C08F3F29F48091E40184608093E6
:103B6000E4010895803F39F48091E80187FF6CC03B
:103B70001092E80169C0813F29F48091E80118168C
:103B8000BCF362C09091E701823F29F497FF5CC0CB
:103B90001092E70159C0833F19F41916CCF354C0B1
:103BA000893F41F48091E90118160CF04DC0109244
:103BB000E9014AC08A3F29F48091E90187FF44C0A6
:103BC000F6CF8B3F39F48091EA0187FF3DC0109218
:103BD000EA013AC08C3F29F48091EA011816BCF33F
:103BE00033C0843F21F48091E6018E7F17C0853F6A
:103BF00021F48091E6018D7F11C0863F21F48091F0
:103C0000E6018B7F0BC0873F21F48091E601877F1F
:103C100005C0883F31F48091E6018F7E8093E601F4
:103C200013C08D3F21F48091E4018E7F0BC08E3F45
:103C300021F48091E4018D7F05C08F3F29F48091AC
:103C4000E4018B7F8093E4018091E70181110EC034
:103C50008091E80181110AC08091E901811106C0BB
:103C60008091EA01811102C01092E301089585EE6E
:103C700091E00E94EC0E0E94431C9093E20180931D
:103C8000E10108951F93CF93DF938091E10190911B
:103C9000E2010E944F1CAC019091E301992321F0B5
:103CA0002091110130E006C0209112018AE0289F86
:103CB000900111244217530708F47BC08091E7015B
:103CC000C091E801D091E9011091EA01811107C08A
:103CD000C1116BC0D11169C0111167C06AC09F3F8B
:103CE00019F09F5F9093E301181624F40E94C81CFA
:103CF0008093E7018091E70187FF05C00E94C81CFF
:103D000081958093E7011C1624F40E94C81C8093BF
:103D1000E8018091E80187FF05C00E94C81C8195D9
:103D20008093E8013091E7013323E1F02091E8012D
:103D30002223C1F045EB3403C0011124892F990FD0
:103D4000990B009709F481E08093E70135EB230399
:103D5000C0011124892F990F990B009709F481E074
:103D60008093E8011D1624F40E94111D8093E9013F
:103D70008091E90187FF05C00E94111D8195809304
:103D8000E901111624F40E94111D8093EA0180912B
:103D9000EA0187FF05C00E94111D81958093EA0109
:103DA000DF91CF911F910C94371E9F3F09F099CF5F
:103DB000A1CFDF91CF911F910895E5EEF1E086E06C
:103DC000DF011D928A95E9F71092E3011092E40158
:103DD0000895833081F128F4813059F08230D1F098
:103DE0000895853009F449C0B8F1863009F456C009
:103DF000089580911201262F30E0280F311D2F3FAA
:103E0000310524F4680F6093120108958FEF8093B9
:103E10001201089580911101262F30E0280F311DE5
:103E20002F3F310524F4680F6093110108958FEF3F
:103E300080931101089580911001262F30E0280F02
:103E4000311D2F3F310524F4680F60931001089550
:103E50008FEF80931001089580910F01262F30E09D
:103E6000280F311D2F3F310524F4680F60930F0197
:103E700008958FEF80930F01089580910E01262FF2
:103E800030E0280F311D2F3F310524F4680F609377
:103E90000E0108958FEF80930E01089580910D011A
:103EA000262F30E0280F311D2F3F310524F4680FF5
:103EB00060930D0108958FEF80930D010895833075
:103EC00011F128F4813049F0823091F00895853065
:103ED00081F120F18630C1F10895809112016817B7
:103EE00020F4861B80931201089510921201089508
:103EF00080911101681720F4861B809311010895A9
:103F000010921101089580911001681720F4861B0A
:103F100080931001089510921001089580910F016F
:103F2000681720F4861B80930F01089510920F01EB
:103F3000089580910E01681720F4861B80930E016E
:103F4000089510920E01089580910D01681720F4D4
:103F5000861B80930D01089510920D0108950F9313
:103F60001F938B3109F474C058F58B3009F4A1C04C
:103F700078F4863009F446C020F4853009F44CC04A
:103F80009FC0873009F456C0883009F492C098C0A9
:103F9000803109F470C068F48E3009F091C08091CE
:103FA000DF0182FB222720F991E0922790FB82F922
:103FB00058C0863109F47DC0893109F47AC080C0C7
:103FC0008A32E9F060F4873209F475C028F48E3142
:103FD00008F476C08D515AC08932F1F071C0833433
:103FE00050F48A3308F051C0853309F464C0883333
:103FF00009F45FC065C0833409F45DC061C00E94EC
:10400000791B57C08091DF01817F8E7F8093DF0114
:1040100081E08093EC0155C00E9474140FEF13ED02
:1040200020E3015010402040E1F700C000000E9452
:104030009F1C3FC08091DF01982F9095917090FB5D
:1040400080F98093DF01911134C0897F877F10C090
:104050008091DF0181FB222720F991E0922790FBDC
:1040600081F98093DF01992321F18091DF01816043
:104070008093DF011EC08091DF0183FB222720F99E
:1040800091E0922790FB83F9ECCF895341E050E017
:1040900060E070E08A019B0104C0000F111F221F25
:1040A000331F8A95D2F7C901B8010E944F180E94A8
:1040B000741481E006C061E070E080E090E0F5CF2C
:1040C00080E01F910F91089580E0089580E00895A9
:1040D0008E518A3030F4E82FF0E0EF5CFE4F8081A3
:1040E000089580E00895CF93C82F8091EC0181302E
:1040F00051F018F0823099F17DC00E94291A823265
:1041000009F07AC004C00E94291A823261F48C2F0F
:104110000E946420811104C08C2F0E94AF1F1DC01B
:1041200081E090E01AC08C2F0E946620811114C09B
:10413000C43179F048F4CB3079F0C03109F060C077
:1041400082E08093EC0108C0C93219F0C83321F035
:1041500057C01092EC0154C081E0817053C0C93245
:1041600089F118F5C43171F1B0F4C73009F046C0D7
:104170008EE18093120182E3809311018AE08093A3
:10418000100184E180930F0188E080930E0188E2A2
:1041900080930D0133C082EE8C0F863078F58C2F22
:1041A0000E9468208093EB0129C0CE34E9F020F40E
:1041B000CB3421F56AE013C0C13579F0C235F1F492
:1041C00061E00DC08091EB01882319F01092EB01A2
:1041D00015C081E08093EC0115C061E006C08091BC
:1041E000EB010E94E91E0AC06AE08091EB010E9487
:1041F0005F1F04C01092EC0180E004C081E002C0A7
:1042000080E0ABCFCF9108958091F5010895CF93D1
:10421000DF9300D01F92CDB7DEB790914902943062
:1042200019F589837B836A8382E08093E9008FEFAD
:104230009091E800815095FD06C095ED9A95F1F7B3
:1042400000008111F5CF8091E80085FF0DC040E0AE
:1042500050E063E070E0CE0101960E94532380910C
:10426000E8008E778093E8000F900F900F90DF9119
:10427000CF910895CF93DF93EC010E9436238230D3
:1042800011F0843031F4BE0184E0DF91CF910C94C1
:104290000721DF91CF910895BC016058710983E037
:1042A0000C940721CF93DF93EC010E9436238230D8
:1042B00011F08430F9F482E08093E9009FEF80915F
:1042C000E800915085FD06C085ED8A95F1F7000064
:1042D0009111F5CF8091E80085FF0CC040E050E0DF
:1042E00066E070E0CE010E9453238091E8008E7753
:1042F0008093E800DF91CF910895CF93DF93EC0195
:104300000E943623823011F0843039F581E08093A9
:10431000E9008FEF9091E800815095FD06C095ED82
:104320009A95F1F700008111F5CF8091E80085FFA3
:1043300014C040E050E068E070E0CE010E945323DA
:104340008091E8008E778093E80088E0FE01ADEE72
:10435000B1E001900D928A95E1F7DF91CF91089538
:1043600080914802811109C00E94E8240E944525DD
:104370008091E20084608093E200089510924802E8
:104380000895089508950C94091C42E061EC81E0C1
:104390000E94622442E261EC82E00C9462248091EB
:1043A0004B02833009F460C030F4813071F0823008
:1043B00009F499C008958A3009F485C08B3009F456
:1043C0006BC0893009F0A7C020C080914A02813AB1
:1043D00009F0A1C08091E800877F8093E800809178
:1043E0004E0290914F02892B21F468E08DEE91E00E
:1043F00003C060E080E090E070E00E949E23809126
:10440000E8008B778093E800089580914A0281321A
:1044100009F081C080914E0290914F02029708F0FE
:104420007AC08091E800877F8093E8008091E8005F
:1044300082FD05C0809149028111F8CF6CC02091A6
:10444000F3008091F20090E0922B029729F4809182
:10445000F1008B7F813021F48091F1008093F50190
:104460008091E8008B7753C080914A02813A09F02D
:1044700052C080914E0290914F02892B09F04BC09F
:104480008091E800877F8093E8008091E80080FFBA
:10449000FCCF80911D0136C080914A028132D9F54E
:1044A00080914E0290914F02892BA9F58091E800EE
:1044B000877F8093E8000E94972480914C0280932C
:1044C0001D010C94741480914A02813221F580916F
:1044D000E800877F8093E8000E94972480914D0236
:1044E0008093F601089580914A02813AA1F4809167
:1044F000E800877F8093E8008091E80080FFFCCF90
:104500008091F6018093F1008091E8008E7780938E
:10451000E8000C949724089584B7877F84BF0FB672
:10452000F894A89580916000886180936000109253
:1045300060000FBE90E080E80FB6F89480936100B1
:10454000909361000FBE0E94340F0E94E8240E94E5
:1045500045258091E20084608093E20078940E9477
:10456000D4270E943A0F83E191E00E94D00E8091FF
:104570004902853069F40E94C01B8091470288235C
:10458000B1F30E94F21B882391F30E943D23EFCFE9
:104590000E94440FECCF0C94CD22292F33272330D7
:1045A0003105C9F064F42130310581F02230310544
:1045B00009F04CC08BE390E028E235E04BC021329B
:1045C000310521F12232310589F140C082E190E0CC
:1045D00023E635E03FC099278130910571F02CF436
:1045E000892BA1F5E4E2F5E00DC08230910541F0A0
:1045F000039761F5E0EEF4E005C0EEE0F5E002C0FF
:10460000E6EEF4E0849190E09F0124C0611571050D
:1046100041F061307105D1F489E090E023E535E0A7
:1046200019C089E090E02AE335E014C061157105F6
:1046300041F06130710551F485E890E025E735E0FF
:1046400009C080E490E02AEF35E004C080E090E00B
:1046500020E030E0FA0131832083089580914902FF
:10466000843011F081E0089582E008958091F7018F
:10467000811102C00C942E23089580E189BD82E14E
:1046800089BD09B400FEFDCF8091D8008F7D809355
:10469000D8008091E00082608093E0008091E0008B
:1046A00081FDFCCF0895CF92DF92EF92FF920F939E
:1046B0001F93CF93DF93EC018B016A010E94B62414
:1046C000811133C0C114D10439F0F6018081918188
:1046D000081B190BC80FD91FE12CF12C011511056E
:1046E00019F18091E80085FD16C08091E8008E7771
:1046F0008093E800C114D10449F0F60180819181D2
:10470000E80EF91EF182E08285E00FC00E94B62417
:10471000882321F30AC089918093F1000150110987
:10472000FFEFEF1AFF0ADACF80E0DF91CF911F9100
:104730000F91FF90EF90DF90CF900895209150025D
:10474000309151022617370748F06115710539F489
:104750002091E8002E772093E80001C0B90140E0E5
:1047600061157105A9F120914902222309F443C082
:10477000253009F442C02091E80023FD40C020917B
:10478000E80022FD32C02091E80020FFE9CF4091EF
:10479000F3002091F20030E0342BFC01CF016115D1
:1047A000710559F02830310540F481918093F10072
:1047B000615071092F5F3F4FF1CF41E02830310543
:1047C00009F040E02091E8002E772093E800C8CF60
:1047D0004111C9CF0AC080914902882361F0853018
:1047E00061F08091E80083FD0AC08091E80082FFBB
:1047F000F2CF80E0089582E0089583E0089581E09B
:10480000089520915002309151022617370748F041
:104810006115710539F42091E8002E772093E800A6
:1048200001C0B901FC0120E06115710591F1809191
:104830004902882309F440C0853009F43FC08091C3
:10484000E80083FD3DC08091E80082FD2FC080918B
:10485000E80080FFE9CF2091F3008091F20090E022
:10486000922B6115710559F08830910540F424911F
:104870002093F1003196615071090196F2CF21E049
:10488000089709F020E08091E8008E778093E80097
:10489000CBCF2111CCCF0AC080914902882361F08F
:1048A000853061F08091E80083FD0AC08091E800C6
:1048B00082FFF2CF80E0089582E0089583E00895BA
:1048C00081E00895982F973058F59093E900981754
:1048D00039F07091EC002091ED005091F00003C090
:1048E000242F762F50E021FF19C03091EB003E7F3E
:1048F0003093EB003091ED003D7F3093ED0030912F
:10490000EB0031603093EB007093EC002093ED00EE
:104910005093F0002091EE0027FF07C09F5FD3CF98
:104920008F708093E90081E0089580E00895809180
:104930004A0287FF11C08091E80082FD05C0809186
:1049400049028111F8CF11C08091E8008B770BC02C
:1049500080914902882349F08091E80080FFF8CFD8
:104960008091E8008E778093E80008952091E4001C
:104970003091E50095E64091EC00842F817040FF76
:1049800022C08091E80080FD1CC0809149028823EC
:1049900091F0853091F08091EB0085FD10C0409141
:1049A000E4005091E5004217530729F39A01915012
:1049B00011F784E0089582E0089583E0089581E08E
:1049C000089580E008954091E80042FFDECF089509
:1049D0000E9456250E945E25E0EEF0E08081816015
:1049E0008083E8EDF0E080818F77808319BCA7EDAC
:1049F000B0E08C918E7F8C9380818F7E808310922B
:104A0000480208950F931F93CF93DF930E9456257A
:104A10000E945E25C8EDD0E088818F7788838881E9
:104A20008068888388818F7D888319BC10924902B1
:104A300010924502109247021092460200EE10E0DA
:104A4000F80180818B7F808388818160888342E048
:104A500060E080E00E946224E1EEF0E080818E7FE1
:104A60008083E2EEF0E080818160808380818860D5
:104A70008083F80180818E7F808388818061888334
:104A8000DF91CF911F910F910895E8EDF0E08081C3
:104A90008F7E8083E7EDF0E080818160808384E019
:104AA00082BF81E0809348020C940225E8EDF0E09B
:104AB00080818E7F80831092E20008951092DA0048
:104AC0001092E10008951F920F920FB60F921124D9
:104AD0002F933F934F935F936F937F938F939F9306
:104AE000AF93BF93EF93FF938091E10082FF0BC0E0
:104AF0008091E20082FF07C08091E1008B7F80936C
:104B0000E1000E94D3278091DA0080FF1FC08091CE
:104B1000D80080FF1BC08091DA008E7F8093DA007E
:104B20008091D90080FF0DC080E189BD82E189BDFF
:104B300009B400FEFDCF81E0809349020E94B021BC
:104B400005C019BC109249020E94BE218091E1006B
:104B500080FF19C08091E20080FF15C08091E200C3
:104B60008E7F8093E2008091E20080618093E2007A
:104B70008091D80080628093D80019BC85E0809332
:104B800049020E94C2218091E10084FF30C08091DF
:104B9000E20084FF2CC080E189BD82E189BD09B4B7
:104BA00000FEFDCF8091D8008F7D8093D80080914A
:104BB000E1008F7E8093E1008091E2008F7E809300
:104BC000E2008091E20081608093E20080914502E2
:104BD000882311F084E007C08091E30087FD02C0C4
:104BE00081E001C083E0809349020E94C32180914B
:104BF000E10083FF29C08091E20083FF25C08091FE
:104C0000E100877F8093E10082E080934902109267
:104C100045028091E1008E7F8093E1008091E20067
:104C20008E7F8093E2008091E20080618093E200B9
:104C300042E060E080E00E9462248091F0008860A1
:104C40008093F0000E94C121FF91EF91BF91AF913D
:104C50009F918F917F916F915F914F913F912F9194
:104C60000F900FBE0F901F9018951F920F920FB6C6
:104C70000F9211242F933F934F935F936F937F93E2
:104C80008F939F93AF93BF93CF93DF93EF93FF9354
:104C9000C091E900CF708091EC00D82FD17080FDD9
:104CA000D0E81092E9008091F000877F8093F000B7
:104CB00078940E9479261092E9008091F000886033
:104CC0008093F000CD2BCF70C093E900FF91EF915E
:104CD000DF91CF91BF91AF919F918F917F916F9114
:104CE0005F914F913F912F910F900FBE0F901F90AA
:104CF00018951F93CF93DF93CDB7DEB7AA970FB662
:104D0000F894DEBF0FBECDBFEAE4F2E088E08E0F7C
:104D10009091F10091938E13FBCF0E94CF2180914F
:104D2000E80083FF28C180914A0290914B02492FED
:104D300050E04A30510508F01EC1FA01E857FF4F14
:104D40000C941728803821F0823809F014C108C06B
:104D50008091460290914702992389F082600FC0AA
:104D600080914E028F70873008F005C18093E90072
:104D70008091EB0085FB882780F91092E9009091E3
:104D8000E800977F9093E8008093F1001092F10083
:104D9000D0C0282F2D7F09F0EEC0882319F0823073
:104DA00061F0E9C080914C02813009F0E4C0933099
:104DB00009F080E0809347022EC080914C0281115F
:104DC0002AC080914E028F702FEF280F263008F0F6
:104DD000D2C08093E9002091EB0020FF1CC09330EB
:104DE00021F48091EB00806214C09091EB009061FF
:104DF0009093EB0021E030E0A90102C0440F551F61
:104E00008A95E2F74093EA001092EA008091EB0065
:104E100088608093EB001092E9008091E800877F22
:104E20008093E8000E949724A6C08111A4C010912D
:104E30004C021F778091E3008078812B8093E30000
:104E40008091E800877F8093E8000E9497248091FA
:104E5000E80080FFFCCF8091E30080688093E3004E
:104E6000111102C082E001C083E08093490283C037
:104E70008058823008F07FC080914C0290914D02A2
:104E80008C3D53E0950779F583E08A838AE2898334
:104E90004FB7F894DE01139620E03EE051E2E32F95
:104EA000F0E050935700E49120FF03C0E295EF70CB
:104EB0003F5FEF708E2F90E0EA3010F0C79601C090
:104EC000C0968D939D932F5F243149F74FBF8091FA
:104ED000E800877F8093E8006AE270E0CE010196E7
:104EE0000E949E2315C060914E0270914F02AE0148
:104EF0004F5F5F4F0E94CB22BC01892BE1F1909163
:104F0000E800977F9093E80089819A810E940124AC
:104F10008091E8008B778093E8002DC0803859F5A8
:104F20008091E800877F8093E8008091450280931C
:104F3000F1008091E8008E7773CF81111CC09091B1
:104F40004C029230C0F48091E800877F8093E800A3
:104F5000909345020E94972480914502811106C0DA
:104F60008091E30087FD02C081E001C084E080936E
:104F700049020E94C5218091E80083FF0AC0809108
:104F8000E800877F8093E8008091EB008062809347
:104F9000EB00AA960FB6F894DEBF0FBECDBFDF912F
:104FA000CF911F9108950895CF938091490288234E
:104FB000A1F0C091E900CF709091EC00892F817031
:104FC00090FD80E8C82B1092E9008091E80083FDF5
:104FD0000E947926CF70C093E900CF910895AA1B53
:104FE000BB1B51E107C0AA1FBB1FA617B70710F0D4
:104FF000A61BB70B881F991F5A95A9F78095909506
:10500000BC01CD01089597FB072E16F4009407D03C
:1050100077FD09D00E94EF2707FC05D03EF490955C
:1050200081959F4F0895709561957F4F0895EE0F7C
:10503000FF1F0590F491E02D0994F999FECF92BDE0
:1050400081BDF89A992780B50895A6E1B0E044E0C3
:1050500050E00C945728A8E1B0E042E050E00C94F6
:105060005728262FF999FECF92BD81BDF89A019756
:1050700000B4021639F01FBA20BD0FB6F894FA9AA0
:10508000F99A0FBE08950396272F0E9432280E9496
:105090003128252F0E943228242F0C943228019683
:1050A000272F0E9432280C943128DC01CB01FC010F
:1050B000F999FECF06C0F2BDE1BDF89A319600B471
:0E50C0000D9241505040B8F70895F894FFCF7C
:1050CE000141010042010542010E0ED401280814CF
:1050DE000A321E04217D2152214C213A2101F5F67E
:1050EE00F7313332369497C6343500000000000095
:0C50FE0001010203040506070809000078
:00000001FF
