:100000000C9479040C94E70F0C94C0040C94C00475
:100010000C94C0040C94C0040C94C0040C94C00450
:100020000C94C0040C94C0040C944C270C941E280F
:100030000C94C31D0C94C0040C94C0040C94C00414
:100040000C94C0040C94C0040C94C0040C94C00420
:100050000C94C0040C94101E0C94C0040C94C004A6
:100060000C94C0040C94C0040C94C0040C94C00400
:100070000C94C0040C94C0040C94C0040C94C004F0
:100080000C94C0040C94C0040C94C0040C94C004E0
:100090000C94C0040C94C0040C94C0040C94C004D0
:1000A0000C94C0040C94C0040C94C004870C8A0CFB
:1000B0008F0C960C9B0CA00CA50CAA0CAF0CB40CCE
:1000C000B90CBE0CC10CC10CC10CC10CC10CC10CD3
:1000D000C10CC10CAC13AC13DE13DE132B1449148A
:1000E0006A156A155414E914FA14FA145A156A15A3
:1000F0006A1563150A160A161C161C1613161C160A
:100100001C161C160A160A1618161C161C1618168B
:100110008B28B228AA29B228AA29FE282129AA298F
:10012000782987292E001E001F00200021002200B0
:1001300000442B0014001A00080015001700000FDF
:10014000290004001600070009000A000608E10063
:100150001D001B000600190005001908E000E20060
:10016000E300004200412A004C002D002700260039
:1001700025002400230031022F00130012000C0080
:1001800018001C000007344233420F000E000D001F
:100190000B00A900E50052003700360010001100E6
:1001A000AA004F0051005000380038412C002800B0
:1001B000C35C3A003B003C003D003E000000C45CD4
:1001C0001E021F022F02300231020000C25C200218
:1001D0002102260227023500C85CCB5C22022302E2
:1001E0002F0030003502C75CCA5CCF5CD05CCD5CB0
:1001F0000000C65CC55C4400430042004100400072
:100200003F00000045005500610060005F000000F5
:100210000000000057005E005D005C000000C95C4B
:10022000000054005B005A0059002402CA5CCE5CF6
:100230002E00630062000000BE5CBD5C0000000098
:100240000000000000000000000000000000F000BE
:10025000F000F900000000000000F200F200F100E0
:10026000F30000000000000000000000000000009B
:10027000000000000000000000000000F400F20098
:100280000000A900000000000000000000000000C5
:10029000AA000000000000000000000000000000B4
:1002A0000000BB00AE00BC005000000000000000D9
:1002B0000000000000000000000000000000AA0094
:1002C000A9000000F300000000003A003B003C00E1
:1002D0003D003E00C55C0000005CCD5CC25CC35CC0
:1002E000C65C0000000000000000000000000000EC
:1002F00001000000000000000000000000000000FD
:1003000000000000000000000000000000000000ED
:1003100043004200410040003F00C85C0000000074
:100320000000C95CCA5CC75C00000000000000005F
:1003300000000000000001000000000000000000BC
:1003400000000000000000000000000000000000AD
:10035000000000000000000000000000000000009D
:10036000000000000000000000000000000000008D
:10037000000000000000000000000000000000007D
:10038000000000000000000000000000000000006D
:100390000000000000000000000005520000000006
:1003A000000000000000005C0000000000000000F1
:1003B000000000000000000000000000000000003D
:1003C000000000000000000000000000000000002D
:1003D000000000000000000000000000000000001D
:1003E0002E001E001F0020002100220000492B00CB
:1003F0001400070015001A000500000F2900040072
:1004000016000B0017000A000608E1001D001B0083
:100410001000060019001908E000E200E3000047A0
:1004200000462A004C000100270026002500240079
:10043000230031022F0033001300180009000D00C3
:10044000000734470C471200080011001C00A900E7
:10045000E5005200370036000F000E00AA004F00E2
:1004600051005000380038462C002800C35C3A0088
:100470003B003C003D003E000000C45C1E021F0229
:100480002F02300231020000C25C2002210226024B
:1004900027023500C85CCB5C220223022F0030000B
:1004A0003502C75CCA5CCF5CD05CCD5C0000C65C2A
:1004B000C55C440043004200410040003F00000092
:1004C00045005500610060005F0000000000000072
:1004D00057005E005D005C000000C95C0000540035
:1004E0005B005A0059002402CA5CCE5C2E006300F7
:1004F00062000000BE5CBD5C000000000000000067
:10050000000000000000000000000000F000F90002
:100510000000000000000000F200F100F300000005
:1005200000000000000000000000FA0000000000D1
:100530000000000000000000F400F4000000A9002A
:10054000000000000000000000000000AA00000001
:100550000000000000000000000000000000BB00E0
:10056000AE00BC00500000000000000000000000D1
:1005700000000000000000000000A900AA00F50033
:10058000F500000000003A003B003C003D003E004A
:10059000000000000000000000000000000000005B
:1005A000000000000000000000000000000000004B
:1005B000000000000000000000000000000000003B
:1005C00000000000000000000000000043004200A6
:1005D000410040003F00C85C000000000000C95C12
:1005E000CA5CC75C000000000000000000000000C2
:1005F00000000000000000000000000000000000FB
:1006000000000000000000000000000000000000EA
:1006100000000000000000000000000000000000DA
:1006200000000000000000000000000000000000CA
:1006300000000000000000000000000000000000BA
:1006400000000000000000000000000000000000AA
:100650000000000000000052000000000000000048
:100660000000005C0000000000000000000000002E
:10067000000000000000000000000000000000007A
:10068000000000000000000000000000000000006A
:100690000000000000000000000000000001010157
:1006A000010101010101020202020202020202032F
:1006B00003030303030303040404040404040505FF
:1006C00005050506060606060707070707080808C2
:1006D00008090909090A0A0A0B0B0B0C0C0C0D0D71
:1006E0000D0E0E0E0F0F0F10101111111212131309
:1006F0001414151516161717181819191A1A1B1B82
:100700001C1D1D1E1E1F20202122222324242526DD
:1007100026272829292A2B2C2D2D2E2F3031323215
:10072000333435363738393A3B3C3D3E3F40414221
:10073000434445464748494A4C4D4E4F5051535407
:10074000555658595A5B5D5E5F61626465666869BB
:100750006B6C6D6F7072737577787A7B7D7E80823B
:10076000838587888A8C8E8F91939596989A9C9E84
:10077000A0A2A3A5A7A9ABADAFB1B3B5B7BABCBE94
:10078000C0C2C4C6C9CBCDCFD1D4D6D8DBDDDFE261
:10079000E4E7E9EBEEF0F3F5F8FAFDFF04033000CF
:1007A0000000260354006800650020005200650028
:1007B00064006F00780020004B0065007900620043
:1007C0006F006100720064000000140346006100C5
:1007D0006C00620061007400650063006800000046
:1007E0000403090409023B00020100A0FA09040005
:1007F000000103010100092111010001224000074D
:1008000005810308000A0904010001030000000932
:1008100021110100012281000705820320000A1234
:1008200001100100000008444D4452000101020380
:100830000105010902A10185020901A100050919AB
:1008400001290515002501950575018102950175A0
:100850000381010501093009311581257F95027554
:1008600008810609381581257F95017508810605DF
:100870000C0A38021581257F950175088106C0C0D4
:1008800005010980A101850319012AB70015012678
:10089000B700950175108100C0050C0901A1018503
:1008A0000419012AA002150126A0029501751081E4
:1008B00000C005010906A101050719E029E7150097
:1008C00025019508750181029501750881010507CB
:1008D000190029FF150026FF0095067508810005FF
:1008E0000819012905950575019102950175039176
:1008F00001C011241FBECFEFDAE0DEBFCDBF04B6CA
:1009000003FE27C08091C8029091C902A091CA023B
:10091000B091CB028730904BA740B04BD1F41092EE
:10092000C8021092C9021092CA021092CB0214BEE1
:1009300084B7877F84BF0FB6F894A8958091600034
:10094000886180936000109260000FBEE0E0F8E3E1
:10095000099511E0A0E0B1E0ECEAF4E502C00590F1
:100960000D92AA3AB107D9F722E0AAEAB1E001C094
:100970001D92A83CB207E1F70E948A240C94542AE5
:100980000C9400000C949F0781E0089581E0089585
:100990000C94C60408950C94CA041F93CF93DF935C
:1009A00000D000D01F92CDB7DEB749835A836B8346
:1009B0003091DA0189819A81311114C0662359F08E
:1009C000222349F00E94461B182F682F89819A81A3
:1009D0000E94EF1A03C00E941A1B182F69817A81A6
:1009E000812F04C00E94461B69817A810F900F906D
:1009F0000F900F900F90DF91CF911F910C94850570
:100A0000FC01262F408151816281738184810C9485
:100A1000CD04CF93DF93EC0160E00E940005BE019E
:100A2000DF91CF910C94CB040E94781C811102C0FD
:100A30000E94181D0C94C2040C949D0708950E94F6
:100A4000F8150E941E052FEF84E39CE021508040A2
:100A50009040E1F700C000000C94361E0F931F93E6
:100A6000CF93DF93EC0161E00E9400058C01BE0191
:100A70000E94C804882379F1BE01C8010E94890D33
:100A8000882349F1BE01C8010E94DB0D882319F1BA
:100A9000BE01C8010E94060F8823E9F0BE01C8010B
:100AA0000E94700C8823B9F08A81882369F00115AF
:100AB0008CE5180731F00E3D1C4531F40E94181DDD
:100AC0000AC00E941F0507C0CE01DF91CF911F9180
:100AD0000F910C94C40480E0DF91CF911F910F918E
:100AE000089508950C94710581E008950C9474059F
:100AF000CF93C82F0E9472058C2F0E947605CF914C
:100B0000089580E090E00895089526E4829FC00152
:100B10001124FC0127E0729FE00DF11D1124E60F66
:100B2000F11DEE0FFF1FEC5DFE4F8591949108952E
:100B3000880F991FFC01E456F94F8591949108950F
:100B4000CF93DF930E9485050E94B806EC018115C2
:100B5000904508F041C0C11580E4D80708F0D1C025
:100B6000C83ED10510F5C03ED10508F0FDC0C83A19
:100B7000D10578F4C53AD10508F0A2C0C130D1053D
:100B800009F4F2C008F4EEC0C430D10508F0ECC09E
:100B9000E9C0CF3BD10508F49BC0C03CD10508F4A7
:100BA000E1C0CE01805C91099EC0C11590E2D907D9
:100BB00058F4C11521E0D20708F0D6C0C03FD105D6
:100BC00008F4D0C0D065D0C0C11580E3D80708F0C4
:100BD0008EC0CE019F7087C0C11595E5D90708F07A
:100BE00043C0C11524E5D20708F0A2C0C11582E5B3
:100BF000D80708F5C11591E5D90708F085C0CE01E1
:100C000074E0969587957A95E1F783709C2F9370A1
:100C100021E030E002C0220F331F9A95E2F73C68D2
:100C2000382BCF70C695C69580E2C89FE00111248D
:100C3000C22BD32B99C09E01237033278C2F86950E
:100C40008695C115D34508F064C0C1E0D0E002C06C
:100C5000CC0FDD1F2A95E2F720E2829FC00111240C
:100C6000C82BD92BDC6880C0C11529E5D207A0F4B8
:100C7000C11588E5D80708F060C0C11596E5D90709
:100C800008F070C08C2F0E944C078F71C82FD0E0E5
:100C9000DC2FCC27D06268C0C1152AE5D20708F442
:100CA00051C0CE0190568115904208F05BC08D2F47
:100CB0008F710E944C07DD27D0628F71D82B54C0F2
:100CC000C55AD0E0C75ADE4FC881D0E0D0644CC0CE
:100CD000C85AD0E0CC0FDD1FC55DDE4F0990D8812A
:100CE000C02DD46441C00E949805EC013DC0CE01E6
:100CF0009927D3FF03C0EC01D86C36C0EC01D06C4F
:100D000033C0DF70D06A30C0DC2FCC27C16FD06A0F
:100D10002BC0C1E0D0E002C0CC0FDD1F2A95E2F766
:100D200020E2829FC0011124C82BD92BDA681CC095
:100D3000DC2FCC27C46FD06A17C0DC2FCC27C06F44
:100D4000D06A12C08C2F8F700E944C0794E0D69509
:100D5000C7959A95E1F7CF70D0E0DC2FCC27D0690A
:100D6000C82B02C0C0E0D0E0CE01DF91CF91089542
:100D70008238910569F1B0F48133910509F46DC0B1
:100D800048F48932910509F463C08A32910509F467
:100D900069C008958533910509F455C089339105DB
:100DA000B9F00895833E910569F138F4803E9105CC
:100DB000B1F0823E910509F10895863E9105A9F1B1
:100DC000873E9105B9F1843E910509F064C023C0C6
:100DD0002091B90220FD4FC021FD4DC008958091A2
:100DE000B90280FD44C08091BA0280FF44C0809166
:100DF000B90284FD42C083EE4DC08091B90282FFEA
:100E000038C0F5CF8091B90282FD33C08091BA021B
:100E100080FD31C0ECCF8091BA0281FF32C0809159
:100E2000B90284FD2AC087EE35C08091B90283FFE4
:100E300026C0F5CF8091B90283FD21C08091BA020E
:100E400081FD1FC0ECCF8091B90285FD1CC01DC083
:100E50008091B90285FD19C016C08091B90286FD46
:100E600016C017C08091B90286FD13C010C089E377
:100E700011C082EE0FC080EE0DC080E00BC086EE88
:100E800009C084EE07C089E205C085E303C08AE299
:100E900001C081E390E008959091B90292FF0DC0E6
:100EA000282F2871283019F4877F846006C0282FE6
:100EB0002471243011F48B7F886093FF0DC0282F9C
:100EC0002871283119F4877E846106C0282F247187
:100ED000243111F48B7E88612091BA0220FF0DC06D
:100EE000382F3871383019F4877F816006C0382F69
:100EF0003171313011F48E7F886021FF0DC0282FB1
:100F00002871283119F4877E816106C0282F21714C
:100F1000213111F48E7E886194FD877E0895E82F3B
:100F2000F0E0E658FD4F80810895089580EA8A95A3
:100F3000F1F7089508950C949A070C949B070C946C
:100F40009A070895CF93DF930E94120980910001C0
:100F500080910001811102C095E001C090E0909362
:100F6000850285E0891B80938402A3E6B1E048E610
:100F700051E061E070E08D91E82FE295EF70F0E0D4
:100F800021A18F70EB0102C0CC0FDD1F8A95E2F723
:100F9000CE019C2F9095922391A392A1892B82A39D
:100FA0004A175B0741F7ACE5B1E043E651E061E089
:100FB00070E08D91E82FE295EF70F0E021A18F7045
:100FC000EB0102C0CC0FDD1F8A95E2F7CE019C2F0A
:100FD0009095922391A392A1892B82A34A175B0734
:100FE00041F7E0E7F2E0AAE7B2E08AE792E0119287
:100FF0001D928E179F07D9F785E00E94BC080E94BA
:101000001405DF91CF910C941C090E94F3088823EA
:1010100009F18091840290E086589D4F0E944C090E
:10102000811114C08091AA018F5F8093AA0186303C
:1010300078F0E0918402F0E0E658FD4F80E090E027
:101040001192019685309105D9F702C01092AA013C
:101050000C941C058091850290E086589D4F0E945B
:101060006B090C94A1076F927F928F929F92AF921F
:10107000BF92CF92DF92EF92FF920F931F93CF9385
:10108000DF9383E6882E81E0982E00E712E095E753
:10109000A92E92E0B92E712CCC24C394D12CF4014A
:1010A00081914F01C82FC295CF70D0E099A18F7068
:1010B000760101C0EE0C8A95EAF7892F8E2989A363
:1010C0008AA16E2C609486218AA30E949607ECE583
:1010D000F1E040E050E020E03191A32FA295AF7005
:1010E000B0E090968C9190E03F7002C09595879506
:1010F0003A95E2F780FD07C08C2D042E01C0880FC1
:101100000A94EAF701C080E0282B4F5F5F4F473019
:10111000510511F789A1682269A28AA1E82AEAA2E9
:10112000F8018081281719F0208381E001C080E058
:10113000782A0F5F1F4FA016B10609F0B0CF60915B
:10114000850270E066587D4F272D45E080E792E0EC
:101150000E94BD080E940508872DDF91CF911F9145
:101160000F91FF90EF90DF90CF90BF90AF909F9046
:101170008F907F906F9008950895FF920F931F9323
:10118000CF93DF938C01F62ED72FC42F222349F063
:1011900081E08093AD010E94F51D9093AC01809396
:1011A000AB018091AD018823C1F08091AB0190919A
:1011B000AC010E94011E069780F0EF2DFD2FD80193
:1011C0004C2F50E0CD01801B910B841795071CF428
:1011D0008D918193F7CF1092AD01DF91CF911F9147
:1011E0000F91FF9008958091AE01811112C08091FE
:1011F000D80080618093D8008AE18A95F1F700C019
:101200008091D90080FD02C082E001C081E080931E
:10121000AE0181E09091AE01913009F080E0089537
:101220000C94F3080E941009809300010E94F308B7
:1012300081110C94230908950E94F308811102C0C2
:101240000C942909089562E070E081E091E00C942B
:10125000950F62E070E081E091E00C949E0F0E9497
:101260002A0C882361F086EB91E00E94300C81E02B
:1012700090E00E947710892B11F40C942D0C0895A6
:101280008091B501883039F460E086EB91E00E94EE
:10129000430C1092B5010895CF93DF93D82FC92F37
:1012A0000E942F0980E090E00E947710892B79F44A
:1012B000ED2FFC2F80E090E0DC01A055BE4F2C917B
:1012C0002193019685309105B9F781E001C080E056
:1012D000DF91CF910895CF93DF93D82FC92F0E942C
:1012E0004009ED2FFC2F80E090E02191DC01A0551A
:1012F000BE4F2C93019685309105B9F7DF91CF91C0
:101300000895EF92FF920F931F93CF93DF938B017A
:10131000682F11110AC0442329F0E82FF0E0E456A9
:10132000F94F6491762F862F75C0212F30E0E82F7A
:10133000F0E0442321F0E456F94FE491F0E046E078
:10134000049FC0011124CFEFD0E0BE010E94DE292E
:101350004BEA4603C001479F900D1124800F911D59
:10136000800F911D982F990F890FAE01421B530BCF
:101370004E9FD0014F9FB00D5E9FB00D11249B2F4B
:10138000189FA0011124452F55278E01041B150B12
:101390000E9FA0010F9F500D1E9F500D11247E0126
:1013A000E81AF108E29E8001E39E100DF29E100DF6
:1013B0001124212F3327C21BD30BCE9F9001CF9F27
:1013C000300DDE9F300D112462307105A9F048F414
:1013D0006115710569F061307105C9F48B2F752FA6
:1013E0000DC06430710581F058F06630710579F4F4
:1013F0007E2F8B2F932F0DC0832F7B2F9E2F09C005
:101400008E2F7B2F952F05C08E2F732F02C07E2F1E
:10141000852F692FDF91CF911F910F91FF90EF9052
:10142000089541E00E9481090895CF93DF93762FBC
:10143000E901682F842F0E94110A798368838A83C7
:10144000DF91CF91089580918602982F96959130E3
:1014500021F08170826080938602089588E090E098
:101460000C94142ACF92DF92EF92FF926B017C01D1
:101470000E94230AB701A60188E090E0FF90EF9058
:10148000DF90CF900C94322AE6E8F2E083E080838C
:1014900011828FEF828383831482AFEBB1E01296C7
:1014A0008C911297836012968C93608171818281F6
:1014B00093810C94320A90918A02933018F49F5FC2
:1014C00090938A02882351F060918602709187027E
:1014D00080918802909189020C94320A089581E0EB
:1014E0000C945B0A90918A02992319F09150909381
:1014F0008A02882351F06091860270918702809160
:101500008802909189020C94320A089581E00C942B
:10151000720A70E00C94C60C6091120180918602F0
:1015200080FF0AC08091110123E0829FC001112435
:1015300085579D4F0C94890A809113019091140155
:10154000891780F7E82FF0E09F01220F331FE20F89
:10155000F31FE557FD4F1182108212828F5FF0CF8B
:10156000E6E8F2E080818E7F8083608171818281F4
:1015700093810E94320AEFEBF1E0828181608283E5
:101580002FEF80E792E0215080409040E1F700C0CB
:1015900000000C948C0AE6E8F2E080818E7F808364
:1015A000EFEBF1E08281816082832FEF80E792E0B0
:1015B000215080409040E1F700C000000C948C0A5C
:1015C0009091860290FF16C0909113012091140112
:1015D000921770F4E92FF0E0DF01AA0FBB1FEA0FAA
:1015E000FB1FE557FD4F8183608342839F5FF0CFF0
:1015F0000C948C0A0895EF92FF920F931F93CF9350
:10160000DF9300D01F92CDB7DEB79091860290FF96
:101610003DC0E22E142F062FF82EE92FE695F0E0BC
:10162000E359FE4F80818093BF019E7F923059F431
:101630009E012F5F3F4F8F2D0E94150A4B816981BC
:101640008A810E94E00A80918702F81208C0809186
:101650008802081304C080918902181729F080912C
:10166000C10182608093C101F092870200938802D9
:1016700010938902EE2051F06091860270918702EA
:1016800080918802909189020E94320A0F900F90F7
:101690000F90DF91CF911F910F91FF90EF900895E0
:1016A000E6E8F2E09181282F4381628188E0890F8A
:1016B0000C94FB0A81E00C94500BE6E8F2E0918177
:1016C000282F4381628188EF890F0C94FB0A81E007
:1016D0000C945D0BE6E8F2E0628121E1620F08F410
:1016E0006FEF282F438181810C94FB0A81E00C94D9
:1016F0006A0BE6E8F2E0628121E1621B08F460E037
:10170000282F438181810C94FB0A81E00C94790B92
:10171000E6E8F2E0438121E1420F08F44FEF282F81
:10172000628181810C94FB0A81E00C94880BE6E8CD
:10173000F2E0438121E1421B08F440E0282F62815E
:1017400081810C94FB0A81E00C94970B20E00C94AF
:10175000FB0A8091860280FF1DC0817082608093A9
:1017600086028091C10181608093C101662351F09E
:10177000609186027091870280918802909189021F
:101780000E94320A4091890260918802809187020A
:101790000C94A60B0895682F81E00C94A90B81E0AE
:1017A0000C94CB0B682F9091860296958FEF890F42
:1017B00009F481E00C94A90B81E00C94D20B61E058
:1017C0000C94A90BE6E8F2E0808181608083869525
:1017D0000C94DF0B8091860280FD0C94B00A0C946F
:1017E000E20B60E00C94A90B8091BE01811131C025
:1017F0000E94781C811104C00E94181D0E94440A96
:101800000E942E0A6093860270938702809388025A
:10181000909389028091C10183608093C1016E7FA2
:1018200061F40E94440A0E942E0A6093860270931B
:10183000870280938802909389020E94230A8091F4
:10184000860280FF03C086950E94F10B81E08093A1
:10185000BE0108958091C10108951092C1010895BB
:1018600025E0E6E8F2E0DC0101900D922A95E1F72F
:101870002091BF013091C0014091C101FC0125833D
:101880003683478308951F93CF93DF93EC01162F80
:101890008F8180FF0FC0888180FF0AC080918602FF
:1018A000816080938602888186950E94A90B02C080
:1018B0000E94CB0A8F8181FF09C0212F4B816A8151
:1018C0008981DF91CF911F910C94FB0ADF91CF9119
:1018D0001F910895882311F0FA0101C0FB010994BA
:1018E0001F93CF93DF93FB01128111114AC0EC01CA
:1018F0000E94C71B8272FE01E25CFC45E431F105E7
:1019000020F4EA5AFF4F0C94062A11E03AC00E94D4
:10191000EA0B37C04CED5BE06FEC7BE004C04FECB2
:101920005BE06CED7BE00E946A0C2BC047E65BE05D
:101930006AE57BE0F8CF4AE55BE067E67BE0F3CF62
:1019400045E85BE066E77BE0EECF46E75BE065E815
:101950007BE0E9CF43EA5BE064E97BE0E4CF44E984
:101960005BE063EA7BE0DFCF46E85AE06FE67AE0CF
:10197000DACF4FE65AE066E87AE0D5CF81E00E9400
:10198000DF0B812FDF91CF911F910895539A2BB1D7
:10199000277F3BB138604FB7F894FC01CB01880F2B
:1019A000991F680F791F6E0F7F1FE617F70789F0E1
:1019B000819198E03BB9000000C087FF2BB9880FE8
:1019C000000000C000C000C02BB900C09A9591F77C
:1019D000ECCF4FBF8FE594E00197F1F700C0000016
:1019E0000895AF92BF92CF92DF92EF92FF920F9342
:1019F0001F93CF93DF937C015B01C42FD22FFC0197
:101A000082818823F9F04093C4010E94F51D9093D0
:101A1000C3018093C20180E28C0F883008F06EC051
:101A2000C77081E001C0880FCA95EAF7DF91CF91B6
:101A30001F910F91FF90EF90DF90CF90BF90AF90EC
:101A40000C9468138091C401481335C08091C20181
:101A50009091C3010E94011E6C01B701C5010E9453
:101A6000B118C816D90638F510E21D0FCD17B9F018
:101A700080E28C0F883040F4C77081E001C0880F8D
:101A8000CA95EAF70E946F13183058F581E09D2F30
:101A9000977001C0880F9A95EAF70E946813802F0B
:101AA0000E945513183050F5D77081E001C0880F9F
:101AB000DA95EAF70AC080E28C0F8830F8F4C77034
:101AC00081E001C0880FCA95EAF7DF91CF911F919D
:101AD0000F91FF90EF90DF90CF90BF90AF900C945C
:101AE0006F13802FDF91CF911F910F91FF90EF9097
:101AF000DF90CF90BF90AF900C945513DF91CF91B2
:101B00001F910F91FF90EF90DF90CF90BF90AF901B
:101B100008950F939C01CB01233F4CE5340731F12D
:101B200088F4283DFCE53F07D9F0293D4CE5340712
:101B300079F1273D3C45A9F506E221EE41EE67ED3E
:101B40007CE52BC0253FFCE53F07E1F0A8F0263FF0
:101B50003C4539F507E225EE46EE66EF7CE51DC013
:101B600007E225EE45EE68ED7CE517C006E221EEC2
:101B700040EE63EF7CE511C007E225EE44EE64EF32
:101B80007CE50BC006E221EE42EE65EF7CE505C088
:101B900008E221E045EE69ED7CE50E94F10C80E071
:101BA00008C0FC018281882319F01092C40101C091
:101BB00081E00F910895CF93DF93EC01FB018281C7
:101BC000882309F41FC1C230FCE5DF0708F41BC1FC
:101BD000C6319CE5D90738F09E012A5F3C45293083
:101BE000310508F010C10E948B1C9093BA028093BB
:101BF000B902C031ECE5DE0709F4C3C008F041C00A
:101C0000C8308CE5D80709F49AC0F0F4C430ECE58C
:101C1000DE0709F487C068F4C2308CE5D80709F400
:101C200077C0C330DC4509F0E3C08091B90282601F
:101C300076C0C630ECE5DE0709F46EC008F07BC064
:101C40008091B90288606BC0CC308CE5D80709F46C
:101C500085C068F4CA30ECE5DE0709F474C008F00A
:101C600079C00E94F8158091B902806858C0CE30C2
:101C70008CE5D80709F476C008F07FC08091B902DE
:101C80008BC0CB3FECE5DE0709F44FC018F5C3313C
:101C90008CE5D80709F47DC078F4C131ECE5DE07A6
:101CA00009F473C0C231DC4509F0A2C00E94F815E6
:101CB0008091B9028F7733C0C5318CE5D80709F41C
:101CC00072C008F486C0CA3FDC4509F091C080911B
:101CD000BA023EC0CF3FFCE5DF0709F45FC058F40D
:101CE000CD3F9CE5D90709F444C008F43FC080917A
:101CF000BA0282602DC0C130FDE5DF0709F475C06E
:101D000008F45DC0C230DD4509F072C080E06EC0ED
:101D10008091B902816003C08091B9028061809393
:101D2000B90266C08091B90211C08091BA02826086
:101D30008093BA025DC08091B9028062F0CF809139
:101D4000B9028064ECCF8091B90288608460E7CFEB
:101D50008160EECF8091B9028E7FE1CF8091B90290
:101D60008D7FDDCF8091B902877FD9CF8091BA0274
:101D700018C08091BA028D7FDBCF8091B9028F7E2F
:101D8000CECF8091B9028F7DCACF8091B9028F7B6F
:101D9000C6CF8091B902877F8B7FC1CF8091BA0275
:101DA0008D7F8E7FC5CF8091B90282FB222720F9DB
:101DB00091E0922790FB82F990FB83F9B0CF80915C
:101DC000BA02982F909591708E7F892B90FB81F9A4
:101DD000AFCF0E94F8158091B90287FB222720F926
:101DE00091E0922790FB87F99ACF81E00E941A1D1B
:101DF0008091B9029091BA020E949C1C0E94F81531
:101E000080E001C081E0DF91CF910895CF93DF930F
:101E100086319C4541F5EB010E94C71B982F8A81B2
:101E20002091160130911701882379F09A7A81E088
:101E300009F480E08093C501911102C069E201C0FC
:101E400065E3C9010E94611D0AC08091C50181112D
:101E500002C069E201C065E3C9010E94631D0E94DE
:101E6000151C80E001C081E0DF91CF9108958EE1E3
:101E7000489B02C08150E1F7489BFECF08955898D7
:101E800080E28A95F1F7589A0895FC012AE02A9594
:101E9000F1F790E020E080E031E0261779F040E1B2
:101EA0004A95F1F7880F489B02C08160932700C0D4
:101EB000000040E14A95F1F72F5FEFCF20E12A952E
:101EC000F1F729B100C0000030E13A95F1F7217037
:101ED00092272081920F90830895EF92FF920F93A3
:101EE0001F93CF93DF931F92CDB7DEB719828C017A
:101EF0007C01E60EF11C0E151F0559F00E94370FEC
:101F000068E0CE0101960E94450FF80181938F0190
:101F1000F2CF81E09981911180E00F90DF91CF9114
:101F20001F910F91FF90EF9008959093C8018093B7
:101F3000C7016093C601509A589A08959093C801BA
:101F40008093C7016093C6015098589AE89AE9E6D1
:101F5000F0E080818C7F80830895615091E001C022
:101F6000990F6A95EAF720E031E0992361F0492F53
:101F7000482319F0589A232701C0589840E24A95FF
:101F8000F1F79695F2CF222311F0589A01C0589894
:101F900080E28A95F1F758980895FF920F931F9366
:101FA000CF93DF93EC018C01060F111DC017D107F1
:101FB00041F0F9900E943F0F68E08F2D0E94AD0F15
:101FC000F5CFDF91CF911F910F91FF9008951F9250
:101FD0000F920FB60F9211240F931F932F933F93DD
:101FE0004F935F936F937F938F939F93AF93BF9321
:101FF000EF93FF93CF93DF931F92CDB7DEB7198294
:102000000E94370F67E0CE0101960E94450F382FDE
:10201000369536953695932F96959570232F257086
:10202000920F292F2370969596958770920F89139A
:1020300048C08981811145C08091C601831708F489
:1020400040C080E18A95F1F7589A509AA2E0AA958B
:10205000F1F700C00091C7011091C801B8E03B9FA3
:10206000000D111D11245898F8016581662321F097
:10207000868197810E94CD0F0E943F0FF0E1FA9573
:10208000F1F758985098589A80E18A95F1F7D8015D
:1020900012966C911297662369F013968D919C911C
:1020A00014970E946D0FD801ED91FC91811105C02C
:1020B00082E004C0D801ED91FC9188E080830E9409
:1020C000370F0F90DF91CF91FF91EF91BF91AF91BB
:1020D0009F918F917F916F915F914F913F912F9140
:1020E0001F910F910F900FBE0F901F9018950F9397
:1020F0001F93CF93DF932091C60130E02817390753
:102100000CF471C09C0193E0220F331F9A95E1F704
:10211000C091C701D091C801C20FD31FF894509A43
:10212000589845E04A95F1F70000982F96959570DC
:102130008570890F982F937086958695890F8901F0
:10214000082B0E943F0F84E08A95F1F700C067E0FA
:10215000802F0E94AD0F40E14A95F1F75098589AB0
:10216000489902C000C0FCCF87E090E0489B0EC0B9
:10217000019751F4509A589AE881F98181E080835F
:10218000789481E090E031C000C0F0CF6D8166238B
:1021900081F08E819F810E946D0F81110AC0509A3B
:1021A000589AE881F98182E08083789482E090E017
:1021B0001CC00E94370F80E28A95F1F75898509A18
:1021C00040E14A95F1F76A81662321F08B819C8179
:1021D0000E94CD0F0E943F0FE881F9811082789410
:1021E00080E090E002C084E090E0DF91CF911F9109
:1021F0000F9108959093CE018093CD010895E091C1
:10220000CD01F091CE01309721F00190F081E02DC9
:10221000099480E00895E091CD01F091CE013097CE
:1022200021F00280F381E02D09940895E091CD0121
:10223000F091CE01309739F022E0DC012C9304803C
:10224000F581E02D099408952091CB013091CC01C6
:102250002817390771F09093CC018093CB01E0915E
:10226000CD01F091CE01309721F00680F781E02D6D
:10227000099408952091C9013091CA01281739079E
:1022800071F09093CA018093C901E091CD01F09162
:10229000CE01309721F00084F185E02D0994089556
:1022A00085B7806885BF85B7806885BF0895089524
:1022B0000C9457110C9458110C9457110C945711FD
:1022C0000E9450110E945C110C945A110C94F30856
:1022D0000E94EC1D0E94A2070E94471E0E94F40B60
:1022E0000C945E11AF92BF92CF92DF92EF92FF9269
:1022F0000F931F93CF93DF93CDB7DEB72A970FB617
:10230000F894DEBF0FBECDBF0E9433080E94661155
:10231000811111C08FEF89838A831B820E94F51D72
:102320008160782F9D838C8349815A816B818D8157
:102330000E940A1240C080EDA82E81E0B82E00E075
:1023400010E0C02E802F0E948F07E82EF501D1905B
:102350005F01D82631F40F5F1F4F0A30110589F74E
:10236000D9CF8091550281FD0E94950780E0FF241E
:10237000F3949D2D9F21D1F08E83CF82EF2081E0B9
:1023800009F480E088870E94F51D8160782F9A8784
:1023900089874E815F8168858A850E940A12F801CB
:1023A000E053FE4F8081F826F08205C08F5FFF0C5E
:1023B0008730F9F6D0CF0E94F61F0E94FF1090914F
:1023C000CF018917B1F00E94FF108093CF012A96A8
:1023D0000FB6F894DEBF0FBECDBFDF91CF911F9136
:1023E0000F91FF90EF90DF90CF90BF90AF900C9443
:1023F00078052A960FB6F894DEBF0FBECDBFDF91E9
:10240000CF911F910F91FF90EF90DF90CF90BF90F1
:10241000AF900895CF93DF93CDB7DEB72B970FB66C
:10242000F894DEBF0FBECDBF4F83588769877A8788
:102430008B87DE01119686E0FD0111928A95E9F7FE
:1024400085E0FE01379601900D928A95E1F749816A
:102450005A816B817C818D819E810E94B4182B965C
:102460000FB6F894DEBF0FBECDBFDF91CF910895B8
:10247000FC01808191810E94881B0895CF9388235D
:1024800009F4A9C0C82F8238C1F40E94FF1081FD51
:10249000A2C069E380911601909117010E94611D0D
:1024A0000E94151C2FEF81EE94E021508040904057
:1024B000E1F700C0000069E319C0833801F50E940C
:1024C000FF1080FD88C063E580911601909117018F
:1024D0000E94611D0E94151C2FEF81EE94E0215097
:1024E00080409040E1F700C0000063E58091160154
:1024F000909117010E94631DCF910C94151C843894
:10250000C1F40E94FF1082FD66C067E4809116014D
:10251000909117010E94611D0E94151C2FEF81EE02
:1025200094E0215080409040E1F700C0000067E453
:10253000DDCF8CEF8C0F813AF8F48C2F0E9494221F
:10254000811149C06C2F80911601909117010E9452
:102550002B1D882349F06C2F809116019091170153
:102560000E94631D0E94151C6C2F80911601909192
:1025700017010E94611DC0CF80E28C0F883048F4A3
:10258000C77081E001C0880FCA95EAF70E94CA1B94
:10259000B3CFEBE5EC0FE33040F4F0E0E356FE4F51
:1025A000808190E0CF910C942411E8E5EC0FE731A5
:1025B00050F4F0E0EE0FFF1FE159FE4F8081918152
:1025C000CF910C943A11C03F30F08C2F0E94EB1E3B
:1025D000CF910C94D81FCF910895882309F464C03B
:1025E000823879F40E94FF1081FF5EC069E3809118
:1025F0001601909117010E94611D0E94151C69E34C
:1026000010C08338B1F40E94FF1080FF4DC063E515
:1026100080911601909117010E94611D0E94151C66
:1026200063E580911601909117010E94631D0C943F
:10263000151C843879F40E94FF1082FF35C067E4CE
:1026400080911601909117010E94611D0E94151C36
:1026500067E4E7CF9CEF980F913A10F4682FE1CF31
:1026600090E2980F983050F4877091E001C0990F74
:102670008A95EAF7892F0E94D01BD9CF9BE5980F46
:10268000933020F480E090E00C94241198E5980FAA
:10269000973120F480E090E00C943A11803F20F0D4
:1026A0000E94531F0C94D81F0895CF93C82F0E94E7
:1026B0003E12C93349F42FEF87EE93E0215080405A
:1026C0009040E1F700C000008C2FCF910C94ED12E8
:1026D000882321F00E94CA1B0C94151C089588239E
:1026E00021F00E94D01B0C94151C0895CF92DF920C
:1026F000EF92FF920F931F93CF93DF937C01062FEE
:10270000C72FFC01158112951F70D281D1110E9433
:10271000E71B0E94C01B882399F0DD2389F08C2FD2
:10272000807F803421F080E2800F883048F082E0A2
:102730000E945F1C0E94C01B91E0D82ED92601C0C8
:10274000D12CCC2EC2948FE0C8228C2D90E0FC01BD
:10275000E659FF4F0C94062A8C2F807FCF70882378
:1027600011F0C295C07FDD2399F0CC2309F48DC10F
:1027700080E2800F883010F0011104C08C2F0E947D
:10278000CA1B03C08C2F0E94DA1B0E94151C7DC13E
:10279000802F0E94ED12CC2309F49CC180E2800FAF
:1027A000883010F0011104C08C2F0E94D01B03C090
:1027B0008C2F0E94E01B0E94151C8CC18C2F807FE7
:1027C000CF70803211F0C295C07F002319F0013024
:1027D000C9F022C0DD2371F0112341F0113031F432
:1027E0000E94FA1B8C2B0E94021C74C10E94FA1BCF
:1027F0008C2B1DC0112319F0113009F46BC10E94FC
:102800000B1C25C0DD2321F0163008F063C10EC07B
:10281000153008F05FC11BC0DD2361F0112331F0DA
:10282000F701858180FF31C18F7085838C2F0E94D5
:10283000681350C1112359F0093309F037C1FFEF74
:1028400027EE83E0F15020408040E1F72DC18C2F2E
:102850000E946F133FC18C2F86958695837019F067
:10286000813061F037C1DD2321F0802F9C2F9370E0
:1028700002C080E090E00E94241134C1DD2321F0E9
:10288000802F9C2F937002C080E090E00E943A114C
:1028900029C1802FDD2319F00E94EB1E02C00E9487
:1028A000531F0E94D81F1EC18C2F837009F045C092
:1028B000D11114C1402F429546954770440F440FE3
:1028C000602F6F70862F90E0A0E0B0E0042E04C06F
:1028D000880F991FAA1FBB1F0A94D2F704FF10C0CC
:1028E0000FE010E020E030E004C0000F111F221FB5
:1028F000331F4A95D2F7009510952095309503C067
:1029000000E010E09801C695C695C370BC01CD01EA
:10291000602B712B822B932BC23049F058F4C130BD
:1029200019F00E94051ADAC00E94F319D7C00E945C
:10293000171AD4C00E94F119D1C0DD2319F08C2FD1
:10294000817001C08695882309F4C8C0402F429544
:1029500046954770440F440F602F6F70862F90E0AC
:10296000A0E0B0E0042E04C0880F991FAA1FBB1F6F
:102970000A94D2F704FF10C00FE010E020E030E02E
:1029800004C0000F111F221F331F4A95D2F7009574
:1029900010952095309503C000E010E09801C69591
:1029A000C695C370BC01CD01602B712B822B932B7C
:1029B000C23049F058F4C13019F00E94CA1A8EC0D2
:1029C0000E94B81A8BC00E94DC1A88C00E942B1A81
:1029D00085C0CF70DD2339F08C2F0E94511A802FD3
:1029E0000E9468137BC0802F0E946F138C2F0E945F
:1029F000721A74C0023F01F128F4003F41F0013F18
:102A0000A1F03FC0033FF9F0043F39F13AC0DD23A4
:102A100041F0153008F05EC08C2F8F710E94971A1C
:102A200059C0163008F056C0F7CFDD2339F08C2F8F
:102A30008F710E94511A4EC0DD23C9F38C2F8F7104
:102A40000E94721A47C0DD2329F08C2F8F710E94DB
:102A50003C1A40C00E94371A3DC0DD2349F0CF71B7
:102A60008C2F0E94511A63E08C2F0E944A1C32C0A6
:102A700081E00E945F1C123068F182E00E945F1CBE
:102A800029C0DD2331F0112391F2802F0E943E12E4
:102A900021C0112399F2093349F49FEFE7EEF3E0E7
:102AA0009150E040F040E1F700C00000802F0E940C
:102AB000ED1210C04C2F4F70602FC7010E9481058E
:102AC0000E9462190FC04C2F4F70602FC7010E94E7
:102AD000840508C088EF8C0D843020F40E94FF101C
:102AE0000E947805DD20C9F00E94BC1B80FD15C046
:102AF000F70112820E94B61B0E94511AC7010E9460
:102B0000AE150E94B61BDF91CF911F910F91FF90E0
:102B1000EF90DF90CF900C94721ADF91CF911F91BC
:102B20000F91FF90EF90DF90CF9008950F931F9338
:102B3000CF93DF93EC01688179818A810E94931B96
:102B40008C010E94EE1A0E94DF19B801CE010E948A
:102B50007613DF91CF911F910F910895CF93DF935B
:102B6000EC01988189812B813C81232B31F08F3FAF
:102B700031F481E09F3F19F403C081E001C080E09F
:102B800080FD19C0CE010E942E0581110CC00E944B
:102B9000C01B882381F08A81882369F082E0DF915D
:102BA000CF910C945F1CCE010E949615CE01DF914F
:102BB000CF910C940905DF91CF9108950E94E71BF6
:102BC0000E94F71B0E94151C0E9409210E94D81F19
:102BD00080E090E00E94241180E090E00C943A1193
:102BE00080911601909117010E94651D0C94DE15CD
:102BF0000E94D71B0C94F015E92FE295EF704E2F31
:102C000050E0FA013297EE30F105B0F4E658FF4F8C
:102C10000C94062A803F91F018F4883E68F40EC0A8
:102C2000843F51F40BC0883E48F0813F29F406C030
:102C300093FB882780F9089580E0089581E0089546
:102C40000E94881B0E94FC150895CF93DF9300D04B
:102C500000D01F92CDB7DEB70F900F900F900F905E
:102C60000F90DF91CF910895CF93DF9300D000D0E4
:102C700000D0CDB7DEB726960FB6F894DEBF0FBEF4
:102C8000CDBFDF91CF9108951F93CF93DF93C09174
:102C9000DB0116E08091DC01C81799F0D0E01C9FA1
:102CA000F0011D9FF00D1124E352FE4F4081518130
:102CB00062817381848195810E9434162196C77048
:102CC000E9CFDF91CF911F91089540910D0250916E
:102CD0000E0260910F02709110028091110290918A
:102CE00012020C9434160F931F93CF93DF938091AD
:102CF000120282958F7009F05DC080910F028823C7
:102D000009F458C08091DB011091DC0160910D0243
:102D100070910E02C0911002D091110291E06F3FAC
:102D200009F090E0292F06E0811709F443C02097AD
:102D300021F07F3F21F030E003C031E001C0322FAD
:102D400090E030FD34C0089FF001099FF00D112480
:102D5000DF01A352BE4F11963C911197371327C044
:102D60003C91361324C012963C91129731111FC02A
:102D700013964D915C9114974C1B5D0B483C51058B
:102D8000B0F4809112028F70806180931202EE5134
:102D9000FE4F80818F70806180838DE092E00E9481
:102DA000AE15DF91CF911F910F910C9444160196AF
:102DB0008770BACFDF91CF911F910F9108959F92A5
:102DC000AF92BF92CF92DF92EF92FF920F931F9339
:102DD000CF93DF93CDB7DEB761970FB6F894DEBF20
:102DE0000FBECDBF8C0185E0F801DE011D9601907C
:102DF0000D928A95E1F7F80140815181E28090912E
:102E00000D0260910E0220911002309111022115E5
:102E1000310531F06F3F31F481E09F3F19F403C079
:102E200081E001C080E0F82FF1709F2E80FD46C147
:102E3000F801A380B4808DE0C82E82E0D82EF090F7
:102E40000F02F501E21BF30BFF2009F4DFC08091B4
:102E50001202E83CF10508F09BC0282F207F09F002
:102E600052C0561313C0491311C0FE2CE1100EC0FE
:102E70008F708061809312020E946516C6010E94C5
:102E8000AE1580911202F801858358C1AB2831F04C
:102E90005F3F31F481E04F3F19F403C081E001C08E
:102EA00080E080FD03C081E08E2502C080E090E0DC
:102EB000F82FF170FF2E80FF1CC08091DB01209164
:102EC000DC0136E0821709F417C190E0389FF00169
:102ED000399FF00D1124E352FE4F6181561306C055
:102EE0006081461303C06281E61203C001968770B9
:102EF000E9CFFE2CEE2009F421C1809112028160FD
:102F0000809312025AC0561306C0491304C0E11040
:102F100002C0F8019FC04D875E878D859E850E9407
:102F20002016882379F1EE2069F120911202822F78
:102F300082958F7090E0029774F080910D029091CD
:102F40000E0298878F831986BB86AA862C87CE01AE
:102F500007960E94AE1586E0F801ADE0B2E0019060
:102F60000D928A95E1F70E9473160E9465160DC0B6
:102F7000561729F14D875E878D859E850E94201604
:102F800081112CC0C8010E94AE15FF24F394D6C055
:102F9000282F207F69F77A2DB98AA88A6E2D898912
:102FA0000E9425168DE092E00E94AE1586E0F601A3
:102FB00011928A95E9F70E946516F12CBFC049135A
:102FC000D9CFE110D7CFF8018583C8010E94AE1593
:102FD00086E0F60111928A95E9F7B0C0EE2091F2F1
:102FE00020911202822F82958F7090E002970CF44C
:102FF000B2CF80910D0290910E029A8389831B8239
:10300000BD82AC822E83CE010196A3CFE83CF105B0
:1030100008F047C0FE2CEE2009F4B4CF561330C0A0
:1030200049132EC02091120220FD21C0822F8295CB
:103030008F70482F50E041155105C9F0F8012583E4
:103040004F30510541F08F5F982F9295907F822FDE
:103050008F70892B8583C8010E94AE1586E0F80128
:10306000ADE0B2E001900D928A95E1F742C086E0B2
:10307000F801ADE0B2E001900D928A95E1F75EC0F3
:103080004D875E878D859E850E942016811163CFB6
:1030900080911202816080931202C8010E94AE15D5
:1030A0004DC07A2DB98AA88A6E2D89890E9425166D
:1030B00086E0F60111928A95E9F71BC0EE2009F42B
:1030C00061CF4D875E878D859E850E942016F82EE4
:1030D000882309F457CF86E0F801ADE0B2E0019013
:1030E0000D928A95E1F78DE092E00E9438120E94DD
:1030F00073160E94651622C04D875E878D859E855A
:103100000E94881B292F22952F70223028F49F704F
:1031100039F0811105C00BC0243028F49F7049F4A8
:10312000805E883020F0C8010E94AE159F2CF92CDB
:1031300005C0F8019581907F99F7F9CF8F2D6196A1
:103140000FB6F894DEBF0FBECDBFDF91CF911F91B8
:103150000F91FF90EF90DF90CF90BF90AF909F9036
:10316000089588EC90E008951F93CF93DF93CDB737
:10317000DEB72C970FB6F894DEBF0FBECDBF4F83DE
:10318000588769877A878B879C87CE0107960E942C
:10319000DF168823D1F09F8188852A853B85232BE4
:1031A00031F08F3F31F481E09F3F19F403C081E09B
:1031B00001C080E080FD47C04F81588569857A85D0
:1031C0008B859C850E9434163EC086E0FE013796B2
:1031D000DE01119601900D928A95E1F7FF81E88555
:1031E0006A857B856115710531F0EF3F31F481E02F
:1031F000FF3F19F403C081E001C080E080FD23C0DF
:103200002091DC0130E0C901019687709927409137
:10321000DB0150E084179507F1F1F983EA837D83A0
:103220006C8396E0929FD001939FB00D1124A3521E
:10323000BE4FFE01319601900D929A95E1F7809371
:10324000DC010E94441616E08091DB019091DC01C4
:10325000891771F1189FC001112483529E4F0E945B
:10326000DF16882329F1E091DB011E9FF001112474
:10327000E352FE4F40815181628173818481958147
:103280000E9434168091DB0190E0019687709927A7
:103290008093DB01D9CF0E94F8151092DC011092C7
:1032A000DB01EDE0F2E086E0DF011D928A95E9F7AF
:1032B0002C960FB6F894DEBF0FBECDBFDF91CF9135
:1032C0001F910895EF92FF920F931F93CF93DF9377
:1032D0008C01892B09F46CC0F12CEE24E394E801F5
:1032E0002196F8018491843740F4843008F051C06D
:1032F000813081F0823019F15BC0853709F444C018
:10330000A8F19CE7980F903708F052C08F770E9481
:10331000ED1241C00E5F1F4FFE01849190E2980FA5
:10332000983050F48770FE2D01C0FF0F8A95EAF7A0
:103330008F2F0E94EA1B14C00E943E122DC00E5F08
:103340001F4FFE01849190E2980F983060F48770CF
:10335000FE2D01C0FF0F8A95EAF78F2F0E94F01B08
:103360000E94151C19C00E94ED1216C00E5F1F4F5F
:10337000FE01C491CC2381F08FE99FE00197F1F722
:1033800000C00000C150F6CF0E5F1F4FFE01F49049
:1033900003C00E943E128E018F2D882309F49FCF17
:1033A000EFE9FFE03197F1F700C000008150F5CF61
:1033B000DF91CF911F910F91FF90EF9008950895A5
:1033C00008950C94E0190C94E1190E94E31960939C
:1033D00044027093450280934602909347020C94F6
:1033E000DE150C94E5190F931F9300914402109180
:1033F00045022091460230914702602B712B822BAF
:10340000932B1F910F910C94E5190F931F9300912B
:1034100044021091450220914602309147026023F8
:103420007123822393231F910F910C94E5190F931D
:103430001F93009144021091450220914602309161
:10344000470260277127822793271F910F910C94C1
:10345000E5190C94E0190E94291A609340027093B8
:10346000410280934202909343020C94DE1560E087
:1034700070E0CB010C942B1A0F931F9341E050E0A6
:1034800060E070E08A019B0104C0000F111F221F41
:10349000331F8A95D2F7C901B8011F910F910C947F
:1034A0002B1A0F931F9341E050E060E070E004C0DE
:1034B000440F551F661F771F8A95D2F780914002EF
:1034C00090914102A0914202B09143028A019B0176
:1034D000082B192B2A2B3B2BC901B8011F910F91E7
:1034E0000C942B1A0F931F9341E050E060E070E0C2
:1034F00004C0440F551F661F771F8A95D2F7409569
:103500005095609570958091400290914102A091F4
:103510004202B09143028A019B01082319232A2306
:103520003B23C901B8011F910F910C942B1A0F93E3
:103530001F9341E050E060E070E004C0440F551F6D
:10354000661F771F8A95D2F78091400290914102C1
:10355000A0914202B09143028A019B0108271927DA
:103560002A273B27C901B8011F910F910C942B1AF0
:103570000F931F930091400210914102209142024B
:1035800030914302602B712B822B932B1F910F9153
:103590000C942B1A0F931F9300914002109141023B
:1035A00020914202309143026023712382239323AE
:1035B0001F910F910C942B1A0F931F9300914002AF
:1035C00010914102209142023091430260277127FD
:1035D000822793271F910F910C942B1A089527E0AF
:1035E000929F800D1124E82FE695E695E695877069
:1035F00051E001C0550F8A95EAF785E0E89FF00198
:103600001124ED5EFD4F20E030E070E04081CB0101
:10361000022E02C0969587950A94E2F781708195F3
:1036200084278523842781932F5F3F4F25303105E1
:1036300069F7089527E0929F800D1124682F669501
:1036400066956695982F977085E0689FB001112464
:1036500040E050E080E0FB01E40FF51FED5EFD4F20
:10366000208130E0092E02C0369527950A94E2F7B2
:1036700021703327042E01C0220F0A94EAF7822B0F
:103680004F5F5F4F4530510531F70895BF92CF929C
:10369000DF92EF92FF920F931F93CF93DF938C01F2
:1036A000C0904002D0904102E0904202F09043026C
:1036B0008091440290914502A0914602B091470248
:1036C000C82AD92AEA2AFB2ACFE1D0E0D701C601CD
:1036D0000C2E04C0B695A795979587950A94D2F7B6
:1036E00080FD04C0219790F7B12C07C0BC2EB80113
:1036F0008C2F0E94A0050197A9F38B2DDF91CF910C
:103700001F910F91FF90EF90DF90CF90BF900895A1
:10371000CF93DF93EC010E94461BBE010E94A005DF
:10372000DF91CF9108951F93CF93DF93EB01909199
:10373000DA01992321F0CB010E94881B13C0882352
:1037400049F0CB010E94461B182F682FCE010E9422
:10375000EF1A04C0CB010E941A1B182FBE01812F43
:103760000E94A005DF91CF911F910895809148029A
:10377000859585958595089580914802877008956F
:1037800090914802977081E009F480E0089580915B
:103790005402089590915402892B80935402089505
:1037A0008095909154028923809354020895109239
:1037B0005402089590915302892B809353020895E7
:1037C000809590915302892380935302089510921B
:1037D0005302089590915202892B809352020895CA
:1037E00080959091520289238093520208951092FD
:1037F0005202089580914902089508950C94FD1B8A
:103800000C94FE1B90914902981721F08093490275
:103810000C94001C089580914902882329F010928D
:10382000490280E00C94001C0895E0911601F0918B
:103830001701809154028083E0911601F0911701E5
:10384000908180915302892B8083E0911601F09141
:103850001701908180915202892B808380914902C7
:10386000882381F0E0911601F09117019081892B56
:10387000808380911601909117010E941F1D811174
:103880000E940B1C80911601909117010C940B1152
:103890000C94FD1B98E0899F90011124262B209306
:1038A00048020E94511A8091480285958595859518
:1038B0000C94481C1092480280E00C94481C209103
:1038C00048028095822380934802982F977079F45C
:1038D00030E0482F082E000C550B2417350739F01F
:1038E0008595859585950E94721A0C945A1C0895A9
:1038F00080E090E00E941A2A21E08C3E9E4F09F061
:1039000020E0822F089582E090E00C940C2A83E05E
:1039100090E00C940C2ACF9384E090E00E940C2A53
:10392000C82F81E290E00E940C2A2C2F30E0A901E0
:10393000582BCA01CF910895CF93C92F682F84E0E7
:1039400090E00E94202A6C2F81E290E0CF910C94AD
:10395000202AAB01BC018FE090E00C94322AAB012D
:10396000BC0183E190E00C94322A60E070E0CB016E
:103970000C94AF1C60E070E0CB010E94A91C0C9479
:10398000B51C6CEE7EEF80E090E00E943E2A60E085
:1039900082E090E00E94202A60E083E090E00E94B4
:1039A000202A109244021092450210924602109270
:1039B000470260E084E090E00E94202A60E081E21B
:1039C00090E00E94202A60E085E090E00E94202A9A
:1039D00060E086E090E00E94202A6FEF87E090E0B0
:1039E0000E94202A40E050E0BA0188E090E00E9466
:1039F000322A60E08DE090E00E94202A40E050E012
:103A0000BA0188E190E00E94322A60E087E190E00C
:103A10000E94202A40E050E0BA018CE190E00E9430
:103A2000322A60E080E290E00E94202A0C94BA1CC6
:103A30000C94C11C682F8EE090E00C94202AFC01AD
:103A4000329697E080E0915029F021912223D9F31A
:103A50008F5FF9CF0895662349F0FC0132960896EE
:103A60002191621729F0E817F907D1F780E008954E
:103A700081E008959C01FC0132969FEF80E0419126
:103A8000461789F09F3F19F4411101C0982F8F5FAD
:103A90008630A9F79F3F39F0F901E90FF11D97FD35
:103AA000FA956283089508959C012A5F3F4FFC01B7
:103AB0004281461301C01282019682179307B9F71B
:103AC00008950C943A1D0C94541D029626E0FC01B6
:103AD00011922A95E9F7089508950C946C1D0C94A1
:103AE0006C1DCF930E946F1D0E9433080E946D1DB4
:103AF000C0E08C2F0E948F07811104C0CF5FCA30B5
:103B0000C1F701C081E0CF9108950C946C1D0C9415
:103B1000851D0E94871D8091BF02843049F110925B
:103B2000560220E488E190E00FB6F894A8958093BF
:103B300060000FBE2093600080E00E9478050E9424
:103B4000871D83B7817F846083BF83B7816083BF14
:103B50007894889583B78E7F83BF0FB6F894A89525
:103B600080916000886180936000109260000FBEB9
:103B700008950C946C1D0E94F8150E94FF100E947D
:103B800078050C94B91D1F920F920FB60F92112455
:103B90008F939F93AF93BF9380915602811113C06F
:103BA0008091B5029091B602A091B702B091B8028F
:103BB0004196A11DB11D8093B5029093B602A093CA
:103BC000B702B093B802BF91AF919F918F910F90C0
:103BD0000FBE0F901F90189582E084BD93E095BDB5
:103BE0009AEF97BD80936E0008952FB7F894809157
:103BF000B5029091B602A091B702B091B8022FBF62
:103C000008959C014FB7F8948091B5029091B60247
:103C1000A091B702B091B8024FBF821B930B0895D9
:103C200078941F920F920FB60F9211248F939F9347
:103C3000AF93BF938091B5029091B602A091B70265
:103C4000B091B8020196A11DB11D8093B502909369
:103C5000B602A093B702B093B802BF91AF919F9103
:103C60008F910F900FBE0F901F90189587E797E7E1
:103C700090930108809300089AE088E10FB6F894C9
:103C8000A895809360000FBE90936000FFCF0E94C4
:103C9000781C811102C00E94181D0E94831C809311
:103CA00055020E948B1C9093BA028093B9020E9425
:103CB000871C682F70E080E090E00E94F11960910D
:103CC00040027091410280914202909143020C9413
:103CD000291A80915D0280FF0BC060911D0185E073
:103CE000689FB001112475956795759567952BC0F0
:103CF00081FF09C060911D0185E0689FB00111241A
:103D00007595679520C082FF07C060911D0185E011
:103D1000689FB001112417C090915C029923D1F0E3
:103D200060911C01961788F720911D0185E0289F5E
:103D300090011124929FA001939F500D112470E0D7
:103D4000CA010E94F2296038710540F461157105BD
:103D500019F406C065E070E0862F08958FE7089596
:103D600081E0089580915D0280FF08C06091190193
:103D700070E0759567957595679521C081FF06C0C0
:103D80006091190170E07595679519C082FF04C0B4
:103D90006091190170E010C090915B02992399F035
:103DA000609118019617A0F780911901899FC001B1
:103DB000112470E00E94F2296038710540F4611509
:103DC000710519F406C061E070E0862F08958FE751
:103DD000089581E00895803F21F40E94691E819535
:103DE00004C0813F29F40E94691E809361020895F6
:103DF000823F21F40E94691E819504C0833F29F40B
:103E00000E94691E809360020895893F19F40E9400
:103E1000B21E05C08A3F31F40E94B21E8195809384
:103E2000620208958B3F21F40E94B21E819504C066
:103E30008C3F29F40E94B21E809363020895843F50
:103E400021F480915F02816017C0853F21F4809149
:103E50005F02826011C0863F21F480915F0284601E
:103E60000BC0873F21F480915F02886005C0883FC6
:103E700031F480915F02806180935F0208958D3FED
:103E800021F480915D0281600BC08E3F21F480910E
:103E90005D02826005C08F3F29F480915D028460DD
:103EA00080935D020895803F39F48091610287FF1D
:103EB0006AC01092610267C0813F29F4809161025B
:103EC0001816BCF360C090916002823F29F497FFFE
:103ED0005AC01092600257C0833F19F41916CCF3F0
:103EE00052C090916202893F31F419160CF04BC018
:103EF0001092620248C08A3F19F497FF44C0F8CF7D
:103F00008B3F39F48091630287FF3DC010926302BA
:103F10003AC08C3F29F4809163021816BCF333C079
:103F2000843F21F480915F028E7F17C0853F21F48A
:103F300080915F028D7F11C0863F21F480915F02E6
:103F40008B7F0BC0873F21F480915F02877F05C084
:103F5000883F31F480915F028F7E80935F0213C0AF
:103F60008D3F21F480915D028E7F0BC08E3F21F446
:103F700080915D028D7F05C08F3F29F480915D02A5
:103F80008B7F80935D0280916002811106C08091D9
:103F90006102811102C010925C0280916202811163
:103FA00006C080916302811102C010925B020895E5
:103FB0000E94F51D20916002211104C02091610230
:103FC000222321F090935A02809359022091620299
:103FD000211104C020916302222321F09093580202
:103FE000809357028EE592E00C941611EF92FF92A7
:103FF0000F931F93CF93DF9300D000D000D0CDB7A5
:10400000DEB786E0EEE5F2E0DE01119601900D925A
:104010008A95E1F7E0906002F090610200916202FF
:10402000109163021092600210926102109262027B
:1040300010926302E11003C0FF2009F45DC080917B
:10404000590290915A020E94011EAC0190915C02AB
:10405000992339F020911E0130E02417350758F0DC
:104060004BC020911F018AE0289F90011124241742
:10407000350718F041C09F3F19F09F5F90935C0295
:10408000EE2061F00E94691E1E1414F09FEF01C023
:1040900091E0989F902D112490936002FF2061F091
:1040A0000E94691E1F1414F09FEF01C091E0989FB9
:1040B000902D112490936102309160023323E1F03E
:1040C000209161022223C1F045EB3403C001112489
:1040D000992319F09093600203C081E080936002FD
:1040E00035EB2303C0011124992319F09093610249
:1040F00003C081E080936102011103C0112309F420
:104100005DC080915702909158020E94011EAC013F
:1041100090915B02992339F020911A0130E0241725
:10412000350758F04BC020911B018AE0289F900171
:1041300011242417350718F041C09F3F19F09F5FE5
:1041400090935B02002361F00E94B21E101614F0DF
:104150009FEF01C091E0989F902D112490936202EF
:10416000112361F00E94B21E111614F09FEF01C0DE
:1041700091E0989F902D11249093630230916202F8
:104180003323E1F0209163022223C1F045EB340395
:10419000C0011124992319F09093620203C081E0B9
:1041A0008093620235EB2303C0011124992319F097
:1041B0009093630203C081E0809363028091600268
:1041C00081110BC080916102811107C08091620250
:1041D000811103C08091630281110E94D81FEB827C
:1041E000FC820D831E8386E0FE013196AEE5B2E0CF
:1041F00001900D928A95E1F726960FB6F894DEBFEE
:104200000FBECDBFDF91CF911F910F91FF90EF9027
:104210000895EEE5F2E086E0DF011D928A95E9F768
:1042200010925C0210925B0210925D02089583303E
:1042300081F128F4813059F08230D1F00895853031
:1042400009F449C0B8F1863009F456C00895809148
:104250001F01262F30E0280F311D2F3F310524F498
:10426000680F60931F0108958FEF80931F010895D9
:1042700080911E01262F30E0280F311D2F3F310580
:1042800024F4680F60931E0108958FEF80931E0140
:10429000089580911D01262F30E0280F311D2F3FFA
:1042A000310524F4680F60931D0108958FEF80930A
:1042B0001D01089580911C01262F30E0280F311D2B
:1042C0002F3F310524F4680F60931C0108958FEF90
:1042D00080931C01089580911901262F30E0280F4A
:1042E000311D2F3F310524F4680F609319010895A3
:1042F0008FEF80931901089580911801262F30E0E7
:10430000280F311D2F3F310524F4680F60931801E9
:1043100008958FEF809318010895833011F128F4E8
:10432000813049F0823091F00895853081F120F19B
:104330008630C1F1089580911F01681720F4861B13
:1043400080931F01089510921F01089580911E010E
:10435000681720F4861B80931E01089510921E0199
:10436000089580911D01681720F4861B80931D011C
:10437000089510921D01089580911C01681720F482
:10438000861B80931C01089510921C010895809152
:104390001901681720F4861B809319010895109263
:1043A0001901089580911801681720F4861B8093E5
:1043B000180108951092180108950F931F9341E07A
:1043C00050E060E070E08A019B0104C0000F111F03
:1043D000221F331F8A95D2F7C901B8010E94F11933
:1043E0001F910F910C94F8158B3109F468C058F5A2
:1043F0008B3009F486C078F4863009F445C020F487
:10440000853009F44BC07FC0873009F44AC088303A
:1044100009F477C078C0803109F464C068F48E3044
:1044200009F071C08091550282FB222720F991E0AA
:10443000922790FB82F94CC0863109F462C0893121
:1044400009F45FC060C08A32E1F060F4873209F499
:1044500055C028F48E3108F456C08D5150C08932B1
:10446000E9F051C0833450F48A3308F045C08533F5
:1044700009F444C0883309F444C045C08334F1F1E1
:1044800042C00E94181D3DC080915502817F8E7FE1
:104490008093550281E08093650208950E941F0574
:1044A00030C080915502982F9095917090FB80F9C3
:1044B00080935502911125C0897F877F10C080911C
:1044C000550281FB222720F991E0922790FB81F988
:1044D000809355029923A9F08091550281608093C1
:1044E00055020FC08091550283FB222720F991E0ED
:1044F000922790FB83F9ECCF895301C080E00E94A2
:10450000DD2181E0089580E0089580E008950C9415
:1045100085228E518A3030F4E82FF0E0E056FE4FCD
:104520008081089580E00895CF93C82F809165021F
:10453000813051F018F0823099F17DC00E94C71B84
:10454000823209F07AC004C00E94C71B823261F433
:104550008C2F0E948722811104C08C2F0E94F4218D
:104560001DC081E090E01AC08C2F0E94852281112D
:1045700014C0C43179F048F4CB3079F0C03109F07F
:1045800060C082E08093650208C0C93219F0C83368
:1045900021F057C01092650254C081E0817053C071
:1045A000C93289F118F5C43171F1B0F4C73009F09E
:1045B00046C08EE180931F0182E380931E018AE052
:1045C00080931D0184E180931C0188E08093190190
:1045D00088E28093180133C082EE8C0F863078F524
:1045E0008C2F0E9489228093640229C0CE34E9F086
:1045F00020F4CB3421F56AE013C0C13579F0C2351F
:10460000F1F461E00DC080916402882319F01092EA
:10461000640215C081E08093650215C061E006C0A8
:10462000809164020E9417210AC06AE080916402AE
:104630000E948D2104C01092650280E004C081E0D8
:1046400002C080E0ABCFCF91089580916E020895B3
:10465000CF93DF9300D01F92CDB7DEB79091BF020A
:10466000943019F589837B836A8382E08093E90023
:104670008FEF9091E800815095FD06C095ED9A95D9
:10468000F1F700008111F5CF8091E80085FF0DC0A2
:1046900040E050E063E070E0CE0101960E944025CA
:1046A0008091E8008E778093E8000F900F900F9034
:1046B000DF91CF910895BC0184E00C942823BC01C4
:1046C00083E00C94282322E02093E9002FEF30911F
:1046D000E800215035FD06C035ED3A95F1F70000B0
:1046E0002111F5CF2091E80025FF0BC040E050E0FC
:1046F00066E070E00E9440258091E8008E7780930C
:10470000E8000895CF93DF9321E02093E9002FEF95
:104710003091E800215035FD06C035ED3A95F1F7AE
:1047200000002111F5CF2091E80025FF14C0EC0115
:1047300040E050E068E070E00E9440258091E80091
:104740008E778093E80088E0FE01A6E6B2E0019053
:104750000D928A95E1F7DF91CF9108958091BE0285
:10476000811109C00E94D1260E942E278091E2006B
:1047700084608093E20008951092BE020895089527
:1047800008950C94BB1D42E061EC81E00E944A2632
:1047900042E261EC82E00C944A268091C1028330AF
:1047A00009F460C030F4813071F0823009F499C0AE
:1047B00008958A3009F485C08B3009F46BC08930C4
:1047C00009F0A7C020C08091C002813A09F0A1C0C1
:1047D0008091E800877F8093E8008091C4029091E7
:1047E000C502892B21F468E086E692E003C060E010
:1047F00080E090E070E00E948B258091E8008B774C
:104800008093E80008958091C002813209F081C050
:104810008091C4029091C502029708F07AC08091FD
:10482000E800877F8093E8008091E80082FD05C062
:104830008091BF028111F8CF6CC02091F30080916C
:10484000F20090E0922B029729F48091F1008B7F87
:10485000813021F48091F10080936E028091E80014
:104860008B7753C08091C002813A09F052C0809189
:10487000C4029091C502892B09F04BC08091E800D9
:10488000877F8093E8008091E80080FFFCCF8091D3
:104890002A0136C08091C0028132D9F58091C402CC
:1048A0009091C502892BA9F58091E800877F8093BC
:1048B000E8000E947F268091C20280932A010C9416
:1048C000F8158091C002813221F58091E800877F40
:1048D0008093E8000E947F268091C30280936F023C
:1048E00008958091C002813AA1F48091E800877F09
:1048F0008093E8008091E80080FFFCCF80916F02F8
:104900008093F1008091E8008E778093E8000C940A
:104910007F26089584B7877F84BF0FB6F894A89543
:1049200080916000886180936000109260000FBEEB
:1049300090E080E80FB6F894809361009093610056
:104940000FBE0E9460110E94D1260E942E278091E6
:10495000E20084608093E20078940E94C3290E9460
:10496000681180E291E00E94FA108091BF028530C8
:1049700069F40E94891D8091BD028823B1F30E94D1
:10498000711D882391F30E942A25EFCF0E94721196
:10499000ECCF0C94CB24292F332723303105C9F0D9
:1049A00060F42130310581F02230310509F04AC030
:1049B0008BE390E024EE37E049C02132310511F15C
:1049C0002232310579F13EC082E190E02FE138E0FA
:1049D0003DC099278130910561F040F0823091050A
:1049E00059F0039779F5ECE9F7E008C0E0EEF7E05D
:1049F00005C0EAECF7E002C0E2EAF7E0849190E05B
:104A00009F0124C06115710541F061307105D1F439
:104A100089E090E02FE038E019C089E090E026EFCF
:104A200037E014C06115710541F06130710551F432
:104A300081E890E021E338E009C080E490E022EBD7
:104A400038E004C080E090E020E030E0FA013183FB
:104A50002083089580E189BD82E189BD09B400FE0B
:104A6000FDCF8091D8008F7D8093D8008091E000A9
:104A700082608093E0008091E00081FDFCCF08958A
:104A8000CF92DF92EF92FF920F931F93CF93DF931A
:104A9000EC018B017A010E949E26811133C0E11442
:104AA000F10439F0F70180819181081B190BC80FBF
:104AB000D91FC12CD12C0115110519F18091E800E5
:104AC00085FD16C08091E8008E778093E800E114A0
:104AD000F10449F0F70180819181C80ED91ED1827D
:104AE000C08285E00FC00E949E26882321F30AC061
:104AF00089918093F10001501109FFEFCF1ADF0A6D
:104B0000DACF80E0DF91CF911F910F91FF90EF906E
:104B1000DF90CF9008952091C6023091C7022617EA
:104B2000370748F06115710539F42091E8002E77B8
:104B30002093E80001C0B901FC0120E06115710576
:104B400079F18091BF028823F1F18530F1F18091F4
:104B5000E80083FD3CC08091E80082FD2EC080917A
:104B6000E80080FFEBCF2091F3008091F20090E00D
:104B7000922B6115710551F08830910538F421911F
:104B80002093F100615071090196F3CF21E008975D
:104B900009F020E08091E8008E778093E800CECF86
:104BA0002111CFCF0AC08091BF02882361F08530E8
:104BB00061F08091E80083FD0AC08091E80082FFE7
:104BC000F2CF80E0089582E0089583E0089581E0C7
:104BD00008952091C6023091C7022617370748F082
:104BE0006115710539F42091E8002E772093E800D3
:104BF00001C0B901FC0120E06115710591F18091BE
:104C0000BF02882309F440C0853009F43FC0809179
:104C1000E80083FD3DC08091E80082FD2FC08091B7
:104C2000E80080FFE9CF2091F3008091F20090E04E
:104C3000922B6115710559F08830910540F424914B
:104C40002093F1003196615071090196F2CF21E075
:104C5000089709F020E08091E8008E778093E800C3
:104C6000CBCF2111CCCF0AC08091BF02882361F045
:104C7000853061F08091E80083FD0AC08091E800F2
:104C800082FFF2CF80E0089582E0089583E00895E6
:104C900081E00895982F973068F59093E900981770
:104CA00039F07091EC002091ED005091F00003C0BC
:104CB000242F762F50E021FD02C09F5FECCF309172
:104CC000EB003E7F3093EB003091ED003D7F309361
:104CD000ED003091EB0031603093EB007093EC000D
:104CE0002093ED005093F0002091EE0027FDE5CFDA
:104CF00080E008958F708093E90081E008958091AD
:104D0000C00287FF11C08091E80082FD05C080913C
:104D1000BF028111F8CF11C08091E8008B770BC0E2
:104D20008091BF02882349F08091E80080FFF8CF8E
:104D30008091E8008E778093E80008952091E40048
:104D40003091E50095E64091EC00842F817040FFA2
:104D500023C08091E80080FD1DC08091BF028823A0
:104D600099F0853099F08091EB0085FD11C040915C
:104D7000E4005091E5002417350729F3915011F014
:104D80009A01E1CF84E0089582E0089583E00895D8
:104D900081E0089580E008954091E80042FFDDCF72
:104DA00008950E943F270E944727E0EEF0E08081AF
:104DB00081608083E8EDF0E080818F77808319BC8B
:104DC000A7EDB0E08C918E7F8C9380818F7E808365
:104DD0001092BE0208950F931F93CF93DF930E940A
:104DE0003F270E944727C8EDD0E088818F778883CE
:104DF00088818068888388818F7D888319BC109220
:104E0000BF021092BB021092BD021092BC0200EED3
:104E100010E0F80180818B7F8083888181608883A6
:104E200042E060E080E00E944A26E1EEF0E080810E
:104E30008E7F8083E2EEF0E08081816080838081DC
:104E400088608083F80180818E7F80838881806183
:104E50008883DF91CF911F910F910895E8EDF0E0E5
:104E600080818F7E8083E7EDF0E0808181608083A8
:104E700084E082BF81E08093BE020C94EB26E8EDD3
:104E8000F0E080818E7F80831092E200089510927E
:104E9000DA001092E10008951F920F920FB60F9260
:104EA00011242F933F934F935F936F937F938F932F
:104EB0009F93AF93BF93EF93FF938091E10082FFA5
:104EC0000BC08091E20082FF07C08091E1008B7FE0
:104ED0008093E1000E94C2298091DA0080FF1FC008
:104EE0008091D80080FF1BC08091DA008E7F809374
:104EF000DA008091D90080FF0DC080E189BD82E198
:104F000089BD09B400FEFDCF81E08093BF020E94FD
:104F1000AE2305C019BC1092BF020E94BC23809131
:104F2000E10080FF19C08091E20080FF15C08091F0
:104F3000E2008E7F8093E2008091E20080618093A6
:104F4000E2008091D80080628093D80019BC85E08F
:104F50008093BF020E94C0238091E10084FF30C093
:104F60008091E20084FF2CC080E189BD82E189BD8F
:104F700009B400FEFDCF8091D8008F7D8093D800CA
:104F80008091E1008F7E8093E1008091E2008F7E2E
:104F90008093E2008091E20081608093E200809142
:104FA000BB02882311F084E007C08091E30087FDF5
:104FB00002C081E001C083E08093BF020E94C12350
:104FC0008091E10083FF29C08091E20083FF25C02A
:104FD0008091E100877F8093E10082E08093BF02AF
:104FE0001092BB028091E1008E7F8093E10080915E
:104FF000E2008E7F8093E2008091E20080618093E6
:10500000E20042E060E080E00E944A268091F000E9
:1050100088608093F0000E94BF23FF91EF91BF91C1
:10502000AF919F918F917F916F915F914F913F9140
:105030002F910F900FBE0F901F9018951F920F92F7
:105040000FB60F9211242F933F934F935F936F935B
:105050007F938F939F93AF93BF93CF93DF93EF9300
:10506000FF93C091E900CF708091EC00D82FD170F0
:1050700080FDD0E81092E9008091F000877F809356
:10508000F00078940E9462281092E9008091F0006C
:1050900088608093F000CD2BCF70C093E900FF9122
:1050A000EF91DF91CF91BF91AF919F918F917F91C0
:1050B0006F915F914F913F912F910F900FBE0F9085
:1050C0001F9018951F93CF93DF93CDB7DEB7AA97A4
:1050D0000FB6F894DEBF0FBECDBFE0ECF2E08091DA
:1050E000F100819322E0E83CF207C9F70E94CD234A
:1050F0008091E80083FF2EC18091C0029091C1028F
:10510000492F50E04A30510508F024C1FA01E85710
:10511000FF4F0C94062A803821F0823809F01AC11A
:1051200008C08091BC029091BD02992389F08260F1
:105130000FC08091C4028F70873008F00BC180933C
:10514000E9008091EB0085FB882780F91092E90047
:105150009091E800977F9093E8008093F10010927F
:10516000F100D1C0282F2D7F09F0F4C0882319F059
:10517000823061F0EFC08091C202813009F0EAC054
:10518000933009F080E08093BD022EC08091C2026E
:1051900081112AC08091C4028F702FEF280F263012
:1051A00008F0D8C08093E9002091EB0020FF1CC0DC
:1051B000933021F48091EB00806214C09091EB0059
:1051C00090619093EB0021E030E0A90102C0440F10
:1051D000551F8A95E2F74093EA001092EA00809109
:1051E000EB0088608093EB001092E9008091E8006A
:1051F000877F8093E8000E947F26ACC08111AAC0FF
:105200001091C2021F778091E3008078812B8093F8
:10521000E3008091E800877F8093E8000E947F266A
:105220008091E80080FFFCCF8091E300806880934C
:10523000E300111102C082E001C083E08093BF024D
:1052400089C08058823008F085C08091C202909158
:10525000C3028C3D53E0950779F583E08A838AE2A7
:1052600089834FB7F894DE01139620E03EE051E2C7
:10527000E32FF0E050935700E49120FF03C0E29544
:10528000EF703F5FEF708E2F90E0EA3010F0C7961E
:1052900001C0C0968D939D932F5F243149F74FBF76
:1052A0008091E800877F8093E8006AE270E0CE0199
:1052B00001960E948B2516C06091C4027091C502B0
:1052C000AE014F5F5F4F0E94C924BC01892B09F4D6
:1052D00041C09091E800977F9093E80089819A817E
:1052E0000E94E9258091E8008B778093E80032C026
:1052F000803881F58091E800877F8093E800809175
:10530000BB028093F1008091E8008E7772CF81110B
:1053100021C08091C2029091C30299270297D4F4D0
:105320008091E800877F8093E8008091C20280939B
:10533000BB020E947F268091BB02811106C0809132
:10534000E30087FD02C081E001C084E08093BF02DA
:105350000E94C3238091E80083FF0AC08091E80087
:10536000877F8093E8008091EB0080628093EB0060
:10537000AA960FB6F894DEBF0FBECDBFDF91CF91D6
:105380001F9108950895CF938091BF028823A1F0C3
:10539000C091E900CF709091EC00892F817090FD51
:1053A00080E8C82B1092E9008091E80083FD0E94FC
:1053B0006228CF70C093E900CF910895AA1BBB1B50
:1053C00051E107C0AA1FBB1FA617B70710F0A61B05
:1053D000B70B881F991F5A95A9F780959095BC0126
:1053E000CD01089597FB072E16F4009407D077FDA2
:1053F00009D00E94DE2907FC05D03EF490958195E6
:105400009F4F0895709561957F4F0895EE0FFF1F90
:105410000590F491E02D0994F999FECF92BD81BDDC
:10542000F89A992780B50895A6E1B0E044E050E0ED
:105430000C94462AA8E1B0E042E050E00C94462AE1
:10544000262FF999FECF92BD81BDF89A019700B43D
:10545000021639F01FBA20BD0FB6F894FA9AF99ADD
:105460000FBE08950396272F0E94212A0E94202A0A
:10547000252F0E94212A242F0C94212A0196272FC0
:105480000E94212A0C94202ADC01CB01FC01F9990D
:10549000FECF06C0F2BDE1BDF89A319600B40D9280
:0C54A00041505040B8F70895F894FFCF39
:1054AC0001AF0100B00105B001B50108B601000063
:1054BC0000000E000E0E4A022808641E140A321E4A
:1054CC002523822363235F235B2301E200E900EAA7
:1054DC0000B500B600B700CD008301CC008A019264
:1054EC000194012102230224022502260227022A0A
:1054FC0002B300B4006F007000818283F5F6F731BF
:10550C003332369497C6343500000000000001E2B7
:10551C0000E900EA00B500B600B700CD008301CC6D
:10552C00008A019201940121022302240225022601
:10553C000227022A02B300B4006F0070008182833C
:0A554C000102030405060708090028
:00000001FF
