:100000000C94BB010C9402020C9402020C94160393
:100010000C9402020C9402020C9402020C94020250
:100020000C9402020C9402020C946B1A0C943D1B6B
:100030000C9401160C9402020C9402020C9402021D
:100040000C9402020C9402020C9402020C94020220
:100050000C9402020C944E160C9402020C940202B0
:100060000C9402020C9402020C9402020C94020200
:100070000C9402020C9402020C9402020C940202F0
:100080000C9402020C9402020C9402020C940202E0
:100090000C9404020C9402020C9402020C940202CE
:1000A0000C9402020C9402020C940202C20CC20CC8
:1000B000F40CF40C4A0E4A0E4A0E4A0E410DDA0DAB
:1000C000EB0DEB0DD30ED30EE50EE50EDC0EE50EBB
:1000D000E50EE50ED30ED30EE10EE50EE50EE10EB4
:1000E000AA1BD11BC91CD11BC91C1D1C401CC91C2F
:1000F000971CA61C29001E001F00200021002200C2
:100100002B0014001A00080015001700E10004007D
:100110001600070009000A00E0001D001B00060091
:10012000190005000000E300E2004C002C412843C8
:100130002D00270026002500240023002F00130097
:1001400012000C0018001C00340033000F000E00D9
:100150000D000B00E50038003700360010001100DC
:100160000000E4002E0028422C4135000000000071
:10017000000000000000000000000000520000002D
:1001800000000000E100500051004F00000000009E
:10019000E00000000000000000000000000000007F
:1001A0000000000000000000A900000000000000A6
:1001B00000000000AA000000000052000000000043
:1001C000E50000004F00510050000000E400000076
:1001D000000000000000000000000000000000001F
:1001E000000000000000000000000000000000000F
:1001F00000001E021F022F02300231020000200206
:1002000021022602270235000000220223022F00CD
:100210003000350200000000000000000000000077
:100220000000560055005400000000000000570078
:10023000610060005F000000000085005E005D005E
:100240005C000000000067005B005A0059002402B7
:1002500000006300620000000000000000000000D9
:10026000000000000000000000000000000000008E
:10027000000000000000000000000000000000007E
:10028000000000000000000000000000000000006E
:10029000000000000000000000000000000000005E
:1002A000000000000000000000000000000000004E
:1002B000000000000000000000000000000000003E
:1002C000000000000000000000000000000000002E
:1002D0000000005C0403300000000E034C006900C5
:1002E0006C007900350038000000120346005F0002
:1002F0005900550055004300480049000000040320
:10030000090409022200010100A0FA090400000109
:1003100003010100092111010001224000070581AC
:100320000308000A120110010000000851FC5800E7
:1003300000010102030105010906A101050719E0F9
:1003400029E71500250195087501810295017508B9
:1003500081010507190029FF150026FF0095067584
:100360000881000508190129059505750191029577
:100370000175039101C011241FBECFEFDAE0DEBF8B
:10038000CDBF04B603FE27C08091200290912102C8
:10039000A0912202B09123028730904BA740B04B2E
:1003A000D1F4109220021092210210922202109297
:1003B000230214BE84B7877F84BF0FB6F894A89534
:1003C00080916000886180936000109260000FBE91
:1003D000E0E0F8E3099511E0A0E0B1E0E8EAFAE333
:1003E00002C005900D92AA33B107D9F722E0AAE323
:1003F000B1E001C01D92A032B207E1F70E94AD1733
:100400000C94521D0C9400001F920F920FB60F9285
:1004100011248F939F93EF93FF938091B900887F6E
:10042000803869F038F48823C9F18036C9F5109214
:100430003A0136C0883A09F1883BF9F031C0809121
:100440003A01811111C08091BB0080933B018091E2
:100450003B01803120F010923B0180E001C081E03F
:1004600091E090933A011DC0E0913B01F0E0809152
:10047000BB00E350FE4F808308C0E0913B01F0E0F9
:10048000E350FE4F80818093BB0080913B0190E060
:1004900001968F70992780933B0102C01092BC0097
:1004A00081E09091BC008295880F880F807C9568D0
:1004B000892B8093BC00FF91EF919F918F910F90BA
:1004C0000FBE0F901F9018958EE14A9B02C081507D
:1004D000E1F74A9BFECF08955A9880E28A95F1F79A
:1004E0005A9A0895FC012AE02A95F1F790E020E05D
:1004F00080E031E0261779F040E14A95F1F7880F66
:100500004A9B02C08160932700C0000040E14A95E9
:10051000F1F72F5FEFCF20E12A95F1F729B100C065
:10052000000030E13A95F1F722FB222720F99227CB
:100530002081920F90830895EF92FF920F931F9363
:10054000CF93DF931F92CDB7DEB719828C017C0168
:10055000E60EF11C0E151F0559F00E94640268E0BA
:10056000CE0101960E947202F80181938F01F2CFB1
:1005700081E09981911180E00F90DF91CF911F91DF
:100580000F91FF90EF90089590933E0180933D016D
:1005900060933C01529A5A9A089590933E01809339
:1005A0003D0160933C0152985A9AEA9AE9E6F0E0DC
:1005B00080818F7C80830895615091E001C0990F04
:1005C0006A95EAF720E031E0992361F0492F48234A
:1005D00019F05A9A232701C05A9840E24A95F1F738
:1005E0009695F2CF222311F05A9A01C05A9880E2D0
:1005F0008A95F1F75A980895FF920F931F93CF931E
:10060000DF93EC018C01060F111DC017D10741F0DB
:10061000F9900E946C0268E08F2D0E94DC02F5CFF9
:10062000DF91CF911F910F91FF9008951F920F922C
:100630000FB60F9211240F931F932F933F934F9355
:100640005F936F937F938F939F93AF93BF93EF933A
:10065000FF93CF93DF931F92CDB7DEB719820E942D
:10066000640267E0CE0101960E947202382F36952F
:1006700036953695932F96959570232F2570920F6A
:10068000292F2370969596958770920F891348C0ED
:100690008981811145C080913C01831708F440C0D5
:1006A00080E18A95F1F75A9A529AA2E0AA95F1F759
:1006B00000C000913D0110913E01B8E03B9F000D4C
:1006C000111D11245A98F8016581662321F0868155
:1006D00097810E94FC020E946C02F0E1FA95F1F70A
:1006E0005A9852985A9A80E18A95F1F7D801129651
:1006F0006C911297662369F013968D919C911497D3
:100700000E949C02D801ED91FC91811105C082E00C
:1007100004C0D801ED91FC9188E080830E946402BE
:100720000F90DF91CF91FF91EF91BF91AF919F918A
:100730008F917F916F915F914F913F912F911F9179
:100740000F910F900FBE0F901F9018950F931F934E
:10075000CF93DF9320913C0130E0281739070CF448
:1007600071C09C0193E0220F331F9A95E1F7C0916D
:100770003D01D0913E01C20FD31FF894529A5A986E
:1007800045E04A95F1F70000982F96959570857091
:10079000890F982F937086958695890F8901082B6C
:1007A0000E946C0284E08A95F1F700C067E0802F18
:1007B0000E94DC0240E14A95F1F752985A9A4A9910
:1007C00002C000C0FCCF87E090E04A9B0EC00197BA
:1007D00051F4529A5A9AE881F98181E080837894A1
:1007E00081E090E031C000C0F0CF6D81662381F0E0
:1007F0008E819F810E949C0281110AC0529A5A9A4E
:10080000E881F98182E08083789482E090E01CC0E6
:100810000E94640280E28A95F1F75A98529A40E168
:100820004A95F1F76A81662321F08B819C810E94B1
:10083000FC020E946C02E881F9811082789480E0C9
:1008400090E002C084E090E0DF91CF911F910F9182
:100850000895CF93DF93AFE2B1E044E351E061E06C
:1008600070E08D91E82FE295EF70F0E021A18F709C
:10087000EB0102C0CC0FDD1F8A95E2F7CE019C2F61
:100880009095922391A392A1892B82A34A175B078B
:1008900041F7DF91CF91089508950C944C040C9486
:1008A0004D040C944C040E94F0050E942904A9E216
:1008B000B1E041E050E08D91E82FE295EF70F0E07B
:1008C00021A18F70BA0102C0660F771F8A95E2F7E7
:1008D000CB01962F9095922391A392A1892B82A36D
:1008E00071E0AF32B70739F7209A559A289A5D9A86
:1008F000E9E4F1E0AFE3B1E011921D9281E0E3356C
:10090000F807D1F70E94D105809353010C949A0601
:100910009F92AF92BF92CF92DF92EF92FF920F938E
:100920001F93CF93DF9380910101811103C0C5E034
:10093000D0E002C0C0E0D0E0AE01415C5E4F7A0181
:100940008FE2C82E81E0D82E8A01AA24A394B12C6C
:1009500025E0922EF4E3CF16F1E0DF0609F44AC059
:10096000F60181916F01E82FE295EF70F0E021A18F
:100970008F70A50102C0440F551F8A95E2F7CA0186
:10098000922F982B91A392A18095892382A350EA5C
:100990005A95F1F7E9E2F1E020E040E050E03191D2
:1009A000A32FA295AF70B0E090968C9190E03F702D
:1009B00002C0959587953A95E2F780FD07C0C5017D
:1009C000042E01C0880F0A94EAF702C080E090E08C
:1009D000282B4F5F5F4F4630510509F7F8018081A2
:1009E000821719F02083909200010E9429040F5F62
:1009F0001F4FB0CF809100018823B1F081508093C8
:100A00000001811103C0C75BDE4F07C08FE99FE083
:100A10000197F1F700C0000007C0F70191917F0135
:100A200099938F5F8530C9F781E0DF91CF911F9156
:100A30000F91FF90EF90DF90CF90BF90AF909F907D
:100A40000895CF93DF9320910101211103C0C0E0ED
:100A5000D0E002C0C5E0D0E00E940B06009721F074
:100A6000029781F428980EC0289ADE01A75BBE4F3A
:100A700085E0E0E6F1E001900D928A95E1F780E0F3
:100A800090E002C081E090E0DF91CF9108950E9454
:100A9000880480910101811103C0E5E0F0E002C00B
:100AA000E0E0F0E0E75BFE4F20E030E080E0D901DD
:100AB000A05ABE4F4C919191491381E09C932F5FB6
:100AC0003F4F2530310599F790915801890F809358
:100AD00058010895CF93DF9380915301882309F43F
:100AE0003FC00E94880480910101811103C0C5E0CC
:100AF000D0E002C0C0E0D0E0C75BDE4F45E050E090
:100B0000BE018BE591E00E94031D25E0FE01ABE5EF
:100B1000B1E001900D922A95E1F70E942105892B01
:100B2000D9F05D98809154018F5F80935401863095
:100B300058F180910101811103C0E0E0F0E002C0B2
:100B4000E5E0F0E0E75BFE4F80E090E01192019677
:100B500085309105D9F718C05D9A1092540114C0E0
:100B60000E94470580910101811103C0A0E0B0E01F
:100B700002C0A5E0B0E0A75BBE4F85E0EBE5F1E089
:100B800001900D928A95E1F70E94A20681E0DF9123
:100B9000CF910895E82FF0E0E75BFE4F8081089544
:100BA000089580915501811112C08091D800806113
:100BB0008093D8008AE18A95F1F700C08091D9002E
:100BC00080FD02C082E001C081E08093550181E098
:100BD00090915501913009F080E008950C94D10571
:100BE0000E94EE05809301010E94D105882319F02F
:100BF0000E94FF0502C00E9405067894089563E0F4
:100C000070E082E091E00C94C40263E070E082E066
:100C100091E00C94CD020F931F93CF93DF938C013F
:100C200090911B0180911A01981761F082E090E089
:100C30000E94A603EC01892B39F480911A0180935C
:100C40001B0102C0C0E0D0E0012B49F480915601A5
:100C500090915701892B19F480E090E002C081E067
:100C600090E00E94A603892B49F48091580180935B
:100C70001A01109257011092560106C081E090E0CF
:100C80009093570180935601CE01DF91CF911F9130
:100C90000F9108950C944E0681E0089581E0089527
:100CA00008950C9450061F93CF93DF9300D000D08B
:100CB0001F92CDB7DEB749835A836B8330917A0197
:100CC00089819A81311114C0662359F0222349F099
:100CD0000E949113182F682F89819A810E943813DE
:100CE00003C00E946413182F69817A81812F04C088
:100CF0000E94911369817A810F900F900F900F904D
:100D00000F90DF91CF911F910C940107FC01262FCA
:100D1000408151816281738184810C945306CF9309
:100D2000DF93EC0160E00E948606BE01DF91CF9167
:100D30000C9451060E94B614811102C00E945615EF
:100D40000C944F040C94510408950C94A40681E073
:100D500008950C94A706CF93C82F0E94A5068C2F48
:100D60000E94A906CF91089508950E94C10E0E9485
:100D7000B4062FEF84E39CE0215080409040E1F7DF
:100D800000C000000C9474160F931F93CF93DF9351
:100D9000EC0161E00E9486068C01BE010E944A06B9
:100DA000882349F1BE01C8010E943D09882319F139
:100DB000BE01C8010E947E098823E9F0BE01C80176
:100DC0000E94A90A8823B9F08A81882369F0011555
:100DD0008CE5180731F00E3D1C4531F40E94561584
:100DE0000AC00E94B50607C0CE01DF91CF911F91C6
:100DF0000F910C944C0680E0DF91CF911F910F91E1
:100E000008952CE3829FC0011124FC0126E0729F0B
:100E1000E00DF11D1124E60FF11DEE0FFF1FEC5048
:100E2000FF4F859194910895CF93DF930E9401071E
:100E30000E94F207EC01811523E5920798F58115D0
:100E400042E5940708F094C0C11580E2D807C0F4C9
:100E5000C11521E0D20708F0C1C0C53AD10548F458
:100E6000C430D10508F0BAC0C130D10509F4B6C00C
:100E7000B3C0CE01805E9109089708F4AFC0ACC042
:100E8000C11541E5D40708F06EC0C11580E5D8074B
:100E900008F04DC0C11520E4D20708F49DC0DF70F2
:100EA000D06A9CC0811546E5940700F5C11585E51B
:100EB000D80708F077C0C11524E5D20708F06DC047
:100EC000CE018370992721E030E002C0220F331F4A
:100ED0008A95E2F78C2F8695869540E2849FC00123
:100EE0001124E901C82BD92BDA6878C081154AE5AD
:100EF000940778F4C11589E5D80708F05DC0C115DD
:100F000028E5D20708F468C0DC2FCC27C06FD06A70
:100F100065C090568115904208F05EC08D2F8F718C
:100F20000E948608DD27D0628F71D82B57C0CE0172
:100F300074E0969587957A95E1F783709C2F93706E
:100F400021E030E002C0220F331F9A95E2F73C689F
:100F5000382BCF70C695C69580E2C89FE00111245A
:100F6000C22BD32B3BC0DC2FCC27C16FD06A36C03D
:100F70008370992721E030E002C0220F331F8A9549
:100F8000E2F78C2F8695869540E2849FC00111245C
:100F9000E901C82BD92BDC6821C0DC2FCC27C46F1A
:100FA000D06A1CC08C2F0E9486088F71C82FD0E099
:100FB000DC2FCC27D06212C08C2F8F700E94860845
:100FC00094E0D695C7959A95E1F7CF70D0E0DC2FE5
:100FD000CC27D069C82B02C0C0E0D0E0CE01DF91A1
:100FE000CF9108958238910569F1B0F4813391056C
:100FF00009F46DC048F48932910509F463C08A325E
:10100000910509F469C008958533910509F455C027
:1010100089339105B9F00895833E910569F138F45B
:10102000803E9105B1F0823E910509F10895863E1A
:101030009105A9F1873E9105B9F1843E910509F02A
:1010400064C023C02091110220FD4FC021FD4DC07E
:1010500008958091110280FD44C08091120280FFAA
:1010600044C08091110284FD42C083EE4DC0809146
:10107000110282FF38C0F5CF8091110282FD33C08A
:101080008091120280FD31C0ECCF8091120281FF6D
:1010900032C08091110284FD2AC087EE35C0809154
:1010A000110283FF26C0F5CF8091110283FD21C07C
:1010B0008091120281FD1FC0ECCF8091110285FD4D
:1010C0001CC01DC08091110285FD19C016C0809101
:1010D000110286FD16C017C08091110286FD13C053
:1010E00010C089E311C082EE0FC080EE0DC080E019
:1010F0000BC086EE09C084EE07C089E205C085E317
:1011000003C08AE201C081E390E00895909111024A
:1011100092FF0DC0282F2871283019F4877F846032
:1011200006C0282F2471243011F48B7F886093FF30
:101130000DC0282F2871283119F4877E846106C0DC
:10114000282F2471243111F48B7E886120911202A2
:1011500020FF0DC0382F3871383019F4877F816037
:1011600006C0382F3171313011F48E7F886021FF35
:101170000DC0282F2871283119F4877E816106C09F
:10118000282F2171213111F48E7E886194FD877E94
:1011900008950F931F93CF93DF93C62FD42F122F51
:1011A000FC0182818823C9F0609367010E94331695
:1011B000909366018093650180E28C0F883008F07F
:1011C00057C0C77081E001C0880FCA95EAF7DF9168
:1011D000CF911F910F910C947E0C80916701681341
:1011E00030C080916501909166010E943F1684365F
:1011F000910538F500E20D0FCD17B9F080E28C0FA4
:10120000883040F4C77081E001C0880FCA95EAF7C2
:101210000E94850C083028F581E09D2F977001C051
:10122000880F9A95EAF70E947E0C812F0E946B0C22
:101230000830F0F4D77081E001C0880FDA95EAF742
:101240000AC080E28C0F883098F4C77081E001C03A
:10125000880FCA95EAF7DF91CF911F910F910C94F7
:10126000850C812FDF91CF911F910F910C946B0C06
:10127000DF91CF911F910F9108959C01CB01233FE6
:101280004CE53407F9F078F4283DFCE53F07B9F068
:10129000293D4CE5340711F1273D3C4531F526E267
:1012A00041EE61EE1EC0253FFCE53F0799F070F06E
:1012B000263F3C45D1F427E245EE66EE12C027E218
:1012C00045EE0EC026E241EE60EE0BC027E245EE91
:1012D00064EE07C026E241EE62EE03C028E241E080
:1012E00065EE0E94C90880E00895FC018281882390
:1012F00019F010926701089581E00895CF93DF936C
:10130000EC01FB018281882309F41FC1C230FCE596
:10131000DF0708F41BC1C6319CE5D90738F09E01F0
:101320002A5F3C452930310508F010C10E94C914DC
:101330009093120280931102C031ECE5DE0709F4AC
:10134000C3C008F041C0C8308CE5D80709F49AC082
:10135000F0F4C430ECE5DE0709F487C068F4C2306D
:101360008CE5D80709F477C0C330DC4509F0E3C049
:1013700080911102826076C0C630ECE5DE0709F488
:101380006EC008F07BC08091110288606BC0CC30C9
:101390008CE5D80709F485C068F4CA30ECE5DE07AF
:1013A00009F474C008F079C00E94C10E8091110246
:1013B000806858C0CE308CE5D80709F476C008F0B4
:1013C0007FC0809111028BC0CB3FECE5DE0709F4B2
:1013D0004FC018F5C3318CE5D80709F47DC078F407
:1013E000C131ECE5DE0709F473C0C231DC4509F018
:1013F000A2C00E94C10E809111028F7733C0C53107
:101400008CE5D80709F472C008F486C0CA3FDC45F1
:1014100009F091C0809112023EC0CF3FFCE5DF078A
:1014200009F45FC058F4CD3F9CE5D90709F444C0E6
:1014300008F43FC08091120282602DC0C130FDE5EA
:10144000DF0709F475C008F45DC0C230DD4509F05E
:1014500072C080E06EC080911102816003C08091F3
:10146000110280618093110266C08091110211C047
:10147000809112028260809312025DC080911102FD
:101480008062F0CF809111028064ECCF80911102D4
:1014900088608460E7CF8160EECF809111028E7FFB
:1014A000E1CF809111028D7FDDCF80911102877F86
:1014B000D9CF8091120218C0809112028D7FDBCFAC
:1014C000809111028F7ECECF809111028F7DCACF85
:1014D000809111028F7BC6CF80911102877F8B7F15
:1014E000C1CF809112028D7F8E7FC5CF8091110276
:1014F00082FB222720F991E0922790FB82F990FB52
:1015000083F9B0CF80911202982F909591708E7FC1
:10151000892B90FB81F9AFCF0E94C10E80911102FF
:1015200087FB222720F991E0922790FB87F99ACF39
:1015300081E00E94581580911102909112020E9440
:10154000DA140E94C10E80E001C081E0DF91CF91EA
:101550000895CF93DF9386319C4541F5EB010E94BE
:101560001214982F8A8120911C0130911D0188232B
:1015700079F09A7A81E009F480E080936801911112
:1015800002C069E201C065E3C9010E949F150AC05B
:1015900080916801811102C069E201C065E3C9015F
:1015A0000E94A1150E94531480E001C081E0DF91E8
:1015B000CF91089590936E0180936D010895E0910D
:1015C0006D01F0916E01309721F00190F081E02DD6
:1015D000099480E00895E0916D01F0916E013097DB
:1015E00021F00280F381E02D0994089520916B0190
:1015F00030916C012817390771F090936C0180933A
:101600006B01E0916D01F0916E01309721F0068041
:10161000F781E02D099408952091690130916A01C4
:101620002817390771F090936A0180936901E0915E
:101630006D01F0916E01309721F00084F185E02D6D
:101640000994089585B7806885BF85B7806885BF90
:10165000089508950C94290B0C942A0B0C94290BD3
:101660000C94290B0E94220B0E942E0B0C942C0B25
:1016700081E008950E942A160E9453040E94851654
:101680000C94300BAF92BF92CF92DF92EF92FF9209
:101690000F931F93CF93DF93CDB7DEB72A970FB683
:1016A000F894DEBF0FBECDBF0E946A050E94380BC2
:1016B000811111C08FEF89838A831B820E943316A8
:1016C0008160782F9D838C8349815A816B818D81C4
:1016D0000E94D80B40C080E7A82E81E0B82E00E021
:1016E00010E0C02E802F0E94CA05E82EF501D1908F
:1016F0005F01D82631F40F5F1F4F0A30110589F7BB
:10170000D9CF8091F00181FD0E94D00580E0FF24B7
:10171000F3949D2D9F21D1F08E83CF82EF2081E025
:1017200009F480E088870E9433168160782F9A87B9
:1017300089874E815F8168858A850E94D80BF80170
:10174000E059FE4F8081F826F08205C08F5FFF0CC4
:101750008630F9F6D0CF0E94DF0A90916F01891789
:10176000B1F00E94DF0A80936F012A960FB6F894B9
:10177000DEBF0FBECDBFDF91CF911F910F91FF90C4
:10178000EF90DF90CF90BF90AF900C94AB062A966D
:101790000FB6F894DEBF0FBECDBFDF91CF911F9182
:1017A0000F91FF90EF90DF90CF90BF90AF90089592
:1017B000CF93DF93CDB7DEB72B970FB6F894DEBF8C
:1017C0000FBECDBF4F83588769877A878B87DE012D
:1017D000119686E0FD0111928A95E9F785E0FE01F8
:1017E000379601900D928A95E1F749815A816B8174
:1017F0007C818D819E810E947A112B960FB6F89480
:10180000DEBF0FBECDBFDF91CF910895FC01808177
:1018100091810E94D3130895CF93882371F1C82F2B
:101820008CEF8C0F813AD0F46C2F80911C01909139
:101830001D010E946915882349F06C2F80911C01BD
:1018400090911D010E94A1150E9453146C2F80914C
:101850001C0190911D010E949F150CC080E28C0F0D
:10186000883058F4C77081E001C0880FCA95EAF744
:101870000E941514CF910C945314CF91089588238E
:1018800049F1682F8CEF860F813A38F480911C0162
:1018900090911D010E94A1150CC080E2860F883036
:1018A00050F4677081E001C0880F6A95EAF70E94E2
:1018B0001B140C9453148BE5860F833020F480E0C6
:1018C00090E00C94F60A685A673120F480E090E0CA
:1018D0000C940C0B0895CF93C82F0E940C0CC933A5
:1018E00049F42FEF87EE93E0215080409040E1F7DC
:1018F00000C000008C2FCF910C943F0C882321F066
:101900000E9415140C9453140895882321F00E940A
:101910001B140C9453140895CF92DF92EF92FF9210
:101920000F931F93CF93DF937C01D62FC72FFC011A
:10193000158112951F70028101110E9432140E94BC
:101940000B14882379F0002369F080E28D0F883032
:1019500048F082E00E949D140E940B1491E0D82E62
:10196000D92601C0D12CCC2EC2948FE0C8228C2D58
:1019700090E08C30910508F08DC1FC01EA5AFF4FD0
:101980000C94FD1C8C2F807FCF70882311F0C295A2
:10199000C07F002399F0CC2309F468C180E28D0F49
:1019A000883010F0D11104C08C2F0E94151403C090
:1019B0008C2F0E9425140E94531458C18D2F0E9411
:1019C0003F0CCC2309F466C180E28D0F883010F003
:1019D000D11104C08C2F0E941B1403C08C2F0E94B5
:1019E0002B140E94531456C18C2F807FCF708032ED
:1019F00011F0C295C07FDD2319F0D130C9F022C0AB
:101A0000002371F0112341F0113031F40E94381499
:101A10008C2B0E9440143EC10E9438148C2B1DC098
:101A2000112319F0113009F435C10E94491425C061
:101A3000002321F0163008F02DC10EC0153008F03B
:101A400029C11BC0002361F0112331F0F70185810A
:101A500080FF0CC18F7085838C2F0E947E0C1AC171
:101A6000112359F0D93309F012C1FFEF07EE13E04B
:101A7000F15000401040E1F708C18C2F0E94850C06
:101A800009C18C2F837009F047C0011107C12D2FA8
:101A9000229526952770220F220F6D2F6F70862FAB
:101AA00090E0A0E0B0E0022E04C0880F991FAA1FAA
:101AB000BB1F0A94D2F7D4FF10C04FE050E060E0A3
:101AC00070E004C0440F551F661F771F2A95D2F798
:101AD000409550956095709503C040E050E0BA0184
:101AE000C695C695C3708A019B01082B192B2A2B1A
:101AF0003B2BC901B801C23049F058F4C13019F08C
:101B00000E944E12CBC00E943C12C8C00E946012BC
:101B1000C5C00E943A12C2C0002319F08C2F8170F8
:101B200001C08695882309F4B9C02D2F22952695EA
:101B30002770220F220F6D2F6F70862F90E0A0E08C
:101B4000B0E0022E04C0880F991FAA1FBB1F0A9481
:101B5000D2F7D4FF10C04FE050E060E070E004C066
:101B6000440F551F661F771F2A95D2F74095509551
:101B70006095709503C040E050E0BA01C695C695E7
:101B8000C3708A019B01082B192B2A2B3B2BC901FF
:101B9000B801C23049F058F4C13019F00E94131353
:101BA0007DC00E9401137AC00E94251377C00E9455
:101BB000741274C0CF70002339F08C2F0E949A12D7
:101BC0008D2F0E947E0C6AC08D2F0E94850C8C2F59
:101BD0000E94BB1263C0D23F01F128F4D03F41F014
:101BE000D13FA1F03FC0D33FF9F0D43F39F13AC023
:101BF000002341F0153008F04DC08C2F8F710E94EA
:101C0000E01248C0163008F045C0F7CF002339F085
:101C10008C2F8F710E949A123DC00023C9F38C2F24
:101C20008F710E94BB1236C0002329F08C2F8F7158
:101C30000E9485122FC00E9480122CC0002349F000
:101C4000CF718C2F0E949A1263E08C2F0E9488140F
:101C500021C081E00E949D141230E0F082E00E94D9
:101C60009D1418C0002331F0112391F28D2F0E9492
:101C70000C0C10C0112399F2D93349F41FEF27EE51
:101C800033E0115020403040E1F700C000008D2FBC
:101C90000E943F0C88EF8C0D843020F40E94DF0AF4
:101CA0000E94AB06DD20C9F00E94071480FD15C01C
:101CB000F70112820E9401140E949A12C7010E9429
:101CC0008E0E0E940114DF91CF911F910F91FF9012
:101CD000EF90DF90CF900C94BB12DF91CF911F91CA
:101CE0000F91FF90EF90DF90CF9008950F931F9387
:101CF000CF93DF93EC01688179818A810E94DE13A2
:101D00008C010E9437130E942812B801CE010E9454
:101D10008C0CDF91CF911F910F910895CF93DF939A
:101D2000FC019081818123813481232B31F08F3F0D
:101D300031F481E09F3F19F403C081E001C080E0ED
:101D400080FD0EC0EF01CF010E94C406882341F040
:101D5000CE010E94760ECE01DF91CF910C948F06BA
:101D6000DF91CF9108950E9432140E9435140C9493
:101D7000531480911C0190911D010E94A3150C9495
:101D8000B30E0E9422140C94B90EE92FE295EF7065
:101D90004E2F50E0FA013297EE30F105B0F4EE59D3
:101DA000FF4F0C94FD1C803F91F018F4883E68F4BE
:101DB0000EC0843F51F40BC0883E48F0813F29F4A7
:101DC00006C093FB882780F9089580E0089581E09C
:101DD00008950E94D3130E94C50E0895CF93DF93F8
:101DE00000D000D01F92CDB7DEB70F900F900F90AC
:101DF0000F900F90DF91CF910895CF93DF9300D094
:101E000000D000D0CDB7DEB726960FB6F894DEBF6F
:101E10000FBECDBFDF91CF9108951F93CF93DF9376
:101E2000C0917B0116E080917C01C81799F0D0E049
:101E30001C9FF0011D9FF00D1124E358FE4F4081BF
:101E4000518162817381848195810E94FD0E21966A
:101E5000C770E9CFDF91CF911F9108954091AD01F7
:101E60005091AE016091AF017091B0018091B101CC
:101E70009091B2010C94FD0E0F931F93CF93DF93BB
:101E80008091B20182958F7009F05DC08091AF01A1
:101E9000882309F458C080917B0110917C016091E6
:101EA000AD017091AE01C091B001D091B10191E04E
:101EB0006F3F09F090E0292F06E0811709F443C035
:101EC000209721F07F3F21F030E003C031E001C0D6
:101ED000322F90E030FD34C0089FF001099FF00DD3
:101EE0001124DF01A358BE4F11963C91119737136F
:101EF00027C03C91361324C012963C9112973111A1
:101F00001FC013964D915C9114974C1B5D0B44368A
:101F10005105B0F48091B2018F7080618093B2015D
:101F2000EE57FE4F80818F70806180838DEA91E053
:101F30000E948E0EDF91CF911F910F910C940D0F87
:101F400001968770BACFDF91CF911F910F910895BD
:101F50009F92AF92BF92CF92DF92EF92FF920F9338
:101F60001F93CF93DF93CDB7DEB761970FB6F89489
:101F7000DEBF0FBECDBF8C0185E0F801DE011D96EE
:101F800001900D928A95E1F7F80140815181E2803C
:101F90009091AD016091AE012091B0013091B101FD
:101FA0002115310531F06F3F31F481E09F3F19F485
:101FB00003C081E001C080E0F82FF1709F2E80FD0A
:101FC00046C1F801A380B4808DEAC82E81E0D82EE6
:101FD000F090AF01F501E21BF30BFF2009F4DFC025
:101FE0008091B201E436F10508F09BC0282F207FD4
:101FF00009F052C0561313C0491311C0FE2CE11052
:102000000EC08F7080618093B2010E942E0FC601B6
:102010000E948E0E8091B201F801858358C1AB28D1
:1020200031F05F3F31F481E04F3F19F403C081E0AC
:1020300001C080E080FD03C081E08E2502C080E009
:1020400090E0F82FF170FF2E80FF1CC080917B0183
:1020500020917C0136E0821709F417C190E0389F87
:10206000F001399FF00D1124E358FE4F61815613A2
:1020700006C06081461303C06281E61203C0019668
:102080008770E9CFFE2CEE2009F421C18091B201C6
:1020900081608093B2015AC0561306C0491304C030
:1020A000E11002C0F8019FC04D875E878D859E8537
:1020B0000E94E90E882379F1EE2069F12091B201A6
:1020C000822F82958F7090E0029774F08091AD011D
:1020D0009091AE0198878F831986BB86AA862C873C
:1020E000CE0107960E948E0E86E0F801ADEAB1E0BF
:1020F00001900D928A95E1F70E943C0F0E942E0FED
:102100000DC0561729F14D875E878D859E850E94EB
:10211000E90E81112CC0C8010E948E0EFF24F39499
:10212000D6C0282F207F69F77A2DB98AA88A6E2D0C
:1021300089890E94EE0E8DEA91E00E948E0E86E063
:10214000F60111928A95E9F70E942E0FF12CBFC07B
:102150004913D9CFE110D7CFF8018583C8010E9478
:102160008E0E86E0F60111928A95E9F7B0C0EE2056
:1021700091F22091B201822F82958F7090E00297A8
:102180000CF4B2CF8091AD019091AE019A83898316
:102190001B82BD82AC822E83CE010196A3CFE43692
:1021A000F10508F047C0FE2CEE2009F4B4CF561319
:1021B00030C049132EC02091B20120FD21C0822FD2
:1021C00082958F70482F50E041155105C9F0F801F4
:1021D00025834F30510541F08F5F982F9295907F66
:1021E000822F8F70892B8583C8010E948E0E86E016
:1021F000F801ADEAB1E001900D928A95E1F742C095
:1022000086E0F801ADEAB1E001900D928A95E1F720
:102210005EC04D875E878D859E850E94E90E811187
:1022200063CF8091B20181608093B201C8010E94A6
:102230008E0E4DC07A2DB98AA88A6E2D89890E948A
:10224000EE0E86E0F60111928A95E9F71BC0EE20AA
:1022500009F461CF4D875E878D859E850E94E90ECA
:10226000F82E882309F457CF86E0F801ADEAB1E0F3
:1022700001900D928A95E1F78DEA91E00E94060C9B
:102280000E943C0F0E942E0F22C04D875E878D85D5
:102290009E850E94D313292F22952F70223028F477
:1022A0009F7039F0811105C00BC0243028F49F7055
:1022B00049F4805E883020F0C8010E948E0E9F2C69
:1022C000F92C05C0F8019581907F99F7F9CF8F2DF2
:1022D00061960FB6F894DEBF0FBECDBFDF91CF91F0
:1022E0001F910F91FF90EF90DF90CF90BF90AF9034
:1022F0009F9008951F93CF93DF93CDB7DEB72C97B0
:102300000FB6F894DEBF0FBECDBF4F8358876987E5
:102310007A878B879C87CE0107960E94A80F882317
:10232000D1F09F8188852A853B85232B31F08F3F13
:1023300031F481E09F3F19F403C081E001C080E0E7
:1023400080FD47C04F81588569857A858B859C853E
:102350000E94FD0E3EC086E0FE013796DE0111961A
:1023600001900D928A95E1F7FF81E8856A857B856A
:102370006115710531F0EF3F31F481E0FF3F19F451
:1023800003C081E001C080E080FD23C020917C017A
:1023900030E0C90101968770992740917B0150E098
:1023A00084179507F1F1F983EA837D836C8396E0C6
:1023B000929FD001939FB00D1124A358BE4FFE01F0
:1023C000319601900D929A95E1F780937C010E94DD
:1023D0000D0F16E080917B0190917C01891771F1BE
:1023E000189FC001112483589E4F0E94A80F882374
:1023F00029F1E0917B011E9FF0011124E358FE4F6B
:102400004081518162817381848195810E94FD0E9A
:1024100080917B0190E001968770992780937B01E2
:10242000D9CF0E94C10E10927C0110927B01EDEA7F
:10243000F1E086E0DF011D928A95E9F72C960FB650
:10244000F894DEBF0FBECDBFDF91CF911F910895ED
:10245000089508950C9429120C942A120E942C12AB
:102460006093DF017093E0018093E1019093E201BA
:102470000C94B30E0C942E120F931F930091DF0156
:102480001091E0012091E1013091E201602B712B6C
:10249000822B932B1F910F910C942E120F931F934D
:1024A0000091DF011091E0012091E1013091E20102
:1024B00060237123822393231F910F910C942E127A
:1024C0000F931F930091DF011091E0012091E10132
:1024D0003091E20160277127822793271F910F9186
:1024E0000C942E120C9429120E9472126093DB013C
:1024F0007093DC018093DD019093DE010C94B30EA8
:1025000060E070E0CB010C9474120F931F9341E0D4
:1025100050E060E070E08A019B0104C0000F111FD1
:10252000221F331F8A95D2F7C901B8011F910F915D
:102530000C9474120F931F9341E050E060E070E040
:1025400004C0440F551F661F771F8A95D2F78091EC
:10255000DB019091DC01A091DD01B091DE018A01E7
:102560009B01082B192B2A2B3B2BC901B8011F916A
:102570000F910C9474120F931F9341E050E060E0B0
:1025800070E004C0440F551F661F771F8A95D2F76D
:1025900040955095609570958091DB019091DC019C
:1025A000A091DD01B091DE018A019B01082319236E
:1025B0002A233B23C901B8011F910F910C94741277
:1025C0000F931F9341E050E060E070E004C0440FBF
:1025D000551F661F771F8A95D2F78091DB01909176
:1025E000DC01A091DD01B091DE018A019B01082789
:1025F00019272A273B27C901B8011F910F910C9475
:1026000074120F931F930091DB011091DC01209154
:10261000DD013091DE01602B712B822B932B1F91FA
:102620000F910C9474120F931F930091DB01109182
:10263000DC012091DD013091DE01602371238223D2
:1026400093231F910F910C9474120F931F93009179
:10265000DB011091DC012091DD013091DE0160276A
:102660007127822793271F910F910C94741208955C
:10267000292F220F920F990F890FE82FE695E695E3
:10268000E695877051E001C0550F8A95EAF785E01D
:10269000E89FF0011124ED54FE4F20E030E070E09F
:1026A0004081CB01022E02C0969587950A94E2F7ED
:1026B0008170819584278523842781932F5F3F4FE5
:1026C0002530310569F70895292F220F920F990FB0
:1026D000890F682F669566956695982F977085E0A7
:1026E000689FB001112440E050E080E0FB01E40F5E
:1026F000F51FED54FE4F208130E0092E02C03695C3
:1027000027950A94E2F721703327042E01C0220F87
:102710000A94EAF7822B4F5F5F4F4530510531F73E
:102720000895BF92CF92DF92EF92FF920F931F9383
:10273000CF93DF938C01C090DB01D090DC01E0905F
:10274000DD01F090DE018091DF019091E001A09128
:10275000E101B091E201C82AD92AEA2AFB2ACFE195
:10276000D0E0D701C6010C2E04C0B695A795979569
:1027700087950A94D2F780FD04C0219790F7B12C79
:1027800007C0BC2EB8018C2F0E9414070197A9F333
:102790008B2DDF91CF911F910F91FF90EF90DF90E4
:1027A000CF90BF900895CF93DF93EC010E949113D7
:1027B000BE010E941407DF91CF9108951F93CF931C
:1027C000DF93EB0190917A01992321F0CB010E94D4
:1027D000D31313C0882349F0CB010E949113182F03
:1027E000682FCE010E94381304C0CB010E946413ED
:1027F000182FBE01812F0E941407DF91CF911F91E6
:1028000008958091E301859585958595089580913A
:10281000E301877008959091E301977081E009F4D6
:1028200080E008958091EF0108959091EF01892B48
:102830008093EF01089580959091EF018923809313
:10284000EF0108951092EF0108959091EE01892B08
:102850008093EE01089580959091EE0189238093F5
:10286000EE0108951092EE0108951092ED01089581
:102870008091E401089508950C943B140C943C1449
:102880009091E401981721F08093E4010C943E1498
:1028900008958091E401882329F01092E40180E0FA
:1028A0000C943E140895E0911C01F0911D0180915B
:1028B000EF018083E0911C01F0911D0190818091D6
:1028C000EE01892B8083E0911C01F0911D01908124
:1028D0008091ED01892B80838091E401882381F030
:1028E000E0911C01F0911D019081892B80838091E2
:1028F0001C0190911D010E945D1581110E944914D7
:1029000080911C0190911D010C94EB0A0C943B14D6
:1029100098E0899F90011124262B2093E3010E94C7
:102920009A128091E3018595859585950C9486147E
:102930001092E30180E00C9486142091E3018095CD
:1029400082238093E301982F977079F430E0482F29
:10295000082E000C550B2417350739F08595859501
:1029600085950E94BB120C949814089580E090E025
:102970000E94181D21E08C3E9E4F09F020E0822F1E
:10298000089582E090E00C94101D83E090E00C9498
:10299000101DCF9384E090E00E94101DC82F81E2AB
:1029A00090E00E94101D2C2F30E0A901582BCA0185
:1029B000CF910895CF93C92F682F84E090E00E94B3
:1029C0001E1D6C2F81E290E0CF910C941E1DAB0177
:1029D000BC018FE090E00C94301DAB01BC0183E1A1
:1029E00090E00C94301D60E070E0CB010C94ED148D
:1029F00060E070E0CB010E94E7140C94F3146CEEDD
:102A00007EEF80E090E00E943C1D60E082E090E07C
:102A10000E941E1D60E083E090E00E941E1D109247
:102A2000DF011092E0011092E1011092E20160E0FA
:102A300084E090E00E941E1D60E081E290E00E9430
:102A40001E1D60E085E090E00E941E1D60E086E0B3
:102A500090E00E941E1D6FEF87E090E00E941E1D17
:102A600040E050E0BA0188E090E00E94301D60E054
:102A70008DE090E00E941E1D40E050E0BA0188E128
:102A800090E00E94301D60E087E190E00E941E1DF2
:102A900040E050E0BA018CE190E00E94301D60E01F
:102AA00080E290E00E941E1D0C94F8140C94FF1418
:102AB000682F8EE090E00C941E1DFC01329697E08A
:102AC00080E0915029F021912223D9F38F5FF9CF33
:102AD0000895662349F0FC01329608962191621709
:102AE00029F0E817F907D1F780E0089581E008950B
:102AF0009C01FC0132969FEF80E04191461789F0DE
:102B00009F3F19F4411101C0982F8F5F8630A9F7BC
:102B10009F3F39F0F901E90FF11D97FDFA956283A6
:102B2000089508959C012A5F3F4FFC01428146139E
:102B300001C01282019682179307B9F708950C9489
:102B400078150C949215029626E0FC0111922A95B4
:102B5000E9F7089508950C94AA150C94AA15CF933B
:102B60000E94AD150E946A050E94AB15C0E08C2F33
:102B70000E94CA05811104C0CF5FCA30C1F701C0ED
:102B800081E0CF9108950C94AA150C94C3150E946E
:102B9000C51580911702843049F11092F10120E4AB
:102BA00088E190E00FB6F894A895809360000FBE7E
:102BB0002093600080E00E94AB060E94C51583B799
:102BC000817F846083BF83B7816083BF7894889559
:102BD00083B78E7F83BF0FB6F894A895809160006D
:102BE000886180936000109260000FBE08950C947D
:102BF000AA150E94C10E0E94DF0A0E94AB060C9427
:102C0000F7151F920F920FB60F9211248F939F9377
:102C1000AF93BF938091F101811113C080910D0298
:102C200090910E02A0910F02B09110024196A11D49
:102C3000B11D80930D0290930E02A0930F02B093EA
:102C40001002BF91AF919F918F910F900FBE0F9087
:102C50001F90189582E084BD93E095BD9AEF97BDD3
:102C600080936E0008952FB7F89480910D02909193
:102C70000E02A0910F02B09110022FBF08959C0187
:102C80004FB7F89480910D0290910E02A0910F021F
:102C9000B09110024FBF821B930B089578941F923E
:102CA0000F920FB60F9211248F939F93AF93BF9300
:102CB00080910D0290910E02A0910F02B09110022E
:102CC0000196A11DB11D80930D0290930E02A09359
:102CD0000F02B0931002BF91AF919F918F910F900F
:102CE0000FBE0F901F90189587E797E79093010804
:102CF000809300089AE088E10FB6F894A895809335
:102D000060000FBE90936000FFCF0E94B614811147
:102D100002C00E9456150E94C1148093F0010E94C7
:102D2000C91490931202809311020E94C514682F57
:102D300070E080E090E00C943A128091FA010895DE
:102D400008950895CF93DF93EC010E9442188230DA
:102D500011F0843039F581E08093E9008FEF909194
:102D6000E800815095FD06C095ED9A95F1F70000B9
:102D70008111F5CF8091E80085FF14C040E050E05C
:102D800068E070E0CE010E945F188091E8008E77C5
:102D90008093E80088E0FE01A2EFB1E001900D927F
:102DA0008A95E1F7DF91CF910895089580911602F9
:102DB000811109C00E94F0190E944D1A8091E20011
:102DC00084608093E2000895109216020895089599
:102DD00008950C94F91542E061EC81E00C946919B6
:102DE00080911902833009F460C030F4813071F0B1
:102DF000823009F499C008958A3009F485C08B3077
:102E000009F46BC0893009F0A7C020C08091180276
:102E1000813A09F0A1C08091E800877F8093E800A3
:102E200080911C0290911D02892B21F468E082EFB1
:102E300091E003C060E080E090E070E00E94AA189A
:102E40008091E8008B778093E800089580911802C4
:102E5000813209F081C080911C0290911D02892B62
:102E600009F07AC08091E800877F8093E800809124
:102E7000E80082FD05C0809117028111F8CF6CC077
:102E80002091F3008091F20090E0922B029729F4B8
:102E90008091F1008B7F813021F48091F10080934B
:102EA000FA018091E8008B7753C080911802813A33
:102EB00009F052C080911C0290911D02892B09F0EB
:102EC0004BC08091E800877F8093E8008091E80004
:102ED00080FFFCCF8091280136C08091180281329A
:102EE000D9F580911C0290911D02892BA9F5809142
:102EF000E800877F8093E8000E949E1980911A0263
:102F0000809328010C94C10E80911802813221F522
:102F10008091E800877F8093E8000E949E1980914D
:102F20001B028093FB01089580911802813AA1F45D
:102F30008091E800877F8093E8008091E80080FF1F
:102F4000FCCF8091FB018093F1008091E8008E77A7
:102F50008093E8000C949E19089584B7877F84BFFE
:102F60000FB6F894A8958091600088618093600006
:102F7000109260000FBE90E080E80FB6F894809346
:102F80006100909361000FBE0E94320B0E94F01905
:102F90000E944D1A8091E20084608093E200789450
:102FA0000E94E21C0E943A0B8EE191E00E94DA0A34
:102FB00080911702853069F40E94C715809115022F
:102FC0008823B1F30E94AF15882391F30E9449181A
:102FD000EFCF0E94420BECCF0C94EE17292F332732
:102FE00023303105C1F058F42130310579F0223019
:102FF0003105C1F582E290E022E033E037C02132B2
:10300000310511F12232310531F12CC082E190E01D
:1030100024E233E02BC099278130910561F040F024
:103020008230910559F00397E9F4E4EDF2E008C02D
:10303000EEEFF2E005C0EAEEF2E002C0EAEDF2E007
:10304000849190E09F0112C0672B61F489E090E0C9
:1030500024E133E00BC0672B29F480E490E026E301
:1030600033E004C080E090E020E030E0FA013183FA
:103070002083089580911702843011F081E0089533
:1030800082E008958091FC01811102C00C943A18ED
:10309000089580E189BD82E189BD09B400FEFDCFBC
:1030A0008091D8008F7D8093D8008091E00082606D
:1030B0008093E0008091E00081FDFCCF0895CF92E5
:1030C000DF92EF92FF920F931F93CF93DF93EC0168
:1030D0008B017A010E94BD19811133C0E114F10402
:1030E00039F0F70180819181081B190BC80FD91F96
:1030F000C12CD12C0115110519F18091E80085FD35
:1031000016C08091E8008E778093E800E114F10406
:1031100049F0F70180819181C80ED91ED182C08209
:1031200085E00FC00E94BD19882321F30AC0899150
:103130008093F10001501109FFEFCF1ADF0ADACFB7
:1031400080E0DF91CF911F910F91FF90EF90DF9082
:10315000CF90089520911E0230911F022617370745
:1031600048F06115710539F42091E8002E7720931D
:10317000E80001C0B901FC0120E06115710579F199
:10318000809117028823F1F18530F1F18091E800F8
:1031900083FD3CC08091E80082FD2EC08091E80054
:1031A00080FFEBCF2091F3008091F20090E0922B12
:1031B0006115710551F08830910538F42191209303
:1031C000F100615071090196F3CF21E0089709F0F1
:1031D00020E08091E8008E778093E800CECF211127
:1031E000CFCF0AC080911702882361F0853061F04B
:1031F0008091E80083FD0AC08091E80082FFF2CF51
:1032000080E0089582E0089583E0089581E00895C4
:1032100020911E0230911F022617370748F06115D2
:10322000710539F42091E8002E772093E80001C061
:10323000B901FC0120E06115710591F1809117023F
:10324000882309F440C0853009F43FC08091E8002C
:1032500083FD3DC08091E80082FD2FC08091E80091
:1032600080FFE9CF2091F3008091F20090E0922B53
:103270006115710559F08830910540F4249120932F
:10328000F1003196615071090196F2CF21E0089763
:1032900009F020E08091E8008E778093E800CBCFA2
:1032A0002111CCCF0AC080911702882361F08530AC
:1032B00061F08091E80083FD0AC08091E80082FF00
:1032C000F2CF80E0089582E0089583E0089581E0E0
:1032D0000895982F973068F59093E900981739F082
:1032E0007091EC002091ED005091F00003C0242F6C
:1032F000762F50E021FD02C09F5FECCF3091EB00B4
:103300003E7F3093EB003091ED003D7F3093ED0038
:103310003091EB0031603093EB007093EC00209320
:10332000ED005093F0002091EE0027FDE5CF80E006
:1033300008958F708093E90081E0089580911802CC
:1033400087FF11C08091E80082FD05C080911702BF
:103350008111F8CF11C08091E8008B770BC080916C
:103360001702882349F08091E80080FFF8CF809110
:10337000E8008E778093E80008952091E400309172
:10338000E50095E64091EC00842F817040FF23C05A
:103390008091E80080FD1DC080911702882399F07C
:1033A000853099F08091EB0085FD11C04091E400DB
:1033B0005091E5002417350729F3915011F09A0137
:1033C000E1CF84E0089582E0089583E0089581E0EC
:1033D000089580E008954091E80042FFDDCF089510
:1033E0000E945E1A0E94661AE0EEF0E08081816021
:1033F0008083E8EDF0E080818F77808319BCA7EDB2
:10340000B0E08C918E7F8C9380818F7E8083109230
:10341000160208950F931F93CF93DF930E945E1AB5
:103420000E94661AC8EDD0E088818F7788838881F2
:103430008068888388818F7D888319BC10921702E9
:1034400010921302109215021092140200EE10E076
:10345000F80180818B7F808388818160888342E04E
:1034600060E080E00E946919E1EEF0E080818E7FEB
:103470008083E2EEF0E080818160808380818860DB
:103480008083F80180818E7F80838881806188833A
:10349000DF91CF911F910F910895E8EDF0E08081C9
:1034A0008F7E8083E7EDF0E080818160808384E01F
:1034B00082BF81E0809316020C940A1AE8EDF0E0D6
:1034C00080818E7F80831092E20008951092DA004E
:1034D0001092E10008951F920F920FB60F921124DF
:1034E0002F933F934F935F936F937F938F939F930C
:1034F000AF93BF93EF93FF938091E10082FF0BC0E6
:103500008091E20082FF07C08091E1008B7F809371
:10351000E1000E94E11C8091DA0080FF1FC08091D1
:10352000D80080FF1BC08091DA008E7F8093DA0084
:103530008091D90080FF0DC080E189BD82E189BD05
:1035400009B400FEFDCF81E0809317020E94D616D9
:1035500005C019BC109217020E94E4168091E10088
:1035600080FF19C08091E20080FF15C08091E200C9
:103570008E7F8093E2008091E20080618093E20080
:103580008091D80080628093D80019BC85E0809338
:1035900017020E94E8168091E10084FF30C08091FC
:1035A000E20084FF2CC080E189BD82E189BD09B4BD
:1035B00000FEFDCF8091D8008F7D8093D800809150
:1035C000E1008F7E8093E1008091E2008F7E809306
:1035D000E2008091E20081608093E200809113021A
:1035E000882311F084E007C08091E30087FD02C0CA
:1035F00081E001C083E0809317020E94E916809168
:10360000E10083FF29C08091E20083FF25C0809103
:10361000E100877F8093E10082E08093170210929F
:1036200013028091E1008E7F8093E1008091E2009F
:103630008E7F8093E2008091E20080618093E200BF
:1036400042E060E080E00E9469198091F0008860AB
:103650008093F0000E94E716FF91EF91BF91AF9128
:103660009F918F917F916F915F914F913F912F919A
:103670000F900FBE0F901F9018951F920F920FB6CC
:103680000F9211242F933F934F935F936F937F93E8
:103690008F939F93AF93BF93CF93DF93EF93FF935A
:1036A000C091E900CF708091EC00D82FD17080FDDF
:1036B000D0E81092E9008091F000877F8093F000BD
:1036C00078940E94811B1092E9008091F00088603C
:1036D0008093F000CD2BCF70C093E900FF91EF9164
:1036E000DF91CF91BF91AF919F918F917F916F911A
:1036F0005F914F913F912F910F900FBE0F901F90B0
:1037000018951F93CF93DF93CDB7DEB7AA970FB667
:10371000F894DEBF0FBECDBFE8E1F2E08091F1008A
:10372000819322E0E032F207C9F70E94F0168091FF
:10373000E80083FF2EC18091180290911902492F51
:1037400050E04A30510508F024C1FA01E059FF4F1A
:103750000C94FD1C803821F0823809F01AC108C091
:103760008091140290911502992389F082600FC014
:1037700080911C028F70873008F00BC18093E900A4
:103780008091EB0085FB882780F91092E9009091E9
:10379000E800977F9093E8008093F1001092F10089
:1037A000D1C0282F2D7F09F0F4C0882319F0823072
:1037B00061F0EFC080911A02813009F0EAC09330C5
:1037C00009F080E0809315022EC080911A028111C9
:1037D0002AC080911C028F702FEF280F263008F02E
:1037E000D8C08093E9002091EB0020FF1CC09330EB
:1037F00021F48091EB00806214C09091EB00906105
:103800009093EB0021E030E0A90102C0440F551F66
:103810008A95E2F74093EA001092EA008091EB006B
:1038200088608093EB001092E9008091E800877F28
:103830008093E8000E949E19ACC08111AAC010912B
:103840001A021F778091E3008078812B8093E30038
:103850008091E800877F8093E8000E949E19809104
:10386000E80080FFFCCF8091E30080688093E30054
:10387000111102C082E001C083E08093170289C069
:103880008058823008F085C080911A0290911B0206
:103890008C3D53E0950779F583E08A838AE289833A
:1038A0004FB7F894DE01139620E03EE051E2E32F9B
:1038B000F0E050935700E49120FF03C0E295EF70D1
:1038C0003F5FEF708E2F90E0EA3010F0C79601C096
:1038D000C0968D939D932F5F243149F74FBF809100
:1038E000E800877F8093E8006AE270E0CE010196ED
:1038F0000E94AA1816C060911C0270911D02AE01B0
:103900004F5F5F4F0E94EC17BC01892B09F441C047
:103910009091E800977F9093E80089819A810E94B6
:1039200008198091E8008B778093E80032C08038D6
:1039300081F58091E800877F8093E80080911302F1
:103940008093F1008091E8008E7772CF811121C0C1
:1039500080911A0290911B0299270297D4F48091CA
:10396000E800877F8093E80080911A028093130219
:103970000E949E1980911302811106C08091E3007C
:1039800087FD02C081E001C084E0809317020E949D
:10399000EB168091E80083FF0AC08091E800877FE2
:1039A0008093E8008091EB0080628093EB00AA9600
:1039B0000FB6F894DEBF0FBECDBFDF91CF911F9140
:1039C00008950895CF93809117028823A1F0C091A4
:1039D000E900CF709091EC00892F817090FD80E814
:1039E000C82B1092E9008091E80083FD0E94811BA2
:1039F000CF70C093E900CF910895EE0FFF1F05909F
:103A0000F491E02D0994FB01DC0104C08D9101903B
:103A1000801921F441505040C8F7881B990B089534
:103A2000F999FECF92BD81BDF89A992780B5089586
:103A3000A8E1B0E042E050E00C94441D262FF99933
:103A4000FECF92BD81BDF89A019700B4021639F0FD
:103A50001FBA20BD0FB6F894FA9AF99A0FBE0895CE
:103A60000396272F0E941F1D0E941E1D252F0E94B6
:103A70001F1D242F0C941F1D0196272F0E941F1D10
:103A80000C941E1DDC01CB01FC01F999FECF06C090
:103A9000F2BDE1BDF89A319600B40D92415050400C
:083AA000B8F70895F894FFCF78
:103AA80005015A010000000158015A01055B010196
:103AB80058015901000000056001FFFFE5019D164E
:103AC800A216A016D516A11601F6F73133323666BE
:0A3AD80097C634350000000000001E
:00000001FF
