:100000000C9437070C947E070C947E070C947E07A3
:100010000C947E070C947E070C947E070C947E074C
:100020000C947E070C947E070C9494300C946631EB
:100030000C947E270C947E070C947E070C947E070C
:100040000C947E070C947E070C947E070C947E071C
:100050000C947E070C94F2270C947E070C947E0778
:100060000C947E070C947E070C947E070C947E07FC
:100070000C947E070C947E070C947E070C947E07EC
:100080000C947E070C947E070C947E070C947E07DC
:100090000C947E070C947E070C947E070C947E07CC
:1000A0000C947E070C947E070C947E07B214B51452
:1000B000BD14C214C714CC14D114D614DB14E0142C
:1000C000E514EA14EC14EF14F214F514F814FB140C
:1000D000FD1402154E1D4E1D801D801DCD1D301FAF
:1000E000301F301FED1D8A1E9B1E9B1EFC1E051F10
:1000F000301F291FAE1FAE1FC01FC01FB71FC01F5C
:10010000C01FC01FAE1FAE1FBC1FC01FC01FBC1F23
:10011000D331FA31EC32FA31EC3246326932EC3218
:10012000BF32CE321E001F00200010000400150058
:1001300006001800160044454255473A206469738A
:1001400061626C65642E0A0044454255473A206559
:100150006E61626C65642E0A000A00253038620008
:100160003A200025303258000A722F632030313295
:1001700033343536370A007267626C6967687420F9
:1001800074696D65722064697361626C652E0A0022
:100190007267626C696768742074696D6572206546
:1001A0006E61626C65642E0A007267626C696768D2
:1001B000742073657420687376205B4E4F454550FC
:1001C000524F4D5D3A2025752C25752C25750A005A
:1001D0007267626C696768742073657420687376EF
:1001E000205B454550524F4D5D3A2025752C2575B5
:1001F0002C25750A007267626C69676874207261E9
:10020000696E626F7720736574206873763A202573
:10021000642C25642C25642C25750A007267626C99
:10022000696768742064697361626C65205B4E4F16
:10023000454550524F4D5D3A207267626C69676860
:10024000745F636F6E6669672E656E61626C6520B0
:100250003D2025750A007267626C696768742064C6
:10026000697361626C65205B454550524F4D5D3A44
:10027000207267626C696768745F636F6E66696736
:100280002E656E61626C65203D2025750A007267DF
:10029000626C6967687420656E61626C65205B4E94
:1002A0004F454550524F4D5D3A207267626C696709
:1002B00068745F636F6E6669672E656E61626C65F8
:1002C000203D2025750A007267626C69676874209A
:1002D000656E61626C65205B454550524F4D5D3ADD
:1002E000207267626C696768745F636F6E666967C6
:1002F0002E656E61626C65203D2025750A0072676F
:10030000626C6967687420746F67676C65205B4511
:100310004550524F4D5D3A207267626C6967687450
:100320005F636F6E6669672E656E61626C65203D06
:100330002025750A007267626C69676874206D6FAA
:100340006465205B4E4F454550524F4D5D3A202528
:10035000750A007267626C69676874206D6F646506
:10036000205B454550524F4D5D3A2025750A00727D
:1003700067626C696768745F696E6974207267622E
:100380006C696768745F636F6E6669672E6D6F6412
:1003900065203D20302E20577269746520646566A3
:1003A00061756C742076616C75657320746F20457F
:1003B0004550524F4D2E0A007267626C696768742F
:1003C0005F696E6974206565636F6E666967206931
:1003D00073206E6F7420656E61626C65642E0A0016
:1003E0007267626C696768745F696E6974207374A0
:1003F000617274210A007267626C696768745F6970
:100400006E69742063616C6C65642E0A00726762A9
:100410006C696768745F636F6E6669672E73706579
:100420006564203D2025640A007267626C69676814
:10043000745F636F6E6669672E76616C203D202560
:10044000640A007267626C696768745F636F6E66E6
:1004500069672E736174203D2025640A007267620B
:100460006C696768745F636F6E6669672E6875652F
:10047000203D2025640A007267686C696768745FB4
:10048000636F6E6669672E6D6F6465203D2025641D
:100490000A007267626C696768745F636F6E666991
:1004A000672E656E61626C65203D2025640A0072CE
:1004B00067626C696768745F636F6E666967204521
:1004C0004550524F4D3A0A0000047F3F1F643214DA
:1004D000643214783C1E1E140A052223252628297E
:1004E0002A2C2D2F3032333536383A3B3D3E4042B0
:1004F000434547494A4C4E5051535557595A5C5EF3
:100500006062646668696B6D6F71737577797B7D06
:100510007F81838587898A8C8E90929496989A9C05
:100520009E9FA1A3A5A7A8AAACAEAFB1B3B4B6B81D
:10053000B9BBBCBEBFC1C2C3C5C6C7C9CACBCCCD7F
:10054000CED0D1D2D2D3D4D5D6D7D7D8D9D9DADA5A
:10055000DBDBDBDCDCDCDCDCDDDDDDDDDCDCDCDCDA
:10056000DCDBDBDBDADAD9D9D8D7D7D6D5D4D3D20E
:10057000D2D1D0CECDCCCBCAC9C7C6C5C3C2C1BFEC
:10058000BEBCBBB9B8B6B4B3B1AFAEACAAA8A7A550
:10059000A3A19F9E9C9A98969492908E8C8A89870C
:1005A0008583817F7D7B79777573716F6D6B6968EA
:1005B000666462605E5C5A5957555351504E4C4ABE
:1005C0004947454342403E3D3B3A38363533323069
:1005D0002F2D2C2A292826252322FFAA7F55406269
:1005E00061636B6C6967687420737465703A202569
:1005F000750A006261636B6C696768742064697373
:1006000061626C650A006261636B6C696768742083
:10061000656E61626C650A006261636B6C69676834
:100620007420746F67676C653A2025750A006261F3
:10063000636B6C6967687420646563726561736578
:100640003A2025750A006261636B6C6967687420E3
:10065000696E6372656173653A2025750A00000151
:100660000101010101010101020202020202020272
:100670000203030303030303030404040404040444
:100680000505050505060606060607070707070808
:10069000080808090909090A0A0A0B0B0B0C0C0CBB
:1006A0000D0D0D0E0E0E0F0F0F1010111111121255
:1006B00013131414151516161717181819191A1AD2
:1006C0001B1B1C1D1D1E1E1F202021222223242433
:1006D000252626272829292A2B2C2D2D2E2F30316F
:1006E0003232333435363738393A3B3C3D3E3F4081
:1006F0004142434445464748494A4C4D4E4F50516C
:100700005354555658595A5B5D5E5F616264656625
:1007100068696B6C6D6F7072737577787A7B7D7EAC
:100720008082838587888A8C8E8F91939596989AFC
:100730009C9EA0A2A3A5A7A9ABADAFB1B3B5B7BA14
:10074000BCBEC0C2C4C6C9CBCDCFD1D4D6D8DBDDE8
:10075000DFE2E4E7E9EBEEF0F3F5F8FAFDFF0A007B
:100760002530325820006B6579626F6172645F7268
:1007700065706F72743A20000A0025303258006BA1
:100780006579626F6172645F7365745F6C65643A0A
:1007900020003F00433E20004C25640A0074696D30
:1007A00065725F72656164333228293A20253034DE
:1007B0006C580A006B6579626F6172645F69646C82
:1007C000653A2025580A006B6579626F6172645F33
:1007D00070726F746F636F6C3A2025580A00686FEF
:1007E00073745F6B6579626F6172645F6C6564736B
:1007F00028293A2025580A000A092D2053746174CB
:100800007573202D0A004743433A20342E392E3287
:10081000204156522D4C4942433A20312E382E3039
:1008200073766E204156525F415243483A206176BA
:1008300072350A004F5054494F4E533A204C55469A
:10084000412045585452414B455920434F4E534F38
:100850004C4520434F4D4D414E4420343039360AEB
:10086000004255494C443A2022302E372E31303543
:100870002D332D676431656439382D64697274795C
:1008800022202832303A31373A343120446563200F
:1008900033302032303139290A005649443A203069
:1008A0007843423130284B656562696F2920504991
:1008B000443A203078313133332842444E392920AC
:1008C0005645523A203078303130300A0044455392
:1008D000433A20337833204D6163726F7061642036
:1008E0007769746820526F7461727920456E636F06
:1008F000646572730A000A092D2056657273696F68
:100900006E202D0A000A092D20436F6E736F6C65EF
:10091000202D0A4553432F713A09717569740A00F5
:100920000A092D204D61676963202D0A443A094464
:1009300065627567204D65737361676520546F67E5
:10094000676C650A583A094D61747269782044658C
:10095000627567204D6F646520546F67676C652012
:100960002D2053686F77206B65797072657373659E
:100970007320696E206D6174726978206772696492
:100980000A4B3A094B6579626F6172642044656273
:10099000756720546F67676C65202D2053686F77EB
:1009A000206B65797072657373207265706F7274F5
:1009B0000A4D3A094465627567204D6F757365206D
:1009C000546F67676C650A563A0956657273696FAA
:1009D0006E0A533A095374617475730A433A0941B4
:1009E0006374697661746520436F6E736F6C652004
:1009F0004D6F64650A46312D4631303A09537769A7
:100A000074636820746F204C6179657220302D39D1
:100A10002028463130203D204C30290A302D393AEB
:100A20000953776974636820746F204C617965722B
:100A300020302D390A47524156453A095377697497
:100A4000636820746F204C617965722030202861C2
:100A50006C7465726E617465290A423A094A756D53
:100A60007020746F20426F6F746C6F616465720ADE
:100A70004553433A094A756D7020746F20426F6F79
:100A8000746C6F616465722028616C7465726E614C
:100A90007465290A453A095072696E7420454550BB
:100AA000524F4D2053657474696E67730A425350F8
:100AB0004143453A09436C65617220454550524FA8
:100AC0004D0A000A002575002E6C6576656C3A208B
:100AD000000A002575002E656E61626C653A200083
:100AE0000A0025303258006261636B6C6967687474
:100AF0005F636F6E6669672E7261773A20000A0045
:100B00002575002E6E6B726F3A20000A0025750065
:100B10002E737761705F6261636B736C6173685F82
:100B20006261636B73706163653A20000A0025752A
:100B3000002E737761705F67726176655F657363BE
:100B40003A20000A002575002E6E6F5F6775693ABE
:100B500020000A002575002E737761705F72616C4A
:100B6000745F726775693A20000A002575002E735C
:100B70007761705F6C616C745F6C6775693A2000B7
:100B80000A002575002E737761705F7263746C5F65
:100B9000726775693A20000A002575002E73776127
:100BA000705F6C63746C5F6C6775693A20000A0053
:100BB0002575002E636170736C6F636B5F746F5F7C
:100BC000636F6E74726F6C3A20000A002575002EF8
:100BD000737761705F636F6E74726F6C5F63617067
:100BE000736C6F636B3A20000A0025303258006B3B
:100BF00065796D61705F636F6E6669672E7261778C
:100C00003A20000A002575002E6D6F7573653A2035
:100C1000000A002575002E6B6579626F6172643A77
:100C200020000A002575002E6D61747269783A20E3
:100C3000000A002575002E656E61626C653A200021
:100C40000A00253032580064656275675F636F6E15
:100C50006669672E7261773A20000A002575006484
:100C6000656661756C745F6C617965723A20003FEE
:100C7000000A6D6F7573653A206F66660A000A6D2B
:100C80006F7573653A206F6E0A000A6B6579626F43
:100C90006172643A206F66660A000A6B6579626F5A
:100CA0006172643A206F6E0A000A6D61747269782D
:100CB0003A206F66660A000A6D61747269783A209C
:100CC0006F6E0A000A64656275673A206F66660A8D
:100CD000000A64656275673A206F6E0A000A0A4A64
:100CE000756D70696E6720746F20626F6F746C6FC2
:100CF000616465722E2E2E2000433E2000436C65F9
:100D00006172696E6720454550524F4D0A00656516
:100D1000636F6E6669673A0A005B735D004B6579C5
:100D2000626F6172642073746172742E0A005B5783
:100D30005D005B535D005B525D005B445D005B43A7
:100D40005D000403300000000A03420044004E002E
:100D5000390000000E034B00650065006200690069
:100D60006F0000000403090409025B00030100A0F6
:100D7000FA09040000010301010009211101000129
:100D80002240000705810308000A0904010001034D
:100D9000000000092111010001223600070582032D
:100DA00020000A09040200020300000009211101C9
:100DB0000001222200070583032000010705030329
:100DC000200001120110010000000810CB331100B7
:100DD00001010203010631FF0974A1010975150023
:100DE00026FF009520750881020976150026FF0070
:100DF000952075089102C005010980A10185031A9B
:100E000081002A83001601002603009501751081D8
:100E100000C0050C0901A10185041A01002A9C02E9
:100E2000160100269C02950175108100C00501097C
:100E300006A101050719E029E715002501950875A8
:100E40000181029501750881010507190029FF1527
:100E50000026FF009506750881000508190129057F
:100E6000950575019102950175039101C00011244A
:100E70001FBECFEFDAE0DEBFCDBF04B603FE27C052
:100E800080912B0290912C02A0912D02B0912E0204
:100E90008730904BA740B04BD1F410922B021092A8
:100EA0002C0210922D0210922E0214BE84B7877F5E
:100EB00084BF0FB6F894A8958091600088618093F4
:100EC0006000109260000FBEE0E0F8E3099511E0C9
:100ED000A0E0B1E0E8EFF7E602C005900D92AE3673
:100EE000B107D9F722E0AEE6B1E001C01D92AB3206
:100EF000B207E1F70E94B22D0C94FA330C94000073
:100F0000FF93EF93E0916E01F0916F01309709F03C
:100F10000995EF91FF910895FC018591803011F0C2
:100F2000EFDFFBCF0895FF27E0E230E247FF0CC080
:100F3000419597FF09C0EDE2609570958095909579
:100F4000611D711D811D911D27FF02C0219530E398
:100F500050E2AA27660F771F881F991FAA1FA417A0
:100F600010F0A41B63955A95A9F7AA3008F0A95F61
:100F7000A05DAF93F395611571058105910541F76A
:100F8000ED3211F4EF93F395F21718F43F93F395C4
:100F9000FBCF8F91B5DFFA95E1F70895E991F991CB
:100FA0008591803021F0853219F0AADFF9CF0895BC
:100FB00020E0E89455915532C1F3503311F4689410
:100FC00055915A3348F4505390F3220F022E220FBA
:100FD000220F200D250FF4CF0EF4219589919991C0
:100FE000533619F3533729F1533559F1BC0188278A
:100FF0009927E8945C3621F48991999168945591E8
:10100000543639F446EF7EF077FF0DC08FEF9FEF37
:101010000AC055374AE039F0583540E121F05236E0
:1010200042E009F00895FF93EF937DDFEF91FF9188
:10103000B7CFFF93EF93FC0181918030B9F360DF6C
:10104000FBCFFF93EF9368DFF1CFDF93CF93CDB763
:10105000DEB72596A3DFCF91DF91089581E0089553
:1010600081E008950C9430081F93CF93DF9300D054
:1010700000D01F92CDB7DEB749835A8320919B01E0
:1010800089819A81211112C0662349F00E94D324DC
:10109000182F682F89819A810E94782403C00E94AA
:1010A000A724182F69817A81812F04C00E94D3243C
:1010B00069817A810F900F900F900F900F90DF91C0
:1010C000CF911F910C942E09FC01408151816281C6
:1010D000738184810C9434080E941E26811102C001
:1010E0000E94C7260E94C0160E940A170C94050C85
:1010F0000E94BF160E946F170C94080C08950C9460
:101100007E0881E008950C948108CF93C82F0E9437
:101110007F088C2F0E948308CF91089508950E9424
:101120009E1F0E948E082FEF84E39CE02150804098
:101130009040E1F700C0000087E797E7909301082F
:10114000809300080C9418280F931F93CF93DF937C
:101150008C010E946408EC01B8010E9432088823C7
:1011600009F471C0B801CE010E946818882309F4FF
:101170006AC0B801CE010E94A918882309F463C08F
:10118000B801CE010E949B14882309F45CC0F801C9
:101190008281882339F1C1308CE5D80759F0CE3DE2
:1011A000ECE5DE07E1F0C115FCE5DF07D9F40E94AC
:1011B0008F0849C08091F301C82FC095C170C0FB52
:1011C00080F98093F301CC2329F088E491E00E9418
:1011D0008C0739C086E391E00E948C0735C00E94DD
:1011E000C72631C0C631DC4539F50E945325282F6A
:1011F000F80182814091100150911101882379F00A
:101200002A7A91E009F490E090937001911102C064
:1012100069E201C065E3CA010E9400270AC080910B
:101220007001811102C069E201C065E3CA010E9438
:1012300002270E949F2507C0C801DF91CF911F910F
:101240000F910C942E08C0E08C2FDF91CF911F914D
:101250000F91089580E090E008950895272F30E0E1
:10126000F901EE0FFF1F2E0F3F1FF90199E0899F33
:10127000E00DF11D1124E60FF11DEE0FFF1FEC5DD7
:10128000FE4F859194910895880F991FFC01E75AAC
:10129000FE4F859194910895CF93DF930E942E097C
:1012A0000E942D0BEC01811522E5920708F046C043
:1012B000811531E5930708F052C1883E910500F58C
:1012C000803E910508F0C5C1883A910570F4853AD1
:1012D000910508F0B1C08130910509F4BAC108F454
:1012E0006BC1049708F0B5C167C18F3B910508F445
:1012F000AEC0803C910508F45FC1805C910906C1D5
:10130000811540E4940790F4C11580E3D80708F0F4
:1013100001C1C11521E0D20708F44EC1C11530E268
:10132000D30708F496C1CE019F70F0C0811540E547
:10133000940708F0F9C0DF70D06A8BC1C11589E548
:10134000D807B8F5C11528E5D20708F021C1C115A5
:1013500034E5D307D0F42C2F26952695CE01837043
:101360009927C115D34508F0FFC040E2249F9001A2
:101370001124C1E0D0E002C0CC0FDD1F8A95E2F756
:101380002C2B3D2BE901DC6864C1C11585E5D8072C
:1013900008F4F9C0C11526E5D20708F00DC18C2F5D
:1013A0000E94C10B8F71C82FD0E0DC2FCC27D062F8
:1013B00050C1CD3B3CE5D30709F4F5C0E0F4CB3B8D
:1013C0008CE5D80709F4E9C008F0EAC0C1153AE590
:1013D000D30708F0F1C08C2F8F700E94C10B94E0EE
:1013E000D695C7959A95E1F7CF70D0E0DC2FCC2742
:1013F000D069C82B2EC1C03C4CE5D40709F4D9C034
:1014000060F4CE3B2CE5D20709F4D0C0CF3BDC45DD
:1014100009F0D2C0C0E0D2ED1CC1CE0190568115BA
:10142000904208F0C9C08D2F8F710E94C10BDD273B
:10143000D0628F71D82B0DC1853A910509F4BFC0D8
:10144000863A910509F0BEC0C2E8D0E402C1883AEC
:10145000910509F4BAC0893A910509F4B9C08A3AEC
:10146000910509F4B8C08B3A910509F4B7C08C3ADC
:10147000910509F4B6C08B3B910509F4B5C08C3BCE
:10148000910509F4B4C08D3A910509F4B3C0803BCD
:10149000910509F4B2C08E3A910509F4B1C08F3AB2
:1014A000910509F4B0C0813B910509F4AFC0823BBE
:1014B000910509F4AEC0833B910509F4ADC0843BAE
:1014C000910509F4ACC0853B910509F4ABC0863B9E
:1014D000910509F4AAC0873B910509F4A9C0883B8E
:1014E000910509F4A8C0893B910509F4A7C08D3B7B
:1014F000910509F4A6C08E3B910509F4A5C08A3B6D
:10150000910509F4A4C0C0E0D4E4A3C00E9444093A
:10151000EC019FC0CE019927D3FF03C0EC01D86C2A
:1015200098C0EC01D06C95C0837021E030E002C01F
:10153000220F331F8A95E2F73C68CE0174E096953E
:1015400087957A95E1F78370382BCF70C695C6954D
:1015500080E2C89FE0011124C22BD32B7AC0D82F80
:10156000CC27C16FD06A75C040E2249F900111243E
:10157000C1E0D0E002C0CC0FDD1F8A95E2F7C22B9C
:10158000D32BDA6866C0DC2FCC27C46FD06A61C069
:10159000DC2FCC27C06FD06A5CC0C0E0D4ED59C04E
:1015A000C0E0D5ED56C0C0E0D1ED53C0C0E0D0EDF5
:1015B00050C0C0E0D3ED4DC0C0E0D0E04AC0C1E8AB
:1015C000D0E447C0C3E8D0E444C0C2EED4E441C094
:1015D000C9EED4E43EC0CAEED4E43BC0C5EBD4E4CB
:1015E00038C0C6EBD4E435C0C3EBD4E432C0C4EB9E
:1015F000D4E42FC0C7EBD4E42CC0CCECD4E429C095
:10160000CDECD4E426C0C3E8D5E423C0CAE8D5E4D1
:1016100020C0C2E9D5E41DC0C4E9D5E41AC0C1E2C6
:10162000D6E417C0C3E2D6E414C0C4E2D6E411C0C5
:10163000C5E2D6E40EC0C6E2D6E40BC0C7E2D6E4EB
:1016400008C0CFE6D4E405C0C0E7D4E402C0CAE2D3
:10165000D6E4CE01DF91CF9108958238910569F1EA
:10166000B0F48133910509F46DC048F489329105D5
:1016700009F463C08A32910509F469C0089585337D
:10168000910509F455C089339105B9F00895833E59
:10169000910569F138F4803E9105B1F0823E9105E3
:1016A00009F10895863E9105A9F1873E9105B9F1AA
:1016B000843E910509F064C023C020911C0220FDE6
:1016C0004FC021FD4DC0089580911C0280FD44C093
:1016D00080911D0280FF44C080911C0284FD42C0A5
:1016E00083EE4DC080911C0282FF38C0F5CF8091FF
:1016F0001C0282FD33C080911D0280FD31C0ECCF01
:1017000080911D0281FF32C080911C0284FD2AC09D
:1017100087EE35C080911C0283FF26C0F5CF8091F3
:101720001C0283FD21C080911D0281FD1FC0ECCFF2
:1017300080911C0285FD1CC01DC080911C0285FD8E
:1017400019C016C080911C0286FD16C017C080917A
:101750001C0286FD13C010C089E311C082EE0FC0C9
:1017600080EE0DC080E00BC086EE09C084EE07C09D
:1017700089E205C085E303C08AE201C081E390E00D
:10178000089590911C0292FF0DC0282F28712830D7
:1017900019F4877F846006C0282F2471243011F447
:1017A0008B7F886093FF0DC0282F2871283119F492
:1017B000877E846106C0282F2471243111F48B7E2A
:1017C000886120911D0220FF0DC0382F38713830FC
:1017D00019F4877F816006C0382F3171313011F4E0
:1017E0008E7F886021FF0DC0282F2871283119F4C1
:1017F000877E816106C0282F2171213111F48E7EF0
:10180000886194FD877E089508950C94040C0895D2
:101810000C94070CE82FF0E0EF58FE4F80810895FC
:10182000CF92DF92EF92FF920F931F93CF93DF93AC
:1018300088E691E00E948C0781E7E82E81E0F82E8F
:10184000C0E0D0E093E6C92E91E0D92E0BE511E07F
:10185000DF93CF93DF92CF920E94250880E691E03C
:101860000E948C07F70181917F010E9408261F9238
:101870008F931F930F930E94250889E591E00E94A2
:101880008C0721968DB79EB708960FB6F8949EBF29
:101890000FBE8DBFC330D105D9F6DF91CF911F9117
:1018A0000F91FF90EF90DF90CF900895CF93DF934B
:1018B0002DE131E061E070E080E090E0F901E80FB7
:1018C000F91F4081E42FE295EF70F0E0A1A14F7085
:1018D000EB0102C0CC0FDD1F4A95E2F7AE015C2F91
:1018E00050955A2351A352A1452B42A30196833010
:1018F000910521F72D5F3F4FD1E026323D07E1F6FC
:10190000109274011092710110927501109272017F
:10191000109276011092730183E00E94E40CDF9133
:10192000CF910C946C080F931F93CF93DF932DE10D
:1019300031E0E4E7F1E0C0E001E010E093E09E0F69
:10194000D081108260E070E0A901460F571FDA01D4
:101950008C91482F42954F7050E0DA0190964C914F
:1019600050E08F7002C0559547958A95E2F740FD8B
:1019700007C0A801062E01C0440F0A94EAF702C06E
:1019800040E050E08081482B40836F5F7F4F6330A1
:101990007105D1F681E0D41301C080E0C82B3196E7
:1019A0002D5F3F4F9E13CCCF2C2F43E061E771E0BA
:1019B00084E791E00E94E50C0E9478088C2FDF916B
:1019C000CF911F910F9108950895FF920F931F9348
:1019D000CF93DF938C01F62ED72FC42F222349F00B
:1019E00081E0809379010E94B027909378018093E1
:1019F0007701809179018823C1F0809177019091DE
:101A000078010E94C827069780F0EF2DFD2FD8019E
:101A10004C2F50E0CD01801B910B841795071CF4CF
:101A20008D918193F7CF10927901DF91CF911F9122
:101A30000F91FF900895AF92BF92CF92DF92FF92E5
:101A40000F931F93CF93DF93D62E372FE82FF0E01D
:101A5000711106C0E25AF94F6491762F862F75C036
:101A6000C72FD0E0E25AF94F2491F22E022F10E056
:101A700046E0649FC0011124EFEFF0E0BF010E9437
:101A80003B33AB016BEA6403C001659F900D1124E9
:101A90008D0D911D8D0D911D982F990F890FDF01CF
:101AA000AC1BBD0B0A9FB0010B9F700D1A9F700DF0
:101AB0001124972F839FD0011124AB2FBB276F01D7
:101AC000CA1ADB0A0C9DD0010D9DB00D1C9DB00DF6
:101AD00011245F01A81AB108AC9E6001AD9ED00C24
:101AE000BC9ED00C1124CD2DDD27EC1BFD0B0E9FD1
:101AF000E0010F9FD00D1E9FD00D1124ED2F42301D
:101B0000510591F04CF441155105E1F0413051057A
:101B1000B9F4E22F2B2F16C04430510569F044F080
:101B20004630510579F00CC0E22F272F9D2F0AC0B7
:101B3000272F9F2DEB2F06C0E72F922F2D2F02C0AE
:101B4000E72F9B2F6E2F722F892FDF91CF911F913F
:101B50000F91FF90DF90CF90BF90AF9008950895C0
:101B6000CF93DF93762FE901682F842F0E941B0DFE
:101B7000798368838A83DF91CF91089580910602EB
:101B8000282F269530E02115310519F481708260E7
:101B900005C02532310524F08170886480930602E7
:101BA000089588E090E00C94BA33CF93DF9300D08F
:101BB00000D0CDB7DEB7AB01BC0149835A836B833C
:101BC0007C830E94BE0D49815A816B817C8188E0B3
:101BD00090E00F900F900F900F90DF91CF910C94A9
:101BE000D833E6E0F2E083E0808311828FEF8283D6
:101BF0008383148260817181828193810C94D50DDD
:101C00008091F30180FF08C08FEA94E09F938F9347
:101C10000E9425080F900F908091F30180FF0FC064
:101C20008091060281701F928F9382E994E09F93C6
:101C30008F930E9425080F900F900F900F90809126
:101C4000F30180FF0FC08091060286951F928F934B
:101C500087E794E09F938F930E9425080F900F9041
:101C60000F900F908091F30180FF0EC080910702CA
:101C70001F928F938DE594E09F938F930E94250888
:101C80000F900F900F900F908091F30180FF0EC086
:101C9000809108021F928F9383E494E09F938F9327
:101CA0000E9425080F900F900F900F908091F301E4
:101CB00080FF0EC0809109021F928F9389E294E009
:101CC0009F938F930E9425080F900F900F900F9075
:101CD0008091F30180FF0EC080910A021F928F93C2
:101CE0008DE094E09F938F930E9425080F900F90B2
:101CF0000F900F9008958091060280FF02C0869594
:101D0000089580E0089580910A02833018F48F5F6F
:101D100080930A0260910602709107028091080286
:101D2000909109020C94D50D80910A02882319F034
:101D3000815080930A02609106027091070280919F
:101D40000802909109020C94D50D6091040170E095
:101D50008091060280FF0AC080917E0123E0829F6D
:101D6000C0011124855F9D4F0C94041780917D0163
:101D700090910301891780F7E82FF0E09F01220F6F
:101D8000331FE20FF31FE55FFD4F118210821282B5
:101D90008F5FF0CF9091060290FF16C090917D0169
:101DA00020910301921770F4E92FF0E0DF01AA0FF0
:101DB000BB1FEA0FFB1FE55FFD4F818360834283FA
:101DC0009F5FF0CF0C94A50E0895CF93DF9300D0C2
:101DD0001F92CDB7DEB79091060290FF0AC09E0118
:101DE0002F5F3F4F0E94B00D4B8169818A810E9415
:101DF000CA0E0F900F900F90DF91CF910895CF935F
:101E0000DF93EC01EC81F0E0E652FB4F4491E6E019
:101E1000F2E0628181810E94E50E8C818F5F8C836C
:101E2000DF91CF910895CF93DF93EC01E6E0F2E0EC
:101E3000438162818C810E94E50E8C818F5F8C834F
:101E4000DF91CF9108950F931F93CF93DF9300D02D
:101E50001F92CDB7DEB78C0180917A0181110AC043
:101E60009E012F5F3F4F4FEF6FEF0E94B00D8A81B1
:101E700080937A01F8018481813051F028F082301A
:101E800061F440917A010AC080917A0140E007C074
:101E900060917A0140E080E003C040E080E060E0D3
:101EA0000E94CA0EF801248130E0C901019663E066
:101EB00070E00E944F3384830F900F900F90DF915A
:101EC000CF911F910F9108956F927F928F929F9261
:101ED000AF92BF92CF92DF92EF92FF920F931F9338
:101EE000CF93DF9300D000D0CDB7DEB7182FD62E1A
:101EF000042FB22E9091060290FFB2C0E92FE69512
:101F0000AE2FB0E0AA5DBE4F8C91809386019E7F7C
:101F1000923061F49E012F5F3F4F812F0E94B00DE0
:101F20004B8169818A810E94CA0E60C0823019F497
:101F3000009109025BC0863019F41091070256C067
:101F40008930D9F3893109F051C0E9518E2F80953C
:101F50008170C82EE695F0E0E652FA4FE590F490D5
:101F6000A12CFF2425EF822E21E0922E6091020108
:101F7000A616D0F56A2C712C6E9CC0016F9C900D3A
:101F80007E9C900D112470E00E943B33812FCC2069
:101F900011F0860F01C0861B9091F30190FF13C0D2
:101FA000FF92EF921F92CF921F928F931F92AF9248
:101FB0009F928F928C830E9425080FB6F894DEBF03
:101FC0000FBECDBF8C8190917D01690E711C930174
:101FD000220F331F260D371D255F3D4F402F6D2DDE
:101FE0000E94B00DA394C2CF0E94A50E10930702C9
:101FF000D092080200930902BB20E9F0609106022A
:102000007091070280910802909109020E94D50DFB
:102010008091F30180FF24C0809109021F928F9369
:10202000809108021F928F93809107021F928F93D5
:1020300080ED91E00CC08091F30180FF11C01F92F0
:102040000F931F92DF921F921F9389EA91E09F9353
:102050008F930E9425080FB6F894DEBF0FBECDBF48
:102060000F900F900F900F90DF91CF911F910F91D4
:10207000FF90EF90DF90CF90BF90AF909F908F90A8
:102080007F906F900895E6E0F2E09181282F4381E0
:10209000628188E0890F0C94640F81E00C944310F6
:1020A000E6E0F2E09181282F4381628188EF890F79
:1020B0000C94640F81E00C945010E6E0F2E0628131
:1020C00028E0620F08F46FEF282F438181810C9480
:1020D000640F81E00C945D10E6E0F2E0628128E09C
:1020E000621B08F460E0282F438181810C94640F07
:1020F00081E00C946C10E6E0F2E0438128E0420FAE
:1021000008F44FEF282F628181810C94640F81E0E5
:102110000C947B10E6E0F2E0438128E0421B08F4D7
:1021200040E0282F628181810C94640F81E00C943F
:102130008A1020E00C94640FFF920F931F93CF93AB
:10214000DF93EC01F12C0FEF10E060910201F61625
:10215000E8F420917D0130E02F0D311DC901880F79
:10216000991F280F391F255F3D4F70E0C8010E945D
:102170004F33962F8C814091090260910802F99E9D
:10218000800D11240E94B00DF394DFCF0E94A50EA4
:102190009A818C8190FF02C08F5F01C081508C8337
:1021A000DF91CF911F910F91FF900895BF92CF9231
:1021B000DF92EF92FF920F931F93CF93DF93FC0177
:1021C000828180FF02C00FEF01C001E010E080912A
:1021D0000201181708F040C0C12ED12C80917D015A
:1021E000E601C80FD11DCE01880F991FC80FD91F56
:1021F000C55FDD4F198218821A8234E0E32EF12C7C
:10220000B12C80917C018B0D853014F0837005C05A
:1022100087FF03C090910201890F082E000C990BD3
:10222000C816D90691F4809109028E9DA0018F9D58
:10223000500D112455954795559547959E016091F0
:102240000802809107020E94B00DB00EF1E0EF1A73
:10225000F108B9F61F5FBBCF0E94A50E80917C01EB
:10226000013031F4811102C080910201815007C018
:1022700090E001966091020170E00E944F338093DC
:102280007C01DF91CF911F910F91FF90EF90DF9034
:10229000CF90BF900895CF9380917D0190910301DD
:1022A000891770F4E82FF0E09F01220F331FE20F2F
:1022B000F31FE55FFD4F1182108212828F5FF0CF16
:1022C000C0E060910201C617B8F5EC2FF0E070E0B5
:1022D000CF010E944F3340917D01480F80917B01D7
:1022E000082E000C990B50E0E817F907C4F0209174
:1022F0000101022E000C330B2E173F0784F09A01C8
:10230000220F331F240F351F255F3D4F40910902D7
:1023100060910802809107020E94B00D0BC0FA0183
:10232000EE0FFF1F4E0F5F1FFA01E55FFD4F118299
:1023300010821282CF5FC5CF0E94A50E20910001AE
:1023400080917B01820F80937B0190910101920F1C
:102350009093010119165CF4082E000C990B409122
:10236000020150E041505109841795071CF0219556
:1023700020930001CF9108950F931F93CF93DF9384
:102380008C01FC0184819581019681709927958348
:102390008483C0E0D5E580910201C817F8F420914C
:1023A0007D0130E02C0F311DC901880F991F280FC6
:1023B000391F255F3D4F4C2F4695F801848195814B
:1023C000840F911D817040910902609108028D9FD8
:1023D000802D11240E94B00DCF5FDDCFDF91CF9112
:1023E0001F910F910C94A50E0F931F93CF93DF9322
:1023F000EC0100E010E080910201282F30E002178C
:10240000130724F590917D019801290F311DA90131
:10241000440F551F240F351F255F3D4F869590E0D3
:102420004C81081719071CF4442331F002C04111F4
:1024300003C04091090201C040E060910802809110
:1024400007020E94B00D0F5F1F4FD5CF0E94A50E4F
:102450002C8130E02F5F3F4F217033272C83DF9199
:10246000CF911F910F91089560910602669570E0DB
:102470004BE050E085E091E00E94A533892B19F4F0
:1024800081E0809387010E94B02790938001809320
:102490007F018091F30180FF08C080E991E09F9364
:1024A0008F930E9425080F900F9008951092870136
:1024B0008091F30180FF08C087E791E09F938F939D
:1024C0000E9425080F900F9008959091060290FFAA
:1024D00054C09170811102C0926006C0853210F024
:1024E000986402C0880F982B909306026623B1F07F
:1024F0006091060270910702809108029091090292
:102500000E94D50D8091F30180FF1BC080910602CF
:1025100086951F928F9383E593E00BC08091F30122
:1025200080FF0FC08091060286951F928F9385E3EE
:1025300093E09F938F930E9425080F900F900F9028
:102540000F9060910602669570E04BE050E085E0E8
:1025500091E00E94A533892B19F00E94561202C007
:102560000E94341281E080938201409109026091BF
:102570000802809107020C9499100895682F909199
:102580000602969581E0890F853208F081E00C946F
:10259000651281E00C94BE12682F90910602969508
:1025A0008FEF890F09F484E20C94651281E00C949A
:1025B000CC1261E00C9465128091060281608093D8
:1025C00006028091F30180FF0DC01F9281E08F937E
:1025D00087EC92E09F938F930E9425080F900F90B5
:1025E0000F900F908091060286950C94D91260E0AE
:1025F0000C94651280918501811160C08091F30176
:1026000080FF08C086EF93E09F938F930E94250878
:102610000F900F908091F30180FF08C080EE93E04F
:102620009F938F930E9425080F900F900E941E2663
:10263000811110C08091F30180FF08C088EB93E006
:102640009F938F930E9425080F900F900E94C7269A
:102650000E94F10D0E94D10D609306027093070253
:1026600080930802909309026E7FC1F48091F30178
:1026700080FF08C08FE693E09F938F930E94250808
:102680000F900F900E94F10D0E94D10D60930602F1
:102690007093070280930802909309020E94BE0D76
:1026A0000E94000E109287018091060280FF03C0F5
:1026B00086950E94F71281E08093850108958091AC
:1026C00006028160809306028091F30180FF0DC0B5
:1026D0001F9281E08F938EE892E09F938F930E94E8
:1026E00025080F900F900F900F908091060286950D
:1026F0000C94F712809106028E7F809306026091FF
:1027000006027091070280910802909109020E94CE
:10271000D50D8091F30180FF0FC08091060281707A
:102720001F928F9386E592E09F938F930E942508D6
:102730000F900F900F900F900E9456122FEF80E78E
:1027400092E0215080409040E1F700C000000C94DE
:10275000A50E8091F30180FF10C080910602809544
:1027600081701F928F938EEF92E09F938F930E94C0
:1027700025080F900F900F900F908091060280FD1A
:102780000C947A130C94DC12809106028E7F809355
:1027900006028091F30180FF0CC01F921F928CE112
:1027A00092E09F938F930E9425080F900F900F90B7
:1027B0000F900E9456122FEF80E792E02150804048
:1027C0009040E1F700C000000C94A50E0F931F93FA
:1027D000CF93DF9380918701882309F48CC0809187
:1027E0008601E0910602E695E81BE09381018230C4
:1027F00049F4F0E0EA52FB4FE491CE2FD0E00FEF26
:102800001EE049C0863049F4F0E0ED52FB4FE49100
:10281000CE2FD0E003E11FE03EC0893051F4E695B1
:10282000F0E0E053FB4FE491CE2FD0E00CE910E153
:1028300032C08F3051F4E695F0E0E353FB4FE49162
:10284000CE2FD0E006ED10E126C0853149F4F0E04E
:10285000E653FB4FE491CE2FD0E00BE411E11BC017
:10286000883181F0833239F4E8ECF4E0C591D491F9
:1028700003E21FE010C0843251F4C4EFD1E004EF52
:1028800011E109C0C8EED3E00CEB11E104C0C0EDCA
:10289000D7E00FEA1DE080918201882389F0109231
:1028A00082010E94B0279E0120953095820F931FD0
:1028B0009093800180937F01109284011092830194
:1028C00080917F01909180010E94C8278C179D07FD
:1028D00090F0E0917F01F0918001CE0FDF1FD09347
:1028E0008001C0937F018FE791E0F801DF91CF91E4
:1028F0001F910F910994DF91CF911F910F9108952E
:10290000882311F0FA0101C0FB010994CF93DF93F2
:10291000C82FD62F0E947B0E8C1740F00E947B0E92
:102920008D1720F4DF91CF910C94C9128C2FDF9179
:10293000CF910C94D9120F931F93CF93FB01C281B7
:10294000CC2309F463C08C010E9453258272F801E4
:10295000E25CFC45E431F10508F059C0EA5AFF4F4A
:102960000C9485330E94A91306C046ED52E169EC30
:1029700072E10E948014C0E04AC049EC52E166ED69
:1029800072E1F7CF4AE550E16DE470E1F2CF4DE43A
:1029900050E16AE570E1EDCF48E750E169E670E1AA
:1029A000E8CF49E650E168E770E1E3CF46E950E15E
:1029B00067E870E1DECF47E850E166E970E1D9CF22
:1029C00044E95EE063E87EE0D4CF43E85EE064E99A
:1029D0007EE0CFCF81E017C065E082E010C068E004
:1029E00086E00DC06EE089E00AC064E18FE007C0B8
:1029F00067E185E104C088E106C062E289E10E94E6
:102A00008614B9CF83E20E94D912B5CFC1E08C2FD2
:102A1000CF911F910F9108950E941E26811102C02F
:102A20000E94C7260E944F2680931702282F2695C2
:102A30002695269530E02830310524F0877088638C
:102A4000809317028091170280FF04C086958695B7
:102A5000869501C080E00C94631620911702822FA6
:102A6000869586958695482F50E04730510554F459
:102A70008F5F982F990F990F990F822F8770892B4D
:102A800080931702809117028160809317020E9441
:102A900053268091F30180FF11C080911702869523
:102AA000869586951F928F9386E496E09F938F93E9
:102AB0000E9425080F900F900F900F9080911702A1
:102AC0008695869586950C94631680911702982FAB
:102AD000969596959695A1F0915E990F990F990FFD
:102AE0008770892B80931702887F91E009F490E02A
:102AF0008091170290FB80F9809317020E94532661
:102B00008091F30180FF11C0809117028695869510
:102B100086951F928F938EE296E09F938F930E94EB
:102B200025080F900F900F900F90809117028695B7
:102B3000869586950C9463168091170280FD1FC0C0
:102B4000816080931702813019F489E08093170225
:102B5000809117020E9453268091F30180FF08C0E4
:102B600086E096E09F938F930E9425080F900F9028
:102B7000809117028695869586950C946316089524
:102B80008091170280FF14C08E7F809317020E94ED
:102B900053268091F30180FF08C083EF95E09F9357
:102BA0008F930E9425080F900F9080E00C9463167D
:102BB0000895CF93C0911702C1708091F30180FFF7
:102BC0000CC01F92CF9388E196E09F938F930E9451
:102BD00025080F900F900F900F90CC2319F0CF91F4
:102BE0000C94C015CF910C949C1590911702892FCD
:102BF0008695869586958F5F8F719770883038F4AB
:102C0000880F880F880F892B8093170202C090933A
:102C1000170280911702887F91E009F490E080917B
:102C2000170290FB80F9809317020E94532680912F
:102C3000F30180FF11C080911702869586958695D5
:102C40001F928F938FED95E09F938F930E9425089D
:102C50000F900F900F900F90809117028695869598
:102C600086950C946316883008F087E0880F880FEB
:102C7000880F909117029770892B80931702887F95
:102C800091E009F490E08091170290FB80F9809325
:102C900017020E9453268091170286958695869585
:102CA0000C946316E82FE295EF70F0E032A1282F24
:102CB0002F7081E090E001C0880F2A95EAF7809597
:102CC000832382A30895CF92DF92EF92FF92883000
:102CD00030F4811105C0909180009F7704C087E097
:102CE00090918000906890938000282F30E0AFEFA3
:102CF000BFEF0E948B3327E030E040E050E00E94BD
:102D000063332C3784E138074105510530F4C9019C
:102D100069E070E00E943B3329C0DA01C9018A50A2
:102D2000974DAF4FBF4F6627782F892F9A2F25EFEA
:102D300038E241E050E00E94633369017A01CA0140
:102D4000B9010E941F339B01AC01C701B6010E946B
:102D50001F33BB27A92F982F872F009721E0A207A9
:102D6000B10511F0BC0102C06FEF7FEF70938900D5
:102D700060938800FF90EF90DF90CF9008950895C2
:102D8000259A85E30E94521682E88093800089E1AB
:102D9000809381008FEF9FEF909387008093860050
:102DA0000C940C152BB1342F309523233BB1432BBE
:102DB0003FB7F894FC01680F791FE617F70789F011
:102DC000819198E04BB9000000C087FF2BB9880FB4
:102DD000000000C000C000C02BB900C09A9591F758
:102DE000ECCF3FBF08952AB1242B2AB99B01220FB3
:102DF000331F620F731F0E94D21687EC90E0019779
:102E0000F1F700C00000089548E00C94F31608950F
:102E10000C940717FF920F931F93CF93DF93CCE887
:102E2000D1E02DE531E04BE551E061E070E0F1E00B
:102E3000CE38DF0709F44DC0F90101919F01A02FA1
:102E4000A295AF70B0E09196EC9191970F70CB0185
:102E5000002E01C0880F0A94EAF7982F90959E23C0
:102E600091969C93919792969C919297892B92968A
:102E70008C939297FA011191AF01E12FE295EF70D7
:102E8000F0E0F1A01F70CB01012E01C0880F0A9461
:102E9000EAF7982F90959F2191A392A1892B82A365
:102EA00090968C9190E002C0959587950A95E2F7EF
:102EB00081709927E0A1F0E002C0F595E7951A9599
:102EC000E2F7E0FD02C0E0E001C0E2E08E2B899372
:102ED000AECFDF91CF911F910F91FF9008959F92F8
:102EE000AF92BF92CF92DF92EF92FF920F931F9318
:102EF000CF93DF938CE8A82E81E0B82E9DE5C92EF4
:102F000091E0D92E2BE5E22E21E0F22E0AE811E025
:102F1000C8E8D1E0912CD501EC914E2F440F440F1D
:102F20004C93F60181916F01E82FE295EF70F0E08C
:102F300020A130E08F7002C0359527958A95E2F781
:102F400021703327D7015D917D01E52FE295EF7068
:102F5000F0E080A190E05F7002C0959587955A954A
:102F6000E2F7FC01E170FF2780FF02C0E2E0F0E041
:102F7000E22BF32BE42BD501EC93EF70F0E0E55B53
:102F8000FE4F9081F8018081890F808384303CF06E
:102F900088818F5F888361E0892D0E940817D8019E
:102FA0008C918D3F3CF488818150888360E0892D2D
:102FB0000E940817F8019081937897FF03C0915001
:102FC0009C6F9F5FD8019D938D01BFEFAB1ABB0A29
:102FD0002196E1E09E1619F0992493949CCFDF91FD
:102FE000CF911F910F91FF90EF90DF90CF90BF9006
:102FF000AF909F9008950F931F93CF93DF93C62FA9
:10300000D42F022FFC0182818823C9F060939001A4
:103010000E94B02790938F0180938E0180E28C0FE5
:10302000883008F050C0C77081E001C0880FCA9591
:10303000EAF7DF91CF911F910F910C940E1D109123
:103040009001161330C080918E0190918F010E94E3
:10305000C827883C910538F5C0E2CD0F1D17B9F09F
:1030600080E2810F883040F4177081E001C0880F42
:103070001A95EAF70E94151DC83048F481E09D2F8B
:10308000977001C0880F9A95EAF70E940E1D802F55
:103090000E94FB1CC830B8F4D77081E001C0880FD3
:1030A000DA95EAF70AC080E28C0F883060F4C770C6
:1030B00081E001C0880FCA95EAF7DF91CF911F9197
:1030C0000F910C94151DDF91CF911F910F910895D1
:1030D0009C01CB01233F4CE53407F9F078F4283DFF
:1030E000FCE53F07B9F0293D4CE5340711F1273DD8
:1030F0003C4531F526E241EE61EE1EC0253FFCE580
:103100003F0799F070F0263F3C45D1F427E245EEA9
:1031100066EE12C027E245EE0EC026E241EE60EEFA
:103120000BC027E245EE64EE07C026E241EE62EEF8
:1031300003C028E241E065EE0E94FB1780E008959D
:10314000FC018281882319F010929001089581E09A
:103150000895CF93DF93EC01FB018281882309F46A
:103160001FC1C230FCE5DF0708F41BC1C6319CE576
:10317000D90738F09E012A5F3C452930310508F017
:1031800010C10E94312690931D0280931C02C03111
:10319000ECE5DE0709F4C3C008F041C0C8308CE597
:1031A000D80709F49AC0F0F4C430ECE5DE0709F45E
:1031B00087C068F4C2308CE5D80709F477C0C33003
:1031C000DC4509F0E3C080911C02826076C0C63005
:1031D000ECE5DE0709F46EC008F07BC080911C02AC
:1031E00088606BC0CC308CE5D80709F485C068F4E2
:1031F000CA30ECE5DE0709F474C008F079C00E941B
:103200009E1F80911C02806858C0CE308CE5D80784
:1032100009F476C008F07FC080911C028BC0CB3FC0
:10322000ECE5DE0709F44FC018F5C3318CE5D8078B
:1032300009F47DC078F4C131ECE5DE0709F473C010
:10324000C231DC4509F0A2C00E949E1F80911C0281
:103250008F7733C0C5318CE5D80709F472C008F404
:1032600086C0CA3FDC4509F091C080911D023EC076
:10327000CF3FFCE5DF0709F45FC058F4CD3F9CE584
:10328000D90709F444C008F43FC080911D02826050
:103290002DC0C130FDE5DF0709F475C008F45DC03D
:1032A000C230DD4509F072C080E06EC080911C0222
:1032B000816003C080911C02806180931C0266C003
:1032C00080911C0211C080911D02826080931D02BA
:1032D0005DC080911C028062F0CF80911C028064EE
:1032E000ECCF80911C0288608460E7CF8160EECFD4
:1032F00080911C028E7FE1CF80911C028D7FDDCFFB
:1033000080911C02877FD9CF80911D0218C08091C7
:103310001D028D7FDBCF80911C028F7ECECF8091EE
:103320001C028F7DCACF80911C028F7BC6CF8091FB
:103330001C02877F8B7FC1CF80911D028D7F8E7F86
:10334000C5CF80911C0282FB222720F991E09227B1
:1033500090FB82F990FB83F9B0CF80911D02982FEA
:10336000909591708E7F892B90FB81F9AFCF0E9451
:103370009E1F80911C0287FB222720F991E0922753
:1033800090FB87F99ACF81E00E94C92680911C02A8
:1033900090911D020E9442260E949E1F80E001C063
:1033A00081E0DF91CF9108959093960180939501EC
:1033B0000895E0919501F0919601309721F00190E8
:1033C000F081E02D099480E00895EF92FF920F9331
:1033D0001F93CF93DF93E0919501F0919601309781
:1033E000B1F18C010280F381E02D09958091F30108
:1033F00082FF2DC080FF04C086E697E00E948C0704
:10340000E80118E080E6E82E87E0F82E8091F301CD
:1034100080FF0BC088811F928F93FF92EF920E94D2
:1034200025080F900F900F900F90115021961111B9
:10343000EDCF8091F30180FF0AC08EE597E0DF9128
:10344000CF911F910F91FF90EF900C948C07DF911B
:10345000CF911F910F91FF90EF90089520919301CC
:10346000309194018217930771F0909394018093A7
:103470009301E0919501F0919601309721F006803B
:10348000F781E02D099408952091910130919201E6
:103490008217930771F09093920180939101E091CC
:1034A0009501F0919601309721F00084F185E02D8F
:1034B0000994089585B7806885BF85B7806885BF02
:1034C0000895089508950C94621A08950C94651A4D
:1034D0000E945A1A0E94611A0C94631A81E008959E
:1034E0000E94A7270E94560C0E9429280E940C15B2
:1034F0000E94FA120C94661ACF93C82F8091F301A0
:1035000082FF1EC080FF04C08FE797E00E948C07F7
:103510008091F30180FF0CC01F92CF938AE797E060
:103520009F938F930E9425080F900F900F900F90FC
:103530008091F30180FF04C088E797E00E948C0728
:103540008C2FCF910C948508BF92CF92DF92EF928F
:10355000FF920F931F93CF93DF93CDB7DEB72B97D7
:103560000FB6F894DEBF0FBECDBF0E94930C0E9431
:103570006E1A811111C08FEF89838A831B820E948A
:10358000B0278160782F9D838C8349815A816B811C
:103590008D810E94391B42C088E9C82E81E0D82E57
:1035A00000E010E0B02E802F0E940A0CF601E1909E
:1035B0006F01E82631F40F5F1F4F0330110591F7BB
:1035C000DACF9091F30191FF04C08B870E94100C19
:1035D0008B8590E0FF24F3942F2D2E21D1F09E8334
:1035E000BF828F2191E009F490E098870E94B02774
:1035F0008160782F9A8789874E815F8168858A8567
:103600000E94391BF801E856FE4F8081F826F082AF
:1036100005C09F5FFF0C9330F9F6CDCF1091970155
:103620000E94D9191817A9F00E94D91980939701FF
:103630002B960FB6F894DEBF0FBECDBFDF91CF91B2
:103640001F910F91FF90EF90DF90CF90BF900C945F
:103650007C1A2B960FB6F894DEBF0FBECDBFDF915C
:10366000CF911F910F91FF90EF90DF90CF90BF907F
:103670000895CF93DF93CDB7DEB72B970FB6F894AD
:10368000DEBF0FBECDBF4F83588769877A878B8790
:10369000DE01119686E0FD0111928A95E9F785E039
:1036A000FE01379601900D928A95E1F749815A8182
:1036B0006B817C818D819E810E9448222B960FB662
:1036C000F894DEBF0FBECDBFDF91CF910895FC010E
:1036D000808191810E9414250895CF93DF931F92DA
:1036E000CDB7DEB7882309F423C1682F8238C1F42F
:1036F0000E94D91981FD1CC169E38091100190914C
:1037000011010E9400270E949F252FEF81EE94E077
:10371000215080409040E1F700C0000069E319C0EB
:10372000833811F50E94D91980FD02C163E58091AB
:103730001001909111010E9400270E949F252FEFF8
:1037400081EE94E0215080409040E1F700C00000FD
:1037500063E580911001909111010E9402270F9062
:10376000DF91CF910C949F258438C1F40E94D91920
:1037700082FDDEC067E480911001909111010E94EA
:1037800000270E949F252FEF81EE94E0215080407A
:103790009040E1F700C0000067E4DBCF8CEF860FBC
:1037A000813A70F4862F69830E942A2B69818111E6
:1037B000BFC080911001909111010E940027CFCFCE
:1037C00080E2860F883048F4677081E001C0880F7E
:1037D0006A95EAF70E945625C2CF8BE5860F8330A3
:1037E00088F4653A29F0663A31F083E890E005C044
:1037F00081E890E002C082E890E00F90DF91CF91E5
:103800000C942E1A88E5860F873108F091C0683A2B
:1038100009F445C0693A09F445C06A3A09F445C05B
:103820006B3A09F445C06C3A09F445C06B3B09F4A6
:1038300045C06C3B09F445C06D3A09F445C0603B96
:1038400009F445C06E3A09F445C06F3A09F445C021
:10385000613B09F445C0623B09F445C0633B09F490
:1038600045C0643B09F445C0653B09F445C0663B6F
:1038700009F445C0673B09F445C0683B09F445C0FD
:10388000693B09F445C06D3B09F445C06E3B09F442
:1038900045C06A3B09F445C080E090E044C082EE38
:1038A00090E041C089EE90E03EC08AEE90E03BC0DF
:1038B00085EB90E038C086EB90E035C083EB90E07C
:1038C00032C084EB90E02FC087EB90E02CC08CECF2
:1038D00090E029C08DEC90E026C083E891E023C001
:1038E0008AE891E020C082E991E01DC084E991E07E
:1038F0001AC081E292E017C083E292E014C084E231
:1039000092E011C085E292E00EC086E292E00BC028
:1039100087E292E008C08FE690E005C080E790E083
:1039200002C08AE292E00F90DF91CF910C94441A8A
:103930000F90DF91CF910895882309F45BC0682F21
:10394000823879F40E94D91981FF54C069E38091CB
:103950001001909111010E9400270E949F2569E3A8
:1039600010C08338B1F40E94D91980FF43C063E5C9
:1039700080911001909111010E9400270E949F25C3
:1039800063E580911001909111010E9402270C942F
:103990009F25843879F40E94D91982FF2BC067E4EF
:1039A00080911001909111010E9400270E949F2593
:1039B00067E4E7CF8CEF860F813A18F380E2860F39
:1039C000883048F4677081E001C0880F6A95EAF793
:1039D0000E945C25DCCF8BE5860F833020F480E0ED
:1039E00090E00C942E1A685A673120F480E090E041
:1039F0000C94441A0895CF93C82F0E946D1BC933AD
:103A000049F42FEF87EE93E0215080409040E1F79A
:103A100000C000008C2FCF910C949C1C882321F0B7
:103A20000E9456250C949F250895882321F00E941A
:103A30005C250C949F250895BF92CF92DF92EF9260
:103A4000FF920F931F93CF93DF937C01062FC72F15
:103A5000FC01158112951F70D281D1110E9473252E
:103A60000E944C25882379F0DD2369F080E2800FE5
:103A7000883048F082E00E94EA250E944C2591E0BF
:103A8000B82EB92601C0B12CCC2EC2948FE0C8222A
:103A9000D12CF601E659FF4F0C9485338C2F807F93
:103AA000CF70882311F0C295C07FDD2399F0CC231D
:103AB00009F48DC180E2800F883010F0011104C03C
:103AC0008C2F0E94562503C08C2F0E9466250E94D1
:103AD0009F257DC1802F0E949C1CCC2309F4C0C16E
:103AE00080E2800F883010F0011104C08C2F0E94FA
:103AF0005C2503C08C2F0E946C250E949F25B0C1BD
:103B00008C2F807FCF70803211F0C295C07F002350
:103B100019F00130C9F022C0DD2371F0112341F00A
:103B2000113031F40E9486258C2B0E948C2598C17F
:103B30000E9486258C2B1DC0112319F0113009F429
:103B40008FC10E94952525C0DD2321F0163008F095
:103B500087C10EC0153008F083C11BC0DD2361F0A2
:103B6000112331F0F701858180FF31C18F7085838A
:103B70008C2F0E940E1D74C1112359F0093309F0D6
:103B800037C1FFEF27EE83E0F15020408040E1F79E
:103B90002DC18C2F0E94151D63C18C2F8695869593
:103BA000837090E0009719F0019761F059C1DD230F
:103BB00021F0802F9C2F937002C080E090E00E9443
:103BC0002E1A59C1DD2321F0802F9C2F937002C043
:103BD00080E090E00E94441A4EC18C2F837009F05F
:103BE00049C0D11144C1402F429546954770440FBA
:103BF000440F602F6F70862F90E0A0E0B0E0042E9D
:103C000004C0880F991FAA1FBB1F0A94D2F704FF94
:103C100010C00FE010E020E030E004C0000F111FE2
:103C2000221F331F4A95D2F70095109520953095A5
:103C300003C000E010E09801C695C695C370D0E0BF
:103C4000BC01CD01602B712B822B932BC230D1058F
:103C500059F0C330D10559F0219719F00E948D23F6
:103C600006C10E947B2303C10E949F2300C10E94C2
:103C70007923FDC0DD2319F08C2F817001C086955A
:103C8000882309F4F4C0402F429546954770440FAD
:103C9000440F602F6F70862F90E0A0E0B0E0042EFC
:103CA00004C0880F991FAA1FBB1F0A94D2F704FFF4
:103CB00010C00FE010E020E030E004C0000F111F42
:103CC000221F331F4A95D2F7009510952095309505
:103CD00003C000E010E09801C695C695C370D0E01F
:103CE000BC01CD01602B712B822B932BC230D105EF
:103CF00059F0C330D10559F0219719F00E9453248F
:103D0000B6C00E944124B3C00E946524B0C00E9486
:103D1000B423ADC0CF70DD2339F08C2F0E94DA239D
:103D2000802F0E940E1DA3C0802F0E94151D8C2F76
:103D30000E94FB239CC0023F01F128F4003F41F0A8
:103D4000013FA1F040C0033FF9F0043F39F13BC00F
:103D5000DD2341F0153008F083C08C2F8F710E9455
:103D600020247EC0163008F07BC0F7CFDD2339F069
:103D70008C2F8F710E94DA2373C0DD23C9F38C2F3F
:103D80008F710E94FB236CC0DD2329F08C2F8F7173
:103D90000E94C52365C00E94C02362C0DD2349F094
:103DA000CF718C2F0E94DA2363E08C2F0E94D525DF
:103DB00057C081E00E94EA25123008F451C082E029
:103DC0000E94EA254DC0DD2331F0112389F2802FB6
:103DD0000E946D1B45C0112391F2093349F49FEFF6
:103DE000E7EEF3E09150E040F040E1F700C0000062
:103DF000802F0E949C1C34C04C2F4F70602FC70135
:103E00000E942A090E94EC2236C0D11134C0CF7022
:103E1000D0E0C230D10599F03CF4209769F02197A9
:103E2000F9F40E94651527C0C430D10571F054F033
:103E30002597B1F480E00AC00E942D151CC00E9495
:103E4000D91519C00E94F51516C087E00E943316D7
:103E500012C04C2F4F70602FC7010E942D090BC05C
:103E600028E0C21AD10884E0C816D10420F40E94C8
:103E7000D9190E948508BB20D1F00E94482580FDF9
:103E800016C0F70112820E9442250E94DA23C70160
:103E90000E94611F0E944225DF91CF911F910F91D7
:103EA000FF90EF90DF90CF90BF900C94FB23DF91B9
:103EB000CF911F910F91FF90EF90DF90CF90BF9027
:103EC00008950F931F93CF93DF93EC01888199811D
:103ED0002B813C81232BB9F09F3F11F48F3F99F048
:103EE000CE010E94A408882371F0688179818A81BB
:103EF0000E941F258C010E9477240E947823B8011C
:103F0000CE010E941C1DDF91CF911F910F9108954A
:103F10000E9473250E9483250E949F2580E090E0E7
:103F20000E942E1A80E090E00C94441A80911001B7
:103F3000909111010E9404270C94881F0E94632510
:103F40000C94961FE92FE295EF70F0E03297EE3077
:103F5000F105B0F4E658FF4F0C948533803F91F0A3
:103F600018F4883E68F40EC0843F51F40BC0883EBC
:103F700048F0813F29F406C093FB882780F9089513
:103F800080E0089581E008950E9414250E94A21FF8
:103F90000895CF93DF9300D000D01F92CDB7DEB746
:103FA0000F900F900F900F900F90DF91CF91089589
:103FB000CF93DF9300D000D000D0CDB7DEB72696E8
:103FC0000FB6F894DEBF0FBECDBFDF91CF9108953D
:103FD0001F93CF93DF93C0919C0116E080919D01C8
:103FE000C81799F0D0E01C9FF0011D9FF00D11241F
:103FF000E256FE4F408151816281738184819581B7
:104000000E94D81F2196C770E9CFDF91CF911F91F1
:1040100008954091CE015091CF016091D0017091EF
:10402000D1018091D2019091D3010C94D81F80913D
:10403000D30182958F7009F054C08091D0018823FC
:1040400009F44FC080919C01A0919D016091CE0127
:104050007091CF014091D1015091D201B6E08A1701
:1040600009F43FC090E041155105C1F17F3F11F4C3
:104070006F3FA1F1B89FF001B99FF00D1124E256F6
:10408000FE4F218172132AC02081621327C0228132
:10409000211124C0238134812417350710F42150C5
:1040A0003109241B350B283C3105C0F42091D30184
:1040B0002F7020612093D30126E0289FF001299FD3
:1040C000F00D1124ED55FE4F80818F70806180834B
:1040D0008EEC91E00E94611F0C94E81F019687709E
:1040E000BECF0895CF92DF92EF92FF920F931F936E
:1040F000CF93DF93CDB7DEB762970FB6F894DEBFEC
:104100000FBECDBF8C0185E0F801DE011D96019048
:104110000D928A95E1F7D8014C9111965C91119717
:1041200012966C9112971396CD90DC901497309163
:10413000CE017091CF018091D1019091D201009771
:1041400009F46BC17F3F19F43F3F09F466C1E09069
:10415000D001EE2009F4C0C02091D301C816D906C1
:1041600028F0F601E81BF90BCF0104C0809590956B
:104170008C0D9D1DFF24F394883C910578F0F12C63
:10418000207F09F0C6C07C2DD98AC88A89890E94FF
:10419000C91F8EEC91E00E94611FB1C0822F807F09
:1041A00009F046C0751314C0341312C0611110C059
:1041B0002F7020612093D3010E9409208EEC91E0A2
:1041C0000E94611F8091D301D80115968C932EC057
:1041D000CD2819F15F3F11F44F3FF9F0F62E611130
:1041E0001CC080919C0120919D0136E0821709F44A
:1041F0005AC090E0389FF001399FF00D1124E2562B
:10420000FE4F7181571306C07081471303C072813E
:10421000711103C001968770E9CFF62E662309F469
:1042200027C18091D30181608093D301F12C20C1FB
:10423000751308C0341306C0611104C08091D30106
:10424000D801C3C04D875E878D859E856A8B0E948D
:10425000C41F6A898823E1F16623D1F12091D3013B
:10426000822F82958F7090E0029774F08091CE013A
:104270009091CF0198878F831986DB86CA862C8719
:10428000CE0107960E94611F86E0F801AEECB1E016
:1042900001900D928A95E1F70E9417200E94092053
:1042A000FF24F394E5C04D875E878D859E850E942F
:1042B0001425292F22952F7030E0223031050CF083
:1042C000CBC09F7009F0C5C0805E883008F4D0C0B4
:1042D000C8010E94611FE4CFC816D90608F453C074
:1042E000F601E81BF90BCF01883C910508F450C09A
:1042F000F12C7C2DD98AC88A89890E94C91FEEECCD
:10430000F1E086E0DF011D928A95E9F70E9409201D
:10431000AFC0751314C0341312C0611110C0809166
:10432000D301F8018583C8010E94611F86E0EEEC8D
:10433000F1E0DF011D928A95E9F7FE2C99C04D87C7
:104340005E878D859E856A8B0E94C41F6A8988233B
:1043500009F4BECF662309F4BBCF2091D301822F8D
:1043600082958F7090E002970CF48ECF8091CE01F1
:104370009091CF019A8389831B82DD82CC822E8328
:10438000CE0101967FCF809590958C0D9D1DACCF71
:10439000F62E662309F49CCF75132EC034132CC05F
:1043A0002091D30120FD1FC0822F82958F70D9F0FC
:1043B000D80115962C9315978F3049F08F5F982F61
:1043C0009295907F822F8F70892B15968C93C801C0
:1043D0000E94611F86E0F801AEECB1E001900D9201
:1043E0008A95E1F793CF86E0F801AEECB1E0019059
:1043F0000D928A95E1F73CC04D875E878D859E853D
:104400000E94C41F811140CF8091D30181608093AD
:10441000D301C8010E94611F2BC0662309F458CF45
:104420004D875E878D859E850E94C41FF82E882348
:1044300009F44ECF86E0F801AEECB1E001900D92A8
:104440008A95E1F78EEC91E00E94671B0E9417208D
:104450005DCF811139CF0CC0243031050CF038CF3D
:104460009F7009F431CFF8019581907F09F02CCF2E
:104470008F2D62960FB6F894DEBF0FBECDBFDF91D1
:10448000CF911F910F91FF90EF90DF90CF90089503
:104490001F93CF93DF93CDB7DEB72C970FB6F89469
:1044A000DEBF0FBECDBF4F83588769877A878B8762
:1044B0009C87CE0107960E947220882369F08F8125
:1044C00098852A853B85232BF1F19F3F09F063C036
:1044D0008F3F09F060C037C086E0FE013796DE01ED
:1044E000119601900D928A95E1F76F817885EA85A2
:1044F000FB85309741F17F3F11F46F3F21F120910F
:104500009D0130E0C90101968770992740919C0177
:1045100050E08417950709F447C069837A83FD83C7
:10452000EC8396E0929FD001939FB00D1124A25688
:10453000BE4FFE01319601900D929A95E1F780935E
:104540009D010E94E81F16E080919C0190919D01C1
:104550008917C1F1189FC001112482569E4F0E94F5
:104560007220882379F1E0919C011E9FF0011124B3
:10457000E256FE4F40815181628173818481958131
:104580000E94D81F80919C0190E001968770992726
:1045900080939C01D9CF4F81588569857A858B8519
:1045A0009C850E94D81FCFCF0E949E1F10929D0114
:1045B00010929C01EEECF1E086E0DF011D928A95FD
:1045C000E9F7C1CF2C960FB6F894DEBF0FBECDBF72
:1045D000DF91CF911F910895EF92FF920F931F9358
:1045E000CF93DF938C01892B09F46CC0F12CEE245E
:1045F000E394E8012196F8018491843740F48430F3
:1046000008F051C0813081F0823019F15BC08537EC
:1046100009F444C0A8F19CE7980F903708F052C005
:104620008F770E949C1C41C00E5F1F4FFE01C491FA
:1046300080E28C0F883048F4C7708E2D01C0880F3F
:10464000CA95EAF70E94762514C08C2F0E946D1B34
:104650002DC00E5F1F4FFE01C49180E28C0F883089
:1046600058F4C7708E2D01C0880FCA95EAF70E94D2
:104670007C250E949F251AC08C2F0E949C1C16C06E
:104680000E5F1F4FFE01C491CC2381F08FE99FE0A4
:104690000197F1F700C00000C150F6CF0E5F1F4F29
:1046A000FE01F49003C00E946D1B8E018F2D8823A4
:1046B00009F49FCFEFE9FFE03197F1F700C0000068
:1046C0008150F5CFDF91CF911F910F91FF90EF9027
:1046D000089508950C9469230E946A236093E2016F
:1046E0007093E3018093E4019093E5010C94881F9B
:1046F00008950C946C230F931F930091E201109185
:10470000E3012091E4013091E501602B712B822BB4
:10471000932B1F910F910C946C230F931F93009177
:10472000E2011091E3012091E4013091E501602361
:104730007123822393231F910F910C946C230F9369
:104740001F930091E2011091E3012091E401309167
:10475000E50160277127822793271F910F910C9401
:104760006C2308950C94B1230E94B2236093DE0160
:104770007093DF018093E0019093E1010C94881F16
:1047800060E070E0CB010C94B4230F931F9341E0E1
:1047900050E060E070E08A019B0104C0000F111F2F
:1047A000221F331F8A95D2F7C901B8011F910F91BB
:1047B0000C94B4230F931F9341E050E060E070E04D
:1047C00004C0440F551F661F771F8A95D2F780914A
:1047D000DE019091DF01A091E001B091E1018A0139
:1047E0009B01082B192B2A2B3B2BC901B8011F91C8
:1047F0000F910C94B4230F931F9341E050E060E0BD
:1048000070E004C0440F551F661F771F8A95D2F7CA
:1048100040955095609570958091DE019091DF01F3
:10482000A091E001B091E1018A019B0108231923C5
:104830002A233B23C901B8011F910F910C94B42383
:104840000F931F9341E050E060E070E004C0440F1C
:10485000551F661F771F8A95D2F78091DE019091D0
:10486000DF01A091E001B091E1018A019B010827DD
:1048700019272A273B27C901B8011F910F910C94D2
:10488000B4230F931F930091DE011091DF0120915B
:10489000E0013091E101602B712B822B932B1F9152
:1048A0000F910C94B4230F931F930091DE0110918C
:1048B000DF012091E0013091E10160237123822327
:1048C00093231F910F910C94B4230F931F93009186
:1048D000DE011091DF012091E0013091E1016027BC
:1048E0007127822793271F910F910C94B423089569
:1048F000292F220F920F890FA82FA695A695A6956E
:10490000877051E001C0550F8A95EAF785E0A89FAE
:10491000D001112420E030E070E0F901EA0FFB1F24
:10492000EC52FE4F4081CB01022E02C09695879536
:104930000A94E2F78170992781958427852384273B
:1049400080832F5F3F4F2530310539F70895292F98
:10495000220F920F890F682F669566956695982F9E
:10496000977085E0689FB001112440E050E080E03E
:10497000FA01E60FF71FEC52FE4F208130E0092EBE
:1049800002C0369527950A94E2F721703327042E4A
:1049900001C0220F0A94EAF7822B4F5F5F4F453028
:1049A000510531F70895BF92CF92DF92EF92FF92B7
:1049B0000F931F93CF93DF938C01C090E201D090AF
:1049C000E301E090E401F090E5018091DE01909137
:1049D000DF01A091E001B091E101C82AD92AEA2AB9
:1049E000FB2ACFE1D0E0D701C6010C2E04C0B6955A
:1049F000A795979587950A94D2F780FF07C0BC2E9C
:104A0000B8018C2F0E944C09019719F4219758F78F
:104A1000B12C8B2DDF91CF911F910F91FF90EF90D3
:104A2000DF90CF90BF900895CF93DF93EC010E9469
:104A3000D324BE010E944C09DF91CF9108951F93AA
:104A4000CF93DF93EB0190919B01992321F0CB0150
:104A50000E94142513C0882349F0CB010E94D3245F
:104A6000182F682FCE010E94782404C0CB010E9429
:104A7000A724182FBE01812F0E944C09DF91CF91EE
:104A80001F9108958091E6018595859585950895F6
:104A90008091E601877008959091E601977081E01A
:104AA00009F480E008958091F20108959091F20157
:104AB000892B8093F201089580959091F2018923CA
:104AC0008093F20108951092F20108959091F101FE
:104AD000892B8093F101089580959091F1018923AC
:104AE0008093F10108951092F10108959091F001E1
:104AF000892B8093F001089580959091F00189238E
:104B00008093F00108951092F00108958091E701DB
:104B1000089508950C9489259091E701981721F044
:104B20008093E7010C948A2508958091E7018823FA
:104B300029F01092E70180E00C948A250895E09115
:104B40001001F09111018091F2018083E091100138
:104B5000F091110190818091F101892B8083E09186
:104B60001001F091110190818091F001892B8083D7
:104B70008091E701882381F0E0911001F09111010B
:104B80009081892B808380911001909111010E9466
:104B9000CE2681110E9495258091100190911101DE
:104BA0000C94E51908950C94D22598E0899F900102
:104BB0001124262B2093E6010E94DA238091E6013E
:104BC0008595859585950C94D3251092E60180E016
:104BD0000C94D3252091E601809582238093E601F1
:104BE000982F977079F430E0482F082E000C550B61
:104BF0002417350739F08595859585950E94FB2307
:104C00000C94E525089590936F0180936E010895AB
:104C10008295982F9C7C392F36953695282F2373B3
:104C200044E0249FC0011124932F982B292F2A7A26
:104C30002695892F8575880F822B089580E090E056
:104C40000E94C03321E08C3E9E4F09F020E0822F6D
:104C5000089582E090E00C94B23383E090E00C94ED
:104C6000B233CF9384E090E00E94B233C82F81E248
:104C700090E00E94B2332C2F30E0A901582BCA01DA
:104C8000CF910895CF93C92F682F84E090E00E94C0
:104C9000C6336C2F81E290E0CF910C94C63386E04E
:104CA00090E00C94B233682F86E090E00C94C63309
:104CB000AB01BC018FE090E00C94D833AB01BC0198
:104CC00083E190E00C94D83360E070E0CB010C9469
:104CD0005E2660E070E0CB010E9458260C946426AA
:104CE0006CEE7EEF80E090E00E94E43360E082E0D2
:104CF00090E00E94C63360E083E090E00E94C633FB
:104D00001092E2011092E3011092E4011092E50189
:104D100060E084E090E00E94C63360E081E290E0D1
:104D20000E94C63360E085E090E00E94C63360E0F8
:104D300086E090E00E94C6336FEF87E090E00E942B
:104D4000C63340E050E0BA0188E090E00E94D833DA
:104D500060E08DE090E00E94C63340E050E0BA0190
:104D600088E190E00E94D83360E087E190E00E9403
:104D7000C63340E050E0BA018CE190E00E94D833A5
:104D800060E080E290E00E94C6330C9469260C94A7
:104D90007026682F8EE090E00C94C633FC013296AA
:104DA00097E080E0915029F021912223D9F38F5F81
:104DB000F9CF08959C01FC0132969FEF80E041916C
:104DC000461789F09F3F19F4411101C0982F8F5F5A
:104DD0008630A9F79F3F39F0F901E90FF11D97FDE2
:104DE000FA95628308950895FC0132960896208111
:104DF000261301C010823196E817F907C1F708950C
:104E00000C94DA260C94F426029626E0FC0111920A
:104E10002A95E9F7089508950C940B270E940C2712
:104E200080912202843009F43CC01092F40120E405
:104E300088E190E00FB6F894A895809360000FBECB
:104E40002093600080E00E94631680E00E94850845
:104E50000E9456128091F50181110AC081E0809371
:104E6000F5018091060281708093F6010E94C413BF
:104E70000E940C2783B7817F846083BF83B78160E2
:104E800083BF7894889583B78E7F83BF0FB6F894DD
:104E9000A895809160008861809360001092600006
:104EA0000FBE089508950895CF930E9452270E943F
:104EB000930C0E945327C0E08C2F0E940A0C811192
:104EC00004C0CF5FC330C1F701C081E0CF91089526
:104ED00008950C9468270E949E1F0E940C150E9442
:104EE000D9190E9485081092F5018091F60181116F
:104EF0000E945F130E9434120C9469271F920F9234
:104F00000FB60F9211248F939F93AF93BF9380910D
:104F1000F401811113C08091180290911902A0919F
:104F20001A02B0911B024196A11DB11D8093180277
:104F300090931902A0931A02B0931B02BF91AF91F4
:104F40009F918F910F900FBE0F901F90189582E048
:104F500084BD93E095BD9AEF97BD80936E00089550
:104F60002FB7F8948091180290911902A0911A021B
:104F7000B0911B022FBF08952FB7F89460911802CB
:104F80007091190280911A0290911B022FBF08950F
:104F9000CF92DF92EF92FF920F931F932FB7F89467
:104FA000409118025091190260911A0270911B02EF
:104FB0002FBF6A017B01EE24FF248C0120E030E04A
:104FC000C016D106E206F30610F4415051099A01C9
:104FD000281B390BC9011F910F91FF90EF90DF90B3
:104FE000CF90089578941F920F920FB60F921124CC
:104FF0008F939F93AF93BF93809118029091190262
:10500000A0911A02B0911B020196A11DB11D8093BF
:10501000180290931902A0931A02B0931B02BF9139
:10502000AF919F918F910F900FBE0F901F90189589
:1050300087E797E790930108809300089AE088E15A
:105040000FB6F894A895809360000FBE909360000F
:10505000FFCF0E941E26811102C00E94C7260E9417
:1050600029268093F3010E94312690931D0280939C
:105070001C020E942D26682F70E080E090E00C94C6
:105080007923CF93C82F1F928F9388E997E09F933E
:105090008F930E94250881E090E0A0E0B0E0BC0181
:1050A000CD0104C0660F771F881F991FCA95D2F7DC
:1050B0000E9479230F900F900F900F90CF910C9436
:1050C0009E1FCF93DF938B3109F435C208F0CBC11B
:1050D0008B3009F4EEC108F0A1C1863009F4ECC1AF
:1050E00020F4853009F4FAC1A8C2873009F408C257
:1050F000883009F0A2C28EE09DE00E948C078FE507
:105100009CE00E948C070E942D261F928F938CE5B5
:105110009CE09F938F930E9425088AE59CE00E9463
:105120008C070E942926C82F87E49CE00E948C07E8
:105130001F92CF9382E49CE09F938F930E94250857
:1051400080E49CE00E948C0786E39CE00E948C0730
:105150008C2F81701F928F9383E39CE09F938F939A
:105160000E94250881E39CE00E948C0787E29CE076
:105170000E948C07C1FB882780F91F928F9384E2DD
:105180009CE09F938F930E94250882E29CE00E94FE
:105190008C0786E19CE00E948C07C2FB882780F97F
:1051A0001F928F9383E19CE09F938F930E94250829
:1051B00081E19CE00E948C0788E09CE00E948C07C3
:1051C000C3FBCC27C0F91F92CF9385E09CE09F934F
:1051D0008F930E94250883E09CE00E948C070E9428
:1051E0003126EC018FEE9BE00E948C07DF93CF937A
:1051F0008AEE9BE09F938F930E94250888EE9BE0A8
:105200000E948C078FEC9BE00E948C078C2F817092
:105210001F928F938CEC9BE09F938F930E942508A5
:105220008DB79EB780960FB6F8949EBF0FBE8DBF08
:105230008AEC9BE00E948C0783EB9BE00E948C072A
:10524000C1FB882780F91F928F9380EB9BE09F938F
:105250008F930E9425088EEA9BE00E948C078CE9C0
:105260009BE00E948C078D2F81701F928F9389E99C
:105270009BE09F938F930E94250887E99BE00E9403
:105280008C0785E89BE00E948C07D695D1701F9211
:10529000DF9382E89BE09F938F930E94250880E82C
:1052A0009BE00E948C078EE69BE00E948C07C2FB6D
:1052B000882780F91F928F938BE69BE09F938F93B3
:1052C0000E94250889E69BE00E948C0787E59BE009
:1052D0000E948C07C3FB882780F91F928F9384E577
:1052E0009BE09F938F930E94250882E59BE00E949C
:1052F0008C0788E49BE00E948C07C4FB882780F918
:105300001F928F9385E49BE09F938F930E942508C3
:1053100083E49BE00E948C0781E39BE00E948C0762
:10532000C5FB882780F91F928F938EE29BE09F93A5
:105330008F930E9425088CE29BE00E948C0780E1FD
:105340009BE00E948C07C6FB882780F91F928F93F1
:105350008DE09BE09F938F930E9425088DB79EB7A9
:1053600080960FB6F8949EBF0FBE8DBF8BE09BE07A
:105370000E948C0783E09BE00E948C07C7FBCC2730
:10538000C0F91F92CF9380E09BE09F938F930E9480
:1053900025088EEF9AE00E948C070E944F26C82FA6
:1053A00087EE9AE00E948C071F92CF9382EE9AE0DC
:1053B0009F938F930E94250880EE9AE00E948C07AD
:1053C00086ED9AE00E948C078C2F81701F928F933C
:1053D00083ED9AE09F938F930E94250881ED9AE0D8
:1053E0000E948C0788EC9AE00E948C07C695C695AF
:1053F000C6951F92CF9385EC9AE09F938F930E945E
:10540000250883EC9AE00E948C078DB79EB74096E2
:105410000FB6F8949EBF0FBE8DBF49C0803109F40E
:10542000B4C020F48E3009F49AC007C1863109F463
:10543000C7C0893109F001C186EF98E00E948C074E
:105440008DEC98E00E948C078AE998E00E948C0716
:1054500081E698E00E948C0784E398E00E948C0724
:1054600086E098E08FC08A32E1F060F4873209F478
:10547000E0C028F48E3108F4E0C08D51DBC08932E1
:1054800069F1DBC0833448F48A3308F0D0C0853337
:1054900009F4CFC0883369F0D0C0833409F4C9C09F
:1054A000CCC08DEF9CE00E948C070E94C726C1E013
:1054B000C9C080E299E066C08091F301817F8E7F50
:1054C0008093F30185E099E00E948C0789EF9CE0CE
:1054D0000E948C0781E08093F701E9CF0E949E1F14
:1054E0008DED9CE00E948C079FEF23ED80E39150AF
:1054F00020408040E1F700C000000E941828D7CF6C
:105500008091F301C82FC095C170C0FB80F98093D2
:10551000F301CC2329F081ED9CE00E948C0792C01E
:1055200084EC9CE00E948C078091F301897F877F47
:105530008093F301BCCF9091F30191FBCC27C0F98C
:1055400081E0C827892FC0FB81F98093F301CC2328
:1055500019F087EB9CE029C089EA9CE013C0909188
:10556000F30192FBCC27C0F981E0C827892FC0FB4B
:1055700082F98093F301CC2319F08AE99CE015C0ED
:105580008AE89CE00E948C0792CF9091F30193FBF4
:10559000CC27C0F981E0C827892FC0FB83F980930D
:1055A000F301CC2351F08EE79CE00E948C078091A0
:1055B000F30181608093F30145C081E79CE0E2CF75
:1055C00088EF97E00E948C070E94D9191F928F9351
:1055D0008EED97E09F938F930E94250880911C0188
:1055E0001F928F9387EC97E09F938F930E942508DB
:1055F000809104021F928F9384EB97E09F938F9387
:105600000E9425080E94BC279F938F937F936F93DE
:105610008DE997E09F938F930E9425088DB79EB7E1
:1056200042960FB6F8949EBF0FBE8DBF40CF8953F0
:1056300001C080E00E9441283ACF8FE69CE00E94A2
:105640008C07C0E08C2FDF91CF91089580E0089502
:1056500080E00895CF93C82F8091F701882319F037
:10566000813031F038C00E9453258232B1F504C038
:105670000E945325823261F48C2F0E94262B8111C7
:1056800004C08C2F0E94612824C081E090E021C0DA
:105690008C2F0E94282B81111BC0C43189F018F473
:1056A000CB3029F010C0C93259F0C83361F485E01D
:1056B00099E00E948C0784E997E00E948C0708C05B
:1056C0001092F7010CC082E997E00E948C0707C096
:1056D00081E0817006C01092F70180E002C080E096
:1056E000F8CFCF91089580910302089508959FB750
:1056F000F8941092FA019FBF90912202943009F021
:1057000057C09091E9009F703091EC00232F2170D9
:1057100030FD20E8922B23E02093E9002091EB005C
:1057200020FF43C02091EE0027FF3FC02091F801E9
:10573000222321F02091E80025FF37C01092F801C4
:1057400026E03091E80035FD15C03091220234305A
:1057500061F53091EB0035FD28C0215021F481E046
:105760008093F80122C0EFE9FFE03197F1F700C024
:105770000000E7CF8093F1008091E80085FD0AC02A
:105780008091E80080FFFCCF8091E8008E778093C5
:10579000E80006C08FB7F89421E02093FA018FBF8C
:1057A0009F709093E90080E008959F709093E900C6
:1057B0008FEF08950F931F93CF93DF9300D01F9225
:1057C000CDB7DEB78C010E94672E823011F0843095
:1057D00021F584E089831B830A8382E08093E900BA
:1057E0008FEF9091E800815095FD06C095ED9A9558
:1057F000F1F700008111F5CF8091E80085FF0DC021
:1058000040E050E063E070E0CE0101960E94842EFB
:105810008091E8008E778093E8000F900F900F90B2
:10582000DF91CF911F910F910895CF93DF9300D017
:105830001F92CDB7DEB720912202243031F523E04C
:105840002983805891099B838A8382E08093E900B1
:105850008FEF9091E800815095FD06C095ED9A95E7
:10586000F1F700008111F5CF8091E80085FF0DC0B0
:1058700040E050E063E070E0CE0101960E94842E8B
:105880008091E8008E778093E8000F900F900F9042
:10589000DF91CF910895CF93DF93EC010E94672EA3
:1058A000823011F0843039F581E08093E9008FEF88
:1058B0009091E800815095FD06C095ED9A95F1F71D
:1058C00000008111F5CF8091E80085FF14C040E011
:1058D00050E068E070E0CE010E94842E8091E800E4
:1058E0008E778093E80088E0FE01ABEFB1E0019095
:1058F0000D928A95E1F7DF91CF9108958EE39DE0B7
:105900000E948C0780912102811109C00E941930E8
:105910000E9476308091E20084608093E2000895D6
:105920008AE39DE00E948C0710922102089586E38D
:105930009DE00C948C0782E39DE00C948C078EE232
:105940009DE00E948C070C946B272091F9012F5F3A
:10595000822F62E30E942F33992319F02093F901DB
:1059600008951092F9018091FA01882371F18091D4
:105970002202843041F58091E9008F702091EC0083
:10598000922F917020FD90E8892B93E09093E9008D
:105990009091EB0090FF14C09091EE0097FF10C023
:1059A0009091E80095FF03C01092F100F9CF90911B
:1059B000E80090FF05C09091E8009E779093E80082
:1059C0008F708093E9001092FA01089542E061EC33
:1059D00081E00E94932F42E261EC82E00E94932FCB
:1059E00042E261EC83E00C94932F80912402833097
:1059F00009F460C030F4813071F0823009F499C04C
:105A000008958A3009F485C08B3009F46BC0893061
:105A100009F0A7C020C080912302813A09F0A1C0FB
:105A20008091E800877F8093E80080912702909121
:105A30002802892B21F468E08BEF91E003C060E03D
:105A400080E090E070E00E94CF2E8091E8008B779C
:105A50008093E800089580912302813209F081C08B
:105A60008091270290912802029708F07AC08091D5
:105A7000E800877F8093E8008091E80082FD05C000
:105A8000809122028111F8CF6CC02091F3008091A7
:105A9000F20090E0922B029729F48091F1008B7F25
:105AA000813021F48091F100809303028091E8001D
:105AB0008B7753C080912302813A09F052C08091C4
:105AC000270290912802892B09F04BC08091E800B1
:105AD000877F8093E8008091E80080FFFCCF809171
