:100000000C94CB040C9412050C9412050C9412055C
:100010000C9412050C9412050C9412050C94120504
:100020000C9412050C9412050C9463250C9435263F
:100030000C94D01F0C9412050C9412050C9412050C
:100040000C9412050C9412050C9412050C941205D4
:100050000C9412050C9438200C9412050C94120583
:100060000C9412050C9412050C9412050C941205B4
:100070000C9412050C9412050C9412050C941205A4
:100080000C9412050C9412050C9412050C94120594
:100090000C9412050C9412050C9412050C94120584
:1000A0000C9412050C9412050C94120529112C11B4
:1000B000341139113E11431148114D11521157118C
:1000C0005C1161116311661169116C116F1172116C
:1000D00074117911F715F715291629168C178C1735
:1000E0008C178C1776160B171C171C177C178C1780
:1000F0008C17851706180618181818180F181818CE
:10010000181818180618061814181818181814189B
:10011000A226C926C127C926C12715273827C127E6
:100120008F279E27446574746520657220656E2054
:10013000737472656E6700000044454255473A206B
:1001400064697361626C65642E0A004445425547D8
:100150003A20656E61626C65642E0A000000000042
:10016000000000002A2B2800000000000000000012
:100170000000000000000029000000002C1E3420B8
:10018000212224342627252E362D3738271E1F20DE
:100190002122232425263333362E37381F04050623
:1001A0000708090A0B0C0D0E0F1011121314151667
:1001B0001718191A1B1C1D2F3130232D3504050665
:1001C0000708090A0B0C0D0E0F1011121314151647
:1001D0001718191A1B1C1D2F3130354C0000000058
:1001E000000000000000000000000000000000000F
:1001F00000000000000000000000000000000000FF
:1002000000000000000000000000000000000000EE
:1002100000000000000000000000000000000000DE
:1002200000000000000000000000000000000000CE
:1002300000000000000000000000000000000000BE
:1002400000000000000000000000000000000000AE
:10025000000000000000000000000000000000009E
:10026000000000000000000000000000000000008E
:10027000000000000000000000000000000101017B
:100280000101010001010101000000000000000067
:100290000000000000000100010001010101010156
:1002A000010101010101010101010101010101013E
:1002B0000101010101010100000001010000000035
:1002C000000000000000000000000000000000002E
:1002D0000000000000000001010101000A002530BB
:1002E0003862003A200025303258000A722F63200D
:1002F00030313233343536370A007267626C6967E1
:1003000068742074696D65722064697361626C65DC
:100310002E0A007267626C696768742074696D6583
:100320007220656E61626C65642E0A007267626C91
:10033000696768742073657420687376205B4E4F1C
:10034000454550524F4D5D3A2025752C25752C257D
:10035000750A007267626C6967687420736574203F
:10036000687376205B454550524F4D5D3A202575A8
:100370002C25752C25750A007267626C6967687494
:10038000207261696E626F7720736574206873767E
:100390003A2025642C25642C25642C25750A0072CE
:1003A00067626C696768742064697361626C652058
:1003B0005B454550524F4D5D3A207267626C6967EC
:1003C00068745F636F6E6669672E656E61626C65E7
:1003D000203D2025750A007267626C696768742089
:1003E000656E61626C65205B4E4F454550524F4DC6
:1003F0005D3A207267626C696768745F636F6E66EE
:1004000069672E656E61626C65203D2025750A0066
:100410007267626C6967687420656E61626C6520E2
:100420005B454550524F4D5D3A207267626C69677B
:1004300068745F636F6E6669672E656E61626C6576
:10044000203D2025750A007267626C696768742018
:10045000746F67676C65205B454550524F4D5D3A40
:10046000207267626C696768745F636F6E66696744
:100470002E656E61626C65203D2025750A007267ED
:10048000626C69676874206D6F6465205B4E4F45D0
:100490004550524F4D5D3A2025750A007267626CD7
:1004A00069676874206D6F6465205B454550524FE5
:1004B0004D5D3A2025750A007267626C6967687441
:1004C0005F696E6974207267626C696768745F63E4
:1004D0006F6E6669672E6D6F6465203D20302E203B
:1004E00057726974652064656661756C7420766105
:1004F0006C75657320746F20454550524F4D2E0A20
:10050000007267626C696768745F696E6974206500
:1005100065636F6E666967206973206E6F7420650E
:100520006E61626C65642E0A007267626C6967684E
:10053000745F696E6974207374617274210A007249
:1005400067626C696768745F696E69742063616C67
:100550006C65642E0A007267626C696768745F6319
:100560006F6E6669672E7370656564203D20256433
:100570000A007267626C696768745F636F6E6669B0
:10058000672E76616C203D2025640A007267626CDC
:10059000696768745F636F6E6669672E7361742044
:1005A0003D2025640A007267626C696768745F6346
:1005B0006F6E6669672E687565203D2025640A00A8
:1005C0007267686C696768745F636F6E6669672ECF
:1005D0006D6F6465203D2025640A007267626C6956
:1005E0006768745F636F6E6669672E656E61626CC3
:1005F00065203D2025640A007267626C6967687433
:100600005F636F6E66696720454550524F4D3A0AE9
:100610000000047F3F1F643214643214783C1E1EB5
:10062000140A052223252628292A2C2D2F3032337F
:100630003536383A3B3D3E4042434547494A4C4EA9
:100640005051535557595A5C5E6062646668696BD5
:100650006D6F71737577797B7D7F81838587898ADB
:100660008C8E90929496989A9C9E9FA1A3A5A7A8E1
:10067000AAACAEAFB1B3B4B6B8B9BBBCBEBFC1C211
:10068000C3C5C6C7C9CACBCCCDCED0D1D2D2D3D4A4
:10069000D5D6D7D7D8D9D9DADADBDBDBDCDCDCDCC2
:1006A000DCDDDDDDDDDCDCDCDCDCDBDBDBDADAD990
:1006B000D9D8D7D7D6D5D4D3D2D2D1D0CECDCCCB12
:1006C000CAC9C7C6C5C3C2C1BFBEBCBBB9B8B6B430
:1006D000B3B1AFAEACAAA8A7A5A3A19F9E9C9A98C0
:1006E000969492908E8C8A89878583817F7D7B7991
:1006F000777573716F6D6B6968666462605E5C5A72
:100700005957555351504E4C4A4947454342403E34
:100710003D3B3A3836353332302F2D2C2A292826C6
:10072000252322FFAA7F554000010101010101019B
:100730000101020202020202020202030303030396
:100740000303030404040404040405050505050665
:100750000606060607070707070808080809090923
:10076000090A0A0A0B0B0B0C0C0C0D0D0D0E0E0ECC
:100770000F0F0F101011111112121313141415155D
:1007800016161717181819191A1A1B1B1C1D1D1ECF
:100790001E1F202021222223242425262627282923
:1007A000292A2B2C2D2D2E2F303132323334353651
:1007B0003738393A3B3C3D3E3F4041424344454651
:1007C0004748494A4C4D4E4F50515354555658592D
:1007D0005A5B5D5E5F616264656668696B6C6D6FD4
:1007E0007072737577787A7B7D7E80828385878847
:1007F0008A8C8E8F91939596989A9C9EA0A2A3A581
:10080000A7A9ABADAFB1B3B5B7BABCBEC0C2C4C681
:10081000C9CBCDCFD1D4D6D8DBDDDFE2E4E7E9EB3D
:10082000EEF0F3F5F8FAFDFF0A002530325820000B
:100830006B6579626F6172645F7265706F72743A32
:1008400020000A0025303258006B6579626F6172B2
:10085000645F7365745F6C65643A20000A092D203B
:10086000436F6E736F6C65202D0A4553432F713AA9
:1008700009717569740A003F00433E20005B735D97
:10088000004B6579626F6172642073746172742EBB
:100890000A005B575D005B535D005B525D005B448B
:1008A0005D005B435D000403300000001C03420058
:1008B00069006700530077006900740063006800F6
:1008C00020005000430042000000100366006C004E
:1008D0006500680072006100640000000403090400
:1008E00009024200020100A0FA090400000103010C
:1008F00001000921110100012240000705810308C0
:10090000000A09040100020300000009211101008E
:1009100001222200070582032000010705020320AF
:1009200000011201100100000008091295B1010038
:10093000010203010631FF0974A1010975150026A2
:10094000FF009520750881020976150026FF0095A5
:100950002075089102C005010906A101050719E0EB
:1009600029E7150025019508750181029501750893
:1009700081010507190029FF150026FF009506755E
:100980000881000508190129059505750191029551
:100990000175039101C011241FBECFEFDAE0DEBF65
:1009A000CDBF04B603FE27C080915D0290915E0228
:1009B000A0915F02B09160028730904BA740B04B8E
:1009C000D1F410925D0210925E0210925F021092BA
:1009D000600214BE84B7877F84BF0FB6F894A895D1
:1009E00080916000886180936000109260000FBE6B
:1009F000E0E0F8E3099511E0A0E0B1E0EAE0F1E51C
:100A000002C005900D92A63AB107D9F722E0A6EAF6
:100A1000B1E001C01D92AD35B207E1F70E94862218
:100A20000C9483280C940000FF93EF93E091A601AF
:100A3000F091A701309709F00995EF91FF91089582
:100A4000FC018591803011F0EFDFFBCF0895FF2787
:100A5000E0E230E247FF0CC0419597FF09C0EDE2AC
:100A60006095709580959095611D711D811D911DFA
:100A700027FF02C0219530E350E2AA27660F771FB7
:100A8000881F991FAA1FA41710F0A41B63955A95DD
:100A9000A9F7AA3008F0A95FA05DAF93F39561159F
:100AA00071058105910541F7ED3211F4EF93F3954E
:100AB000F21718F43F93F395FBCF8F91B5DFFA95BA
:100AC000E1F70895E991F9918591803021F085321F
:100AD00019F0AADFF9CF089520E0E8945591553236
:100AE000C1F3503311F4689455915A3348F450537C
:100AF00090F3220F022E220F220F200D250FF4CF8C
:100B00000EF4219589919991533619F3533729F1B0
:100B1000533559F1BC0188279927E8945C3621F4B4
:100B20008991999168945591543639F446EF7EF045
:100B300077FF0DC08FEF9FEF0AC055374AE039F0BD
:100B4000583540E121F0523642E009F00895FF9314
:100B5000EF937DDFEF91FF91B7CFFF93EF93FC0110
:100B600081918030B9F360DFFBCFFF93EF9368DFB3
:100B7000F1CFDF93CF93CDB7DEB72596A3DFCF912B
:100B8000DF9108950E9402209093A9018093A8010B
:100B90000895809100018823A9F08091A801909187
:100BA000A9010E940E20893E934060F0109200013E
:100BB00040E86FEF80E00E94300D89E00E94900FC6
:100BC0000C94F80F0895892B49F4FB018281882346
:100BD00029F069E184E291E00E945B0681E00895DA
:100BE00081E008950C94E3051F93CF93DF9300D029
:100BF00000D01F92CDB7DEB749835A836B83209113
:100C0000C70189819A81211112C0662349F00E948F
:100C1000501D182F682F89819A810E94FF1C03C0E4
:100C20000E94271D182F69817A81812F04C00E949C
:100C3000501D69817A810F900F900F900F900F9047
:100C4000DF91CF911F910C942707FC0140815181C6
:100C50006281738184810C94F4051F93CF93DF9399
:100C600090E0FC01E45AFE4F1491FC01E45AFD4F60
:100C7000D491FC01E452FE4FC491DD2319F081EEC2
:100C80000E943815CC2319F086EE0E943815812F6A
:100C90000E94A415CC2319F086EE0E947815DD235E
:100CA00031F081EEDF91CF911F910C947815DF9197
:100CB000CF911F9108950F931F93CF93DF93EC0172
:100CC000062FFE018491882359F19E012F5F3F4F2B
:100CD000813041F4E901F9011491812F0E94381506
:100CE000812F0DC0823031F4E901F90184910E9415
:100CF00038150AC0833031F4E901F90184910E946A
:100D0000781502C00E942D062196802F8823C9F2F3
:100D1000EFE9FFE03197F1F700C000008150F6CF16
:100D2000DF91CF911F910F9108950E94991E81111B
:100D300002C00E94391F0C9456090C94540908955E
:100D40000C949F0681E008950C94A206CF93C82FBF
:100D50000E94A0068C2F0E94A406CF9108950895AA
:100D60000E94F4170E94AF062FEF84E39CE021500D
:100D700080409040E1F700C0000087E797E790933C
:100D80000108809300080C945E200F931F93CF936B
:100D9000DF93EC010E9425068C01BE010E94F20542
:100DA000882309F449C0BE01C8010E942C1288237F
:100DB00009F442C0BE01C8010E946D128823E1F10E
:100DC000BE01C8010E9498138823B1F1BE01C80179
:100DD0000E941211882381F18A81882331F1013028
:100DE0008CE5180751F00E3D8CE51807D9F0011578
:100DF0001C45D9F40E94B0061FC080911A02C82F6A
:100E0000C095C170C0FB80F980931A02CC2329F0F1
:100E10008BE491E00E9420050FC089E391E00E94DD
:100E200020050BC00E94391F07C0CE01DF91CF9172
:100E30001F910F910C94F005C0E08C2FDF91CF91A2
:100E40001F910F91089580E090E008950895972FE5
:100E500070E0690F711DFB01E80FF11DEE0FFF1F20
:100E6000E95CFE4F859194910895880F991FFC01CC
:100E7000E452FD4F859194910895CF93DF930E94A2
:100E800027070E944F08EC018115904508F043C0E8
:100E9000C11580E4D80708F0CBC0C03ED10528F5C5
:100EA000C03CD10508F0B3C0C83AD10578F4C53AC2
:100EB000D10508F0A4C0C130D10509F4ECC008F494
:100EC000E8C0C430D10508F0E6C0E3C0CF3BD1058F
:100ED00008F0DFC0C85AD0E0CC0FDD1FC25EDE4F85
:100EE0000990D881C02DD464D6C0C11590E2D9072D
:100EF00050F4C11521E0D20708F0CDC0C83ED1059D
:100F000008F4C9C0C6C0C11580E3D80708F086C080
:100F1000CE019F707FC0C11595E5D90708F043C089
:100F2000C11524E5D20708F09AC0C11582E5D8079B
:100F300008F5C11591E5D90708F07DC0CE0174E030
:100F4000969587957A95E1F783709C2F937021E0B1
:100F500030E002C0220F331F9A95E2F73C68382B2D
:100F6000CF70C695C69580E2C89FE0011124C22BC0
:100F7000D32B91C09E01237033278C2F86958695A5
:100F8000C115D34508F05CC0C1E0D0E002C0CC0F71
:100F9000DD1F2A95E2F720E2829FC0011124C82BB1
:100FA000D92BDC6878C0C11529E5D207A0F4C1159A
:100FB00088E5D80708F058C0C11596E5D90708F0AC
:100FC00068C08C2F0E94E3088F71C82FD0E0DC2FFF
:100FD000CC27D06260C0C1152AE5D20708F449C009
:100FE000CE0190568115904208F053C08D2F8F711D
:100FF0000E94E308DD27D0628F71D82B4CC0C55A00
:10100000D0E0C45BDE4FC881D0E0D06444C0CE01E4
:10101000805C91090E943507EC013DC0CE01992703
:10102000D3FF03C0EC01D86C36C0EC01D06C33C0E8
:10103000DF70D06A30C0DC2FCC27C16FD06A2BC0E4
:10104000C1E0D0E002C0CC0FDD1F2A95E2F720E21C
:10105000829FC0011124C82BD92BDA681CC0DC2F59
:10106000CC27C46FD06A17C0DC2FCC27C06FD06AE2
:1010700012C08C2F8F700E94E30894E0D695C7951C
:101080009A95E1F7CF70D0E0DC2FCC27D069C82B40
:1010900002C0C0E0D0E0CE01DF91CF910895823848
:1010A000910569F1B0F48133910509F46DC048F4FC
:1010B0008932910509F463C08A32910509F469C047
:1010C00008958533910509F455C089339105B9F028
:1010D0000895833E910569F138F4803E9105B1F0A1
:1010E000823E910509F10895863E9105A9F1873E5A
:1010F0009105B9F1843E910509F064C023C02091A7
:101100004E0220FD4FC021FD4DC0089580914E023A
:1011100080FD44C080914F0280FF44C080914E0208
:1011200084FD42C083EE4DC080914E0282FF38C0E4
:10113000F5CF80914E0282FD33C080914F0280FD39
:1011400031C0ECCF80914F0281FF32C080914E02BE
:1011500084FD2AC087EE35C080914E0283FF26C0F1
:10116000F5CF80914E0283FD21C080914F0281FD19
:101170001FC0ECCF80914E0285FD1CC01DC0809128
:101180004E0285FD19C016C080914E0286FD16C024
:1011900017C080914E0286FD13C010C089E311C0B4
:1011A00082EE0FC080EE0DC080E00BC086EE09C05D
:1011B00084EE07C089E205C085E303C08AE201C06E
:1011C00081E390E0089590914E0292FF0DC0282F88
:1011D0002871283019F4877F846006C0282F247175
:1011E000243011F48B7F886093FF0DC0282F287165
:1011F000283119F4877E846106C0282F2471243198
:1012000011F48B7E886120914F0220FF0DC0382F92
:101210003871383019F4877F816006C0382F3171FA
:10122000313011F48E7F886021FF0DC0282F287186
:10123000283119F4877E816106C0282F2171213160
:1012400011F48E7E886194FD877E0895E82FF0E08A
:10125000E45DFD4F808108958BEE92E00E942005B1
:101260001F921F9286EE92E09F938F930E94B90582
:1012700083EE92E00E94200580912C020E94871E3E
:101280001F928F938EED92E09F938F930E94B905EA
:101290008DB79EB708960FB6F8949EBF0FBE8DBF50
:1012A0008CED92E00C9420050C94C9050C94C205B9
:1012B00026982E9A25982D9A10922B0210922C0285
:1012C00081E00E948A090C949506CF93269A2E9865
:1012D00080EA8A95F1F780912B02982F1D9902C020
:1012E000916001C09E7F90932B02C1E090912B02F0
:1012F000981301C0C0E026982E9A2C2F41E06CE292
:1013000072E08BE292E00E948B090E949D068C2F76
:10131000CF9108950895FF920F931F93CF93DF937A
:101320008C01F62ED72FC42F222349F081E0809321
:10133000AC010E9402209093AB018093AA0180919E
:10134000AC018823C1F08091AA019091AB010E9469
:101350000E20C39780F0EF2DFD2FD8014C2F50E0C9
:10136000CD01801B910B841795071CF48D918193FF
:10137000F7CF1092AC01DF91CF911F910F91FF90A9
:101380000895EF92FF920F931F93CF93DF93F62E62
:10139000472FE82FF0E0711106C0E85DF84F649127
:1013A000762F862F72C0272F30E0E85DF84FE4914A
:1013B0000E2F10E056E0659FC0011124CFEFD0E062
:1013C000BE010E9400285BEA5603C001579F900DA2
:1013D00011248F0D911D8F0D911D982F990F890F3D
:1013E0007E01E21AF30AE09ED001E19EB00DF09E6C
:1013F000B00D1124489FA0011124452F55277E01CF
:10140000E41AF50AE09EA001E19E500DF09E500DF9
:1014100011247E01E81AF108E29EC001E39E900DBE
:10142000F29E900D1124892F9927C81BD90BC09FBC
:10143000C001C19F900DD09F900D112462307105A5
:1014400091F048F461157105E1F061307105A9F47E
:101450008B2F752F19C06430710561F038F066303C
:10146000710579F00AC0892F7B2F0EC08E2F7B2F3C
:10147000E52F0AC08E2F792F02C0852F7E2FEB2FEC
:1014800003C08B2F7E2FE92F6E2FDF91CF911F91FD
:101490000F91FF90EF9008950895CF93DF93762FEB
:1014A000E901682F842F0E94C109798368838A83A8
:1014B000DF91CF91089580912D02282F269530E05D
:1014C0002115310519F48170826005C0253231057E
:1014D00024F08170886480932D02089588E090E064
:1014E0000C944328CF92DF92EF92FF926B017C0124
:1014F0000E945B0AB701A60188E090E0FF90EF90A0
:10150000DF90CF900C946128EDE2F2E083E08083DD
:1015100011828FEF82838383148260817181828143
:1015200093810C94720A80911A0280FF08C088EFA0
:1015300095E09F938F930E94B9050F900F90809133
:101540001A0280FF0FC080912D0281701F928F932D
:101550008BED95E09F938F930E94B9050F900F90AC
:101560000F900F9080911A0280FF0FC080912D0282
:1015700086951F928F9380EC95E09F938F930E94A6
:10158000B9050F900F900F900F9080911A0280FF75
:101590000EC080912E021F928F9386EA95E09F9352
:1015A0008F930E94B9050F900F900F900F9080912C
:1015B0001A0280FF0EC080912F021F928F938CE839
:1015C00095E09F938F930E94B9050F900F900F9015
:1015D0000F9080911A0280FF0EC0809130021F92FE
:1015E0008F9382E795E09F938F930E94B9050F90A8
:1015F0000F900F900F9080911A0280FF0EC0809183
:1016000031021F928F9386E595E09F938F930E94FE
:10161000B9050F900F900F900F90089580912D02B3
:1016200080FF02C08695089580E008958091310280
:10163000833018F48F5F8093310260912D02709196
:101640002E0280912F02909130020C94720A8091A8
:101650003102882319F081508093310260912D026C
:1016600070912E0280912F02909130020C94720A98
:101670006091050170E080912D0280FF0AC0809189
:10168000B10123E0829FC00111248E5C9D4F0C9418
:10169000B5118091B00190910401891780F7E82F6E
:1016A000F0E09F01220F331FE20FF31FEE5CFD4FAE
:1016B0001182108212828F5FF0CF90912D0290FFE5
:1016C00016C09091B00120910401921770F4E92F97
:1016D000F0E0DF01AA0FBB1FEA0FFB1FEE5CFD4F1E
:1016E0008183608342839F5FF0CF0C94380B089511
:1016F000CF93DF9300D01F92CDB7DEB790912D022C
:1017000090FF0AC09E012F5F3F4F0E944D0A4B8100
:1017100069818A810E945D0B0F900F900F90DF917D
:10172000CF910895CF93DF93EC01EC81F0E0ED5D74
:10173000F94F4491EDE2F2E0628181810E94780BE1
:101740008C818F5F8C83DF91CF910895CF93DF934E
:10175000EC01EDE2F2E0438162818C810E94780B22
:101760008C818F5F8C83DF91CF9108950F931F93AE
:10177000CF93DF9300D01F92CDB7DEB78C0180915D
:10178000AD0181110AC09E012F5F3F4F4FEF6FEFF8
:101790000E944D0A8A818093AD01F80184818130D5
:1017A00051F028F0823061F44091AD010AC080917F
:1017B000AD0140E007C06091AD0140E080E003C0B2
:1017C00040E080E060E00E945D0BF801848190E0E1
:1017D000019663E070E00E94142884830F900F90BC
:1017E0000F90DF91CF911F910F9108954F925F92CB
:1017F0006F927F928F929F92AF92BF92CF92DF9221
:10180000EF92FF920F931F93CF93DF9300D01F921D
:10181000CDB7DEB7F82EB62EE42E622E90912D02B3
:1018200090FFB4C0E92FE695AE2FB0E0A15BBE4FAC
:101830008C918093B9019E7F923061F49E012F5F5D
:101840003F4F8F2D0E944D0A4B8169818A810E94F2
:101850005D0B62C0823019F4E09030025DC08630CA
:1018600019F4F0902E0258C08930D9F3893109F06B
:1018700053C0E9518E2F8170782E81E0A72CA826C5
:10188000E695F0E0ED5DF84FC590D490412CDD2455
:1018900098E7892E93E0992E609103014616D0F5C2
:1018A000042D10E00C9DC0010D9D900D1C9D900D10
:1018B000112470E00E9400285F2C711002C0560EA7
:1018C00001C0561A80911A0280FF11C0DF92CF9298
:1018D0001F92AF921F925F921F924F929F928F9290
:1018E0000E94B9050FB6F894DEBF0FBECDBF809140
:1018F000B001080F111D9801220F331F020F131F93
:1019000098012E5C3D4F4E2D6B2D852D0E944D0A6A
:101910004394C2CF0E94380BF0922E02B0922F0255
:10192000E09230026620E9F060912D0270912E0263
:1019300080912F02909130020E94720A80911A02C7
:1019400080FF24C0809130021F928F9380912F02DC
:101950001F928F9380912E021F928F9383E593E0C5
:101960000CC080911A0280FF11C01F92EF921F924B
:10197000BF921F92FF928CE293E09F938F930E94FD
:10198000B9050FB6F894DEBF0FBECDBF0F900F9014
:101990000F90DF91CF911F910F91FF90EF90DF900B
:1019A000CF90BF90AF909F908F907F906F905F90FF
:1019B0004F900895EDE2F2E09181282F43816281FA
:1019C00088E0890F0C94F60B81E00C94DA0CEDE2C0
:1019D000F2E09181282F4381628188EF890F0C9476
:1019E000F60B81E00C94E70CEDE2F2E0628121E17C
:1019F000620F08F46FEF282F438181810C94F60B5E
:101A000081E00C94F40CEDE2F2E0628121E1621BD2
:101A100008F460E0282F438181810C94F60B81E06B
:101A20000C94030DEDE2F2E0438121E1420F08F452
:101A30004FEF282F628181810C94F60B81E00C948A
:101A4000120DEDE2F2E0438121E1421B08F440E097
:101A5000282F628181810C94F60B81E00C94210D7A
:101A600020E00C94F60BFF920F931F93CF93DF931C
:101A7000EC01F12C0FEF10E060910301F616F0F489
:101A80008091B0012F2D30E0280F311DC901880F42
:101A9000991F280F391F2E5C3D4F70E0C8010E942E
:101AA0001428962F8C814091300260912F02F99E6C
:101AB000800D11240E944D0AF394DECF0E94380B52
:101AC0009A818C8190FF02C08F5F01C081508C830E
:101AD000DF91CF911F910F91FF900895BF92CF9208
:101AE000DF92EF92FF920F931F93CF93DF93FC014E
:101AF000828180FF02C00FEF01C001E010E0809101
:101B00000301181708F040C08091B001C12ED12CFC
:101B1000E601C80FD11DCE01880F991FC80FD91F2C
:101B2000CE5CDD4F198218821A8234E0E32EF12C4C
:101B3000B12C8091AF018B0D893014F0877005C0F6
:101B400087FF03C090910301890F082E000C990BA9
:101B5000C816D90691F4809130028E9DA0018F9D08
:101B6000500D112455954795559547959E016091C7
:101B70002F0280912E020E944D0AB00EF1E0EF1A62
:101B8000F108B9F61F5FBBCF0E94380B8091AF01FF
:101B9000013031F4811102C080910301815007C0EE
:101BA00090E001966091030170E00E9414288093F8
:101BB000AF01DF91CF911F910F91FF90EF90DF90D8
:101BC000CF90BF900895CF938091B0019091040180
:101BD000891770F4E82FF0E09F01220F331FE20F06
:101BE000F31FEE5CFD4F1182108212828F5FF0CFE7
:101BF000C0E060910301C617C0F5EC2FF0E070E083
:101C0000CF010E9414282091B001820F2091AE01D3
:101C1000022E000C330B90E0E217F307CCF020917A
:101C20000201022E000C330B2E173F078CF09C0193
:101C3000220F331F820F931F9C012E5C3D4F40915A
:101C4000300260912F0280912E020E944D0A0BC03B
:101C5000FC01EE0FFF1F8E0F9F1FFC01EE5CFD4F7E
:101C6000118210821282CF5FC4CF0E94380B209164
:101C700001018091AE01820F8093AE01909102012B
:101C8000920F9093020119165CF4082E000C990B28
:101C90004091030150E041505109841795071CF011
:101CA000219520930101CF9108950F931F93CF9316
:101CB000DF938C01FC0184819581019681709927C5
:101CC00095838483C0E0D5E580910301C81700F5B2
:101CD0008091B0012C2F30E0280F311DC901880FF1
:101CE000991F280F391F2E5C3D4F4C2F4695F80148
:101CF00084819581840F911D8170409130026091A3
:101D00002F028D9F802D11240E944D0ACF5FDCCFC2
:101D1000DF91CF911F910F910C94380B0F931F936C
:101D2000CF93DF93EC0100E010E080910301282FB6
:101D300030E00217130724F59091B0019801290FA4
:101D4000311DA901440F551F240F351F2E5C3D4F37
:101D5000869590E04C81081719071CF4442331F054
:101D600002C0411103C04091300201C040E06091C7
:101D70002F0280912E020E944D0A0F5F1F4FD5CF78
:101D80000E94380B8C8190E00196817099278C839A
:101D9000DF91CF911F910F91089560912D0266956B
:101DA00070E04BE050E086E091E00E942E28892B05
:101DB00019F481E08093BA010E9402209093B3014C
:101DC0008093B20180911A0280FF08C083E193E002
:101DD0009F938F930E94B9050F900F9008951092D2
:101DE000BA0180911A0280FF08C08AEF92E09F93A7
:101DF0008F930E94B9050F900F90089590912D0236
:101E000090FF54C09170811102C0926006C085326B
:101E100010F0986402C0880F982B90932D026623CF
:101E2000B1F060912D0270912E0280912F0290915D
:101E300030020E94720A80911A0280FF1BC08091BA
:101E40002D0286951F928F938CE994E00BC08091B0
:101E50001A0280FF0FC080912D0286951F928F93EA
:101E60008EE794E09F938F930E94B9050F900F9097
:101E70000F900F9060912D02669570E04BE050E05E
:101E800086E091E00E942E28892B19F00E94EF0E27
:101E900002C00E94CD0E81E08093B50140913002D6
:101EA00060912F0280912E020C94300D0895682FBE
:101EB00090912D02969581E0890F853208F081E09E
:101EC0000C94FE0E81E00C94570F682F90912D0218
:101ED00096958FEF890F09F484E20C94FE0E81E051
:101EE0000C94650F61E00C94FE0E80912D028160D0
:101EF00080932D0280911A0280FF0DC01F9281E015
:101F00008F9380E194E09F938F930E94B9050F9087
:101F10000F900F900F9080912D0286950C94720F68
:101F200060E00C94FE0E8091B801811160C0809138
:101F30001A0280FF08C08FE395E09F938F930E9461
:101F4000B9050F900F9080911A0280FF08C089E2B6
:101F500095E09F938F930E94B9050F900F900E9478
:101F6000991E811110C080911A0280FF08C081E083
:101F700095E09F938F930E94B9050F900F900E9458
:101F8000391F0E94840A0E946E0A60932D0270938A
:101F90002E0280932F02909330026E7FC1F48091C5
:101FA0001A0280FF08C088EB94E09F938F930E94F1
:101FB000B9050F900F900E94840A0E946E0A6093E8
:101FC0002D0270932E0280932F02909330020E9474
:101FD0005B0A0E94930A1092BA0180912D0280FF41
:101FE00003C086950E94900F81E08093B801089508
:101FF00080912D02816080932D0280911A0280FFD2
:102000000DC01F9281E08F9387ED93E09F938F9394
:102010000E94B9050F900F900F900F9080912D02A4
:1020200086950C94900F80912D028E7F80932D02C7
:1020300060912D0270912E0280912F0290913002BA
:102040000E94720A80911A0280FF0FC080912D02B7
:1020500081701F928F938FE993E09F938F930E94DB
:10206000B9050F900F900F900F900E94EF0E2FEF79
:1020700080E792E0215080409040E1F700C00000EE
:102080000C94380B80911A0280FF10C080912D02B1
:10209000809581701F928F9387E494E09F938F9334
:1020A0000E94B9050F900F900F900F9080912D0214
:1020B00080FD0C9413100C94750F0F931F93CF9306
:1020C000DF938091BA01882309F48CC08091B90113
:1020D000E0912D02E695E81BE093B401823049F4CB
:1020E000F0E0E15EF94FE491CE2FD0E002E91BE091
:1020F00049C0863049F4F0E0E45EF94FE491CE2F18
:10210000D0E006EA1BE03EC0893051F4E695F0E0ED
:10211000E75EF94FE491CE2FD0E003E31DE032C03B
:102120008F3051F4E695F0E0EA5EF94FE491CE2F5E
:10213000D0E00EE61DE026C0853149F4F0E0ED5E0A
:10214000F94FE491CE2FD0E003EE1DE01BC08831A3
:1021500081F0833239F4E1E1F6E0C591D49106EBE8
:102160001BE010C0843251F4C4EFD1E00EE81EE051
:1021700009C0C8EED3E005E51EE004C0C0EDD7E01D
:102180000CE41AE08091B501882389F01092B50122
:102190000E9402209E0120953095820F931F9093FC
:1021A000B3018093B2011092B7011092B6018091F1
:1021B000B2019091B3010E940E208C179D0790F000
:1021C000E091B201F091B301CE0FDF1FD093B301C4
:1021D000C093B20182EB91E0F801DF91CF911F91A2
:1021E0000F910994DF91CF911F910F91089588234A
:1021F00011F0FA0101C0FB010994CF93DF93C82FBE
:10220000D62F0E940E0B8C1740F00E940E0B8D17DC
:1022100020F4DF91CF910C94620F8C2FDF91CF913E
:102220000C94720F0F931F93CF93FB01C281CC23A9
:1022300009F463C08C010E94D11D8272F801E25C36
:10224000FC45E431F10508F059C0EA5AFF4F0C94FF
:1022500028280E94421006C04FE65FE062E67FE059
:102260000E94F710C0E04AC042E65FE06FE67FE000
:10227000F7CF41EF5CE064EE7CE0F2CF44EE5CE04F
:1022800061EF7CE0EDCF4FE05DE060E07DE0E8CF26
:1022900040E05DE06FE07DE0E3CF4DE25DE06EE1C8
:1022A0007DE0DECF4EE15DE06DE27DE0D9CF47E23B
:1022B0005BE066E17BE0D4CF46E15BE067E27BE098
:1022C000CFCF81E017C065E082E010C068E086E013
:1022D0000DC06EE089E00AC064E18FE007C067E1ED
:1022E00085E104C088E106C062E289E10E94FD1038
:1022F000B9CF83E20E94720FB5CFC1E08C2FCF918E
:102300001F910F9108952BB1342F309523233BB1AA
:10231000432B3FB7F894FC01680F791FE617F707C6
:1023200089F0819198E04BB9000000C087FF2BB97C
:10233000880F000000C000C000C02BB900C09A95F3
:1023400091F7ECCF3FBF08952AB1242B2AB99B0106
:10235000220F331F620F731F0E94831187EC90E0DE
:102360000197F1F700C00000089548E00C94A41113
:102370000F931F93CF93DF93C62FD42F122FFC01FF
:1023800082818823C9F06093BD010E94022090934E
:10239000BC018093BB0180E28C0F883008F057C0ED
:1023A000C77081E001C0880FCA95EAF7DF91CF912D
:1023B0001F910F910C94B7158091BD01681330C027
:1023C0008091BB019091BC010E940E20883C910538
:1023D00038F500E20D0FCD17B9F080E28C0F883090
:1023E00040F4C77081E001C0880FCA95EAF70E94E7
:1023F000BE15083028F581E09D2F977001C0880F29
:102400009A95EAF70E94B715812F0E94A41508300B
:10241000F0F4D77081E001C0880FDA95EAF70AC0BE
:1024200080E28C0F883098F4C77081E001C0880F7B
:10243000CA95EAF7DF91CF911F910F910C94BE15C9
:10244000812FDF91CF911F910F910C94A415DF91F3
:10245000CF911F910F9108959C01CB01233F4CE533
:102460003407F9F078F4283DFCE53F07B9F0293D41
:102470004CE5340711F1273D3C4531F526E241EEAC
:1024800061EE1EC0253FFCE53F0799F070F0263F46
:102490003C45D1F427E245EE66EE12C027E245EE58
:1024A0000EC026E241EE60EE0BC027E245EE64EE80
:1024B00007C026E241EE62EE03C028E241E065EE8D
:1024C0000E94B81180E00895FC018281882319F0F0
:1024D0001092BD01089581E00895CF93DF93EC0140
:1024E000FB018281882309F41FC1C230FCE5DF07AC
:1024F00008F41BC1C6319CE5D90738F09E012A5F5C
:102500003C452930310508F010C10E94AC1E909363
:102510004F0280934E02C031ECE5DE0709F4C3C0E0
:1025200008F041C0C8308CE5D80709F49AC0F0F42F
:10253000C430ECE5DE0709F487C068F4C2308CE5EE
:10254000D80709F477C0C330DC4509F0E3C08091B7
:102550004E02826076C0C630ECE5DE0709F46EC03C
:1025600008F07BC080914E0288606BC0CC308CE557
:10257000D80709F485C068F4CA30ECE5DE0709F431
:1025800074C008F079C00E94F41780914E028068F0
:1025900058C0CE308CE5D80709F476C008F07FC06B
:1025A00080914E028BC0CB3FECE5DE0709F44FC0B3
:1025B00018F5C3318CE5D80709F47DC078F4C13132
:1025C000ECE5DE0709F473C0C231DC4509F0A2C0B6
:1025D0000E94F41780914E028F7733C0C5318CE58D
:1025E000D80709F472C008F486C0CA3FDC4509F078
:1025F00091C080914F023EC0CF3FFCE5DF0709F458
:102600005FC058F4CD3F9CE5D90709F444C008F4F5
:102610003FC080914F0282602DC0C130FDE5DF07D1
:1026200009F475C008F45DC0C230DD4509F072C020
:1026300080E06EC080914E02816003C080914E02A6
:10264000806180934E0266C080914E0211C08091DD
:102650004F02826080934F025DC080914E02806283
:10266000F0CF80914E028064ECCF80914E02886062
:102670008460E7CF8160EECF80914E028E7FE1CF04
:1026800080914E028D7FDDCF80914E02877FD9CF22
:1026900080914F0218C080914F028D7FDBCF8091D7
:1026A0004E028F7ECECF80914E028F7DCACF809119
:1026B0004E028F7BC6CF80914E02877F8B7FC1CF2A
:1026C00080914F028D7F8E7FC5CF80914E0282FB1D
:1026D000222720F991E0922790FB82F990FB83F961
:1026E000B0CF80914F02982F909591708E7F892B5B
:1026F00090FB81F9AFCF0E94F41780914E0287FBC7
:10270000222720F991E0922790FB87F99ACF81E068
:102710000E943B1F80914E0290914F020E94BD1E6D
:102720000E94F41780E001C081E0DF91CF9108950D
:10273000CF93DF9386319C4541F5EB010E94D11D7B
:10274000982F8A812091110130911201882379F00C
:102750009A7A81E009F480E08093BE01911102C071
:1027600069E201C065E3C9010E94731F0AC080913C
:10277000BE01811102C069E201C065E3C9010E9486
:10278000751F0E941F1E80E001C081E0DF91CF9184
:1027900008959093C4018093C3010895E091C3010B
:1027A000F091C401309721F00190F081E02D09945F
:1027B00080E00895EF92FF920F931F93CF93DF93E2
:1027C000E091C301F091C4013097B1F18C01028016
:1027D000F381E02D099580911A0282FF2DC080FFC0
:1027E00004C080E398E00E942005E80118E08AE236
:1027F000E82E88E0F82E80911A0280FF0BC08881B5
:102800001F928F93FF92EF920E94B9050F900F9045
:102810000F900F90115021961111EDCF80911A0257
:1028200080FF0AC088E298E0DF91CF911F910F915D
:10283000FF90EF900C942005DF91CF911F910F91A5
:10284000FF90EF9008952091C1013091C2012817A7
:10285000390771F09093C2018093C101E091C301E7
:10286000F091C401309721F00680F781E02D0994A2
:1028700008952091BF013091C0012817390771F0E8
:102880009093C0018093BF01E091C301F091C40116
:10289000309721F00084F185E02D0994089585B7E3
:1028A000806885BF85B7806885BF089508950C94BA
:1028B00056140C9457140C9456140C9456140E94ED
:1028C0004F140E945B140C94591481E008950E94E7
:1028D000F91F0E9458090E946F200E94930F0C94C8
:1028E0005D14CF93C82F80911A0282FF1EC080FF13
:1028F00004C089E498E00E94200580911A0280FFBC
:102900000CC01F92CF9384E498E09F938F930E9412
:10291000B9050F900F900F900F9080911A0280FFD1
:1029200004C082E498E00E9420058C2FCF910C9483
:10293000A6060F931F93CF93DF93CDB7DEB72A97E9
:102940000FB6F894DEBF0FBECDBF0E9465090E948E
:102950006514882331F180E00E942609182F009128
:10296000C6010827F1F080911A0281FD0E942C090E
:1029700000FF17C01E821F82117018870E9402205C
:102980008160782F9A8789874E815F8168858A85E3
:102990000E9404159091C60181E089278093C601A9
:1029A00010C08FEF89838A831B820E94022081607E
:1029B000782F9D838C8349815A816B818D810E9400
:1029C00004150E945D100E94CE139091C5018917D5
:1029D00081F00E94CE138093C5012A960FB6F89419
:1029E000DEBF0FBECDBFDF91CF911F910F910C9431
:1029F00071142A960FB6F894DEBF0FBECDBFDF91DB
:102A0000CF911F910F910895CF93DF93CDB7DEB78C
:102A10002B970FB6F894DEBF0FBECDBF4F835887FC
:102A200069877A878B87DE01119686E0FD01119216
:102A30008A95E9F785E0FE01379601900D928A9517
:102A4000E1F749815A816B817C818D819E810E9451
:102A5000C41A2B960FB6F894DEBF0FBECDBFDF9120
:102A6000CF910895FC01808191810E94921D08956B
:102A7000CF938823D9F1C82F8CEF8C0F813A68F45B
:102A80008C2F0E948920811131C06C2F80911101FF
:102A9000909112010E94731F0CC080E28C0F88304D
:102AA00058F4C77081E001C0880FCA95EAF70E9408
:102AB000D41DCF910C941F1EEBE5EC0FE33040F4D6
:102AC000F0E0EE55FE4F808190E0CF910C942314FE
:102AD000C85AC73158F4EC2FF0E0EE0FFF1FEC5846
:102AE000FE4F80819181CF910C943914CF9108953C
:102AF000882349F1682F8CEF860F813A38F4809152
:102B00001101909112010E94751F0CC080E2860F86
:102B1000883050F4677081E001C0880F6A95EAF749
:102B20000E94DA1D0C941F1E8BE5860F833020F463
:102B300080E090E00C942314685A673120F480E020
:102B400090E00C9439140895CF93C82F0E94381543
:102B5000C93349F42FEF87EE93E021508040904035
:102B6000E1F700C000008C2FCF910C9478158823DA
:102B700021F00E94D41D0C941F1E0895882321F07B
:102B80000E94DA1D0C941F1E0895CF92DF92EF92DF
:102B9000FF920F931F93CF93DF937C01062FC72FD4
:102BA000FC01D581D295DF70128111110E94F11DB7
:102BB0000E94CA1D882379F0112369F080E2800FFA
:102BC000883048F082E00E94691E0E94CA1D91E090
:102BD000D82ED92601C0D12CCC2EC2948FE0C82289
:102BE0008C2D90E0FC01E659FF4F0C9428288C2F87
:102BF000807FCF70882311F0C295C07F112399F098
:102C0000CC2309F464C180E2800F883010F00111F8
:102C100004C08C2F0E94D41D03C08C2F0E94E41D81
:102C20000E941F1E54C1802F0E947815CC2309F4E6
:102C300073C180E2800F883010F0011104C08C2F26
:102C40000E94DA1D03C08C2F0E94EA1D0E941F1EE5
:102C500063C18C2F807FCF70803211F0C295C07F0E
:102C6000002319F00130C9F022C0112371F0DD23D7
:102C700041F0D13031F40E94041E8C2B0E940C1EB6
:102C80004BC10E94041E8C2B1DC0DD2319F0D130D6
:102C900009F442C10E94151E25C0112321F0D6302F
:102CA00008F03AC10EC0D53008F036C11BC0112360
:102CB00061F0DD2331F0F701858180FF08C18F705D
:102CC00085838C2F0E94B71527C1DD2359F0093366
:102CD00009F00EC1FFEF27EE83E0F1502040804065
:102CE000E1F704C18C2F0E94BE1516C18C2F837092
:102CF00009F045C0111114C1402F42954695477007
:102D0000440F440F602F6F70862F90E0A0E0B0E07A
:102D1000042E04C0880F991FAA1FBB1F0A94D2F764
:102D200004FF10C00FE010E020E030E004C0000F0E
:102D3000111F221F331F4A95D2F700951095209539
:102D4000309503C000E010E09801C695C695C370A9
:102D5000BC01CD01602B712B822B932BC23049F02B
:102D600058F4C13019F00E94151CDAC00E94031CEF
:102D7000D7C00E94271CD4C00E94011CD1C01123BF
:102D800019F08C2F817001C08695882309F4C8C082
:102D9000402F429546954770440F440F602F6F7047
:102DA000862F90E0A0E0B0E0042E04C0880F991FA9
:102DB000AA1FBB1F0A94D2F704FF10C00FE010E057
:102DC00020E030E004C0000F111F221F331F4A957E
:102DD000D2F7009510952095309503C000E010E0E3
:102DE0009801C695C695C370BC01CD01602B712BAF
:102DF000822B932BC23049F058F4C13019F00E9455
:102E0000DA1C8EC00E94C81C8BC00E94EC1C88C0BB
:102E10000E943B1C85C0CF70112339F08C2F0E947B
:102E2000611C802F0E94B7157BC0802F0E94BE15A9
:102E30008C2F0E94821C74C0023F01F128F4003FD5
:102E400041F0013FA1F03FC0033FF9F0043F39F1E9
:102E50003AC0112341F0D53008F05EC08C2F8F713D
:102E60000E94A71C59C0D63008F056C0F7CF1123D6
:102E700039F08C2F8F710E94611C4EC01123C9F351
:102E80008C2F8F710E94821C47C0112329F08C2F38
:102E90008F710E944C1C40C00E94471C3DC01123F2
:102EA00049F0CF718C2F0E94611C63E08C2F0E942F
:102EB000541E32C081E00E94691ED23068F182E067
:102EC0000E94691E29C0112331F0DD2391F2802F69
:102ED0000E94381521C0DD2399F2093349F49FEF90
:102EE000E7EEF3E09150E040F040E1F700C0000071
:102EF000802F0E94781510C04C2F4F70602FC70193
:102F00000E9423070E94721B0FC04C2F4F70602F2E
:102F1000C7010E94260708C088EF8C0D843020F47A
:102F20000E94CE130E94A606DD20C9F00E94C61D95
:102F300080FD15C0F70112820E94C01D0E94611C15
:102F4000C7010E94B8170E94C01DDF91CF911F9149
:102F50000F91FF90EF90DF90CF900C94821CDF9147
:102F6000CF911F910F91FF90EF90DF90CF90089538
:102F70000F931F93CF93DF93EC01988189812B816D
:102F80003C81232B31F08F3F31F481E09F3F19F4D6
:102F900003C081E001C080E080FD13C0CE010E942B
:102FA000C506882371F0688179818A810E949D1D00
:102FB0008C010E94FE1C0E94EF1BB801CE010E94F2
:102FC000C515DF91CF911F910F9108950E94F11DBA
:102FD0000E94011E0C941F1E8091110190911201FC
:102FE0000E94771F0C94E6170E94E11D0C94EC17C9
:102FF000E92FE295EF704E2F50E0FA013297EE3054
:10300000F105B0F4E658FF4F0C942828803F91F06A
:1030100018F4883E68F40EC0843F51F40BC0883E1B
:1030200048F0813F29F406C093FB882780F9089572
:1030300080E0089581E008950E94921D0E94F81793
:103040000895CF93DF9300D000D01F92CDB7DEB7A5
:103050000F900F900F900F900F90DF91CF910895E8
:10306000CF93DF9300D000D000D0CDB7DEB7269647
:103070000FB6F894DEBF0FBECDBFDF91CF9108959C
:103080001F93CF93DF93C091C80116E08091C901CF
:10309000C81799F0D0E01C9FF0011D9FF00D11247E
:1030A000E653FE4F40815181628173818481958115
:1030B0000E9430182196C770E9CFDF91CF911F9100
:1030C00008954091FA015091FB016091FC017091CB
:1030D000FD018091FE019091FF010C943018CF9377
:1030E0008091FF0182958F7009F05FC08091FC0193
:1030F000882309F45AC08091C801B091C901709128
:10310000FA01A091FB014091FD015091FE0191E077
:103110007F3F09F090E0692FC6E08B1709F445C0A6
:103120004115510521F0AF3F21F020E003C021E01F
:1031300001C0262F90E020FD35C0C89FF001C99F37
:10314000F00D1124E653FE4F21812A132BC020815C
:10315000271328C02281211125C0238134812417FF
:10316000350710F421503109241B350B283C31055B
:10317000C8F42091FF012F7020612093FF0126E009
:10318000289FF001299FF00D1124E153FE4F80810B
:103190008F70806180838AEF91E00E94B817CF9191
:1031A0000C94401801968770B8CFCF910895AF92D4
:1031B000BF92CF92DF92EF92FF920F931F93CF9324
:1031C000DF93CDB7DEB761970FB6F894DEBF0FBEC1
:1031D000CDBF8C0185E0F801DE011D9601900D92B6
:1031E0008A95E1F7D8014C9111965C91119712964E
:1031F000EC903091FA016091FB018091FD0190917A
:10320000FE01009731F06F3F31F421E03F3F19F4A8
:1032100003C021E001C020E0B22FB170BB2E20FD21
:1032200060C1F801C380D480A090FC01AA2009F4F9
:10323000EEC02091FF01C816D90628F0D601A81BC0
:10324000B90BCD0104C0809590958C0D9D1DFF2478
:10325000F394883C910580F0F12C207F09F09CC00C
:103260007C2DD98AC88A6E2D89890E9421188AEFFF
:1032700091E00E94B8172DC1822F807F09F054C0C1
:10328000561314C0431312C0FE2CE1100FC02F7050
:1032900020612093FF010E9461188AEF91E00E9453
:1032A000B8178091FF01F80185835CC1CD2831F00A
:1032B0005F3F31F481E04F3F19F403C081E001C06A
:1032C00080E080FD03C081E08E2502C080E090E0B8
:1032D000F82FF170FF2E80FF1CC08091C801209153
:1032E000C90136E0821709F41AC190E0389FF00155
:1032F000399FF00D1124E653FE4F6181561306C02D
:103300006081461303C06281E61203C00196877094
:10331000E9CFFE2CEE2009F425C18091FF018160E8
:103320008093FF01F12C1EC1561309C0431307C03F
:10333000E11005C08091FF01F8018583A4C04D878D
:103340005E878D859E850E941C18882379F1EE206A
:1033500069F12091FF01822F82958F7090E0029792
:1033600074F08091FA019091FB0198878F83198600
:10337000DB86CA862C87CE0107960E94B81786E0A6
:10338000F801AAEFB1E001900D928A95E1F70E9451
:103390006F180E9461180DC0561771F04D875E8737
:1033A0008D859E850E941C1881111AC0C8010E943B
:1033B000B817FF24F394D6C04313F0CFE110EECF3B
:1033C0008091FF01F8018583C8010E94B81786E04B
:1033D000EAEFF1E0DF011D928A95E9F7FA2CC2C00D
:1033E000EE2021F32091FF01822F82958F7090E0D3
:1033F00002972CF28091FA019091FB019A838983C4
:103400001B82DD82CC822E83CE010196B6CFC816F8
:10341000D90628F0F601E81BF90BCF0104C080950E
:1034200090958C0D9D1D883C910548F0F12C7C2DCC
:10343000D98AC88A6E2D89890E9421184AC0FE2C1B
:10344000EE2009F4B3CF561333C0431331C020919B
:10345000FF0120FD24C0822F82958F70482F50E0FD
:1034600041155105E1F0D80115962C9315974F3071
:10347000510549F08F5F982F9295907F822F8F7022
:10348000892B15968C93C8010E94B81786E0F80125
:10349000AAEFB1E001900D928A95E1F73DC086E078
:1034A000F801AAEFB1E001900D928A95E1F75AC0B8
:1034B0004D875E878D859E850E941C1881115FCF88
:1034C0008091FF0181608093FF01C8010E94B817BD
:1034D00049C0EAEFF1E086E0DF011D928A95E9F745
:1034E0001BC0EE2009F462CF4D875E878D859E85D7
:1034F0000E941C18F82E882309F458CF86E0F801A2
:10350000AAEFB1E001900D928A95E1F78AEF91E080
:103510000E9432150E946F180E94611823C04D87C7
:103520005E878D859E850E94921D292F22952F7082
:10353000223028F49F7039F0811105C00BC024306F
:1035400028F49F7049F4805E883020F0C8010E9402
:10355000B817BF2CFB2C06C0D80115969C91907F04
:1035600091F7F8CF8F2D61960FB6F894DEBF0FBE9E
:10357000CDBFDF91CF911F910F91FF90EF90DF9022
:10358000CF90BF90AF9008951F93CF93DF93CDB7A7
:10359000DEB72C970FB6F894DEBF0FBECDBF4F83BA
:1035A000588769877A878B879C87CE0107960E9408
:1035B000D7188823D1F09F8188852A853B85232BC6
:1035C00031F08F3F31F481E09F3F19F403C081E077
:1035D00001C080E080FD47C04F81588569857A85AC
:1035E0008B859C850E9430183EC086E0FE01379690
:1035F000DE01119601900D928A95E1F7FF81E88531
:103600006A857B856115710531F0EF3F31F481E00A
:10361000FF3F19F403C081E001C080E080FD23C0BA
:103620002091C90130E0C901019687709927409126
:10363000C80150E084179507F1F1F983EA837D838F
:103640006C8396E0929FD001939FB00D1124A653F6
:10365000BE4FFE01319601900D929A95E1F780934D
:10366000C9010E94401816E08091C8019091C901DB
:10367000891771F1189FC001112486539E4F0E9433
:10368000D718882329F1E091C8011E9FF001112469
:10369000E653FE4F4081518162817381848195811F
:1036A0000E9430188091C80190E001968770992798
:1036B0008093C801D9CF0E94F4171092C9011092CB
:1036C000C801EAEFF1E086E0DF011D928A95E9F793
:1036D0002C960FB6F894DEBF0FBECDBFDF91CF9111
:1036E0001F910895EF92FF920F931F93CF93DF9353
:1036F0008C01892B09F46CC0F12CEE24E394E801D1
:103700002196F8018491843740F4843008F051C048
:10371000813081F0823019F15BC0853709F444C0F3
:10372000A8F19CE7980F903708F052C08F770E945D
:10373000781541C00E5F1F4FFE01849190E2980FF3
:10374000983050F48770FE2D01C0FF0F8A95EAF77C
:103750008F2F0E94F41D14C00E9438152DC00E5FDB
:103760001F4FFE01849190E2980F983060F48770AB
:10377000FE2D01C0FF0F8A95EAF78F2F0E94FA1DD8
:103780000E941F1E19C00E94781516C00E5F1F4FA1
:10379000FE01C491CC2381F08FE99FE00197F1F7FE
:1037A00000C00000C150F6CF0E5F1F4FFE01F49025
:1037B00003C00E9438158E018F2D882309F49FCFF6
:1037C000EFE9FFE03197F1F700C000008150F5CF3D
:1037D000DF91CF911F910F91FF90EF900895089581
:1037E00008950C94F01B0C94F11B0E94F31B609342
:1037F000090270930A0280930B0290930C020C94BE
:10380000E6170C94F51B0F931F930091090210917A
:103810000A0220910B0230910C02602B712B822B3B
:10382000932B1F910F910C94F51B0F931F930091F5
:10383000090210910A0220910B0230910C026023C0
:103840007123822393231F910F910C94F51B0F93E7
:103850001F930091090210910A0220910B023091EE
:103860000C0260277127822793271F910F910C94D8
:10387000F51B0C94F01B0E94391C60930502709399
:10388000060280930702909308020C94E61760E00A
:1038900070E0CB010C943B1C0F931F9341E050E070
:1038A00060E070E08A019B0104C0000F111F221F1D
:1038B000331F8A95D2F7C901B8011F910F910C945B
:1038C0003B1C0F931F9341E050E060E070E004C0A8
:1038D000440F551F661F771F8A95D2F78091050206
:1038E00090910602A0910702B09108028A019B0103
:1038F000082B192B2A2B3B2BC901B8011F910F91C3
:103900000C943B1C0F931F9341E050E060E070E08B
:1039100004C0440F551F661F771F8A95D2F7409544
:103920005095609570958091050290910602A09146
:103930000702B09108028A019B01082319232A2358
:103940003B23C901B8011F910F910C943B1C0F93AD
:103950001F9341E050E060E070E004C0440F551F49
:10396000661F771F8A95D2F7809105029091060213
:10397000A0910702B09108028A019B01082719272C
:103980002A273B27C901B8011F910F910C943B1CBA
:103990000F931F93009105021091060220910702D8
:1039A00030910802602B712B822B932B1F910F916A
:1039B0000C943B1C0F931F9300910502109106027B
:1039C0002091070230910802602371238223932300
:1039D0001F910F910C943B1C0F931F9300910502B4
:1039E000109106022091070230910802602771278A
:1039F000822793271F910F910C943B1C0895890FE8
:103A0000E82FE695E695E695877051E001C0550FE1
:103A10008A95EAF785E0E89FF0011124E050FE4F17
:103A200020E030E070E04081CB01022E02C096958C
:103A300087950A94E2F781708195842785238427EE
:103A400081932F5F3F4F2530310569F70895890F26
:103A5000682F669566956695982F977085E0689FA4
:103A6000B001112440E050E080E0FB01E40FF51FBD
:103A7000E050FE4F208130E0092E02C03695279598
:103A80000A94E2F721703327042E01C0220F0A9412
:103A9000EAF7822B4F5F5F4F4530510531F70895AC
:103AA000BF92CF92DF92EF92FF920F931F93CF932B
:103AB000DF938C01C0900502D0900602E0900702CF
:103AC000F09008028091090290910A02A0910B02E5
:103AD000B0910C02C82AD92AEA2AFB2ACFE1D0E009
:103AE000D701C6010C2E04C0B695A795979587956A
:103AF0000A94D2F780FD04C0219790F7B12C07C03B
:103B0000BC2EB8018C2F0E943D070197A9F38B2D85
:103B1000DF91CF911F910F91FF90EF90DF90CF90A9
:103B2000BF900895CF93DF93EC010E94501DBE011A
:103B30000E943D07DF91CF9108951F93CF93DF93AC
:103B4000EB019091C701992321F0CB010E94921DB6
:103B500013C0882349F0CB010E94501D182F682FF5
:103B6000CE010E94FF1C04C0CB010E94271D182F0C
:103B7000BE01812F0E943D07DF91CF911F910895D3
:103B800080910D02859585958595089580910D020A
:103B90008770089590910D02977081E009F480E09C
:103BA000089580911902089590911902892B8093AC
:103BB0001902089580959091190289238093190222
:103BC000089510921902089590911802892B8093FC
:103BD0001802089580959091180289238093180205
:103BE000089510921802089590911702892B8093DE
:103BF00017020895809590911702892380931702E8
:103C0000089510921702089580910E020895089564
:103C10000C94071E0C94081E90910E02981721F028
:103C200080930E020C940A1E089580910E02882340
:103C300029F010920E0280E00C940A1E0895E09183
:103C40001101F0911201809119028083E09111011C
:103C5000F0911201908180911802892B8083E0916C
:103C60001101F0911201908180911702892B8083BC
:103C700080910E02882381F0E0911101F0911201F0
:103C80009081892B808380911101909112010E9473
:103C9000401F81110E94151E809111019091120107
:103CA0000C94DA130C94071E98E0899F900111245C
:103CB000262B20930D020E94611C80910D02859598
:103CC000859585950C94521E10920D0280E00C94FF
:103CD000521E20910D028095822380930D02982F11
:103CE000977079F430E0482F082E000C550B2417FC
:103CF000350739F08595859585950E94821C0C9431
:103D0000641E08959093A7018093A601089582955B
:103D1000982F937344E0949F900111248C7C869596
:103D20008695282B822F8575880F2A7A2695822BD7
:103D3000089580E090E00E94492821E08C3E9E4F4B
:103D400009F020E0822F089582E090E00C943B2857
:103D500083E090E00C943B28CF9384E090E00E94B5
:103D60003B28C82F81E290E00E943B282C2F30E0B6
:103D7000A901582BCA01CF910895CF93C92F682F5D
:103D800084E090E00E944F286C2F81E290E0CF9178
:103D90000C944F28AB01BC018FE090E00C9461289B
:103DA000AB01BC0183E190E00C94612860E070E01D
:103DB000CB010C94D01E60E070E0CB010E94CA1EC3
:103DC0000C94D61E6CEE7EEF80E090E00E946D2891
:103DD00060E082E090E00E944F2860E083E090E0A5
:103DE0000E944F281092090210920A0210920B02B0
:103DF00010920C0260E084E090E00E944F2860E0A6
:103E000081E290E00E944F2860E085E090E00E940F
:103E10004F2860E086E090E00E944F286FEF87E037
:103E200090E00E944F2840E050E0BA0188E090E026
:103E30000E94612860E08DE090E00E944F2840E001
:103E400050E0BA0188E190E00E94612860E087E1DB
:103E500090E00E944F2840E050E0BA018CE190E0F1
:103E60000E94612860E080E290E00E944F280C945C
:103E7000DB1E0C94E21E682F8EE090E00C944F281D
:103E8000FC01329697E080E0915029F021912223A5
:103E9000D9F38F5FF9CF08959C01FC0132969FEF13
:103EA00080E04191461789F09F3F19F4411101C00C
:103EB000982F8F5F8630A9F79F3F39F0F901E90FFE
:103EC000F11D97FDFA956283089508959C012A5F7C
:103ED0003F4FFC014281461301C0128201968217B6
:103EE0009307B9F708950C944C1F0C94661F029623
:103EF00026E0FC0111922A95E9F7089508950C94A3
:103F00007E1F0C947E1F0E94811F0E9465090E94E3
:103F10007F1F80E00E94260991E0811101C090E09E
:103F2000892F08950C947E1F0C94921F0E94941F59
:103F300080915402843049F110921B0220E488E100
:103F400090E00FB6F894A895809360000FBE209380
:103F5000600080E00E94A6060E94941F83B7817FC4
:103F6000846083BF83B7816083BF7894889583B76B
:103F70008E7F83BF0FB6F894A8958091600088610A
:103F800080936000109260000FBE08950C947E1F15
:103F90000E94F4170E94CE130E94A6060C94C61F1E
:103FA0001F920F920FB60F9211248F939F93AF938E
:103FB000BF9380911B02811113C080914A0290919E
:103FC0004B02A0914C02B0914D024196A11DB11D32
:103FD00080934A0290934B02A0934C02B0934D02FF
:103FE000BF91AF919F918F910F900FBE0F901F9037
:103FF000189582E084BD93E095BD9AEF97BD8093BC
:104000006E0008952FB7F89480914A0290914B0268
:10401000A0914C02B0914D022FBF0895CF92DF9234
:10402000EF92FF920F931F932FB7F89440914A029B
:1040300050914B0260914C0270914D022FBF6A016A
:104040007B01EE24FF248C0120E030E0C016D10675
:10405000E206F30610F4415051099A01281B390B6E
:10406000C9011F910F91FF90EF90DF90CF900895BD
:1040700078941F920F920FB60F9211248F939F93F3
:10408000AF93BF9380914A0290914B02A0914C0252
:10409000B0914D020196A11DB11D80934A029093EB
:1040A0004B02A0934C02B0934D02BF91AF919F91F0
:1040B0008F910F900FBE0F901F90189587E797E78D
:1040C00090930108809300089AE088E10FB6F89475
:1040D000A895809360000FBE90936000FFCF0E9470
:1040E000991E811102C00E94391F0E94A41E809354
:1040F0001A020E94AC1E90934F0280934E020E94BF
:10410000A81E682F70E080E090E00C94011C80E015
:104110000895CF9390911C02992339F1913019F5AC
:10412000C82F0E94872081111BC0C43189F018F468
:10413000CB3029F010C0C93259F0C83361F48CE596
:1041400098E00E94200589E798E00E94200508C0B9
:1041500010921C020CC087E798E00E94200507C05F
:1041600081E0817006C010921C0280E002C080E0F5
:10417000F8CFCF9108958091280208950895089569
:104180009FB7F89410921F029FBF909154029430F1
:1041900009F057C09091E9009F703091EC00232FF7
:1041A000217030FD20E8922B22E02093E90020913D
:1041B000EB0020FF43C02091EE0027FF3FC020917D
:1041C0001D02222321F02091E80025FF37C0109224
:1041D0001D0226E03091E80035FD15C030915402F3
:1041E000343061F53091EB0035FD28C0215021F4C9
:1041F00081E080931D0222C0EFE9FFE03197F1F7E3
:1042000000C00000E7CF8093F1008091E80085FDB9
:104210000AC08091E80080FFFCCF8091E8008E7793
:104220008093E80006C08FB7F89421E020931F0226
:104230008FBF9F709093E90080E008959F709093E6
:10424000E9008FEF0895CF93DF93EC010E943A23AA
:10425000823011F0843039F581E08093E9008FEFEE
:104260009091E800815095FD06C095ED9A95F1F783
:1042700000008111F5CF8091E80085FF14C040E077
:1042800050E068E070E0CE010E9457238091E80082
:104290008E778093E80088E0FE01A0E2B2E0019012
:1042A0000D928A95E1F7DF91CF910895089582EA02
:1042B00098E00E94200580915302811109C00E945C
:1042C000E8240E9445258091E20084608093E2000A
:1042D00008958EE998E00E942005109253020895F7
:1042E0008AE998E00C94200586E998E00C94200572
:1042F00082E998E00E9420050C94C81F20911E02BC
:104300002F5F822F62E30E94F427992319F02093F4
:104310001E02089510921E0280911F02882371F1DF
:1043200080915402843041F58091E9008F70209192
:10433000EC00922F917020FD90E8892B92E09093F1
:10434000E9009091EB0090FF14C09091EE0097FF70
:1043500010C09091E80095FF03C01092F100F9CFD2
:104360009091E80090FF05C09091E8009E779093AF
:10437000E8008F708093E90010921F02089542E0D8
:1043800061EC81E00E94612442E261EC82E00C94E5
:10439000612480915602833009F460C030F481308A
:1043A00071F0823009F499C008958A3009F485C00B
:1043B0008B3009F46BC0893009F0A7C020C0809110
:1043C0005502813A09F0A1C08091E800877F80936F
:1043D000E8008091590290915A02892B21F468E0FB
:1043E00080E292E003C060E080E090E070E00E9434
:1043F000A2238091E8008B778093E8000895809154
:104400005502813209F081C08091590290915A027F
:10441000892B09F07AC08091E800877F8093E800BB
:104420008091E80082FD05C0809154028111F8CF8F
:104430006CC02091F3008091F20090E0922B0297E3
:1044400029F48091F1008B7F813021F48091F1007B
:10445000809328028091E8008B7753C080915502A9
:10446000813A09F052C08091590290915A02892BE9
:1044700009F04BC08091E800877F8093E80080912D
:10448000E80080FFFCCF80911D0136C0809155026D
:104490008132D9F58091590290915A02892BA9F560
:1044A0008091E800877F8093E8000E9496248091A5
:1044B000570280931D010C94F417809155028132AC
:1044C00021F58091E800877F8093E8000E94962480
:1044D0008091580280932902089580915502813A73
:1044E000A1F48091E800877F8093E8008091E80044
:1044F00080FFFCCF809129028093F1008091E80039
:104500008E778093E8000C949624089584B7877F73
:1045100084BF0FB6F894A89580916000886180935D
:104520006000109260000FBE90E080E80FB6F89433
:1045300080936100909361000FBE0E945F140E94FF
:10454000E8240E9445258091E20084608093E20087
:1045500080EC90E20E94821E78940E94D9270E94EB
:10456000671483E191E00E94C91381E898E00E94FA
:10457000200580915402853089F48DE798E00E94EF
:1045800020050E94961F80915202882391F30E9479
:10459000831F882371F30E944123EBCF0E9499145B
:1045A000E8CF0C94D322292F332723303105C9F0CB
:1045B00060F42130310581F02230310509F04AC024
:1045C00082E490E020EE38E049C02132310511F15B
:1045D0002232310579F13EC082E190E022E239E0F9
:1045E0003DC099278130910561F040F082309105FE
:1045F00059F0039779F5E6EAF8E008C0ECEDF8E049
:1046000005C0EAECF8E002C0ECEAF8E0849190E042
:104610009F0124C06115710541F061307105D1F42D
:1046200089E090E02BE039E019C089E090E022EFCA
:1046300038E014C06115710541F06130710551F425
:1046400082E290E024E339E009C080E490E026E5CE
:1046500039E004C080E090E020E030E0FA013183EE
:104660002083089580915402843011F081E00895F0
:1046700082E0089580912A02811102C00C943223B5
:10468000089580E189BD82E189BD09B400FEFDCFB6
:104690008091D8008F7D8093D8008091E000826067
:1046A0008093E0008091E00081FDFCCF0895CF92DF
:1046B000DF92EF92FF920F931F93CF93DF93EC0162
:1046C0008B017A010E94B524811133C0E114F104F9
:1046D00039F0F70180819181081B190BC80FD91F90
:1046E000C12CD12C0115110519F18091E80085FD2F
:1046F00016C08091E8008E778093E800E114F10401
:1047000049F0F70180819181C80ED91ED182C08203
:1047100085E00FC00E94B524882321F30AC0899147
:104720008093F10001501109FFEFCF1ADF0ADACFB1
:1047300080E0DF91CF911F910F91FF90EF90DF907C
:10474000CF90089520915B0230915C0226173707C5
:1047500048F06115710539F42091E8002E77209317
:10476000E80001C0B901FC0120E06115710579F193
:10477000809154028823F1F18530F1F18091E800B5
:1047800083FD3CC08091E80082FD2EC08091E8004E
:1047900080FFEBCF2091F3008091F20090E0922B0C
:1047A0006115710551F08830910538F421912093FD
:1047B000F100615071090196F3CF21E0089709F0EB
:1047C00020E08091E8008E778093E800CECF211121
:1047D000CFCF0AC080915402882361F0853061F008
:1047E0008091E80083FD0AC08091E80082FFF2CF4B
:1047F00080E0089582E0089583E0089581E00895BF
:1048000020915B0230915C022617370748F0611552
:10481000710539F42091E8002E772093E80001C05B
:10482000B901FC0120E06115710591F180915402FC
:10483000882309F440C0853009F43FC08091E80026
:1048400083FD3DC08091E80082FD2FC08091E8008B
:1048500080FFE9CF2091F3008091F20090E0922B4D
:104860006115710559F08830910540F42491209329
:10487000F1003196615071090196F2CF21E008975D
:1048800009F020E08091E8008E778093E800CBCF9C
:104890002111CCCF0AC080915402882361F0853069
:1048A00061F08091E80083FD0AC08091E80082FFFA
:1048B000F2CF80E0089582E0089583E0089581E0DA
:1048C0000895982F973068F59093E900981739F07C
:1048D0007091EC002091ED005091F00003C0242F66
:1048E000762F50E021FD02C09F5FECCF3091EB00AE
:1048F0003E7F3093EB003091ED003D7F3093ED0033
:104900003091EB0031603093EB007093EC0020931A
:10491000ED005093F0002091EE0027FDE5CF80E000
:1049200008958F708093E90081E008958091550289
:1049300087FF11C08091E80082FD05C0809154027C
:104940008111F8CF11C08091E8008B770BC0809166
:104950005402882349F08091E80080FFF8CF8091CD
:10496000E8008E778093E80008952091E40030916C
:10497000E50095E64091EC00842F817040FF23C054
:104980008091E80080FD1DC080915402882399F039
:10499000853099F08091EB0085FD11C04091E400D5
:1049A0005091E5002417350729F3915011F09A0131
:1049B000E1CF84E0089582E0089583E0089581E0E6
:1049C000089580E008954091E80042FFDDCF08950A
:1049D0000E9456250E945E25E0EEF0E08081816015
:1049E0008083E8EDF0E080818F77808319BCA7EDAC
:1049F000B0E08C918E7F8C9380818F7E808310922B
:104A0000530208950F931F93CF93DF930E9456256F
:104A10000E945E25C8EDD0E088818F7788838881E9
:104A20008068888388818F7D888319BC10925402A6
:104A300010925002109252021092510200EE10E0B9
:104A4000F80180818B7F808388818160888342E048
:104A500060E080E00E946124E1EEF0E080818E7FE2
:104A60008083E2EEF0E080818160808380818860D5
:104A70008083F80180818E7F808388818061888334
:104A8000DF91CF911F910F910895E8EDF0E08081C3
:104A90008F7E8083E7EDF0E080818160808384E019
:104AA00082BF81E0809353020C940225E8EDF0E090
:104AB00080818E7F80831092E20008951092DA0048
:104AC0001092E10008951F920F920FB60F921124D9
:104AD0002F933F934F935F936F937F938F939F9306
:104AE000AF93BF93EF93FF938091E10082FF0BC0E0
:104AF0008091E20082FF07C08091E1008B7F80936C
:104B0000E1000E947E218091DA0080FF1FC0809129
:104B1000D80080FF1BC08091DA008E7F8093DA007E
:104B20008091D90080FF0DC080E189BD82E189BDFF
:104B300009B400FEFDCF81E0809354020E9457210A
:104B400005C019BC109254020E9469218091E100B5
:104B500080FF19C08091E20080FF15C08091E200C3
:104B60008E7F8093E2008091E20080618093E2007A
:104B70008091D80080628093D80019BC85E0809332
:104B800054020E9474218091E10084FF30C0809122
:104B9000E20084FF2CC080E189BD82E189BD09B4B7
:104BA00000FEFDCF8091D8008F7D8093D80080914A
:104BB000E1008F7E8093E1008091E2008F7E809300
:104BC000E2008091E20081608093E20080915002D7
:104BD000882311F084E007C08091E30087FD02C0C4
:104BE00081E001C083E0809354020E94782180918B
:104BF000E10083FF29C08091E20083FF25C08091FE
:104C0000E100877F8093E10082E08093540210925C
:104C100050028091E1008E7F8093E1008091E2005C
:104C20008E7F8093E2008091E20080618093E200B9
:104C300042E060E080E00E9461248091F0008860A2
:104C40008093F0000E947021FF91EF91BF91AF918E
:104C50009F918F917F916F915F914F913F912F9194
:104C60000F900FBE0F901F9018951F920F920FB6C6
:104C70000F9211242F933F934F935F936F937F93E2
:104C80008F939F93AF93BF93CF93DF93EF93FF9354
:104C9000C091E900CF708091EC00D82FD17080FDD9
:104CA000D0E81092E9008091F000877F8093F000B7
:104CB00078940E9479261092E9008091F000886033
:104CC0008093F000CD2BCF70C093E900FF91EF915E
:104CD000DF91CF91BF91AF919F918F917F916F9114
:104CE0005F914F913F912F910F900FBE0F901F90AA
:104CF00018951F93CF93DF93CDB7DEB7AA970FB662
:104D0000F894DEBF0FBECDBFE5E5F2E08091F10083
:104D1000819322E0ED35F207C9F70E94C921809105
:104D2000E80083FF2EC18091550290915602492FD1
:104D300050E04A30510508F024C1FA01E857FF4F0E
:104D40000C942828803821F0823809F01AC108C054
:104D50008091510290915202992389F082600FC094
:104D6000809159028F70873008F00BC18093E90061
:104D70008091EB0085FB882780F91092E9009091E3
:104D8000E800977F9093E8008093F1001092F10083
:104D9000D1C0282F2D7F09F0F4C0882319F082306C
:104DA00061F0EFC080915702813009F0EAC0933082
:104DB00009F080E0809352022EC080915702811149
:104DC0002AC0809159028F702FEF280F263008F0EB
:104DD000D8C08093E9002091EB0020FF1CC09330E5
:104DE00021F48091EB00806214C09091EB009061FF
:104DF0009093EB0021E030E0A90102C0440F551F61
:104E00008A95E2F74093EA001092EA008091EB0065
:104E100088608093EB001092E9008091E800877F22
:104E20008093E8000E949624ACC08111AAC0109122
:104E300057021F778091E3008078812B8093E300F5
:104E40008091E800877F8093E8000E9496248091FB
:104E5000E80080FFFCCF8091E30080688093E3004E
:104E6000111102C082E001C083E08093540289C026
:104E70008058823008F085C0809157029091580286
:104E80008C3D53E0950779F583E08A838AE2898334
:104E90004FB7F894DE01139620E03EE051E2E32F95
:104EA000F0E050935700E49120FF03C0E295EF70CB
:104EB0003F5FEF708E2F90E0EA3010F0C79601C090
:104EC000C0968D939D932F5F243149F74FBF8091FA
:104ED000E800877F8093E8006AE270E0CE010196E7
:104EE0000E94A22316C06091590270915A02AE012D
:104EF0004F5F5F4F0E94D122BC01892B09F441C052
:104F00009091E800977F9093E80089819A810E94B0
:104F100000248091E8008B778093E80032C08038CD
:104F200081F58091E800877F8093E80080915002AE
:104F30008093F1008091E8008E7772CF811121C0BB
:104F4000809157029091580299270297D4F480914A
:104F5000E800877F8093E800809157028093500299
:104F60000E94962480915002811106C08091E30036
:104F700087FD02C081E001C084E0809354020E945A
:104F8000BF218091E80083FF0AC08091E800877FFD
:104F90008093E8008091EB0080628093EB00AA96FA
:104FA0000FB6F894DEBF0FBECDBFDF91CF911F913A
:104FB0000895CF93809154028823A1F0C091E90015
:104FC000CF709091EC00892F817090FD80E8C82B04
:104FD0001092E9008091E80083FD0E947926CF704D
:104FE000C093E900CF910895991B79E004C0991FFF
:104FF000961708F0961B881F7A95C9F78095089533
:10500000AA1BBB1B51E107C0AA1FBB1FA617B707EE
:1050100010F0A61BB70B881F991F5A95A9F780950A
:105020009095BC01CD01089597FB072E16F40094CE
:1050300007D077FD09D00E94002807FC05D03EF478
:10504000909581959F4F0895709561957F4F089534
:10505000EE0FFF1F0590F491E02D0994FC014150E3
:10506000504030F001900616D1F73197CF010895E6
:10507000882799270895F999FECF92BD81BDF89AA6
:10508000992780B50895A6E1B0E044E050E00C9483
:105090007528A8E1B0E042E050E00C947528262F76
:1050A000F999FECF92BD81BDF89A019700B402161E
:1050B00039F01FBA20BD0FB6F894FA9AF99A0FBECC
:1050C00008950396272F0E9450280E944F28252FCD
:1050D0000E945028242F0C9450280196272F0E94BC
:1050E00050280C944F28DC01CB01FC01F999FECF2C
:1050F00006C0F2BDE1BDF89A319600B40D92415060
:0A5100005040B8F70895F894FFCF6F
:10510A0001010208080801191A1B1C1D1E1F202173
:10511A00220F02BB202321BE205621BF2001E2001C
:10512A00E900EA00B500B600B700CD008301CC0063
:10513A008A019201940121022302240225022602F5
:10514A0027022A02B300B4006F0070008182830034
:10515A0001020202020606060909090909090F0FD6
:10516A000F0F0F0F151515181919191919191919DA
:10517A0019192324E200E900EA00B500B600B700D5
:10518A00CD008301CC008A019201940121022302FD
:10519A0024022502260227022A02B300B4006F0065
:0651AA0070008182830009
:00000001FF
