:100000000C9400040C9447040C9447040C9447048B
:100010000C9447040C9447040C9447040C94470434
:100020000C9447040C9447040C9447040C94382413
:100030000C94E7240C947C1E0C9447040C94470405
:100040000C9447040C9447040C9447040C94E41E4D
:100050000C9447040C9447040C9447040C944704F4
:100060000C9447040C9447040C9447040C944704E4
:100070000C944704C70FCA0FD20FD70FDC0FE10F44
:10008000E60FEB0FF00FF50FFA0FFF0F0110041042
:1000900007100A100D10101012101710931493145B
:1000A000C514C51412155016501650163215CF151A
:1000B000E015E0154016501650164916CE16CE160D
:1000C000E016E016D716E016E016E016CE16CE16AD
:1000D000DC16E016E016DC1654257B256D267B2504
:1000E0006D26C725EA256D2640264F262800444563
:1000F0004255473A2064697361626C65642E0A0058
:1001000044454255473A20656E61626C65642E0A2B
:10011000000A0025303862003A20002530325800AD
:100120000A722F632030313233343536370A007289
:1001300067626C696768742074696D6572206469B0
:100140007361626C652E0A007267626C696768741D
:100150002074696D657220656E61626C65642E0A3B
:10016000007267626C6967687420736574206873D5
:1001700076205B4E4F454550524F4D5D3A202575D8
:100180002C25752C25750A007267626C6967687486
:100190002073657420687376205B454550524F4D3F
:1001A0005D3A2025752C25752C25750A007267622D
:1001B0006C69676874207261696E626F772073651D
:1001C00074206873763A2025642C25642C25642CD1
:1001D00025750A007267626C6967687420646973C8
:1001E00061626C65205B454550524F4D5D3A20720F
:1001F00067626C696768745F636F6E6669672E65B6
:100200006E61626C65203D2025750A007267626C24
:100210006967687420656E61626C65205B45455056
:10022000524F4D5D3A207267626C696768745F6314
:100230006F6E6669672E656E61626C65203D202574
:10024000750A007267626C6967687420746F67670B
:100250006C65205B454550524F4D5D3A2072676298
:100260006C696768745F636F6E6669672E656E613F
:10027000626C65203D2025750A007267626C6967B3
:100280006874206D6F6465205B4E4F454550524F3A
:100290004D5D3A2025750A007267626C6967687463
:1002A000206D6F6465205B454550524F4D5D3A208F
:1002B00025750A007267626C696768745F696E69A8
:1002C00074207267626C696768745F636F6E6669D9
:1002D000672E6D6F6465203D20302E205772697443
:1002E000652064656661756C742076616C756573F4
:1002F00020746F20454550524F4D2E0A00726762A0
:100300006C696768745F696E6974206565636F6E98
:10031000666967206973206E6F7420656E61626C18
:1003200065642E0A007267626C696768745F696E43
:100330006974207374617274210A007267626C6957
:100340006768745F696E69742063616C6C65642EA4
:100350000A007267626C696768745F636F6E6669D2
:10036000672E7370656564203D2025640A007267FE
:10037000626C696768745F636F6E6669672E766129
:100380006C203D2025640A007267626C696768749E
:100390005F636F6E6669672E736174203D2025640C
:1003A0000A007267626C696768745F636F6E666982
:1003B000672E687565203D2025640A007267686CA9
:1003C000696768745F636F6E6669672E6D6F6465D9
:1003D000203D2025640A007267626C696768745F5B
:1003E000636F6E6669672E656E61626C65203D2085
:1003F00025640A007267626C696768745F636F6E78
:1004000066696720454550524F4D3A0A0000047F07
:100410003F1F643214643214783C1E1E140A0522F5
:1004200023252628292A2C2D2F3032333536383AE9
:100430003B3D3E4042434547494A4C4E505153553F
:1004400057595A5C5E6062646668696B6D6F717360
:100450007577797B7D7F81838587898A8C8E909261
:100460009496989A9C9E9FA1A3A5A7A8AAACAEAF6C
:10047000B1B3B4B6B8B9BBBCBEBFC1C2C3C5C6C7B1
:10048000C9CACBCCCDCED0D1D2D2D3D4D5D6D7D762
:10049000D8D9D9DADADBDBDBDCDCDCDCDCDDDDDDAA
:1004A000DDDCDCDCDCDCDBDBDBDADAD9D9D8D7D7A6
:1004B000D6D5D4D3D2D2D1D0CECDCCCBCAC9C7C653
:1004C000C5C3C2C1BFBEBCBBB9B8B6B4B3B1AFAE91
:1004D000ACAAA8A7A5A3A19F9E9C9A989694929037
:1004E0008E8C8A89878583817F7D7B79777573710F
:1004F0006F6D6B6968666462605E5C5A59575553EC
:1005000051504E4C4A4947454342403E3D3B3A38A4
:1005100036353332302F2D2C2A292826252322FF49
:10052000AA7F554000010101010101010101020200
:100530000202020202020203030303030303030491
:10054000040404040404050505050506060606065C
:10055000070707070708080808090909090A0A0A16
:100560000B0B0B0C0C0C0D0D0D0E0E0E0F0F0F10B8
:100570001011111112121313141415151616171742
:10058000181819191A1A1B1B1C1D1D1E1E1F2020AE
:10059000212222232424252626272829292A2B2CF8
:1005A0002D2D2E2F30313232333435363738393A1B
:1005B0003B3C3D3E3F404142434445464748494A13
:1005C0004C4D4E4F50515354555658595A5B5D5EE1
:1005D0005F616264656668696B6C6D6F707273757C
:1005E00077787A7B7D7E8082838587888A8C8E8FE0
:1005F00091939596989A9C9EA0A2A3A5A7A9ABAD0E
:10060000AFB1B3B5B7BABCBEC0C2C4C6C9CBCDCFFB
:10061000D1D4D6D8DBDDDFE2E4E7E9EBEEF0F3F5A9
:10062000F8FAFDFF0A002530325820006B65796228
:100630006F6172645F7265706F72743A20000A00B5
:1006400025303258006B6579626F6172645F736543
:10065000745F6C65643A20000A092D20436F6E7345
:100660006F6C65202D0A4553432F713A09717569E6
:10067000740A003F00433E20005B735D004B6579C8
:10068000626F6172642073746172742E0A005B572A
:100690005D005B535D005B525D00040330000000B1
:1006A000340342006900670053006500720069006E
:1006B000650073002000530069006E0067006C0045
:1006C000650020004B006500790062006F0061004A
:1006D0007200640000001E0357006F006F0064008A
:1006E0004B006500790073002E0063006C00690008
:1006F00063006B0000000403090409025B000301AE
:1007000000A0FA0904000001030101000921110100
:1007100000012240000705810308000A09040100C6
:100720000103000000092111010001223600070524
:10073000820320000A0904020002030000000921CC
:100740001101000122220007058303200001070593
:1007500003032000011201100100000008EDFE71EA
:10076000600200010203010631FF0974A10109754D
:10077000150026FF009520750881020976150026D0
:10078000FF00952075089102C005010980A101852F
:10079000031A81002A8300160100260300950175C3
:1007A000108100C0050C0901A10185041A01002A6D
:1007B0009C02160100269C02950175108100C0055F
:1007C000010906A101050719E029E7150025019592
:1007D0000875018102950175088101050719002935
:1007E000FF150026FF009506750881000508190110
:1007F0002905950575019102950175039101C000C8
:1008000011241FBECFEFD4E0DEBFCDBF04B603FE80
:1008100027C08091600290916102A0916202B09124
:1008200063028730904BA740B04BD1F41092600226
:1008300010926102109262021092630214BE84B799
:10084000877F84BF0FB6F894A89580916000886177
:1008500080936000109260000FBEE0E0F8E309951D
:1008600011E0A0E0B1E0E2EBFEE402C005900D92E1
:10087000A43BB107D9F722E0A4EBB1E001C01D927F
:10088000A036B207E1F70E9476210C9457270C940A
:100890000000FF93EF93E091B401F091B501309720
:1008A00009F00995EF91FF910895FC018591803041
:1008B00011F0EFDFFBCF0895FF27E0E230E247FFC2
:1008C0000CC0419597FF09C0EDE260957095809549
:1008D0009095611D711D811D911D27FF02C02195FD
:1008E00030E350E2AA27660F771F881F991FAA1FBF
:1008F000A41710F0A41B63955A95A9F7AA3008F025
:10090000A95FA05DAF93F395611571058105910510
:1009100041F7ED3211F4EF93F395F21718F43F938A
:10092000F395FBCF8F91B5DFFA95E1F70895E99143
:10093000F9918591803021F0853219F0AADFF9CF45
:10094000089520E0E89455915532C1F3503311F4E5
:10095000689455915A3348F4505390F3220F022E65
:10096000220F220F200D250FF4CF0EF4219589912F
:100970009991533619F3533729F1533559F1BC0185
:1009800088279927E8945C3621F489919991689495
:100990005591543639F446EF7EF077FF0DC08FEF56
:1009A0009FEF0AC055374AE039F0583540E121F051
:1009B000523642E009F00895FF93EF937DDFEF9107
:1009C000FF91B7CFFF93EF93FC0181918030B9F392
:1009D00060DFFBCFFF93EF9368DFF1CFDF93CF931F
:1009E000CDB7DEB72596A3DFCF91DF9108950C94A4
:1009F000C90781E0089581E008950C94FB041F93DA
:100A0000CF93DF9300D000D01F92CDB7DEB74983DC
:100A10005A832091D30189819A81211112C06623C2
:100A200049F00E94021C182F682F89819A810E9428
:100A3000AB1B03C00E94D81B182F69817A81812FBC
:100A400004C00E94021C69817A810F900F900F9060
:100A50000F900F90DF91CF911F910C94C305FC0173
:100A6000408151816281738184810C94FF040E94D2
:100A7000491D811102C00E94E91D0C94C7070C9406
:100A8000F70408950C94410581E008950C94440501
:100A9000CF93C82F0E9442058C2F0E944605CF910C
:100AA000089508950E94BE160E9451052FEF84E319
:100AB0009CE0215080409040E1F700C000000C9481
:100AC0000A1F0F931F93CF93DF93EC010E942F0512
:100AD0008C01BE010E94FD04882309F449C0BE01B7
:100AE000C8010E94C610882309F442C0BE01C80193
:100AF0000E9407118823E1F1BE01C8010E94321251
:100B00008823B1F1BE01C8010E94B00F882381F192
:100B10008A81882331F101308CE5180751F00E3DB0
:100B20008CE51807D9F001151C45D9F40E9452052F
:100B30001FC080912602C82FC095C170C0FB80F9EC
:100B400080932602CC2329F080E091E00E94550496
:100B50000FC08EEE90E00E9455040BC00E94E91D6C
:100B600007C0CE01DF91CF911F910F910C94F90432
:100B7000C0E08C2FDF91CF911F910F91089580E0FD
:100B800090E008950895E72FF0E0E60FF11DE80FDB
:100B9000F11DEE0FFF1FE451FF4F859194910895D1
:100BA000880F991FFC01EF5EFE4F85919491089587
:100BB000CF93DF930E94C3050E94EF06EC018115DD
:100BC00020E5920708F042C0811530E4930708F051
:100BD000CDC0803E910520F5803C910508F0B6C05F
:100BE000883A910570F4853A910508F0A7C08130E4
:100BF000910509F4F0C008F4ECC0049708F0EBC0CC
:100C0000E8C08F3B910508F0E4C0C85AD0E0CC0F93
:100C1000DD1FC35EDE4F0990D881C02DD464DBC0D8
:100C2000C11580E2D80750F4C11521E0D20708F0C1
:100C3000D2C0C83ED10508F4CEC0CBC0C11530E348
:100C4000D30708F089C0CE019F7082C0C11585E529
:100C5000D80708F047C0C11524E5D20708F09FC0A7
:100C6000C11532E5D30718F5C11581E5D80708F09D
:100C700080C02C2F237081E090E002C0880F991F64
:100C80002A95E2F79C689E01F4E036952795FA953F
:100C9000E1F72370922BCF70C695C695D0E0A5E002
:100CA000CC0FDD1FAA95E1F7C82BD92B94C02C2FB0
:100CB00026952695CE0183709927C115D34508F056
:100CC0005DC030E075E0220F331F7A95E1F7C1E097
:100CD000D0E002C0CC0FDD1F8A95E2F7C22BD32BE8
:100CE000DC6879C0C11589E5D807A0F4C11528E5ED
:100CF000D20708F059C0C11536E5D30708F069C01E
:100D00008C2F0E9483078F71C82FD0E0DC2FCC2757
:100D1000D06261C0C1158AE5D80708F44AC0CE0187
:100D200090568115904208F054C08D2F8F710E940B
:100D30008307DD27D0628F71D82B4DC0C55AD0E014
:100D4000C55BDE4FC881D0E0D06445C0805C9109AE
:100D50000E94D005EC013FC0CE019927D3FF03C00C
:100D6000EC01D86C38C0EC01D06C35C0DF70D06AB3
:100D700032C0DC2FCC27C16FD06A2DC030E065E0D7
:100D8000220F331F6A95E1F7C1E0D0E002C0CC0F1B
:100D9000DD1F8A95E2F7C22BD32BDA681CC0DC2F4B
:100DA000CC27C46FD06A17C0DC2FCC27C06FD06AA5
:100DB00012C08C2F8F700E94830794E0D695C79540
:100DC0009A95E1F7CF70D0E0DC2FCC27D069C82B03
:100DD00002C0C0E0D0E0CE01DF91CF91089582380B
:100DE000910569F1B0F48133910509F46DC048F4BF
:100DF0008932910509F463C08A32910509F469C00A
:100E000008958533910509F455C089339105B9F0EA
:100E10000895833E910569F138F4803E9105B1F063
:100E2000823E910509F10895863E9105A9F1873E1C
:100E30009105B9F1843E910509F064C023C0209169
:100E4000510220FD4FC021FD4DC0089580915102F7
:100E500080FD44C08091520280FF44C080915102C5
:100E600084FD42C083EE4DC08091510282FF38C0A4
:100E7000F5CF8091510282FD33C08091520280FDF6
:100E800031C0ECCF8091520281FF32C0809151027B
:100E900084FD2AC087EE35C08091510283FF26C0B1
:100EA000F5CF8091510283FD21C08091520281FDD6
:100EB0001FC0ECCF8091510285FD1CC01DC08091E8
:100EC000510285FD19C016C08091510286FD16C0E1
:100ED00017C08091510286FD13C010C089E311C074
:100EE00082EE0FC080EE0DC080E00BC086EE09C020
:100EF00084EE07C089E205C085E303C08AE201C031
:100F000081E390E008959091510292FF0DC0282F47
:100F10002871283019F4877F846006C0282F247137
:100F2000243011F48B7F886093FF0DC0282F287127
:100F3000283119F4877E846106C0282F247124315A
:100F400011F48B7E88612091520220FF0DC0382F52
:100F50003871383019F4877F816006C0382F3171BD
:100F6000313011F48E7F886021FF0DC0282F287149
:100F7000283119F4877E816106C0282F2171213123
:100F800011F48E7E886194FD877E089508950C94F7
:100F9000C6070895E82FF0E0E85CFD4F80810895D2
:100FA00080E291E00E9455041F921F928BE191E034
:100FB0009F938F930E94EE0488E191E00E94550474
:100FC000809138020E94371D1F928F9383E191E038
:100FD0009F938F930E94EE048DB79EB708960FB62D
:100FE000F8949EBF0FBE8DBF81E191E00C94550433
:100FF00024982C9A2098289A10923702109238023E
:1010000081E00E942A080C943705CF93249A2C98EB
:1010100080EA8A95F1F780913702982F189902C0DB
:10102000916001C09E7F90933702C1E0909137029A
:10103000891301C0C0E024982C9A2C2F41E068E36A
:1010400072E087E392E00E942B080E943F058C2FFC
:10105000CF9108950895FF920F931F93CF93DF933D
:101060008C01F62ED72FC42F222349F081E08093E4
:10107000B8010E94AE1E9093B7018093B601809193
:10108000B8018823C1F08091B6019091B7010E9408
:10109000BA1EC39780F0EF2DFD2FD8014C2F50E0E2
:1010A000CD01801B910B841795071CF48D918193C2
:1010B000F7CF1092B801DF91CF911F910F91FF9060
:1010C0000895CF92DF92EF92FF920F931F93CF93E9
:1010D000DF93E82FF0E0711106C0EC5DFA4F6491E8
:1010E000762F862F6BC0262F30E0C72FD0E0EC5D27
:1010F000FA4F4491D42EE42EF12CC90166E070E041
:101100000E94A9260FEF10E0B8010E94D426DB014F
:10111000CB016BEA7FEF0E94A926220F331F820FBB
:10112000931FE82FEE0FE80FB8016C1B7D0BC70172
:101130000E94A926392FC92EF0E0CF01BE010E94DE
:10114000A926692F70E0C801861B970BBC01C70157
:101150000E94A926292FC8018E1B9F0BBE010E9449
:10116000A926692F70E0C801861B970BBC01C70137
:101170000E94A926892FA230B10579F03CF410977E
:10118000D1F01197B1F4942F422F15C0A430B105BE
:1011900061F03CF0169779F00CC0942F432F382F54
:1011A0000AC0432F3D2D922F06C0932F342F482F76
:1011B00002C09C2D322F692F742F832FDF91CF9186
:1011C0001F910F91FF90EF90DF90CF9008950895B9
:1011D000CF93DF93762FE901682F842F0E94610857
:1011E000798368838A83DF91CF910895413808F02D
:1011F00040E80C94E80880913902282F269530E0C9
:101200002115310519F48170826005C02532310540
:1012100024F0817088648093390280913C02813887
:1012200018F080E880933C02089588E090E00C94E8
:101230001727CF93DF9300D000D0CDB7DEB7AB0137
:10124000BC0149835A836B837C830E94FB084981DC
:101250005A816B817C8188E090E00F900F900F9015
:101260000F90DF91CF910C943527E9E3F2E083E012
:10127000808311828FEF828380E883831482608170
:101280007181828193810C9419098091260280FFDB
:1012900008C084EF93E09F938F930E94EE040F9019
:1012A0000F908091260280FF0FC0809139028170DB
:1012B0001F928F9387ED93E09F938F930E94EE048C
:1012C0000F900F900F900F908091260280FF0FC01B
:1012D0008091390286951F928F938CEB93E09F93B8
:1012E0008F930E94EE040F900F900F900F908091BB
:1012F000260280FF0EC080913A021F928F9382EAED
:1013000093E09F938F930E94EE040F900F900F90A5
:101310000F908091260280FF0EC080913B021F92A9
:101320008F9388E893E09F938F930E94EE040F9031
:101330000F900F900F908091260280FF0EC0809139
:101340003C021F928F938EE693E09F938F930E94AF
:10135000EE040F900F900F900F908091260280FF67
:101360000EC080913D021F928F9382E593E09F9380
:101370008F930E94EE040F900F900F900F9008959E
:101380008091390280FF02C08695089580E008951B
:1013900080913D02833018F48F5F80933D0260910D
:1013A000390270913A0280913B0290913C020C9478
:1013B000190980913D02882319F0815080933D02E4
:1013C0006091390270913A0280913B0290913C0207
:1013D0000C941909E0910401F0E08091390280FF3A
:1013E0000CC08091BD0190E063E070E00E94A926EE
:1013F000BF01825C9D4F0C9456102091BC0130912E
:101400000301231770F7822F90E063E070E00E94E1
:10141000A926DC01A25CBD4F11961C9211971C926B
:1014200012961C922F5FEDCFA82FB62F8091390214
:1014300080FF16C02091BC0130910301231770F486
:10144000822F90E063E070E00E94A926FC01E25C3C
:10145000FD4FA183B08342832F5FF0CF0C94EA0944
:101460000895CF93DF9300D01F92CDB7DEB7909150
:10147000390290FF0AC09E012F5F3F4F0E94F6087D
:101480004B8169818A810E94140A0F900F900F90FE
:10149000DF91CF910895CF93DF93EC01EC81F0E0E1
:1014A000E15EFB4F4491E9E3F2E0628181810E94B9
:1014B000310A8C818F5F8C83DF91CF910895CF9318
:1014C000DF93EC01E9E3F2E0438162818C810E94C9
:1014D000310A8C818F5F8C83DF91CF9108950F93B8
:1014E0001F93CF93DF9300D01F92CDB7DEB78C014F
:1014F0008091B90181110AC09E012F5F3F4F40E8E2
:101500006FEF0E94F6088A818093B901F801848107
:10151000813051F028F0823061F44091B9010AC065
:101520008091B90140E007C06091B90140E080E0DE
:1015300003C040E080E060E00E94140AF8012481CA
:1015400030E0C901019663E070E00E94E8268483E0
:101550000F900F900F90DF91CF911F910F910895F1
:101560004F925F927F928F929F92AF92BF92CF9253
:10157000DF92EF92FF920F931F93CF93DF9300D0F0
:101580001F92CDB7DEB7182FD62E042FB22E909112
:10159000390290FFB1C0E92FE695AE2FB0E0A25B13
:1015A000BE4F8C918093C5019E7F923061F49E0165
:1015B0002F5F3F4F812F0E94F6084B8169818A81FE
:1015C0000E94140A5FC0823019F400913C025AC094
:1015D000863019F410913A0255C08930D9F3893117
:1015E00009F050C0E9518E2F80958170C82EE69584
:1015F000F0E0E15EFA4FE590F490712CFF248DEA63
:10160000882E81E0982E209102017216C8F5472C91
:10161000512CC201B7010E94A926622F70E00E94DE
:10162000D426A12ECC2011F0A60E01C0A61A8091BE
:10163000260280FF11C0FF92EF921F92CF921F925D
:10164000AF921F927F929F928F920E94EE040FB6EC
:10165000F894DEBF0FBECDBF8091BC019201280F70
:10166000311DC90163E070E00E94A9269C01225C43
:101670003D4F402F6D2D8A2D0E94F6087394C3CFE5
:101680000E94EA0910933A02D0923B0200933C0276
:10169000BB20E9F06091390270913A0280913B02DF
:1016A00090913C020E9419098091260280FF24C07B
:1016B00080913C021F928F9380913B021F928F93E7
:1016C00080913A021F928F9388E891E00CC080913C
:1016D000260280FF11C01F920F931F92DF921F926C
:1016E0001F9381E691E09F938F930E94EE040FB6C3
:1016F000F894DEBF0FBECDBF0F900F900F90DF911B
:10170000CF911F910F91FF90EF90DF90CF90BF90FE
:10171000AF909F908F907F905F904F900895E9E3F6
:10172000F2E09181282F4381628188E0890F0C9437
:10173000B00A81E00C948F0BE9E3F2E09181282F4D
:101740004381628188EF890F0C94B00A81E00C9488
:101750009C0BE9E3F2E0628121E1620F08F46FEF94
:10176000282F438181810C94B00A81E00C94A90B4D
:10177000E9E3F2E0628121E1621B08F460E0282FD6
:10178000438181810C94B00A81E00C94B80BE9E3A9
:10179000F2E0438121E1420F08F44FEF282F6281EC
:1017A00081810C94B00A81E00C94C70BE9E3F2E06C
:1017B000438121E1421B08F440E0282F62818181AE
:1017C0000C94B00A81E00C94D60B20E00C94B00A83
:1017D000EF92FF921F93CF93DF93EC0110E0EE2482
:1017E000EA94F12C30910201131700F59091BC019D
:1017F000892F90E0810F911D63E070E00E94A9267F
:10180000FC01E25CFD4F632F70E0C7010E94E826F7
:10181000812F0E94A0269C819F0140913C026091F3
:101820003B02890F0E94F6081F5FDCCF0E94EA0985
:101830008A819C8180FF02C09F5F01C091509C8380
:10184000DF91CF911F91FF90EF900895AF92BF92DB
:10185000CF92DF92EF92FF920F931F93CF93DF937C
:10186000FC01828180FF02C0DFEF01C0D1E0C0E057
:1018700035E0A32E80910201C81708F043C0CC2E9A
:10188000D12C8091BC019601280F311DC90163E064
:1018900070E00E94A926825C9D4F7C01FC011182B0
:1018A0001082128204E010E0B12C9091BB019B0DDC
:1018B00096302CF0892F6A2D0E94C62605C097FF0E
:1018C00003C080910201980F492F990F550BC41640
:1018D000D50691F480913C0290E0B8010E94A926BF
:1018E00095958795959587959701482F60913B022F
:1018F00080913A020E94F608BD0E01501109A9F626
:10190000CF5FB8CF0E94EA098091BB01D13031F49A
:10191000811102C080910201815007C090E00196C0
:101920006091020170E00E94E8268093BB01DF9184
:10193000CF911F910F91FF90EF90DF90CF90BF90CC
:10194000AF900895CF932091BC01309103012317EC
:1019500070F4822F90E063E070E00E94A926FC0101
:10196000E25CFD4F1182108212822F5FF0CFC0E047
:1019700060910201C61798F5EC2FF0E070E0CF01FE
:101980000E94E8269091BC01980F2091BA01022E86
:10199000000C330B892F90E063E070E00E94A926D1
:1019A000E217F307A4F020910101022E000C330B83
:1019B0002E173F0764F09C01225C3D4F40913C0292
:1019C00060913B0280913A020E94F60806C0FC0139
:1019D000E25CFD4F118210821282CF5FC9CF0E945C
:1019E000EA09209100018091BA01820F8093BA0127
:1019F00090910101920F9093010119165CF4082E49
:101A0000000C990B4091020150E04150510984179C
:101A100095071CF0219520930001CF9108950F9315
:101A20001F93CF938C01FC01248135812F5F3F4FA1
:101A30002170332735832483C0E080910201C817C9
:101A4000F8F48091BC0190E08C0F911D63E070E090
:101A50000E94A9269C01225C3D4F4C2F4695F8011F
:101A600084819581840F911D817065E50E94A02677
:101A700040913C0260913B020E94F608CF5FDDCFAF
:101A8000CF911F910F910C94EA090F931F93CF935D
:101A9000DF93EC0100E010E040910201842F90E020
:101AA000081719072CF58091BC019801280F311DEA
:101AB000C90163E070E00E94A9269C01225C3D4FB1
:101AC000469550E08C81041715071CF4882331F0EB
:101AD00002C0811103C040913C0201C040E060910E
:101AE0003B0280913A020E94F6080F5F1F4FD4CF4D
:101AF0000E94EA092C8130E02F5F3F4F217033278D
:101B00002C83DF91CF911F910F910895609139023D
:101B1000669570E04BE050E085E091E00E9402277E
:101B2000892B19F481E08093C6010E94AE1E909328
:101B3000BF018093BE018091260280FF08C088E427
:101B400091E09F938F930E94EE040F900F90089561
:101B50001092C6018091260280FF08C08FE291E0BA
:101B60009F938F930E94EE040F900F900895909191
:101B7000390290FF54C09170811102C0926006C07A
:101B8000853210F0986402C0880F982B9093390228
:101B90006623B1F06091390270913A0280913B0264
:101BA00090913C020E9419098091260280FF1BC07F
:101BB0008091390286951F928F9388E992E00BC03D
:101BC0008091260280FF0FC08091390286951F9276
:101BD0008F938AE792E09F938F930E94EE040F9079
:101BE0000F900F900F9060913902669570E04BE076
:101BF00050E085E091E00E940227892B19F00E94B5
:101C0000A80D02C00E94860D81E08093C101409121
:101C10003C0260913B0280913A020C94E50B0895DE
:101C2000682F90913902969581E0890F853208F0EE
:101C300081E00C94B70D81E00C94100E682F909108
:101C4000390296958FEF890F09F484E20C94B70D51
:101C500081E00C941E0E61E00C94B70D8091390266
:101C60008160809339028091260280FF0DC01F920F
:101C700081E08F938CE092E09F938F930E94EE041B
:101C80000F900F900F900F908091390286950C94D1
:101C90002B0E60E00C94B70D8091C401811160C0DF
:101CA0008091260280FF08C08BE393E09F938F937F
:101CB0000E94EE040F900F908091260280FF08C0D2
:101CC00085E293E09F938F930E94EE040F900F9014
:101CD0000E94491D811110C08091260280FF08C01A
:101CE0008DEF92E09F938F930E94EE040F900F90E0
:101CF0000E94E91D0E9435090E941509609339026E
:101D000070933A0280933B0290933C026E7FC1F441
:101D10008091260280FF08C084EB92E09F938F930E
:101D20000E94EE040F900F900E9435090E94150941
:101D30006093390270933A0280933B0290933C0285
:101D40000E94FB080E9445091092C6018091390249
:101D500080FF03C086950E94490E81E08093C401F4
:101D60000895809139028E7F809339026091390203
:101D700070913A0280913B0290913C020E941909B5
:101D80008091260280FF0FC08091390281701F92DE
:101D90008F9384ED91E09F938F930E94EE040F90B8
:101DA0000F900F900F900E94A80D2FEF80E792E008
:101DB000215080409040E1F700C000000C94EA09F7
:101DC0008091260280FF10C0809139028095817039
:101DD0001F928F9383E492E09F938F930E94EE046F
:101DE0000F900F900F900F908091390280FD0C940E
:101DF000B10E0C942E0E0F931F93CF93DF9380910F
:101E0000C601882309F48CC08091C501E091390294
:101E1000E695E81BE093C001823049F4F0E0E55E0E
:101E2000FB4FE491CE2FD0E00BE41AE049C086309E
:101E300049F4F0E0E85EFB4FE491CE2FD0E00FE5EF
:101E40001AE03EC0893051F4E695F0E0EB5EFB4FBE
:101E5000E491CE2FD0E008EE1BE032C08F3051F479
:101E6000E695F0E0EE5EFB4FE491CE2FD0E006E287
:101E70001CE026C0853149F4F0E0E15FFB4FE491BE
:101E8000CE2FD0E002EA1CE01BC0883181F0833203
:101E900039F4EDE0F4E0C591D4910FE61AE010C0FA
:101EA000843251F4C4EFD1E005E41DE009C0C8EE6E
:101EB000D3E00FE01DE004C0C0EDD7E007EE18E06E
:101EC0008091C101882389F01092C1010E94AE1E49
:101ED0009E0120953095820F931F9093BF018093B0
:101EE000BE011092C3011092C2018091BE01909177
:101EF000BF010E94BA1E8C179D0790F0E091BE01B1
:101F0000F091BF01CE0FDF1FD093BF01C093BE0180
:101F10008EEB91E0F801DF91CF911F910F91099421
:101F2000DF91CF911F910F910895882311F0FA014D
:101F300001C0FB010994CF93DF93C82FD62F0E94D5
:101F4000C0098C1740F00E94C0098D1720F4DF9162
:101F5000CF910C941B0E8C2FDF91CF910C942B0EF4
:101F60000F931F93CF93FB01C281CC2309F463C06D
:101F70008C010E94821C8272F801E25CFC45E43113
:101F8000F10508F059C0E65CFF4F0C94FC260E9456
:101F9000E00E06C048E25EE06BE17EE00E94950F35
:101FA000C0E04AC04BE15EE068E27EE0F7CF46EA7F
:101FB0005BE069E97BE0F2CF49E95BE066EA7BE060
:101FC000EDCF44EC5BE065EB7BE0E8CF45EB5BE01D
:101FD00064EC7BE0E3CF42EE5BE063ED7BE0DECFE1
:101FE00043ED5BE062EE7BE0D9CF49ED59E068EC70
:101FF00079E0D4CF48EC59E069ED79E0CFCF81E0CA
:1020000017C065E082E010C068E086E00DC06EE0B9
:1020100089E00AC064E18FE007C067E185E104C0A0
:1020200088E106C062E289E10E949B0FB9CF83E29A
:102030000E942B0EB5CFC1E08C2FCF911F910F9135
:1020400008952BB1342F309523233BB1432B3FB759
:10205000F894FC01680F791FE617F70789F0819162
:1020600098E04BB9000000C087FF2BB9880F000033
:1020700000C000C000C02BB900C09A9591F7ECCF0A
:102080003FBF08959C019AB1942B9AB9CB0163E0AC
:1020900070E00E94A926BC01C9010E94211087ECB2
:1020A00090E00197F1F700C00000089548E00C941B
:1020B00042100F931F93CF93DF93C62FD42F022F7D
:1020C000FC0182818823C9F06093C9010E94AE1E81
:1020D0009093C8018093C70180E28C0F883008F08C
:1020E00050C0C77081E001C0880FCA95EAF7DF9140
:1020F000CF911F910F910C9453141091C901161395
:1021000030C08091C7019091C8010E94BA1E883CDE
:10211000910538F5C0E2CD0F1D17B9F080E2810FAF
:10212000883040F4177081E001C0880F1A95EAF7F3
:102130000E945A14C83048F481E09D2F977001C066
:10214000880F9A95EAF70E945314802F0E9440143A
:10215000C830B8F4D77081E001C0880FDA95EAF78B
:102160000AC080E28C0F883060F4C77081E001C043
:10217000880FCA95EAF7DF91CF911F910F910C94C8
:102180005A14DF91CF911F910F9108959C01CB01BB
:10219000233F4CE53407F9F078F4283DFCE53F0790
:1021A000B9F0293D4CE5340711F1273D3C4531F5A7
:1021B00026E241EE61EE1EC0253FFCE53F0799F0A7
:1021C00070F0263F3C45D1F427E245EE66EE12C0A2
:1021D00027E245EE0EC026E241EE60EE0BC027E29C
:1021E00045EE64EE07C026E241EE62EE03C028E24F
:1021F00041E065EE0E94591080E00895FC01828163
:10220000882319F01092C901089581E00895CF93B1
:10221000DF93EC01FB018281882309F41FC1C230E6
:10222000FCE5DF0708F41BC1C6319CE5D90738F08F
:102230009E012A5F3C452930310508F010C10E94FB
:102240005C1D9093520280935102C031ECE5DE0791
:1022500009F4C3C008F041C0C8308CE5D80709F4C0
:102260009AC0F0F4C430ECE5DE0709F487C068F4E6
:10227000C2308CE5D80709F477C0C330DC4509F0DB
:10228000E3C080915102826076C0C630ECE5DE0783
:1022900009F46EC008F07BC08091510288606BC069
:1022A000CC308CE5D80709F485C068F4CA30ECE579
:1022B000DE0709F474C008F079C00E94BE16809150
:1022C0005102806858C0CE308CE5D80709F476C03A
:1022D00008F07FC0809151028BC0CB3FECE5DE0758
:1022E00009F44FC018F5C3318CE5D80709F47DC057
:1022F00078F4C131ECE5DE0709F473C0C231DC4586
:1023000009F0A2C00E94BE16809151028F7733C09F
:10231000C5318CE5D80709F472C008F486C0CA3FFD
:10232000DC4509F091C0809152023EC0CF3FFCE5F0
:10233000DF0709F45FC058F4CD3F9CE5D90709F4E5
:1023400044C008F43FC08091520282602DC0C13069
:10235000FDE5DF0709F475C008F45DC0C230DD4556
:1023600009F072C080E06EC080915102816003C0AC
:102370008091510280618093510266C08091510228
:1023800011C0809152028260809352025DC08091A0
:1023900051028062F0CF809151028064ECCF809135
:1023A000510288608460E7CF8160EECF8091510256
:1023B0008E7FE1CF809151028D7FDDCF80915102E0
:1023C000877FD9CF8091520218C0809152028D7FB1
:1023D000DBCF809151028F7ECECF809151028F7DD5
:1023E000CACF809151028F7BC6CF80915102877FE7
:1023F0008B7FC1CF809152028D7F8E7FC5CF809120
:10240000510282FB222720F991E0922790FB82F96A
:1024100090FB83F9B0CF80915202982F90959170E4
:102420008E7F892B90FB81F9AFCF0E94BE168091E1
:10243000510287FB222720F991E0922790FB87F930
:102440009ACF81E00E94EB1D80915102909152023F
:102450000E946D1D0E94BE1680E001C081E0DF91E8
:10246000CF910895CF93DF9386319C4541F5EB01E1
:102470000E94821C282F8A814091100150911101E5
:10248000882379F02A7A91E009F490E09093CA01C8
:10249000911102C069E201C065E3CA010E94221ED7
:1024A0000AC08091CA01811102C069E201C065E3DE
:1024B000CA010E94241E0E94CE1C80E001C081E05F
:1024C000DF91CF9108959093D0018093CF0108952B
:1024D000E091CF01F091D001309721F00190F0818F
:1024E000E02D099480E00895EF92FF920F931F93DF
:1024F000CF93DF93E091CF01F091D0013097B1F10C
:102500008C010280F381E02D09958091260282FFE3
:102510002DC080FF04C08CE296E00E945504E801C3
:1025200018E086E2E82E86E0F82E8091260280FFF1
:102530000BC088811F928F93FF92EF920E94EE044E
:102540000F900F900F900F90115021961111EDCF19
:102550008091260280FF0AC084E296E0DF91CF914D
:102560001F910F91FF90EF900C945504DF91CF9144
:102570001F910F91FF90EF9008952091CD01309120
:10258000CE018217930771F09093CE018093CD0115
:10259000E091CF01F091D001309721F00680F781D2
:1025A000E02D099408952091CB013091CC01821740
:1025B000930771F09093CC018093CB01E091CF0110
:1025C000F091D001309721F00084F185E02D09943D
:1025D0000895089508950C94EA1208950C94ED124C
:1025E0000E94E9120C94EB1281E008950E94A51E4E
:1025F0000E94F8070E942E1F0E944C0E0C94EE12AF
:10260000CF93C82F8091260282FF1EC080FF04C096
:1026100085E496E00E9455048091260280FF0CC05C
:102620001F92CF9380E496E09F938F930E94EE04D5
:102630000F900F900F900F908091260280FF04C0A2
:102640008EE396E00E9455048C2FCF910C944805A0
:102650001F93CF93DF93CDB7DEB72B970FB6F894C8
:10266000DEBF0FBECDBF0E9405080E94F412882372
:1026700041F180E00E94CA071091D201182709F1A8
:102680009091260291FF04C08B870E94D0078B8512
:1026900010FF17C01E821F82817088870E94AE1EA5
:1026A0008160782F9A8789874E815F8168858A85C6
:1026B0000E9492139091D20181E089278093D201E8
:1026C00010C08FEF89838A831B820E94AE1E8160B7
:1026D000782F9D838C8349815A816B818D810E94E3
:1026E00092130E94FB0E1091D1010E9468121817DC
:1026F00079F00E9468128093D1012B960FB6F8945E
:10270000DEBF0FBECDBFDF91CF911F910C940013A0
:102710002B960FB6F894DEBF0FBECDBFDF91CF91E1
:102720001F910895CF93DF93CDB7DEB72B970FB6E8
:10273000F894DEBF0FBECDBF4F83588769877A8775
:102740008B87DE01119686E0FD0111928A95E9F7EB
:1027500085E0FE01379601900D928A95E1F7498157
:102760005A816B817C818D819E810E9477192B9685
:102770000FB6F894DEBF0FBECDBFDF91CF910895A5
:10278000FC01808191810E94431C0895CF93DF93C7
:102790001F92CDB7DEB7882309F442C0682F8CEFB3
:1027A000860F813A70F4862F69830E94481F6981E1
:1027B000811136C080911001909111010E94221E5A
:1027C0000CC080E2860F883068F4677081E001C039
:1027D000880F6A95EAF70E94851C0F90DF91CF91D0
:1027E0000C94CE1CEBE5E60FE33050F4F0E0EF552F
:1027F000FE4F808190E00F90DF91CF910C94BD123D
:10280000685A673168F4E62FF0E0EE0FFF1FED58CD
:10281000FE4F808191810F90DF91CF910C94D31264
:102820000F90DF91CF910895882349F1682F8CEFA5
:10283000860F813A38F480911001909111010E9425
:10284000241E0CC080E2860F883050F4677081E04F
:1028500001C0880F6A95EAF70E948B1C0C94CE1C6D
:102860008BE5860F833020F480E090E00C94BD125D
:10287000685A673120F480E090E00C94D3120895F8
:10288000CF93C82F0E94C613C93349F42FEF87EEA8
:1028900093E0215080409040E1F700C000008C2F71
:1028A000CF910C941414882321F00E94851C0C9461
:1028B000CE1C0895882321F00E948B1C0C94CE1C02
:1028C0000895BF92CF92DF92EF92FF920F931F93E2
:1028D000CF93DF937C01062FC72FFC011581129542
:1028E0001F70D281D1110E94A21C0E947B1C8823E0
:1028F00079F0DD2369F080E2800F883048F082E0D3
:102900000E94191D0E947B1C91E0B82EB92601C0BF
:10291000B12CCC2EC2948FE0C822D12CF601E25B00
:10292000FF4F0C94FC268C2F807FCF70882311F0F2
:10293000C295C07FDD2399F0CC2309F48CC180E2DD
:10294000800F883010F0011104C08C2F0E94851C6C
:1029500003C08C2F0E94951C0E94CE1C7CC1802F2E
:102960000E941414CC2309F49BC180E2800F8830AC
:1029700010F0011104C08C2F0E948B1C03C08C2FFF
:102980000E949B1C0E94CE1C8BC18C2F807FCF701D
:10299000803211F0C295C07F002319F00130C9F0D8
:1029A00022C0DD2371F0112341F0113031F40E9477
:1029B000B51C8C2B0E94BB1C73C10E94B51C8C2BB8
:1029C0001DC0112319F0113009F46AC10E94C41C02
:1029D00025C0DD2321F0163008F062C10EC015308D
:1029E00008F05EC11BC0DD2361F0112331F0F70157
:1029F000858180FF30C18F7085838C2F0E94531496
:102A00004FC1112359F0093309F036C1FFEF27EE0A
:102A100083E0F15020408040E1F72CC18C2F0E94D0
:102A20005A143EC18C2F86958695837090E000974E
:102A300019F0019761F034C1DD2321F0802F9C2F24
:102A4000937002C080E090E00E94BD1234C1DD238B
:102A500021F0802F9C2F937002C080E090E00E94B4
:102A6000D31229C18C2F837009F049C0D1111FC125
:102A7000402F429546954770440F440F602F6F706A
:102A8000862F90E0A0E0B0E0042E04C0880F991FCC
:102A9000AA1FBB1F0A94D2F704FF10C00FE010E07A
:102AA00020E030E004C0000F111F221F331F4A95A1
:102AB000D2F7009510952095309503C000E010E006
:102AC0009801C695C695C370D0E0BC01CD01602BBE
:102AD000712B822B932BC230D10559F0C330D10515
:102AE00059F0219719F00E94C01AE1C00E94AE1A55
:102AF000DEC00E94D21ADBC00E94AC1AD8C0DD230F
:102B000019F08C2F817001C08695882309F4CFC0FD
:102B1000402F429546954770440F440F602F6F70C9
:102B2000862F90E0A0E0B0E0042E04C0880F991F2B
:102B3000AA1FBB1F0A94D2F704FF10C00FE010E0D9
:102B400020E030E004C0000F111F221F331F4A9500
:102B5000D2F7009510952095309503C000E010E065
:102B60009801C695C695C370D0E0BC01CD01602B1D
:102B7000712B822B932BC230D10559F0C330D10574
:102B800059F0219719F00E94861B91C00E94741B76
:102B90008EC00E94981B8BC00E94E71A88C0CF701D
:102BA000DD2339F08C2F0E940D1B802F0E945314BF
:102BB0007EC0802F0E945A148C2F0E942E1B77C03B
:102BC000023F01F128F4003F41F0013FA1F03FC076
:102BD000033FF9F0043F39F13AC0DD2341F01530ED
:102BE00008F05EC08C2F8F710E94531B59C01630A5
:102BF00008F056C0F7CFDD2339F08C2F8F710E947B
:102C00000D1B4EC0DD23C9F38C2F8F710E942E1B2C
:102C100047C0DD2329F08C2F8F710E94F81A40C025
:102C20000E94F31A3DC0DD2349F0CF718C2F0E9422
:102C30000D1B63E08C2F0E94041D32C081E00E94B6
:102C4000191D123068F182E00E94191D29C0DD2390
:102C500031F0112391F2802F0E94C61321C011235D
:102C600099F2093349F49FEFE7EEF3E09150E04029
:102C7000F040E1F700C00000802F0E94141410C043
:102C80004C2F4F70602FC7010E94BF050E941F1A72
:102C900012C04C2F4F70602FC7010E94C2050BC09D
:102CA00028E0C21AD10884E0C816D10420F40E949A
:102CB00068120E944805BB20D1F00E94771C80FD5D
:102CC00016C0F70112820E94711C0E940D1BC701E1
:102CD0000E9481160E94711CDF91CF911F910F916C
:102CE000FF90EF90DF90CF90BF900C942E1BDF9160
:102CF000CF911F910F91FF90EF90DF90CF90BF90F9
:102D000008950F931F93CF93DF93EC0188819981EE
:102D10002B813C81232BB9F09F3F11F48F3F99F019
:102D2000CE010E946105882371F0688179818A81D2
:102D30000E944E1C8C010E94AA1B0E94AB1AB80173
:102D4000CE010E946114DF91CF911F910F910895E0
:102D50000E94A21C0E94B21C0E94CE1C80E090E047
:102D60000E94BD1280E090E00C94D312809110017B
:102D7000909111010E94261E0C94A8160E94921C8C
:102D80000C94B616E92FE295EF70F0E03297EE3032
:102D9000F105B0F4E25AFF4F0C94FC26803F91F00D
:102DA00018F4883E68F40EC0843F51F40BC0883E8E
:102DB00048F0813F29F406C093FB882780F90895E5
:102DC00080E0089581E008950E94431C0E94C2168D
:102DD0000895CF93DF9300D000D01F92CDB7DEB718
:102DE0000F900F900F900F900F90DF91CF9108955B
:102DF000CF93DF9300D000D000D0CDB7DEB72696BA
:102E00000FB6F894DEBF0FBECDBFDF91CF9108950E
:102E1000CF93DF93C091D4018091D501C817A1F061
:102E2000D0E0CE0166E070E00E94A926FC01EA52E3
:102E3000FE4F4081518162817381848195810E941E
:102E4000F8162196C770E8CFDF91CF910895409191
:102E50000602509107026091080270910902809168
:102E60000A0290910B020C94F816CF93DF93809195
:102E70000B0282958F7009F05CC080910802882354
:102E800009F457C02091D401D091D5014091060298
:102E9000C0910702E0910902F0910A022D1709F48E
:102EA00048C030E0309709F440C0CF3F11F44F3FA5
:102EB000E1F1C90166E070E00E94A926DC01AA5296
:102EC000BE4F11968C911197C8132FC08C91481347
:102ED0002CC012968C911297811127C013968D9158
:102EE0009C9114978E179F0708F401978E1B9F0BD8
:102EF000883C9105D0F480910B028F7080618093A3
:102F00000B02C90166E070E00E94A926FC01E552AF
:102F1000FE4F90819F709061908386E092E00E94C6
:102F20008116DF91CF910C9408172F5F3F4F2770C8
:102F3000B5CFDF91CF910895BF92CF92DF92EF92FC
:102F4000FF920F931F93CF93DF93CDB7DEB76197B7
:102F50000FB6F894DEBF0FBECDBF8C0185E0F8013F
:102F6000DE011D9601900D928A95E1F7D8014C91F2
:102F700011962C9111971296EC9012971396CD9072
:102F8000DC9014975091060260910702809109022B
:102F900090910A02009709F46EC16F3F19F45F3FE8
:102FA00009F469C1B0900802BB2009F4C3C0309194
:102FB0000B02C816D90628F0F601E81BF90BCF0161
:102FC00004C0809590958C0D9D1DFF24F394883C42
:102FD000910588F0F12C307F09F0CBC07C2DD98A87
:102FE000C88A522F6E2D89890E94E91686E092E0E8
:102FF0000E948116B4C0832F807F09F049C06213FC
:1030000014C0541312C0E11010C03F7030613093EF
:103010000B020E94271786E092E00E9481168091A1
:103020000B02D80115968C9331C0CD2831F12F3F7A
:1030300011F44F3F11F1FE2CE1101FC0E091D401BB
:103040003091D501E31709F45CC0F0E0CF0166E0F0
:1030500070E00E94A926DC01AA52BE4F11968C9105
:103060001197281307C08C91481304C012968C91B5
:10307000811103C03196E770E5CFFE2CEE2009F4F4
:1030800025C180910B02816080930B02F12C1EC13F
:10309000621308C0541306C0E11004C080910B02F3
:1030A000D801C1C04D872E878D859E850E94E4166C
:1030B0008823E1F1EE20D1F120910B02822F82953D
:1030C0008F7090E0029774F0809106029091070251
:1030D00098878F831986DB86CA862C87CE01079650
:1030E0000E94811686E0F801A6E0B2E001900D9200
:1030F0008A95E1F70E9435170E942717FF24F39461
:10310000E5C04D872E878D859E850E94431C292F03
:1031100022952F7030E0223031050CF0CBC09F702B
:1031200009F0C5C0805E883008F4D0C0C8010E9494
:103130008116E4CFC816D90608F453C0F601E81B7F
:10314000F90BCF01883C910508F450C0F12C7C2D7F
:10315000D98AC88A522F6E2D89890E94E916E6E025
:10316000F2E086E0DF011D928A95E9F70E942717B9
:10317000ADC0621314C0541312C0E11010C080918E
:103180000B02F8018583C8010E94811686E0E6E003
:10319000F2E0DF011D928A95E9F7FB2C97C04D877D
:1031A0002E878D859E850E94E416882309F4BECF64
:1031B000EE2009F4BBCF20910B02822F82958F70F5
:1031C00090E002970CF48ECF809106029091070256
:1031D0009A8389831B82DD82CC822E83CE01019665
:1031E0007FCF809590958C0D9D1DACCFFE2CEE2051
:1031F00009F49CCF62132EC054132CC020910B02F3
:1032000020FD1FC0822F82958F70D9F0D8011596AE
:103210002C9315978F3049F08F5F982F9295907F60
:10322000822F8F70892B15968C93C8010E9481166E
:1032300086E0F801A6E0B2E001900D928A95E1F7F0
:1032400095CF86E0F801A6E0B2E001900D928A9554
:10325000E1F73CC04D872E878D859E850E94E41640
:10326000811140CF80910B02816080930B02C801D5
:103270000E9481162BC0EE2009F458CF4D872E876F
:103280008D859E850E94E416F82E882309F44ECF82
:1032900086E0F801A6E0B2E001900D928A95E1F790
:1032A00086E092E00E94C0130E9435175FCF811123
:1032B00039CF0CC0243031050CF038CF9F7009F4A1
:1032C00031CFF8019581907F09F02CCF8F2D619639
:1032D0000FB6F894DEBF0FBECDBFDF91CF911F9127
:1032E0000F91FF90EF90DF90CF90BF900895CF9314
:1032F000DF93CDB7DEB72C970FB6F894DEBF0FBEC5
:10330000CDBF4F83588769877A878B879C87CE018B
:1033100007960E949C17882371F08F8198852A85D3
:103320003B85232B09F43FC09F3F09F068C08F3FC6
:1033300009F065C038C086E0FE013796DE011196BF
:1033400001900D928A95E1F76F817885EA85FB857A
:10335000309749F17F3F11F46F3F29F18091D501FA
:1033600090E09C012F5F3F4F277033274091D4019D
:1033700050E02417350709F44BC069837A83FD8335
:10338000EC8366E070E00E94A926DC01AA52BE4FE1
:1033900096E0FE01319601900D929A95E1F7209307
:1033A000D5010E9408178091D4019091D501891709
:1033B000E9F190E066E070E00E94A9268A529E4FF3
:1033C0000E949C17882391F18091D40190E066E0DF
:1033D00070E00E94A926FC01EA52FE4F4081518113
:1033E00062817381848195810E94F8168091D40155
:1033F00090E00196877099278093D401D4CF4F81B4
:10340000588569857A858B859C850E94F816CBCF77
:103410000E94BE161092D5011092D401E6E0F2E0AF
:1034200086E0DF011D928A95E9F7BDCF2C960FB695
:10343000F894DEBF0FBECDBFDF91CF910895EF921C
:10344000FF920F931F93CF93DF938C01892B09F485
:103450006CC0F12CEE24E394E8012196F8018491EC
:10346000843740F4843008F051C0813081F08230DC
:1034700019F15BC0853709F444C0A8F19CE7980FA7
:10348000903708F052C08F770E94141441C00E5F2D
:103490001F4FFE01C49180E28C0F883048F4C77042
:1034A0008E2D01C0880FCA95EAF70E94A51C14C092
:1034B0008C2F0E94C6132DC00E5F1F4FFE01C491BA
:1034C00080E28C0F883058F4C7708E2D01C0880FB1
:1034D000CA95EAF70E94AB1C0E94CE1C1AC08C2F22
:1034E0000E94141416C00E5F1F4FFE01C491CC231E
:1034F00081F08FE99FE00197F1F700C00000C15013
:10350000F6CF0E5F1F4FFE01F49003C00E94C6135A
:103510008E018F2D882309F49FCFEFE9FFE03197CB
:10352000F1F700C000008150F5CFDF91CF911F91DE
:103530000F91FF90EF90089508950C949C1A0E94AB
:103540009D1A609315027093160280931702909350
:1035500018020C94A81608950C949F1A0F931F93A9
:103560000091150210911602209117023091180255
:10357000602B712B822B932B1F910F910C949F1A10
:103580000F931F93009115021091160220911702BC
:103590003091180260237123822393231F910F918E
:1035A0000C949F1A0F931F9300911502109116020D
:1035B00020911702309118026027712782279327E4
:1035C0001F910F910C949F1A08950C94E41A0E9475
:1035D000E51A609311027093120280931302909384
:1035E00014020C94A81660E070E0CB010C94E71A6A
:1035F0000F931F9341E050E060E070E08A019B016F
:1036000004C0000F111F221F331F8A95D2F7C90172
:10361000B8011F910F910C94E71A0F931F9341E08B
:1036200050E060E070E004C0440F551F661F771F34
:103630008A95D2F78091110290911202A091130203
:10364000B09114028A019B01082B192B2A2B3B2BCA
:10365000C901B8011F910F910C94E71A0F931F93A2
:1036600041E050E060E070E004C0440F551F661F69
:10367000771F8A95D2F74095509560957095809107
:10368000110290911202A0911302B09114028A01CA
:103690009B01082319232A233B23C901B8011F9149
:1036A0000F910C94E71A0F931F9341E050E060E0F4
:1036B00070E004C0440F551F661F771F8A95D2F72C
:1036C0008091110290911202A0911302B091140204
:1036D0008A019B01082719272A273B27C901B8011E
:1036E0001F910F910C94E71A0F931F9300911102F1
:1036F000109112022091130230911402602B712B51
:10370000822B932B1F910F910C94E71A0F931F9309
:1037100000911102109112022091130230911402B3
:1037200060237123822393231F910F910C94E71A36
:103730000F931F9300911102109112022091130216
:103740003091140260277127822793271F910F91D0
:103750000C94E71A0895262F890F982F9770A1E0EF
:1037600001C0AA0F9A95EAF786958695869590E00E
:1037700065E070E00E94A926FC01E45FFD4F40E097
:1037800050E0622F70E090819B01042E02C03695BC
:1037900027950A94E2F721703327219529272A23B8
:1037A000292721934F5F5F4F4530510561F70895F9
:1037B000890FA82FA77086958695869590E065E07D
:1037C00070E00E94A926BC0140E050E080E0FA01D0
:1037D000E60FF71FE45FFD4F208130E00A2E02C0A4
:1037E000369527950A94E2F721703327042E01C0FD
:1037F000220F0A94EAF7822B4F5F5F4F4530510545
:1038000031F70895BF92CF92DF92EF92FF920F931C
:103810001F93CF93DF938C01C0901502D0901602B6
:10382000E0901702F090180280911102909112021C
:10383000A0911302B0911402C82AD92AEA2AFB2ABD
:10384000CFE1D0E0D701C6010C2E04C0B695A795F4
:10385000979587950A94D2F780FF07C0BC2EB801D0
:103860008C2F0E94D805019719F4219758F7B12C95
:103870008B2DDF91CF911F910F91FF90EF90DF90F3
:10388000CF90BF900895CF93DF93EC010E94021C6C
:10389000BE010E94D805DF91CF9108951F93CF9369
:1038A000DF93EB019091D301992321F0CB010E948A
:1038B000431C13C0882349F0CB010E94021C182F1F
:1038C000682FCE010E94AB1B04C0CB010E94D81B05
:1038D000182FBE01812F0E94D805DF91CF911F9133
:1038E0000895809119028595859585950895809113
:1038F00019028770089590911902977081E009F478
:1039000080E0089580912502089590912502892BE9
:1039100080932502089580959091250289238093B4
:103920002502089510922502089590912402892B72
:103930008093240208958095909124028923809396
:103940002402089510922402089590912302892B55
:103950008093230208958095909123028923809378
:103960002302089510922302089580911A02089567
:1039700008950C94B81C90911A02981721F0809326
:103980001A020C94B91C089580911A02882329F018
:1039900010921A0280E00C94B91C0895E091100175
:1039A000F0911101809125028083E0911001F09146
:1039B0001101908180912402892B8083E091100174
:1039C000F0911101908180912302892B8083809155
:1039D0001A02882381F0E0911001F0911101908189
:1039E000892B808380911001909111010E94F01D1C
:1039F00081110E94C41C80911001909111010C94BE
:103A0000741208950C94011D982F990F990F990F16
:103A1000692B609319020E940D1B809119028595F4
:103A2000859585950C94021D1092190280E00C94E6
:103A3000021D209119028095822380931902982FEC
:103A4000977079F430E0482F082E000C550B24179E
:103A5000350739F08595859585950E942E1B0C9428
:103A6000141D08959093B5018093B4010895829533
:103A7000982F9C7C292F26952695982F9373990F24
:103A8000990F922B892F8A7A86959575990F892B94
:103A9000089580E090E00E941D2721E08C3E9E4F1B
:103AA00009F020E0822F089582E090E00C940F2727
:103AB00083E090E00C940F27CF9384E090E00E9485
:103AC0000F27C82F81E290E00E940F272C2F30E0B3
:103AD000A901582BCA01CF910895CF93C92F682F00
:103AE00084E090E00E9423276C2F81E290E0CF9148
:103AF0000C942327AB01BC018FE090E00C94352798
:103B0000AB01BC0183E190E00C94352760E070E0EC
:103B1000CB010C94801D60E070E0CB010E947A1D07
:103B20000C94861D6CEE7EEF80E090E00E944127B1
:103B300060E082E090E00E94232760E083E090E074
:103B40000E9423271092150210921602109217025B
:103B50001092180260E084E090E00E94232760E069
:103B600081E290E00E94232760E085E090E00E94DF
:103B7000232760E086E090E00E9423276FEF87E034
:103B800090E00E94232740E050E0BA0188E090E0F6
:103B90000E94352760E08DE090E00E94232740E0FE
:103BA00050E0BA0188E190E00E94352760E087E1AB
:103BB00090E00E94232740E050E0BA018CE190E0C1
:103BC0000E94352760E080E290E00E9423270C9459
:103BD0008B1D0C94921D682F8EE090E00C9423278F
:103BE000FC01329697E080E0915029F02191222348
:103BF000D9F38F5FF9CF08959C01FC0132969FEFB6
:103C000080E04191461789F09F3F19F4411101C0AE
:103C1000982F8F5F8630A9F79F3F39F0F901E90FA0
:103C2000F11D97FDFA95628308950895FC0132967F
:103C300008962081261301C010823196E817F907F3
:103C4000C1F708950C94FC1D0C94161E029626E0F4
:103C5000FC0111922A95E9F7089508950C942D1E00
:103C60000E942E1E80915702843049F11092270243
:103C700020E488E190E00FB6F894A8958093600066
:103C80000FBE2093600080E00E9448050E942E1E17
:103C900083B7817F846083BF83B7816083BF78945B
:103CA000889583B78E7F83BF0FB6F894A8958091CF
:103CB0006000886180936000109260000FBE0895DC
:103CC000089508950E94601E0E9405080E94611ECA
:103CD00080E00E94CA0791E0811101C090E0892F25
:103CE000089508950C94711E0E94BE160E946812D9
:103CF0000E9448050C94721E1F920F920FB60F92ED
:103D000011248F939F93AF93BF93809127028111CA
:103D100013C080914D0290914E02A0914F02B0913C
:103D200050024196A11DB11D80934D0290934E0209
:103D3000A0934F02B0935002BF91AF919F918F918A
:103D40000F900FBE0F901F90189582E084BD93E0F6
:103D500095BD9AEF97BD80936E0008952FB7F894A4
:103D600080914D0290914E02A0914F02B09150026D
:103D70002FBF0895CF92DF92EF92FF920F931F9380
:103D80002FB7F89440914D0250914E0260914F022E
:103D9000709150022FBF6A017B01EE24FF248C0139
:103DA00020E030E0C016D106E206F30610F44150E0
:103DB00051099A01281B390BC9011F910F91FF90DE
:103DC000EF90DF90CF90089578941F920F920FB6E6
:103DD0000F9211248F939F93AF93BF9380914D02C5
:103DE00090914E02A0914F02B09150020196A11DF8
:103DF000B11D80934D0290934E02A0934F02B09359
:103E00005002BF91AF919F918F910F900FBE0F9075
:103E10001F90189581E08093E00080E28093D800A5
:103E20001092C9008FE19EE40197F1F700C00000F5
:103E300087E090EBDC018093600290936102A09395
:103E40006202B09363029CE088E10FB6F894A895F3
:103E5000809360000FBE90936000FFCF0E94491DC9
:103E6000811102C00E94E91D0E94541D8093260208
:103E70000E945C1D90935202809351020E94581D33
:103E8000682F70E080E090E00C94AC1A80E0089518
:103E9000CF9390912802992339F1913019F5C82FC9
:103EA0000E94461F81111BC0C43189F018F4CB3029
:103EB00029F010C0C93259F0C83361F488E596E0A2
:103EC0000E94550485E796E00E94550408C01092B0
:103ED00028020CC083E796E00E94550407C081E0E9
:103EE000817006C01092280280E002C080E0F8CF06
:103EF000CF91089580913402089508959FB7F89462
:103F000010922B029FBF90915702943009F057C036
:103F10009091E9009F703091EC00232F217030FDCB
:103F200020E8922B23E02093E9002091EB0020FF72
:103F300043C02091EE0027FF3FC020912902222399
:103F400021F02091E80025FF37C01092290226E0D9
:103F50003091E80035FD15C030915702343061F5DD
:103F60003091EB0035FD28C0215021F481E0809391
:103F7000290222C0EFE9FFE03197F1F700C000000D
:103F8000E7CF8093F1008091E80085FD0AC0809121
:103F9000E80080FFFCCF8091E8008E778093E800F6
:103FA00006C08FB7F89421E020932B028FBF9F703B
:103FB0009093E90080E008959F709093E9008FEF5F
:103FC0000895CF93DF9300D01F92CDB7DEB79091C5
:103FD0005702943019F589837B836A8382E080934A
:103FE000E9008FEF9091E800815095FD06C095EDB6
:103FF0009A95F1F700008111F5CF8091E80085FFD7
:104000000DC040E050E063E070E0CE0101960E94F8
:1040100046228091E8008E778093E8000F900F9001
:104020000F90DF91CF910895CF93DF93EC010E9421
:104030002922823011F0843031F4BE0184E0DF9116
:10404000CF910C94E11FDF91CF910895BC0160588E
:10405000710983E00C94E11FCF93DF93EC010E9480
:104060002922823011F0843039F581E08093E90013
:104070008FEF9091E800815095FD06C095ED9A95DF
:10408000F1F700008111F5CF8091E80085FF14C0A1
:1040900040E050E068E070E0CE010E94462280914E
:1040A000E8008E778093E80088E0FE01ACE2B2E0A1
:1040B00001900D928A95E1F7DF91CF91089586E9FD
:1040C00096E00C94550482E996E00C9455048EE831
:1040D00096E00E9455040C94741E20912A022F5FD2
:1040E000822F62E30E94BA26992319F020932A02B4
:1040F000089510922A0280912B02882371F18091F9
:104100005702843041F58091E9008F702091EC00D6
:10411000922F917020FD90E8892B93E09093E90015
:104120009091EB0090FF14C09091EE0097FF10C0AB
:104130009091E80095FF03C01092F100F9CF9091A3
:10414000E80090FF05C09091E8009E779093E8000A
:104150008F708093E90010922B02089542E061EC89
:1041600081E00E944F2342E261EC82E00E944F23F3
:1041700042E261EC83E00C944F238091590283303A
:1041800009F45CC030F4813071F0823009F495C0DC
:1041900008958A3009F481C08B3009F467C08930F2
:1041A00009F0A3C020C080915802813A09F09DC057
:1041B0008091E800877F8093E80080915C02909175
:1041C0005D02892B21F468E08CE292E003C060E09C
:1041D00080E090E070E00E9491228091E8008B776F
:1041E0008093E800089580915802813209F07DC0E3
:1041F00080915C0290915D02029708F076C08091F8
:10420000E800877F8093E8008091E80082FD05C088
:10421000809157028111F8CF68C08091F2008230FE
:1042200029F48091F1008B7F813021F48091F1009D
:10423000809334028091E8008B7753C080915802BC
:10424000813A09F052C080915C0290915D02892B05
:1042500009F04BC08091E800877F8093E80080914F
:10426000E80080FFFCCF80911C0136C0809158028D
:104270008132D9F580915C0290915D02892BA9F57C
:104280008091E800877F8093E8000E9484238091DA
:104290005A0280931C010C94BE1680915802813200
:1042A00021F58091E800877F8093E8000E948423B5
:1042B00080915B0280933502089580915802813A83
:1042C000A1F48091E800877F8093E8008091E80066
:1042D00080FFFCCF809135028093F1008091E8004F
:1042E0008E778093E8000C948423089584B7877FA9
:1042F00084BF0FB6F894A895809160008861809380
:104300006000109260000FBE90E080E80FB6F89455
:1043100080936100909361000FBE0E94F0120E9492
:10432000D5230E9428248091E20084608093E200DB
:104330008EE79FE10E94321D78940E9485260E949C
:10434000F61282E191E00E9463128DE796E00E94EE
:10435000550480915702853089F489E796E00E94E0
:1043600055040E94301E80915502882391F30E94CB
:10437000621E882371F30E943022EBCF0E94281323
:10438000E8CF0C94C321292F332723303105C9F0FE
:1043900064F42130310581F02230310509F049C043
:1043A0008BE590E02AEF36E048C02132310521F15B
:1043B0002232310571F13DC082E190E025E537E020
:1043C0003CC099278130910571F02CF4892B89F537
:1043D000E6EFF6E00DC08230910541F0039749F514
:1043E000EAE9F6E005C0E6EDF6E002C0E0EAF6E054
:1043F000849190E09F0121C063307105D0F4660F75
:10440000771FFB01E355FE4F2081318189E090E069
:1044100014C06330710568F4FB01EE0FFF1FE9550E
:10442000FE4F20813181FB01EC55FE4F808190E0F1
:1044300004C080E090E020E030E0FA013183208386
:10444000089580915702843011F081E0089582E050
:10445000089580913602811102C00C9421220895A2
:1044600084E089BD86E089BD09B400FEFDCF80915E
:10447000D8008F7D8093D8008091E0008260809387
:10448000E0008091E00081FDFCCF0895CF92DF92A3
:10449000EF92FF920F931F93CF93DF93EC018B0169
:1044A0006A010E94A323811133C0C114D10439F0E1
:1044B000F60180819181081B190BC80FD91FE12CCF
:1044C000F12C0115110519F18091E80085FD16C048
:1044D0008091E8008E778093E800C114D10449F000
:1044E000F60180819181E80EF91EF182E08285E07B
:1044F0000FC00E94A323882321F30AC089918093CF
:10450000F10001501109FFEFEF1AFF0ADACF80E046
:10451000DF91CF911F910F91FF90EF90DF90CF909F
:10452000089520915E0230915F022617370748F008
:104530006115710539F42091E8002E772093E80089
:1045400001C0B90140E06115710591F12091570258
:10455000222309F440C0253009F43FC02091E8002F
:1045600023FD3DC02091E80022FD2FC02091E800EE
:1045700020FFE9CF2091F20030E0FC01CF0161156E
:10458000710559F02830310540F481918093F10094
:10459000615071092F5F3F4FF1CF41E02830310565
:1045A00009F040E02091E8002E772093E800CBCF7F
:1045B0004111CCCF0AC080915702882361F0853029
:1045C00061F08091E80083FD0AC08091E80082FFDD
:1045D000F2CF80E0089582E0089583E0089581E0BD
:1045E000089520915E0230915F022617370748F048
:1045F0006115710539F42091E8002E772093E800C9
:1046000001C0B901FC0120E06115710579F18091CB
:104610005702882309F43DC0853009F43CC08091DD
:10462000E80083FD3AC08091E80082FD2CC08091B3
:10463000E80080FFE9CF8091F20090E061157105FC
:1046400059F08830910540F424912093F10031967F
:10465000615071090196F2CF21E0089709F020E03E
:104660008091E8008E778093E800CECF2111CFCFE4
:104670000AC080915702882361F0853061F08091F3
:10468000E80083FD0AC08091E80082FFF2CF80E05D
:10469000089582E0089583E0089581E00895982FB9
:1046A000953058F59093E900981739F07091EC0027
:1046B0002091ED005091F00003C0242F762F50E0A0
:1046C00021FF19C03091EB003E7F3093EB00309119
:1046D000ED003D7F3093ED003091EB003160309381
:1046E000EB007093EC002093ED005093F0002091CC
:1046F000EE0027FF07C09F5FD3CF8F708093E90044
:1047000081E0089580E008958091580287FF11C0EC
:104710008091E80082FD05C0809157028111F8CF99
:1047200011C08091E8008B770BC0809157028823DD
:1047300049F08091E80080FFF8CF8091E8008E7703
:104740008093E80008952091E4003091E50095E61B
:104750004091EC00842F817040FF22C08091E800DE
:1047600080FD1CC080915702882391F0853091F024
:104770008091EB0085FD10C04091E4005091E50070
:104780004217530729F39A01915011F784E00895D5
:1047900082E0089583E0089581E0089580E008951F
:1047A0004091E80042FFDECF08950E9432240E942B
:1047B0003524E0EEF0E0808181608083E8EDF0E078
:1047C00080818F77808319BCE3E6F0E0808181608F
:1047D00080831092560208950E9432240E9435244C
:1047E0008091D8008F778093D8008091D80080681E
:1047F0008093D8008091D8008F7D8093D80084E08A
:1048000089BD86E089BD09B400FEFDCF1092570234
:1048100010925302109255021092540242E060E04E
:1048200080E00E944F238091E1008E7F8093E10021
:104830008091E20081608093E2008091E2008860D4
:104840008093E2008091E0008E7F8093E0000895E5
:10485000E3E6F0E080818E7F808381E080935602E2
:104860000C94EC231092E20008951092E100089558
:104870001F920F920FB60F9211242F933F934F93D5
:104880005F936F937F938F939F93AF93BF93EF93B8
:10489000FF938091E10082FF0BC08091E20082FFD4
:1048A00007C08091E1008B7F8093E1000E946D2022
:1048B0008091E10080FF19C08091E20080FF15C067
:1048C0008091E2008E7F8093E2008091E20080611F
:1048D0008093E2008091D80080628093D80019BC58
:1048E00085E0809357020E9463208091E10084FF5D
:1048F00030C08091E20084FF2CC084E089BD86E056
:1049000089BD09B400FEFDCF8091D8008F7D8093D2
:10491000D8008091E1008F7E8093E1008091E200D9
:104920008F7E8093E2008091E20081608093E200BC
:1049300080915302882311F084E007C08091E30046
:1049400087FD02C081E001C083E0809357020E948E
:1049500067208091E10083FF29C08091E20083FFFE
:1049600025C08091E100877F8093E10082E0809301
:104970005702109253028091E1008E7F8093E100F4
:104980008091E2008E7F8093E2008091E20080615E
:104990008093E20042E060E080E00E944F2380913B
:1049A000F00088608093F0000E945F20FF91EF91FB
:1049B000BF91AF919F918F917F916F915F914F9137
:1049C0003F912F910F900FBE0F901F9018951F923F
:1049D0000F920FB60F9211242F933F934F935F9333
:1049E0006F937F938F939F93AF93BF93CF93DF93F7
:1049F000EF93FF93C091E900CF708091EC00D82F26
:104A0000D17080FDD0E81092E9008091F000877F9E
:104A10008093F00078940E942B251092E9008091F9
:104A2000F00088608093F000CD2BCF70C093E90038
:104A3000FF91EF91DF91CF91BF91AF919F918F91B6
:104A40007F916F915F914F913F912F910F900FBE8A
:104A50000F901F9018951F93CF93DF93CDB7DEB7BC
:104A6000AA970FB6F894DEBF0FBECDBFE8E5F2E01F
:104A700088E08E0F9091F10091938E13FBCF0E94EE
:104A8000BD208091E80083FF28C180915802909159
:104A90005902492F50E04A30510508F01EC1FA0171
:104AA000E459FF4F0C94FC26803821F0823809F03D
:104AB00014C108C08091540290915502992389F045
:104AC00082600FC080915C028F70853008F005C154
:104AD0008093E9008091EB0085FB882780F9109294
:104AE000E9009091E800977F9093E8008093F100AF
:104AF0001092F100D0C0282F2D7F09F0EEC088233E
:104B000019F0823061F0E9C080915A02813009F0D9
:104B1000E4C0933009F080E0809355022EC080916C
:104B20005A0281112AC080915C028F702FEF280FEA
:104B3000243008F0D2C08093E9002091EB0020FFE0
:104B40001CC0933021F48091EB00806214C09091DE
:104B5000EB0090619093EB0021E030E0A90102C0EE
:104B6000440F551F8A95E2F74093EA001092EA003D
:104B70008091EB0088608093EB001092E9008091B7
:104B8000E800877F8093E8000E948423A6C08111FB
:104B9000A4C010915A021F778091E3008078812B86
:104BA0008093E3008091E800877F8093E8000E9473
:104BB00084238091E80080FFFCCF8091E30080682F
:104BC0008093E300111102C082E001C083E0809372
:104BD000570283C08058823008F07FC080915A020B
:104BE00090915B028C3D53E0950779F583E08A83D1
:104BF0008AE289834FB7F894DE01139620E03EE005
:104C000051E2E32FF0E050935700E49120FF03C0FE
:104C1000E295EF703F5FEF708E2F90E0EA3010F07A
:104C2000C79601C0C0968D939D932F5F243149F79D
:104C30004FBF8091E800877F8093E8006AE270E0D0
:104C4000CE0101960E94912215C060915C02709184
:104C50005D02AE014F5F5F4F0E94C121BC01892BF5
:104C6000E1F19091E800977F9093E80089819A8123
:104C70000E94F1228091E8008B778093E8002DC09C
:104C8000803859F58091E800877F8093E800809113
:104C900053028093F1008091E8008E7773CF8111E9
:104CA0001CC090915A029230C0F48091E800877F36
:104CB0008093E800909353020E94842380915302D2
:104CC000811106C08091E30087FD02C081E001C030
:104CD00084E0809357020E94AE208091E80083FF19
:104CE0000AC08091E800877F8093E8008091EB0004
:104CF00080628093EB00AA960FB6F894DEBF0FBED9
:104D0000CDBFDF91CF911F910895CF93809157022E
:104D10008823A1F0C091E900CF709091EC00892F19
:104D2000817090FD80E8C82B1092E9008091E80026
:104D300083FD0E942B25CF70C093E900CF91089589
:104D4000002480FD060E660F11F08695D1F7802DA8
:104D500008950024552704C0080E591F880F991F75
:104D6000009729F076956795B8F37105B9F7802D0E
:104D7000952F0895991B79E004C0991F961708F0A4
:104D8000961B881F7A95C9F78095089587FB082E92
:104D9000062687FD819567FD61950E94BA260EF46F
:104DA000919507FC81950895AA1BBB1B51E107C093
:104DB000AA1FBB1FA617B70710F0A61BB70B881FAB
:104DC000991F5A95A9F780959095BC01CD0108953A
:104DD00097FB072E16F4009407D077FD09D00E94A8
:104DE000D42607FC05D03EF4909581959F4F0895F9
:104DF000709561957F4F0895EE0FFF1F0590F49118
:104E0000E02D0994FC014150504030F0019006160D
:104E1000D1F73197CF010895882799270895F999F7
:104E2000FECF92BD81BDF89A992780B50895A6E17D
:104E3000B0E044E050E00C944927A8E1B0E042E043
:104E400050E00C944927262FF999FECF92BD81BDE1
:104E5000F89A019700B4021639F01FBA20BD0FB6B8
:104E6000F894FA9AF99A0FBE08950396272F0E9494
:104E700024270E942327252F0E942427242F0C94C7
:104E800024270196272F0E9424270C942327DC0136
:104E9000CB01FC01F999FECF06C0F2BDE1BDF89A45
:104EA000319600B40D9241505040B8F70895F894EF
:024EB000FFCF32
:104EB200010205050501191A1B1C1D1E1F202122B6
:104EC2001B027A1F2C207D1F2620142001E200E9FC
:104ED20000EA00B500B600B700CD008301CC008A1D
:104EE20001920194012102230224022502260227B3
:104EF200022A02B300B4006F0070008182830001B5
:104F0200020202020606060909090909090F0F0F22
:104F12000F0F0F151515181919191919191919192A
:104F2200192324E200E900EA00B500B600B700CD7B
:104F3200008301CC008A0192019401210223022400
:104F4200022502260227022A02B300B4006F007073
:104F520000818283403622BF07890767070C072535
:044F6200073E0700FF
:00000001FF
