:100000000C9440070C9487070C9487070C9487077F
:100010000C9487070C9487070C9487070C94870728
:100020000C9487070C9487070C94512F0C94233061
:100030000C9463260C9487070C9487070C9487070D
:100040000C9487070C9487070C9487070C948707F8
:100050000C9487070C94D7260C9487070C94870779
:100060000C9487070C9487070C9487070C948707D8
:100070000C9487070C9487070C9487070C948707C8
:100080000C9487070C9487070C9487070C948707B8
:100090000C9487070C9487070C9487070C948707A8
:1000A0000C9487070C9487070C948707EF13F213BF
:1000B000FA13FF13041409140E14131418141D1446
:1000C0002214271429142C142F1432143514381424
:1000D0003A143F14331C331C651C651CB21C151EDE
:1000E000151E151ED21C6F1D801D801DE11DEA1DF1
:1000F000151E0E1E931E931EA51EA51E9C1EA51E3C
:10010000A51EA51E931E931EA11EA51EA51EA11E03
:100110009030B730A931B730A93103312631A93138
:100120007C318B311E001F002000210022002300A3
:10013000240025002600005CC05C780001004A0015
:10014000C35CAC004D00AB0044454255473A2064C7
:10015000697361626C65642E0A0044454255473AF2
:1001600020656E61626C65642E0A000A00253038D5
:1001700062003A200025303258000A722F63203086
:10018000313233343536370A007267626C6967681A
:10019000742074696D65722064697361626C652E88
:1001A0000A007267626C696768742074696D6572B1
:1001B00020656E61626C65642E0A007267626C690C
:1001C0006768742073657420687376205B4E4F45B2
:1001D0004550524F4D5D3A2025752C25752C2575BF
:1001E0000A007267626C69676874207365742068BE
:1001F0007376205B454550524F4D5D3A2025752C56
:1002000025752C25750A007267626C696768742011
:100210007261696E626F7720736574206873763AD5
:100220002025642C25642C25642C25750A00726712
:10023000626C696768742064697361626C65205BD5
:100240004E4F454550524F4D5D3A207267626C6982
:100250006768745F636F6E6669672E656E61626C56
:1002600065203D2025750A007267626C69676874B5
:100270002064697361626C65205B454550524F4D47
:100280005D3A207267626C696768745F636F6E665F
:1002900069672E656E61626C65203D2025750A00D8
:1002A0007267626C6967687420656E61626C652054
:1002B0005B4E4F454550524F4D5D3A207267626C20
:1002C000696768745F636F6E6669672E656E6162E9
:1002D0006C65203D2025750A007267626C6967684D
:1002E0007420656E61626C65205B454550524F4DD0
:1002F0005D3A207267626C696768745F636F6E66EF
:1003000069672E656E61626C65203D2025750A0067
:100310007267626C6967687420746F67676C6520C8
:100320005B454550524F4D5D3A207267626C69677C
:1003300068745F636F6E6669672E656E61626C6577
:10034000203D2025750A007267626C696768742019
:100350006D6F6465205B4E4F454550524F4D5D3A81
:100360002025750A007267626C69676874206D6F7A
:100370006465205B454550524F4D5D3A2025750A16
:10038000007267626C696768745F696E6974207275
:1003900067626C696768745F636F6E6669672E6D0C
:1003A0006F6465203D20302E20577269746520648B
:1003B000656661756C742076616C75657320746F09
:1003C00020454550524F4D2E0A007267626C696796
:1003D00068745F696E6974206565636F6E666967CE
:1003E000206973206E6F7420656E61626C65642E87
:1003F0000A007267626C696768745F696E6974206D
:100400007374617274210A007267626C6967687440
:100410005F696E69742063616C6C65642E0A00729A
:1004200067626C696768745F636F6E6669672E7375
:1004300070656564203D2025640A007267626C69FE
:100440006768745F636F6E6669672E76616C203DC6
:100450002025640A007267626C696768745F636F65
:100460006E6669672E736174203D2025640A0072F0
:1004700067626C696768745F636F6E6669672E6830
:100480007565203D2025640A007267686C6967689D
:10049000745F636F6E6669672E6D6F6465203D20C3
:1004A00025640A007267626C696768745F636F6EC7
:1004B0006669672E656E61626C65203D2025640A61
:1004C000007267626C696768745F636F6E66696704
:1004D00020454550524F4D3A0A0000047F3F1F64AB
:1004E0003214643214783C1E1E140A052223252679
:1004F00028292A2C2D2F3032333536383A3B3D3ED1
:100500004042434547494A4C4E5051535557595A1A
:100510005C5E6062646668696B6D6F717375777934
:100520007B7D7F81838587898A8C8E909294969833
:100530009A9C9E9FA1A3A5A7A8AAACAEAFB1B3B445
:10054000B6B8B9BBBCBEBFC1C2C3C5C6C7C9CACB9A
:10055000CCCDCED0D1D2D2D3D4D5D6D7D7D8D9D965
:10056000DADADBDBDBDCDCDCDCDCDDDDDDDDDCDCCE
:10057000DCDCDCDBDBDBDADAD9D9D8D7D7D6D5D4EB
:10058000D3D2D2D1D0CECDCCCBCAC9C7C6C5C3C2B7
:10059000C1BFBEBCBBB9B8B6B4B3B1AFAEACAAA80C
:1005A000A7A5A3A19F9E9C9A98969492908E8C8AC0
:1005B00089878583817F7D7B79777573716F6D6B9B
:1005C0006968666462605E5C5A5957555351504E73
:1005D0004C4A4947454342403E3D3B3A3836353325
:1005E00032302F2D2C2A292826252322FFAA7F5599
:1005F000406261636B6C6967687420737465703AFC
:100600002025750A006261636B6C696768742064F9
:10061000697361626C650A006261636B6C6967682B
:100620007420656E61626C650A006261636B6C695F
:1006300067687420746F67676C653A2025750A00D7
:100640006261636B6C69676874206465637265617D
:1006500073653A2025750A006261636B6C6967688F
:100660007420696E6372656173653A2025750A00AE
:100670000001010101010101010102020202020265
:100680000202020303030303030303040404040438
:1006900004040505050505060606060607070707FF
:1006A0000708080808090909090A0A0A0B0B0B0CB4
:1006B0000C0C0D0D0D0E0E0E0F0F0F101011111151
:1006C00012121313141415151616171718181919D2
:1006D0001A1A1B1B1C1D1D1E1E1F20202122222337
:1006E0002424252626272829292A2B2C2D2D2E2F78
:1006F00030313232333435363738393A3B3C3D3E8F
:100700003F404142434445464748494A4C4D4E4F7D
:1007100050515354555658595A5B5D5E5F6162643F
:10072000656668696B6C6D6F7072737577787A7BCC
:100730007D7E8082838587888A8C8E8F9193959623
:10074000989A9C9EA0A2A3A5A7A9ABADAFB1B3B543
:10075000B7BABCBEC0C2C4C6C9CBCDCFD1D4D6D81F
:10076000DBDDDFE2E4E7E9EBEEF0F3F5F8FAFDFFBD
:100770000A002530325820006B6579626F6172641F
:100780005F7265706F72743A20000A00253032582B
:10079000006B6579626F6172645F7365745F6C652D
:1007A000643A20003F00433E20004C25640A007458
:1007B000696D65725F72656164333228293A20255C
:1007C00030346C580A006B6579626F6172645F69DE
:1007D000646C653A2025580A006B6579626F617216
:1007E000645F70726F746F636F6C3A2025580A00F3
:1007F000686F73745F6B6579626F6172645F6C655B
:10080000647328293A2025580A000A092D205374B8
:1008100061747573202D0A004743433A20342E3902
:100820002E32204156522D4C4942433A20312E3827
:100830002E3073766E204156525F415243483A2023
:10084000617672350A004F5054494F4E533A204C4E
:100850005546412045585452414B455920434F4E2F
:10086000534F4C4520434F4D4D414E442034303979
:10087000360A004255494C443A2022302E372E3158
:1008800035352D332D676336363933302D64697233
:10089000747922202831383A31343A31342046658F
:1008A000622031382032303230290A005649443A29
:1008B00020307843423130284B656562696F2920CA
:1008C0005049443A203078313133332842444E394C
:1008D00029205645523A203078303130300A0044D1
:1008E0004553433A20337833204D6163726F706112
:1008F00064207769746820526F7461727920456E44
:10090000636F646572730A000A092D20566572735D
:10091000696F6E202D0A000A092D20436F6E736FD8
:100920006C65202D0A4553432F713A09717569741E
:100930000A000A092D204D61676963202D0A443A97
:10094000094465627567204D65737361676520545E
:100950006F67676C650A583A094D6174726978204F
:100960004465627567204D6F646520546F67676CDE
:1009700065202D2053686F77206B657970726573E1
:1009800073657320696E206D617472697820677277
:1009900069640A4B3A094B6579626F61726420445D
:1009A0006562756720546F67676C65202D205368FA
:1009B0006F77206B65797072657373207265706FE5
:1009C00072740A4D3A094465627567204D6F7573FC
:1009D0006520546F67676C650A563A0956657273ED
:1009E000696F6E0A533A095374617475730A433A16
:1009F00009416374697661746520436F6E736F6C2F
:100A000065204D6F64650A46312D4631303A0953F1
:100A1000776974636820746F204C61796572203047
:100A20002D392028463130203D204C30290A302DE8
:100A3000393A0953776974636820746F204C61797F
:100A4000657220302D390A47524156453A0953778D
:100A50006974636820746F204C617965722030205E
:100A600028616C7465726E617465290A423A094A9C
:100A7000756D7020746F20426F6F746C6F61646568
:100A8000720A4553433A094A756D7020746F2042CB
:100A90006F6F746C6F616465722028616C7465722D
:100AA0006E617465290A453A095072696E74204571
:100AB0004550524F4D2053657474696E67730A42F6
:100AC00053504143453A09436C6561722045455096
:100AD000524F4D0A000A002575002E6C6576656C34
:100AE0003A20000A002575002E656E61626C653A39
:100AF00020000A0025303258006261636B6C696720
:100B000068745F636F6E6669672E7261773A200062
:100B10000A002575002E6E6B726F3A20000A0025C0
:100B200075002E737761705F6261636B736C6173C4
:100B3000685F6261636B73706163653A20000A00ED
:100B40002575002E737761705F67726176655F65EA
:100B500073633A20000A002575002E6E6F5F67757B
:100B6000693A20000A002575002E737761705F7264
:100B7000616C745F726775693A20000A0025750020
:100B80002E737761705F6C616C745F6C6775693A26
:100B900020000A002575002E737761705F72637400
:100BA0006C5F726775693A20000A002575002E7324
:100BB0007761705F6C63746C5F6C6775693A200075
:100BC0000A002575002E636170736C6F636B5F7430
:100BD0006F5F636F6E74726F6C3A20000A00257548
:100BE000002E737761705F636F6E74726F6C5F63FA
:100BF0006170736C6F636B3A20000A0025303258C5
:100C0000006B65796D61705F636F6E6669672E72E8
:100C100061773A20000A002575002E6D6F757365A7
:100C20003A20000A002575002E6B6579626F6172AB
:100C3000643A20000A002575002E6D61747269788F
:100C40003A20000A002575002E656E61626C653AD7
:100C500020000A00253032580064656275675F63C2
:100C60006F6E6669672E7261773A20000A002575FB
:100C70000064656661756C745F6C617965723A20B9
:100C8000003F000A6D6F7573653A206F66660A0053
:100C90000A6D6F7573653A206F6E0A000A6B65798D
:100CA000626F6172643A206F66660A000A6B65794A
:100CB000626F6172643A206F6E0A000A6D6174722D
:100CC00069783A206F66660A000A6D617472697805
:100CD0003A206F6E0A000A64656275673A206F6693
:100CE000660A000A64656275673A206F6E0A000A38
:100CF0000A4A756D70696E6720746F20626F6F7439
:100D00006C6F616465722E2E2E2000433E200043DE
:100D10006C656172696E6720454550524F4D0A00FF
:100D20006565636F6E6669673A0A005B735D004BC9
:100D30006579626F6172642073746172742E0A0047
:100D40005B575D005B535D005B525D005B445D0083
:100D50005B435D000403300000000A0342004400CE
:100D60004E00390000000E034B0065006500620074
:100D700069006F0000000403090409025B0003011D
:100D800000A0FA090400000103010100092111017A
:100D900000012240000705810308000A0904010040
:100DA000010300000009211101000122360007059E
:100DB000820320000A090402000203000000092146
:100DC000110100012222000705830320000107050D
:100DD0000303200001120110010000000810CB33B2
:100DE000110001010203010631FF0974A101097517
:100DF000150026FF0095207508810209761500264A
:100E0000FF00952075089102C005010980A10185A8
:100E1000031A81002A83001601002603009501753C
:100E2000108100C0050C0901A10185041A01002AE6
:100E30009C02160100269C02950175108100C005D8
:100E4000010906A101050719E029E715002501950B
:100E500008750181029501750881010507190029AE
:100E6000FF150026FF009506750881000508190189
:100E70002905950575019102950175039101C00041
:100E800011241FBECFEFDAE0DEBFCDBF04B603FEF4
:100E900027C080918D0290918E02A0918F02B09117
:100EA00090028730904BA740B04BD1F410928D0246
:100EB00010928E0210928F021092900214BE84B78C
:100EC000877F84BF0FB6F894A895809160008861F1
:100ED00080936000109260000FBEE0E0F8E3099597
:100EE00011E0A0E0B1E0E2E7F5E602C005900D9266
:100EF000A03DB107D9F722E0A0EDB1E001C01D92FD
:100F0000AD38B207E1F70E94712C0C94B7320C9403
:100F10000000FF93EF93E091D001F091D101309761
:100F200009F00995EF91FF910895FC0185918030BA
:100F300011F0EFDFFBCF0895FF27E0E230E247FF3B
:100F40000CC0419597FF09C0EDE2609570958095C2
:100F50009095611D711D811D911D27FF02C0219576
:100F600030E350E2AA27660F771F881F991FAA1F38
:100F7000A41710F0A41B63955A95A9F7AA3008F09E
:100F8000A95FA05DAF93F39561157105810591058A
:100F900041F7ED3211F4EF93F395F21718F43F9304
:100FA000F395FBCF8F91B5DFFA95E1F70895E991BD
:100FB000F9918591803021F0853219F0AADFF9CFBF
:100FC000089520E0E89455915532C1F3503311F45F
:100FD000689455915A3348F4505390F3220F022EDF
:100FE000220F220F200D250FF4CF0EF421958991A9
:100FF0009991533619F3533729F1533559F1BC01FF
:1010000088279927E8945C3621F48991999168940E
:101010005591543639F446EF7EF077FF0DC08FEFCF
:101020009FEF0AC055374AE039F0583540E121F0CA
:10103000523642E009F00895FF93EF937DDFEF9180
:10104000FF91B7CFFF93EF93FC0181918030B9F30B
:1010500060DFFBCFFF93EF9368DFF1CFDF93CF9398
:10106000CDB7DEB72596A3DFCF91DF91089581E05C
:10107000089581E008950C9439081F93CF93DF936E
:1010800000D000D01F92CDB7DEB749835A8320919C
:10109000F70189819A81211112C0662349F00E94CB
:1010A000B823182F682F89819A810E945D2303C07D
:1010B0000E948C23182F69817A81812F04C00E949D
:1010C000B82369817A810F900F900F900F900F9045
:1010D000DF91CF911F910C940D09FC01408151814A
:1010E0006281738184810C943D080E9403258111E3
:1010F00002C00E94AC250E94FD150E9447160C9468
:10110000420B0E94AC160C94450B08950C94850874
:1011100081E008950C948808CF93C82F0E94860818
:101120008C2F0E948A08CF91089508950E94831EF3
:101130000E9495082FEF84E39CE02150804090406E
:10114000E1F700C0000087E797E7909301088093DC
:1011500000080C94FD260F931F93CF93DF93EC01AF
:101160000E946D088C01BE010E943B08882309F48F
:1011700049C0BE01C8010E94A517882309F442C0D6
:10118000BE01C8010E94E6178823E1F1BE01C80133
:101190000E9411198823B1F1BE01C8010E94D81321
:1011A000882381F18A81882331F101308CE5180789
:1011B00051F00E3D8CE51807D9F001151C45D9F406
:1011C0000E9496081FC080914F02C82FC095C17021
:1011D000C0FB80F980934F02CC2329F08AE591E08F
:1011E0000E9495070FC088E491E00E9495070BC00C
:1011F0000E94AC2507C0CE01DF91CF911F910F91C6
:101200000C943708C0E08C2FDF91CF911F910F9184
:10121000089580E090E008950895272F30E0F901C7
:10122000EE0FFF1F2E0F3F1FF90199E0899FE00D80
:10123000F11D1124E60FF11DEE0FFF1FEC5DFE4FB7
:10124000859194910895880F991FFC01E559FE4FEF
:10125000859194910895CF93DF930E940D090E9488
:101260006A0AEC01811522E5920708F046C0811553
:1012700031E5930708F0FBC0883E910500F5803EFC
:10128000910508F023C1883A910570F4853A9105DB
:1012900008F0B1C08130910509F418C108F414C1F7
:1012A000049708F013C110C18F3B910508F4ABC03F
:1012B000803C910508F408C1805C9109AFC081159C
:1012C00040E4940790F4C11580E3D80708F0AAC061
:1012D000C11521E0D20708F4F7C0C11530E2D307E9
:1012E00008F4F4C0CE019F7099C0811540E59407C1
:1012F00008F0A2C0DF70D06AE9C0C11589E5D8073F
:10130000B8F5C11528E5D20708F0CAC0C11534E503
:10131000D307D0F42C2F26952695CE0183709927DC
:10132000C115D34508F0A8C040E2249F90011124C4
:10133000C1E0D0E002C0CC0FDD1F8A95E2F72C2B74
:101340003D2BE901DC68C2C0C11585E5D80708F46A
:10135000A2C0C11526E5D20708F0B6C08C2F0E94A6
:10136000FE0A8F71C82FD0E0DC2FCC27D062AEC030
:10137000CD3B3CE5D30709F49EC0E0F4CB3B8CE5C4
:10138000D80709F492C008F093C0C1153AE5D30715
:1013900008F09AC08C2F8F700E94FE0A94E0D695B8
:1013A000C7959A95E1F7CF70D0E0DC2FCC27D069B4
:1013B000C82B8CC0C03C4CE5D40709F482C060F453
:1013C000CE3B2CE5D20709F479C0CF3BDC4509F0D0
:1013D0007BC0C0E0D2ED7AC0CE019056811590421C
:1013E00008F072C08D2F8F710E94FE0ADD27D06237
:1013F0008F71D82B6BC0C55AD0E0C55BDE4FC8815A
:10140000D0E0D06463C0C85AD0E0CC0FDD1FC35E0B
:10141000DE4F0990D881C02DD46458C00E942309A2
:10142000EC0154C0CE019927D3FF03C0EC01D86C66
:101430004DC0EC01D06C4AC0837021E030E002C0A6
:10144000220F331F8A95E2F73C68CE0174E096952F
:1014500087957A95E1F78370382BCF70C695C6953E
:1014600080E2C89FE0011124C22BD32B2FC0D82FBC
:10147000CC27C16FD06A2AC040E2249F900111247A
:10148000C1E0D0E002C0CC0FDD1F8A95E2F7C22B8D
:10149000D32BDA681BC0DC2FCC27C46FD06A16C0F0
:1014A000DC2FCC27C06FD06A11C0C0E0D4ED0EC0D5
:1014B000C0E0D5ED0BC0C0E0D1ED08C0C0E0D0ED7C
:1014C00005C0C0E0D3ED02C0C0E0D0E0CE01DF91A6
:1014D000CF9108958238910569F1B0F48133910577
:1014E00009F46DC048F48932910509F463C08A3269
:1014F000910509F469C008958533910509F455C033
:1015000089339105B9F00895833E910569F138F466
:10151000803E9105B1F0823E910509F10895863E25
:101520009105A9F1873E9105B9F1843E910509F035
:1015300064C023C020917E0220FD4FC021FD4DC01C
:10154000089580917E0280FD44C080917F0280FFDB
:1015500044C080917E0284FD42C083EE4DC08091E4
:101560007E0282FF38C0F5CF80917E0282FD33C0BB
:1015700080917F0280FD31C0ECCF80917F0281FF9E
:1015800032C080917E0284FD2AC087EE35C08091F2
:101590007E0283FF26C0F5CF80917E0283FD21C0AD
:1015A00080917F0281FD1FC0ECCF80917E0285FD7E
:1015B0001CC01DC080917E0285FD19C016C080919F
:1015C0007E0286FD16C017C080917E0286FD13C084
:1015D00010C089E311C082EE0FC080EE0DC080E024
:1015E0000BC086EE09C084EE07C089E205C085E322
:1015F00003C08AE201C081E390E0089590917E02E9
:1016000092FF0DC0282F2871283019F4877F84603D
:1016100006C0282F2471243011F48B7F886093FF3B
:101620000DC0282F2871283119F4877E846106C0E7
:10163000282F2471243111F48B7E886120917F0240
:1016400020FF0DC0382F3871383019F4877F816042
:1016500006C0382F3171313011F48E7F886021FF40
:101660000DC0282F2871283119F4877E816106C0AA
:10167000282F2171213111F48E7E886194FD877E9F
:10168000089508950C94410B08950C94440BE82F91
:10169000F0E0EB59FD4F80810895CF92DF92EF92F9
:1016A000FF920F931F93CF93DF938AE791E00E94FD
:1016B000950785E6E82E82E0F82EC0E0D0E095E7B9
:1016C000C92E91E0D92E0DE611E0DF93CF93DF9282
:1016D000CF920E942E0882E791E00E949507F701C1
:1016E00081917F010E94ED241F928F931F930F938E
:1016F0000E942E088BE691E00E94950721968DB7F7
:101700009EB708960FB6F8949EBF0FBE8DBFC3302C
:10171000D105D9F6DF91CF911F910F91FF90EF90F6
:10172000DF90CF900895CF93DF932EE431E061E016
:1017300070E080E090E0F901E80FF91F4081E42FAC
:10174000E295EF70F0E0A1A14F70EB0102C0CC0F69
:10175000DD1F4A95E2F7AE015C2F50955A2351A345
:1017600052A1452B42A301968330910521F72D5FAD
:101770003F4FD1E027353D07E1F61092620210920B
:101780006502109263021092660210926402109237
:10179000670283E00E94210CDF91CF910C947508C1
:1017A0000F931F93CF93DF932EE431E0E2E6F2E054
:1017B000C0E001E010E093E09E0FD081108260E075
:1017C00070E0A901460F571FDA018C91482F42950E
:1017D0004F7050E0DA0190964C9150E08F7002C04B
:1017E000559547958A95E2F740FD07C0A801062E5A
:1017F00001C0440F0A94EAF702C040E050E0808143
:10180000482B40836F5F7F4F63307105D1F681E0D5
:10181000D41301C080E0C82B31962D5F3F4F9E133B
:10182000CCCF2C2F43E065E672E082E692E00E9486
:10183000220C0E9481088C2FDF91CF911F910F9174
:1018400008950895FF920F931F93CF93DF938C0118
:10185000F62ED72FC42F222349F081E08093D401A4
:101860000E9495269093D3018093D2018091D40158
:101870008823C1F08091D2019091D3010E94AD26BE
:10188000069780F0EF2DFD2FD8014C2F50E0CD01B1
:10189000801B910B841795071CF48D918193F7CFD2
:1018A0001092D401DF91CF911F910F91FF90089575
:1018B000AF92BF92CF92DF92FF920F931F93CF937D
:1018C000DF93D62E372FE82FF0E0711106C0E059D4
:1018D000F94F6491762F862F75C0C72FD0E0E0595D
:1018E000F94F2491F22E022F10E046E0649FC001D0
:1018F0001124EFEFF0E0BF010E94F831AB016BEA79
:101900006403C001659F900D11248D0D911D8D0DF7
:10191000911D982F990F890FDF01AC1BBD0B0A9FFA
:10192000B0010B9F700D1A9F700D1124972F839F8C
:10193000D0011124AB2FBB276F01CA1ADB0A0C9D03
:10194000D0010D9DB00D1C9DB00D11245F01A81A92
:10195000B108AC9E6001AD9ED00CBC9ED00C112491
:10196000CD2DDD27EC1BFD0B0E9FE0010F9FD00D51
:101970001E9FD00D1124ED2F4230510591F04CF4F3
:1019800041155105E1F041305105B9F4E22F2B2FFB
:1019900016C04430510569F044F04630510579F0E5
:1019A0000CC0E22F272F9D2F0AC0272F9F2DEB2F32
:1019B00006C0E72F922F2D2F02C0E72F9B2F6E2FEF
:1019C000722F892FDF91CF911F910F91FF90DF90A0
:1019D000CF90BF90AF9008950895CF93DF93762F67
:1019E000E901682F842F0E94580C798368838A83C9
:1019F000DF91CF91089580916802282F269530E0DD
:101A00002115310519F48170826005C02532310538
:101A100024F08170886480936802089588E090E0E3
:101A20000C947732CF93DF9300D000D0CDB7DEB7E0
:101A3000AB01BC0149835A836B837C830E94FB0CFE
:101A400049815A816B817C8188E090E00F900F90F2
:101A50000F900F90DF91CF910C949532E8E6F2E071
:101A600083E0808311828FEF82838383148260817D
:101A70007181828193810C94120D80914F0280FFBD
:101A800008C081EC94E09F938F930E942E080F90E2
:101A90000F9080914F0280FF0FC08091680281708B
:101AA0001F928F9384EA94E09F938F930E942E0855
:101AB0000F900F900F900F9080914F0280FF0FC0FA
:101AC0008091680286951F928F9389E894E09F9396
:101AD0008F930E942E080F900F900F900F9080917F
:101AE0004F0280FF0EC0809169021F928F938FE694
:101AF00094E09F938F930E942E080F900F900F9069
:101B00000F9080914F0280FF0EC080916A021F9259
:101B10008F9385E594E09F938F930E942E080F90FA
:101B20000F900F900F9080914F0280FF0EC0809118
:101B30006B021F928F938BE394E09F938F930E948D
:101B40002E080F900F900F900F9080914F0280FF02
:101B50000EC080916C021F928F938FE194E09F934F
:101B60008F930E942E080F900F900F900F90089562
:101B70008091680280FF02C08695089580E00895F4
:101B800080916C02833018F48F5F80936C026091B7
:101B900068027091690280916A0290916B020C94C4
:101BA000120D80916C02882319F0815080936C0291
:101BB000609168027091690280916A0290916B0253
:101BC0000C94120D6091040170E08091680280FF16
:101BD0000AC08091D90123E0829FC001112483595A
:101BE0009D4F0C9441168091D80190910301891763
:101BF00080F7E82FF0E09F01220F331FE20FF31F61
:101C0000E359FD4F1182108212828F5FF0CF9091C5
:101C1000680290FF16C09091D8012091030192179D
:101C200070F4E92FF0E0DF01AA0FBB1FEA0FFB1FE2
:101C3000E359FD4F8183608342839F5FF0CF0C9413
:101C4000E20D0895CF93DF9300D01F92CDB7DEB79A
:101C50009091680290FF0AC09E012F5F3F4F0E9443
:101C6000ED0C4B8169818A810E94070E0F900F90C5
:101C70000F90DF91CF910895CF93DF93EC01EC812A
:101C8000F0E0E451FB4F4491E8E6F2E062818181AB
:101C90000E94220E8C818F5F8C83DF91CF910895FB
:101CA000CF93DF93EC01E8E6F2E0438162818C811F
:101CB0000E94220E8C818F5F8C83DF91CF910895DB
:101CC0000F931F93CF93DF9300D01F92CDB7DEB752
:101CD0008C018091D50181110AC09E012F5F3F4F79
:101CE0004FEF6FEF0E94ED0C8A818093D501F801D0
:101CF0008481813051F028F0823061F44091D50127
:101D00000AC08091D50140E007C06091D50140E054
:101D100080E003C040E080E060E00E94070EF80130
:101D2000248130E0C901019663E070E00E940C322A
:101D300084830F900F900F90DF91CF911F910F919F
:101D400008956F927F928F929F92AF92BF92CF929F
:101D5000DF92EF92FF920F931F93CF93DF9300D008
:101D600000D0CDB7DEB7182FD62E042FB22E90910B
:101D7000680290FFB2C0E92FE695AE2FB0E0A95AF5
:101D8000BE4F8C918093E1019E7F923061F49E0161
:101D90002F5F3F4F812F0E94ED0C4B8169818A811B
:101DA0000E94070E60C0823019F400916B025BC084
:101DB000863019F41091690256C08930D9F38931FF
:101DC00009F051C0E9518E2F80958170C82EE6959B
:101DD000F0E0E451FA4FE590F490A12CFF2427E0C5
:101DE000822E22E0922E60910201A616D0F56A2C76
:101DF000712C6E9CC0016F9C900D7E9C900D1124E7
:101E000070E00E94F831812FCC2011F0860F01C0C4
:101E1000861B90914F0290FF13C0FF92EF921F928A
:101E2000CF921F928F931F92AF929F928F928C832B
:101E30000E942E080FB6F894DEBF0FBECDBF8C8176
:101E40009091D801690E711C9301220F331F260D4A
:101E5000371D23593D4F402F6D2D0E94ED0CA3944B
:101E6000C2CF0E94E20D10936902D0926A020093E1
:101E70006B02BB20E9F06091680270916902809169
:101E80006A0290916B020E94120D80914F0280FFB6
:101E900024C080916B021F928F9380916A021F92DF
:101EA0008F93809169021F928F9382EE91E00CC014
:101EB00080914F0280FF11C01F920F931F92DF92FB
:101EC0001F921F938BEB91E09F938F930E942E089C
:101ED0000FB6F894DEBF0FBECDBF0F900F900F90DE
:101EE0000F90DF91CF911F910F91FF90EF90DF90B6
:101EF000CF90BF90AF909F908F907F906F900895FC
:101F0000E8E6F2E09181282F4381628188E0890F21
:101F10000C94A10E81E00C94800FE8E6F2E0918130
:101F2000282F4381628188EF890F0C94A10E81E0F4
:101F30000C948D0FE8E6F2E0628128E0620F08F46D
:101F40006FEF282F438181810C94A10E81E00C94C6
:101F50009A0FE8E6F2E0628128E0621B08F460E094
:101F6000282F438181810C94A10E81E00C94A90F4C
:101F7000E8E6F2E0438128E0420F08F44FEF282F13
:101F8000628181810C94A10E81E00C94B80FE8E687
:101F9000F2E0438128E0421B08F440E0282F6281F0
:101FA00081810C94A10E81E00C94C70F20E00C9469
:101FB000A10EFF920F931F93CF93DF93EC01F12CAF
:101FC0000FEF10E060910201F616E8F42091D801BD
:101FD00030E02F0D311DC901880F991F280F391FBF
:101FE00023593D4F70E0C8010E940C32962F8C811E
:101FF00040916B0260916A02F99E800D11240E944B
:10200000ED0CF394DFCF0E94E20D9A818C8190FF5A
:1020100002C08F5F01C081508C83DF91CF911F91EF
:102020000F91FF900895BF92CF92DF92EF92FF92AF
:102030000F931F93CF93DF93FC01828180FF02C037
:102040000FEF01C001E010E080910201181708F0C5
:1020500040C0C12ED12C8091D801E601C80FD11DFE
:10206000CE01880F991FC80FD91FC359DD4F1982A0
:1020700018821A8234E0E32EF12CB12C8091D70122
:102080008B0D853014F0837005C087FF03C09091DD
:102090000201890F082E000C990BC816D90691F47D
:1020A00080916B028E9DA0018F9D500D112455953E
:1020B0004795559547959E0160916A028091690206
:1020C0000E94ED0CB00EF1E0EF1AF108B9F61F5FB7
:1020D000BBCF0E94E20D8091D701013031F4811114
:1020E00002C080910201815007C090E0019660918A
:1020F000020170E00E940C328093D701DF91CF91F2
:102100001F910F91FF90EF90DF90CF90BF900895B7
:10211000CF938091D80190910301891770F4E82F33
:10212000F0E09F01220F331FE20FF31FE359FD4F31
:102130001182108212828F5FF0CFC0E060910201A5
:10214000C617B8F5EC2FF0E070E0CF010E940C321A
:102150004091D801480F8091D601082E000C990BB0
:1021600050E0E817F907C4F020910101022E000C9D
:10217000330B2E173F0784F09A01220F331F240FD1
:10218000351F23593D4F40916B0260916A02809147
:1021900069020E94ED0C0BC0FA01EE0FFF1F4E0FFB
:1021A0005F1FFA01E359FD4F118210821282CF5F47
:1021B000C5CF0E94E20D209100018091D601820FCF
:1021C0008093D60190910101920F9093010119160D
:1021D0005CF4082E000C990B4091020150E0415034
:1021E0005109841795071CF0219520930001CF9188
:1021F00008950F931F93CF93DF938C01FC0184818B
:10220000958101968170992795838483C0E0D5E5F7
:1022100080910201C817F8F42091D80130E02C0F0A
:10222000311DC901880F991F280F391F23593D4FB0
:102230004C2F4695F80184819581840F911D817002
:1022400040916B0260916A028D9F802D11240E9443
:10225000ED0CCF5FDDCFDF91CF911F910F910C94EB
:10226000E20D0F931F93CF93DF93EC0100E010E09A
:1022700080910201282F30E00217130724F5909176
:10228000D8019801290F311DA901440F551F240FB2
:10229000351F23593D4F869590E04C81081719074B
:1022A0001CF4442331F002C0411103C040916B0281
:1022B00001C040E060916A02809169020E94ED0CC9
:1022C0000F5F1F4FD5CF0E94E20D2C8130E02F5FB2
:1022D0003F4F217033272C83DF91CF911F910F91B6
:1022E000089560916802669570E04BE050E085E0EB
:1022F00091E00E946232892B19F481E08093E2011F
:102300000E9495269093DB018093DA0180914F0221
:1023100080FF08C082EA91E09F938F930E942E086D
:102320000F900F9008951092E20180914F0280FF6C
:1023300008C089E891E09F938F930E942E080F9028
:102340000F9008959091680290FF54C09170811190
:1023500002C0926006C0853210F0986402C0880FF7
:10236000982B909368026623B1F060916802709197
:10237000690280916A0290916B020E94120D809115
:102380004F0280FF1BC08091680286951F928F9339
:1023900085E693E00BC080914F0280FF0FC08091D3
:1023A000680286951F928F9387E493E09F938F93A3
:1023B0000E942E080F900F900F900F90609168026E
:1023C000669570E04BE050E085E091E00E9462325B
:1023D000892B19F00E94931102C00E94711181E0B3
:1023E0008093DD0140916B0260916A0280916902E5
:1023F0000C94D60F0895682F90916802969581E00D
:10240000890F853208F081E00C94A21181E00C94D0
:10241000FB11682F9091680296958FEF890F09F450
:1024200084E20C94A21181E00C94091261E00C94F6
:10243000A2118091680281608093680280914F02AE
:1024400080FF0DC01F9281E08F9389ED92E09F93F2
:102450008F930E942E080F900F900F900F908091F5
:10246000680286950C94161260E00C94A21180917B
:10247000E001811160C080914F0280FF08C088E0B8
:1024800094E09F938F930E942E080F900F9080915D
:102490004F0280FF08C082EF93E09F938F930E94CA
:1024A0002E080F900F900E940325811110C080917B
:1024B0004F0280FF08C08AEC93E09F938F930E94A5
:1024C0002E080F900F900E94AC250E942E0D0E94A6
:1024D0000E0D609368027093690280936A02909374
:1024E0006B026E7FC1F480914F0280FF08C081E8CB
:1024F00093E09F938F930E942E080F900F900E945D
:102500002E0D0E940E0D60936802709369028093F5
:102510006A0290936B020E94FB0C0E943D0D109288
:10252000E2018091680280FF03C086950E94341208
:1025300081E08093E001089580916802816080933A
:10254000680280914F0280FF0DC01F9281E08F933F
:1025500080EA92E09F938F930E942E080F900F9035
:102560000F900F908091680286950C9434128091A0
:1025700068028E7F809368026091680270916902A0
:1025800080916A0290916B020E94120D80914F021D
:1025900080FF0FC08091680281701F928F9388E640
:1025A00092E09F938F930E942E080F900F900F90B0
:1025B0000F900E9493112FEF80E792E0215080400E
:1025C0009040E1F700C000000C94E20D80914F02B2
:1025D00080FF10C080916802809581701F928F9358
:1025E00080E193E09F938F930E942E080F900F90AD
:1025F0000F900F908091680280FD0C94B7120C949C
:102600001912809168028E7F8093680280914F0238
:1026100080FF0CC01F921F928EE292E09F938F93D7
:102620000E942E080F900F900F900F900E94931110
:102630002FEF80E792E0215080409040E1F700C00A
:1026400000000C94E20D0F931F93CF93DF938091C2
:10265000E201882309F48CC08091E101E0916802D5
:10266000E695E81BE093DC01823049F4F0E0E851A4
:10267000FB4FE491CE2FD0E00CE31EE049C0863042
:1026800049F4F0E0EB51FB4FE491CE2FD0E000E5B0
:102690001EE03EC0893051F4E695F0E0EE51FB4F6C
:1026A000E491CE2FD0E009ED1FE032C08F3051F41D
:1026B000E695F0E0E152FB4FE491CE2FD0E003E14C
:1026C00010E126C0853149F4F0E0E452FB4FE4917B
:1026D000CE2FD0E008E810E11BC0883181F08332B2
:1026E00039F4EAEDF4E0C591D49100E61EE010C0A3
:1026F000843251F4C4EFD1E001E311E109C0C8EE26
:10270000D3E009EF10E104C0C0EDD7E00CEE1CE00F
:102710008091DD01882389F01092DD010E949526C9
:102720009E0120953095820F931F9093DB0180933B
:10273000DA011092DF011092DE018091DA019091AE
:10274000DB010E94AD268C179D0790F0E091DA0125
:10275000F091DB01CE0FDF1FD093DB01C093DA01D4
:102760008AED91E0F801DF91CF911F910F910994CB
:10277000DF91CF911F910F910895882311F0FA01F5
:1027800001C0FB010994CF93DF93C82FD62F0E947D
:10279000B80D8C1740F00E94B80D8D1720F4DF9112
:1027A000CF910C9406128C2FDF91CF910C941612BE
:1027B0000F931F93CF93FB01C281CC2309F463C015
:1027C0008C010E9438248272F801E25CFC45E431FD
:1027D000F10508F059C0EA5AFF4F0C9442320E94AA
:1027E000E61206C043E152E166E072E10E94BD13C9
:1027F000C0E04AC046E052E163E172E1F7CF47E949
:102800005FE06AE87FE0F2CF4AE85FE067E97FE0F7
:10281000EDCF45EB5FE066EA7FE0E8CF46EA5FE0B8
:1028200065EB7FE0E3CF43ED5FE064EC7FE0DECF7C
:1028300044EC5FE063ED7FE0D9CF41ED5DE060EC1B
:102840007DE0D4CF40EC5DE061ED7DE0CFCF81E075
:1028500017C065E082E010C068E086E00DC06EE061
:1028600089E00AC064E18FE007C067E185E104C048
:1028700088E106C062E289E10E94C313B9CF83E216
:102880000E941612B5CFC1E08C2FCF911F910F91EE
:1028900008950E940325811102C00E94AC250E9468
:1028A000342580937902282F26952695269530E0A9
:1028B0002830310524F087708863809379028091F5
:1028C000790280FF04C086958695869501C080E0D8
:1028D0000C94A01520917902822F86958695869575
:1028E000482F50E04730510554F48F5F982F990FCF
:1028F000990F990F822F8770892B8093790280918D
:1029000079028160809379020E94382580914F027C
:1029100080FF11C0809179028695869586951F92D9
:102920008F9388E596E09F938F930E942E080F90D7
:102930000F900F900F9080917902869586958695DD
:102940000C94A01580917902982F9695969596955E
:10295000A1F0915E990F990F990F8770892B809341
:102960007902887F91E009F490E08091790290FBF0
:1029700080F9809379020E94382580914F0280FF70
:1029800011C0809179028695869586951F928F93C6
:1029900080E496E09F938F930E942E080F900F90F3
:1029A0000F900F90809179028695869586950C946C
:1029B000A0158091790280FD1FC08160809379020B
:1029C000813019F489E080937902809179020E9424
:1029D000382580914F0280FF08C088E196E09F93E0
:1029E0008F930E942E080F900F9080917902869508
:1029F000869586950C94A01508958091790280FFA4
:102A000014C08E7F809379020E94382580914F02F6
:102A100080FF08C085E096E09F938F930E942E0868
:102A20000F900F9080E00C94A0150895CF93C09163
:102A30007902C17080914F0280FF0CC01F92CF932A
:102A40008AE296E09F938F930E942E080F900F903A
:102A50000F900F90CC2319F0CF910C94FD14CF91CF
:102A60000C94D91490917902892F86958695869534
:102A70008F5F8F719770883038F4880F880F880FB8
:102A8000892B8093790202C0909379028091790218
:102A9000887F91E009F490E08091790290FB80F9C1
:102AA000809379020E94382580914F0280FF11C0E7
:102AB000809179028695869586951F928F9381EFF6
:102AC00095E09F938F930E942E080F900F900F9088
:102AD0000F90809179028695869586950C94A01525
:102AE000883008F087E0909179029770282F220FA4
:102AF000220F220F922B90937902987F21E009F404
:102B000020E09091790220FB90F9909379020C9447
:102B1000A0150E947015809179020C943825E82F39
:102B2000E295EF70F0E032A1282F2F7081E090E065
:102B300001C0880F2A95EAF78095832382A3089520
:102B4000CF92DF92EF92FF92883030F4811105C06E
:102B5000909180009F7704C087E0909180009068FA
:102B600090938000282F30E0AFEFBFEF0E944832F3
:102B700027E030E040E050E00E9420322C3784E132
:102B800038074105510530F4C90169E070E00E9441
:102B9000F83129C0DA01C9018A50974DAF4FBF4FB4
:102BA0006627782F892F9A2F25EF38E241E050E0F1
:102BB0000E94203269017A01CA01B9010E94DC3108
:102BC0009B01AC01C701B6010E94DC31BB27A92FD4
:102BD000982F872F009721E0A207B10511F0BC01C3
:102BE00002C06FEF7FEF7093890060938800FF90C1
:102BF000EF90DF90CF9008950895259A85E30E9485
:102C00008F1582E88093800089E1809381008FEFA7
:102C10009FEF90938700809386000C9449142BB10A
:102C2000342F309523233BB1432B3FB7F894FC015D
:102C3000680F791FE617F70789F0819198E04BB983
:102C4000000000C087FF2BB9880F000000C000C043
:102C500000C02BB900C09A9591F7ECCF3FBF089503
:102C60002AB1242B2AB99B01220F331F620F731F35
:102C70000E940F1687EC90E00197F1F700C000006A
:102C8000089548E00C94301608950C944416FF9271
:102C90000F931F93CF93DF93C7EED1E02EE831E07F
:102CA0004CE851E061E070E0F1E0C93EDF0709F473
:102CB0004DC0F90101919F01A02FA295AF70B0E026
:102CC0009196EC9191970F70CB01002E01C0880F67
:102CD0000A94EAF7982F90959E2391969C9391974A
:102CE00092969C919297892B92968C939297FA0147
:102CF0001191AF01E12FE295EF70F0E0F1A01F70AC
:102D0000CB01012E01C0880F0A94EAF7982F909505
:102D10009F2191A392A1892B82A390968C9190E000
:102D200002C0959587950A95E2F781709927E0A1F1
:102D3000F0E002C0F595E7951A95E2F7E0FD02C0D4
:102D4000E0E001C0E2E08E2B8993AECFDF91CF911E
:102D50001F910F91FF9008959F92AF92BF92CF92D3
:102D6000DF92EF92FF920F931F93CF93DF9387EE43
:102D7000A82E81E0B82E9EE8C92E91E0D92E2CE82D
:102D8000E22E21E0F22E05EE11E0C3EED1E0912C0F
:102D9000D501EC914E2F440F440F4C93F6018191D5
:102DA0006F01E82FE295EF70F0E020A130E08F7026
:102DB00002C0359527958A95E2F721703327D70110
:102DC0005D917D01E52FE295EF70F0E080A190E04C
:102DD0005F7002C0959587955A95E2F7FC01E17006
:102DE000FF2780FF02C0E2E0F0E0E22BF32BE42BB0
:102DF000D501EC93EF70F0E0E458FE4F9081F801BC
:102E00008081890F808384303CF088818F5F888344
:102E100061E0892D0E944516D8018C918D3F3CF4CC
:102E200088818150888360E0892D0E944516F801D1
:102E30009081937897FF03C091509C6F9F5FD8015A
:102E40009D938D01BFEFAB1ABB0A2196E1E09E1660
:102E500019F0992493949CCFDF91CF911F910F91FA
:102E6000FF90EF90DF90CF90BF90AF909F9008952C
:102E70000F931F93CF93DF93C62FD42F022FFC0104
:102E800082818823C9F06093EB010E94952690937C
:102E9000EA018093E90180E28C0F883008F050C08D
:102EA000C77081E001C0880FCA95EAF7DF91CF9122
:102EB0001F910F910C94F31B1091EB01161330C06E
:102EC0008091E9019091EA010E94AD26883C91052C
:102ED00038F5C0E2CD0F1D17B9F080E2810F8830C0
:102EE00040F4177081E001C0880F1A95EAF70E943C
:102EF000FA1BC83048F481E09D2F977001C0880FFD
:102F00009A95EAF70E94F31B802F0E94E01BC830BD
:102F1000B8F4D77081E001C0880FDA95EAF70AC0EB
:102F200080E28C0F883060F4C77081E001C0880FA8
:102F3000CA95EAF7DF91CF911F910F910C94FA1B7C
:102F4000DF91CF911F910F9108959C01CB01233FF9
:102F50004CE53407F9F078F4283DFCE53F07B9F07B
:102F6000293D4CE5340711F1273D3C4531F526E27A
:102F700041EE61EE1EC0253FFCE53F0799F070F081
:102F8000263F3C45D1F427E245EE66EE12C027E22B
:102F900045EE0EC026E241EE60EE0BC027E245EEA4
:102FA00064EE07C026E241EE62EE03C028E241E093
:102FB00065EE0E94381780E00895FC018281882325
:102FC00019F01092EB01089581E00895CF93DF93FB
:102FD000EC01FB018281882309F41FC1C230FCE5AA
:102FE000DF0708F41BC1C6319CE5D90738F09E0104
:102FF0002A5F3C452930310508F010C10E94162592
:1030000090937F0280937E02C031ECE5DE0709F4E5
:10301000C3C008F041C0C8308CE5D80709F49AC095
:10302000F0F4C430ECE5DE0709F487C068F4C23080
:103030008CE5D80709F477C0C330DC4509F0E3C05C
:1030400080917E02826076C0C630ECE5DE0709F42E
:103050006EC008F07BC080917E0288606BC0CC306F
:103060008CE5D80709F485C068F4CA30ECE5DE07C2
:1030700009F474C008F079C00E94831E80917E021A
:10308000806858C0CE308CE5D80709F476C008F0C7
:103090007FC080917E028BC0CB3FECE5DE0709F458
:1030A0004FC018F5C3318CE5D80709F47DC078F41A
:1030B000C131ECE5DE0709F473C0C231DC4509F02B
:1030C000A2C00E94831E80917E028F7733C0C531DB
:1030D0008CE5D80709F472C008F486C0CA3FDC4505
:1030E00009F091C080917F023EC0CF3FFCE5DF0731
:1030F00009F45FC058F4CD3F9CE5D90709F444C0FA
:1031000008F43FC080917F0282602DC0C130FDE590
:10311000DF0709F475C008F45DC0C230DD4509F071
:1031200072C080E06EC080917E02816003C0809199
:103130007E02806180937E0266C080917E0211C013
:1031400080917F02826080937F025DC080917E02C9
:103150008062F0CF80917E028064ECCF80917E020D
:1031600088608460E7CF8160EECF80917E028E7FA1
:10317000E1CF80917E028D7FDDCF80917E02877FBF
:10318000D9CF80917F0218C080917F028D7FDBCFE5
:1031900080917E028F7ECECF80917E028F7DCACFBE
:1031A00080917E028F7BC6CF80917E02877F8B7F4E
:1031B000C1CF80917F028D7F8E7FC5CF80917E02AF
:1031C00082FB222720F991E0922790FB82F990FB65
:1031D00083F9B0CF80917F02982F909591708E7F68
:1031E000892B90FB81F9AFCF0E94831E80917E02D4
:1031F00087FB222720F991E0922790FB87F99ACF4D
:1032000081E00E94AE2580917E0290917F020E9413
:1032100027250E94831E80E001C081E0DF91CF91CD
:103220000895CF93DF9386319C4541F5EB010E94D1
:103230003824282F8A814091100150911101882350
:1032400079F02A7A91E009F490E09093EC019111E1
:1032500002C069E201C065E3CA010E94E5250AC017
:103260008091EC01811102C069E201C065E3CA01ED
:103270000E94E7250E94842480E001C081E0DF9164
:10328000CF9108959093F2018093F1010895E09118
:10329000F101F091F201309721F00190F081E02DE1
:1032A000099480E00895EF92FF920F931F93CF93BC
:1032B000DF93E091F101F091F2013097B1F18C01CF
:1032C0000280F381E02D099580914F0282FF2DC08D
:1032D00080FF04C088E797E00E949507E80118E0A6
:1032E00082E7E82E87E0F82E80914F0280FF0BC026
:1032F00088811F928F93FF92EF920E942E080F9069
:103300000F900F900F90115021961111EDCF8091D9
:103310004F0280FF0AC080E797E0DF91CF911F91B5
:103320000F91FF90EF900C949507DF91CF911F9133
:103330000F91FF90EF9008952091EF013091F001EF
:103340008217930771F09093F0018093EF01E09161
:10335000F101F091F201309721F00680F781E02D24
:10336000099408952091ED013091EE0182179307A1
:1033700071F09093EE018093ED01E091F101F091F5
:10338000F201309721F00084F185E02D0994089531
:1033900085B7806885BF85B7806885BF0895089523
:1033A00008950C94D01908950C94D3190E94C8194B
:1033B0000E94CF190C94D11981E008950E948C26A7
:1033C0000E94930B0E940E270E9449140E943712FC
:1033D0000C94D419CF93C82F80914F0282FF1EC046
:1033E00080FF04C081E997E00E94950780914F0219
:1033F00080FF0CC01F92CF938CE897E09F938F9330
:103400000E942E080F900F900F900F9080914F0206
:1034100080FF04C08AE897E00E9495078C2FCF9127
:103420000C948C08BF92CF92DF92EF92FF920F9391
:103430001F93CF93DF93CDB7DEB72B970FB6F894DA
:10344000DEBF0FBECDBF0E94D00B0E94DC198111E0
:1034500011C08FEF89838A831B820E949526816029
:10346000782F9D838C8349815A816B818D810E9445
:10347000AB1A42C084EFC82E81E0D82E00E010E0E5
:10348000B02E802F0E94470BF601E1906F01E826D5
:1034900031F40F5F1F4F0330110591F7DACF909190
:1034A0004F0291FF04C08B870E944D0B8B8590E0EB
:1034B000FF24F3942F2D2E21D1F09E83BF828F21E4
:1034C00091E009F490E098870E9495268160782F1A
:1034D0009A8789874E815F8168858A850E94AB1AA9
:1034E000F801EC50FE4F8081F826F08205C09F5F06
:1034F000FF0C9330F9F6CDCF0E9423130E94FC15E8
:103500001091F3010E9447191817A9F00E9447195A
:103510008093F3012B960FB6F894DEBF0FBECDBF9C
:10352000DF91CF911F910F91FF90EF90DF90CF909F
:10353000BF900C94EA192B960FB6F894DEBF0FBE1D
:10354000CDBFDF91CF911F910F91FF90EF90DF9052
:10355000CF90BF900895CF93DF93CDB7DEB72B9771
:103560000FB6F894DEBF0FBECDBF4F835887698773
:103570007A878B87DE01119686E0FD0111928A958C
:10358000E9F785E0FE01379601900D928A95E1F703
:1035900049815A816B817C818D819E810E942D2180
:1035A0002B960FB6F894DEBF0FBECDBFDF91CF9143
:1035B0000895FC01808191810E94F9230895CF93A1
:1035C000DF931F92CDB7DEB7882309F496C0682F2A
:1035D0008238C1F40E94471981FD8FC069E3809150
:1035E0001001909111010E94E5250E9484242FEF83
:1035F00081EE94E0215080409040E1F700C000004F
:1036000069E319C0833811F50E94471980FD75C020
:1036100063E580911001909111010E94E5250E94BF
:1036200084242FEF81EE94E0215080409040E1F718
:1036300000C0000063E580911001909111010E948B
:10364000E7250F90DF91CF910C9484248438C1F446
:103650000E94471982FD51C067E48091100190914A
:1036600011010E94E5250E9484242FEF81EE94E051
:10367000215080409040E1F700C0000067E4DBCFBC
:103680008CEF860F813A70F4862F69830E940F2A8F
:103690006981811132C080911001909111010E94C5
:1036A000E525CFCF80E2860F883048F4677081E04F
:1036B00001C0880F6A95EAF70E943B24C2CFEBE570
:1036C000E60FE33050F4F0E0E254FE4F808190E0EA
:1036D0000F90DF91CF910C949C19685A673168F470
:1036E000E62FF0E0EE0FFF1FE057FE4F8081918143
:1036F0000F90DF91CF910C94B2190F90DF91CF9181
:103700000895882309F45BC0682F823879F40E94F9
:10371000471981FF54C069E3809110019091110114
:103720000E94E5250E94842469E310C08338B1F427
:103730000E94471980FF43C063E58091100190917A
:1037400011010E94E5250E94842463E58091100107
:10375000909111010E94E7250C948424843879F417
:103760000E94471982FF2BC067E48091100190915D
:1037700011010E94E5250E94842467E4E7CF8CEFC5
:10378000860F813A18F380E2860F883048F467701C
:1037900081E001C0880F6A95EAF70E944124DCCFDE
:1037A0008BE5860F833020F480E090E00C949C1928
:1037B000685A673120F480E090E00C94B2190895C3
:1037C000CF93C82F0E94DF1AC93349F42FEF87EE39
:1037D00093E0215080409040E1F700C000008C2F22
:1037E000CF910C94811B882321F00E943B240C94E0
:1037F00084240895882321F00E9441240C94842479
:103800000895BF92CF92DF92EF92FF920F931F9392
:10381000CF93DF937C01062FC72FFC0115811295F2
:103820001F70D281D1110E9458240E943124882314
:1038300079F0DD2369F080E2800F883048F082E083
:103840000E94CF240E94312491E0B82EB92601C0F5
:10385000B12CCC2EC2948FE0C822D12CF601E659AF
:10386000FF4F0C9442328C2F807FCF70882311F051
:10387000C295C07FDD2399F0CC2309F48DC180E28D
:10388000800F883010F0011104C08C2F0E943B245F
:1038900003C08C2F0E944B240E9484247DC1802F62
:1038A0000E94811BCC2309F4C0C180E2800F8830C4
:1038B00010F0011104C08C2F0E94412403C08C2FF2
:1038C0000E9451240E948424B0C18C2F807FCF702D
:1038D000803211F0C295C07F002319F00130C9F089
:1038E00022C0DD2371F0112341F0113031F40E9428
:1038F0006B248C2B0E94712498C10E946B248C2B0A
:103900001DC0112319F0113009F48FC10E947A24CF
:1039100025C0DD2321F0163008F087C10EC0153018
:1039200008F083C11BC0DD2361F0112331F0F701E2
:10393000858180FF31C18F7085838C2F0E94F31B9E
:1039400074C1112359F0093309F037C1FFEF27EE95
:1039500083E0F15020408040E1F72DC18C2F0E9480
:10396000FA1B63C18C2F86958695837090E0009733
:1039700019F0019761F059C1DD2321F0802F9C2FB0
:10398000937002C080E090E00E949C1959C1DD2331
:1039900021F0802F9C2F937002C080E090E00E9465
:1039A000B2194EC18C2F837009F049C0D11144C1A6
:1039B000402F429546954770440F440F602F6F701B
:1039C000862F90E0A0E0B0E0042E04C0880F991F7D
:1039D000AA1FBB1F0A94D2F704FF10C00FE010E02B
:1039E00020E030E004C0000F111F221F331F4A9552
:1039F000D2F7009510952095309503C000E010E0B7
:103A00009801C695C695C370D0E0BC01CD01602B6E
:103A1000712B822B932BC230D10559F0C330D105C5
:103A200059F0219719F00E94722206C10E9460226B
:103A300003C10E94842200C10E945E22FDC0DD23DA
:103A400019F08C2F817001C08695882309F4F4C089
:103A5000402F429546954770440F440F602F6F707A
:103A6000862F90E0A0E0B0E0042E04C0880F991FDC
:103A7000AA1FBB1F0A94D2F704FF10C00FE010E08A
:103A800020E030E004C0000F111F221F331F4A95B1
:103A9000D2F7009510952095309503C000E010E016
:103AA0009801C695C695C370D0E0BC01CD01602BCE
:103AB000712B822B932BC230D10559F0C330D10525
:103AC00059F0219719F00E943823B6C00E9426238E
:103AD000B3C00E944A23B0C00E949922ADC0CF70EB
:103AE000DD2339F08C2F0E94BF22802F0E94F31B10
:103AF000A3C0802F0E94FA1B8C2F0E94E0229CC042
:103B0000023F01F128F4003F41F0013FA1F040C025
:103B1000033FF9F0043F39F13BC0DD2341F015309C
:103B200008F083C08C2F8F710E9405237EC0163051
:103B300008F07BC0F7CFDD2339F08C2F8F710E9406
:103B4000BF2273C0DD23C9F38C2F8F710E94E02246
:103B50006CC0DD2329F08C2F8F710E94AA2265C0D2
:103B60000E94A52262C0DD2349F0CF718C2F0E94F4
:103B7000BF2263E08C2F0E94BA2457C081E00E94CC
:103B8000CF24123008F451C082E00E94CF244DC0EF
:103B9000DD2331F0112389F2802F0E94DF1A45C006
:103BA000112391F2093349F49FEFE7EEF3E09150CE
:103BB000E040F040E1F700C00000802F0E94811B30
:103BC00034C04C2F4F70602FC7010E9409090E941A
:103BD000D12136C0D11134C0CF70D0E0C230D10570
:103BE00099F03CF4209769F02197F9F40E94A2140F
:103BF00027C0C430D10571F054F02597B1F480E0AE
:103C00000AC00E946A141CC00E94161519C00E94A6
:103C1000321516C087E00E94891512C04C2F4F70D4
:103C2000602FC7010E940C090BC028E0C21AD108FE
:103C300084E0C816D10420F40E9447190E948C0821
:103C4000BB20D1F00E942D2480FD16C0F701128206
:103C50000E9427240E94BF22C7010E94461E0E9484
:103C60002724DF91CF911F910F91FF90EF90DF906C
:103C7000CF90BF900C94E022DF91CF911F910F91D4
:103C8000FF90EF90DF90CF90BF9008950F931F9318
:103C9000CF93DF93EC01888199812B813C81232B89
:103CA000B9F09F3F11F48F3F99F0CE010E94AB080D
:103CB000882371F0688179818A810E9404248C01B3
:103CC0000E945C230E945D22B801CE010E94011C6B
:103CD000DF91CF911F910F9108950E9458240E9467
:103CE00068240E94842480E090E00E949C1980E077
:103CF00090E00C94B21980911001909111010E94F2
:103D0000E9250C946D1E0E9448240C947B1EE92F1B
:103D1000E295EF70F0E03297EE30F105B0F4E6583E
:103D2000FF4F0C944232803F91F018F4883E68F4C3
:103D30000EC0843F51F40BC0883E48F0813F29F407
:103D400006C093FB882780F9089580E0089581E0FC
:103D500008950E94F9230E94871E0895CF93DF9350
:103D600000D000D01F92CDB7DEB70F900F900F900C
:103D70000F900F90DF91CF910895CF93DF9300D0F4
:103D800000D000D0CDB7DEB726960FB6F894DEBFD0
:103D90000FBECDBFDF91CF9108951F93CF93DF93D7
:103DA000C091F80116E08091F901C81799F0D0E0B0
:103DB0001C9FF0011D9FF00D1124E650FE4F408125
:103DC000518162817381848195810E94BD1E2196FB
:103DD000C770E9CFDF91CF911F91089540912A02DA
:103DE00050912B0260912C0270912D0280912E0235
:103DF00090912F020C94BD1E80912F0282958F709E
:103E000009F054C080912C02882309F44FC080919E
:103E1000F801A091F90160912A0270912B02409162
:103E20002D0250912E02B6E08A1709F43FC090E0AF
:103E300041155105C1F17F3F11F46F3FA1F1B89FCA
:103E4000F001B99FF00D1124E650FE4F218172134D
:103E50002AC02081621327C02281211124C023811E
:103E600034812417350710F421503109241B350BF8
:103E7000283C3105C0F420912F022F70206120933F
:103E80002F0226E0289FF001299FF00D1124E15018
:103E9000FE4F80818F70806180838AE292E00E9471
:103EA000461E0C94CD1E01968770BECF0895CF920A
:103EB000DF92EF92FF920F931F93CF93DF93CDB7D3
:103EC000DEB762970FB6F894DEBF0FBECDBF8C0190
:103ED00085E0F801DE011D9601900D928A95E1F7CB
:103EE000D8014C9111965C91119712966C91129792
:103EF0001396CD90DC90149730912A0270912B028A
:103F000080912D0290912E02009709F46BC17F3FA2
:103F100019F43F3F09F466C1E0902C02EE2009F449
:103F2000C0C020912F02C816D90628F0F601E81B60
:103F3000F90BCF0104C0809590958C0D9D1DFF2439
:103F4000F394883C910578F0F12C207F09F0C6C0ED
:103F50007C2DD98AC88A89890E94AE1E8AE292E0A5
:103F60000E94461EB1C0822F807F09F046C07513A3
:103F700014C0341312C0611110C02F70206120933F
:103F80002F020E94EE1E8AE292E00E94461E80915D
:103F90002F02D80115968C932EC0CD2819F15F3FC2
:103FA00011F44F3FF9F0F62E61111CC08091F80119
:103FB0002091F90136E0821709F45AC090E0389F49
:103FC000F001399FF00D1124E650FE4F7181571317
:103FD00006C07081471303C07281711103C001963E
:103FE0008770E9CFF62E662309F427C180912F024E
:103FF000816080932F02F12C20C1751308C0341307
:1040000006C0611104C080912F02D801C3C04D8742
:104010005E878D859E856A8B0E94A91E6A8988238A
:10402000E1F16623D1F120912F02822F82958F70CA
:1040300090E0029774F080912A0290912B02988769
:104040008F831986DB86CA862C87CE0107960E944D
:10405000461E86E0F801AAE2B2E001900D928A9530
:10406000E1F70E94FC1E0E94EE1EFF24F394E5C0BF
:104070004D875E878D859E850E94F923292F229585
:104080002F7030E0223031050CF0CBC09F7009F06A
:10409000C5C0805E883008F4D0C0C8010E94461EAA
:1040A000E4CFC816D90608F453C0F601E81BF90B93
:1040B000CF01883C910508F450C0F12C7C2DD98AA1
:1040C000C88A89890E94AE1EEAE2F2E086E0DF013A
:1040D0001D928A95E9F70E94EE1EAFC0751314C0B9
:1040E000341312C0611110C080912F02F801858332
:1040F000C8010E94461E86E0EAE2F2E0DF011D925E
:104100008A95E9F7FE2C99C04D875E878D859E853F
:104110006A8B0E94A91E6A89882309F4BECF662390
:1041200009F4BBCF20912F02822F82958F7090E0EF
:1041300002970CF48ECF80912A0290912B029A83E1
:1041400089831B82DD82CC822E83CE0101967FCFB4
:10415000809590958C0D9D1DACCFF62E662309F4AD
:104160009CCF75132EC034132CC020912F0220FD3C
:104170001FC0822F82958F70D9F0D80115962C938D
:1041800015978F3049F08F5F982F9295907F822FEF
:104190008F70892B15968C93C8010E94461E86E06D
:1041A000F801AAE2B2E001900D928A95E1F793CF6F
:1041B00086E0F801AAE2B2E001900D928A95E1F75B
:1041C0003CC04D875E878D859E850E94A91E81110A
:1041D00040CF80912F02816080932F02C8010E94FE
:1041E000461E2BC0662309F458CF4D875E878D8508
:1041F0009E850E94A91EF82E882309F44ECF86E0E2
:10420000F801AAE2B2E001900D928A95E1F78AE204
:1042100092E00E94D91A0E94FC1E5DCF811139CF15
:104220000CC0243031050CF038CF9F7009F431CF29
:10423000F8019581907F09F02CCF8F2D62960FB6F3
:10424000F894DEBF0FBECDBFDF91CF911F910F91CC
:10425000FF90EF90DF90CF9008951F93CF93DF935F
:10426000CDB7DEB72C970FB6F894DEBF0FBECDBF2B
:104270004F83588769877A878B879C87CE010796FB
:104280000E94571F882369F08F8198852A853B8576
:10429000232BF1F19F3F09F063C08F3F09F060C00D
:1042A00037C086E0FE013796DE01119601900D922F
:1042B0008A95E1F76F817885EA85FB85309741F132
:1042C0007F3F11F46F3F21F12091F90130E0C901E6
:1042D0000196877099274091F80150E0841795075F
:1042E00009F447C069837A83FD83EC8396E0929F4B
:1042F000D001939FB00D1124A650BE4FFE01319600
:1043000001900D929A95E1F78093F9010E94CD1EDC
:1043100016E08091F8019091F9018917C1F1189F79
:10432000C001112486509E4F0E94571F882379F1A7
:10433000E091F8011E9FF0011124E650FE4F4081EC
:10434000518162817381848195810E94BD1E80911B
:10435000F80190E00196877099278093F801D9CFF2
:104360004F81588569857A858B859C850E94BD1E05
:10437000CFCF0E94831E1092F9011092F801EAE259
:10438000F2E086E0DF011D928A95E9F7C1CF2C9615
:104390000FB6F894DEBF0FBECDBFDF91CF911F9156
:1043A0000895EF92FF920F931F93CF93DF938C01A9
:1043B000892B09F46CC0F12CEE24E394E8012196DA
:1043C000F8018491843740F4843008F051C0813082
:1043D00081F0823019F15BC0853709F444C0A8F13F
:1043E0009CE7980F903708F052C08F770E94811B8E
:1043F00041C00E5F1F4FFE01C49180E28C0F8830D8
:1044000048F4C7708E2D01C0880FCA95EAF70E9444
:104410005B2414C08C2F0E94DF1A2DC00E5F1F4F2B
:10442000FE01C49180E28C0F883058F4C7708E2D45
:1044300001C0880FCA95EAF70E9461240E94842473
:104440001AC08C2F0E94811B16C00E5F1F4FFE01E9
:10445000C491CC2381F08FE99FE00197F1F700C070
:104460000000C150F6CF0E5F1F4FFE01F49003C055
:104470000E94DF1A8E018F2D882309F49FCFEFE968
:10448000FFE03197F1F700C000008150F5CFDF91D8
:10449000CF911F910F91FF90EF90089508950C9484
:1044A0004E220E944F2260933E0270933F028093FF
:1044B0004002909341020C946D1E08950C94512279
:1044C0000F931F9300913E0210913F0220914002F2
:1044D00030914102602B712B822B932B1F910F91F6
:1044E0000C9451220F931F9300913E0210913F02B2
:1044F0002091400230914102602371238223932353
:104500001F910F910C9451220F931F9300913E0223
:1045100010913F02209140023091410260277127A3
:10452000822793271F910F910C94512208950C9488
:1045300096220E94972260933A0270933B028093E6
:104540003C0290933D020C946D1E60E070E0CB0144
:104550000C9499220F931F9341E050E060E070E0CB
:104560008A019B0104C0000F111F221F331F8A956F
:10457000D2F7C901B8011F910F910C9499220F93A2
:104580001F9341E050E060E070E004C0440F551F0D
:10459000661F771F8A95D2F780913A0290913B026D
:1045A000A0913C02B0913D028A019B01082B192B7E
:1045B0002A2B3B2BC901B8011F910F910C94992212
:1045C0000F931F9341E050E060E070E004C0440F9F
:1045D000551F661F771F8A95D2F7409550956095B5
:1045E000709580913A0290913B02A0913C02B0916B
:1045F0003D028A019B01082319232A233B23C90179
:10460000B8011F910F910C9499220F931F9341E0D1
:1046100050E060E070E004C0440F551F661F771F34
:104620008A95D2F780913A0290913B02A0913C0288
:10463000B0913D028A019B01082719272A273B27B1
:10464000C901B8011F910F910C9499220F931F93E8
:1046500000913A0210913B0220913C0230913D02C0
:10466000602B712B822B932B1F910F910C9499220D
:104670000F931F9300913A0210913B0220913C024C
:1046800030913D0260237123822393231F910F9168
:104690000C9499220F931F9300913A0210913B02C0
:1046A00020913C0230913D02602771278227932799
:1046B0001F910F910C9499220895292F220F920F88
:1046C000890FA82FA695A695A695877051E001C0E1
:1046D000550F8A95EAF785E0A89FD001112420E0C4
:1046E00030E070E0F901EA0FFB1FE05DFD4F408113
:1046F000CB01022E02C0969587950A94E2F781704D
:104700009927819584278523842780832F5F3F4FB6
:104710002530310539F70895292F220F920F890F7F
:10472000682F669566956695982F977085E0689FC7
:10473000B001112440E050E080E0FA01E60FF71FDD
:10474000E05DFD4F208130E0092E02C036952795AF
:104750000A94E2F721703327042E01C0220F0A9435
:10476000EAF7822B4F5F5F4F4530510531F70895CF
:10477000BF92CF92DF92EF92FF920F931F93CF934E
:10478000DF938C01C0903E02D0903F02E090400247
:10479000F090410280913A0290913B02A0913C023C
:1047A000B0913D02C82AD92AEA2AFB2ACFE1D0E0FB
:1047B000D701C6010C2E04C0B695A795979587958D
:1047C0000A94D2F780FF07C0BC2EB8018C2F0E943C
:1047D0002B09019719F4219758F7B12C8B2DDF91F4
:1047E000CF911F910F91FF90EF90DF90CF90BF90EE
:1047F0000895CF93DF93EC010E94B823BE010E947D
:104800002B09DF91CF9108951F93CF93DF93EB0195
:104810009091F701992321F0CB010E94F92313C055
:10482000882349F0CB010E94B823182F682FCE01AE
:104830000E945D2304C0CB010E948C23182FBE016F
:10484000812F0E942B09DF91CF911F9108958091B4
:1048500042028595859585950895809142028770DD
:10486000089590914202977081E009F480E00895E4
:1048700080914E02089590914E02892B80934E02B2
:104880000895809590914E02892380934E02089559
:1048900010924E02089590914D02892B80934D0203
:1048A0000895809590914D02892380934D0208953B
:1048B00010924D02089590914C02892B80934C02E6
:1048C0000895809590914C02892380934C0208951D
:1048D00010924C02089580914302089508950C941B
:1048E0006E2490914302981721F0809343020C9418
:1048F0006F24089580914302882329F01092430287
:1049000080E00C946F240895E0911001F091110162
:1049100080914E028083E0911001F091110190810D
:1049200080914D02892B8083E0911001F09111015B
:10493000908180914C02892B80838091430288234F
:1049400081F0E0911001F09111019081892B808319
:1049500080911001909111010E94B32581110E9454
:104960007A2480911001909111010C9453190895AB
:104970000C94B72498E0899F90011124262B209352
:1049800042020E94BF2280914202859585958595BD
:104990000C94B8241092420280E00C94B824209128
:1049A00042028095822380934202982F977079F477
:1049B00030E0482F082E000C550B2417350739F02E
:1049C0008595859585950E94E0220C94CA240895CA
:1049D0009093D1018093D00108958295982F9C7C6B
:1049E000392F36953695282F237344E0249FC00134
:1049F0001124932F982B292F2A7A2695892F857594
:104A0000880F822B089580E090E00E947D3221E0A3
:104A10008C3E9E4F09F020E0822F089582E090E0C6
:104A20000C946F3283E090E00C946F32CF9384E06B
:104A300090E00E946F32C82F81E290E00E946F32B6
:104A40002C2F30E0A901582BCA01CF910895CF93A4
:104A5000C92F682F84E090E00E9483326C2F81E29E
:104A600090E0CF910C94833286E090E00C946F320A
:104A7000682F86E090E00C948332AB01BC018FE09C
:104A800090E00C949532AB01BC0183E190E00C9472
:104A9000953260E070E0CB010C94432560E070E05B
:104AA000CB010E943D250C9449256CEE7EEF80E001
:104AB00090E00E94A13260E082E090E00E948332A8
:104AC00060E083E090E00E94833210923E021092F8
:104AD0003F02109240021092410260E084E090E0B8
:104AE0000E94833260E081E290E00E94833260E0C5
:104AF00085E090E00E94833260E086E090E00E94D2
:104B000083326FEF87E090E00E94833240E050E014
:104B1000BA0188E090E00E94953260E08DE090E07C
:104B20000E94833240E050E0BA0188E190E00E94A8
:104B3000953260E087E190E00E94833240E050E0EF
:104B4000BA018CE190E00E94953260E080E290E052
:104B50000E9483320C944E250C945525682F8EE0CC
:104B600090E00C948332FC01329697E080E0915003
:104B700029F021912223D9F38F5FF9CF08959C0169
:104B8000FC0132969FEF80E04191461789F09F3FEC
:104B900019F4411101C0982F8F5F8630A9F79F3F0C
:104BA00039F0F901E90FF11D97FDFA956283089537
:104BB0000895FC01329608962081261301C01082C8
:104BC0003196E817F907C1F708950C94BF250C94A6
:104BD000D925029626E0FC0111922A95E9F708955D
:104BE00008950C94F0250E94F12580918402843070
:104BF00009F43CC01092500220E488E190E00FB626
:104C0000F894A895809360000FBE2093600080E028
:104C10000E94A01580E00E948C080E949311809150
:104C2000510281110AC081E0809351028091680293
:104C30008170809352020E9401130E94F12583B774
:104C4000817F846083BF83B7816083BF78948895B8
:104C500083B78E7F83BF0FB6F894A89580916000CC
:104C6000886180936000109260000FBE08950895DF
:104C70000895CF930E9437260E94D00B0E943826B9
:104C8000C0E08C2F0E94470B811104C0CF5FC3305E
:104C9000C1F701C081E0CF91089508950C944D268D
:104CA0000E94831E0E9449140E9447190E948C088A
:104CB000109251028091520281110E949C120E9416
:104CC00071110C944E261F920F920FB60F92112461
:104CD0008F939F93AF93BF9380915002811113C024
:104CE00080917A0290917B02A0917C02B0917D022A
:104CF0004196A11DB11D80937A0290937B02A093EF
:104D00007C02B0937D02BF91AF919F918F910F90E4
:104D10000FBE0F901F90189582E084BD93E095BD63
:104D20009AEF97BD80936E0008952FB7F894809105
:104D30007A0290917B02A0917C02B0917D022FBFFC
:104D400008952FB7F89460917A0270917B02809158
:104D50007C0290917D022FBF0895CF92DF92EF9257
:104D6000FF920F931F932FB7F89440917A025091BE
:104D70007B0260917C0270917D022FBF6A017B01F2
:104D8000EE24FF248C0120E030E0C016D106E206BC
:104D9000F30610F4415051099A01281B390BC9013F
:104DA0001F910F91FF90EF90DF90CF90089578942E
:104DB0001F920F920FB60F9211248F939F93AF9370
:104DC000BF9380917A0290917B02A0917C02B09176
:104DD0007D020196A11DB11D80937A0290937B0202
:104DE000A0937C02B0937D02BF91AF919F918F9170
:104DF0000F900FBE0F901F90189587E797E790933D
:104E00000108809300089AE088E10FB6F894A8950D
:104E1000809360000FBE90936000FFCF0E94032537
:104E2000811102C00E94AC250E940E2580934F0282
:104E30000E94162590937F0280937E020E94122585
:104E4000682F70E080E090E00C945E22CF93C82F32
:104E50001F928F938AEA97E09F938F930E942E0868
:104E600081E090E0A0E0B0E0BC01CD0104C0660F9D
:104E7000771F881F991FCA95D2F70E945E220F9054
:104E80000F900F900F90CF910C94831ECF93DF93D0
:104E90008B3109F435C208F0CBC18B3009F4EEC177
:104EA00008F0A1C1863009F4ECC120F4853009F482
:104EB000FAC1A8C2873009F408C2883009F0A2C23A
:104EC00080E29DE00E94950781E79CE00E949507A3
:104ED0000E9412251F928F938EE69CE09F938F93E2
:104EE0000E942E088CE69CE00E9495070E940E25E9
:104EF000C82F89E59CE00E9495071F92CF9384E517
:104F00009CE09F938F930E942E0882E59CE00E9474
:104F1000950788E49CE00E9495078C2F81701F9272
:104F20008F9385E49CE09F938F930E942E0883E4E7
:104F30009CE00E94950789E39CE00E949507C1FBD5
:104F4000882780F91F928F9386E39CE09F938F932D
:104F50000E942E0884E39CE00E94950788E29CE072
:104F60000E949507C2FB882780F91F928F9385E2E4
:104F70009CE09F938F930E942E0883E29CE00E9406
:104F800095078AE19CE00E949507C3FBCC27C0F9F6
:104F90001F92CF9387E19CE09F938F930E942E08EE
:104FA00085E19CE00E9495070E941625EC0181E0B6
:104FB0009CE00E949507DF93CF938CEF9BE09F933B
:104FC0008F930E942E088AEF9BE00E94950781EE46
:104FD0009BE00E9495078C2F81701F928F938EED1E
:104FE0009BE09F938F930E942E088DB79EB780966B
:104FF0000FB6F8949EBF0FBE8DBF8CED9BE00E9454
:10500000950785EC9BE00E949507C1FB882780F9F6
:105010001F928F9382EC9BE09F938F930E942E08A8
:1050200080EC9BE00E9495078EEA9BE00E9495072A
:105030008D2F81701F928F938BEA9BE09F938F93AC
:105040000E942E0889EA9BE00E94950787E99BE071
:105050000E949507D695D1701F92DF9384E99BE05B
:105060009F938F930E942E0882E99BE00E949507F0
:1050700080E89BE00E949507C2FB882780F91F9279
:105080008F938DE79BE09F938F930E942E088BE771
:105090009BE00E94950789E69BE00E949507C3FB71
:1050A000882780F91F928F9386E69BE09F938F93CA
:1050B0000E942E0884E69BE00E9495078AE59BE00B
:1050C0000E949507C4FB882780F91F928F9387E57C
:1050D0009BE09F938F930E942E0885E59BE00E94A2
:1050E000950783E49BE00E949507C5FB882780F91C
:1050F0001F928F9380E49BE09F938F930E942E08D2
:105100008EE39BE00E94950782E29BE00E94950758
:10511000C6FB882780F91F928F938FE19BE09F93B6
:105120008F930E942E088DB79EB780960FB6F89485
:105130009EBF0FBE8DBF8DE19BE00E94950785E16C
:105140009BE00E949507C7FBCC27C0F91F92CF9325
:1051500082E19BE09F938F930E942E0880E19BE069
:105160000E9495070E943425C82F89EF9AE00E947B
:1051700095071F92CF9384EF9AE09F938F930E949D
:105180002E0882EF9AE00E94950788EE9AE00E942E
:1051900095078C2F81701F928F9385EE9AE09F93D5
:1051A0008F930E942E0883EE9AE00E9495078AED65
:1051B0009AE00E949507C695C695C6951F92CF9313
:1051C00087ED9AE09F938F930E942E0885ED9AE0D9
:1051D0000E9495078DB79EB740960FB6F8949EBF74
:1051E0000FBE8DBF49C0803109F4B4C020F48E30A9
:1051F00009F49AC007C1863109F4C7C0893109F0A2
:1052000001C188E099E00E9495078FED98E00E9427
:1052100095078CEA98E00E94950783E798E00E9442
:10522000950786E498E00E94950788E198E08FC092
:105230008A32E1F060F4873209F4E0C028F48E315C
:1052400008F4E0C08D51DBC0893269F1DBC08334E2
:1052500048F48A3308F0D0C0853309F4CFC08833CE
:1052600069F0D0C0833409F4C9C0CCC08FE09DE0A0
:105270000E9495070E94AC25C1E0C9C082E399E075
:1052800066C080914F02817F8E7F80934F0287E1BD
:1052900099E00E9495078BE09DE00E94950781E0D0
:1052A00080935302E9CF0E94831E8FEE9CE00E9400
:1052B00095079FEF23ED80E3915020408040E1F778
:1052C00000C000000E94FD26D7CF80914F02C82F5A
:1052D000C095C170C0FB80F980934F02CC2329F0A8
:1052E00083EE9CE00E94950792C086ED9CE00E94B0
:1052F000950780914F02897F877F80934F02BCCFB3
:1053000090914F0291FBCC27C0F981E0C827892FEB
:10531000C0FB81F980934F02CC2319F089EC9CE00B
:1053200029C08BEB9CE013C090914F0292FBCC27DD
:10533000C0F981E0C827892FC0FB82F980934F0212
:10534000CC2319F08CEA9CE015C08CE99CE00E940B
:10535000950792CF90914F0293FBCC27C0F981E043
:10536000C827892FC0FB83F980934F02CC2351F0CB
:1053700080E99CE00E94950780914F0281608093B4
:105380004F0245C083E89CE0E2CF8AE098E00E94AB
:1053900095070E9447191F928F9380EF97E09F9384
:1053A0008F930E942E0880911C011F928F9389ED8C
:1053B00097E09F938F930E942E08809160021F9226
:1053C0008F9386EC97E09F938F930E942E080E9404
:1053D000A1269F938F937F936F938FEA97E09F937C
:1053E0008F930E942E088DB79EB742960FB6F89401
:1053F0009EBF0FBE8DBF40CF895301C080E00E9489
:1054000026273ACF81E89CE00E949507C0E08C2FC8
:10541000DF91CF91089580E0089580E00895CF93C3
:10542000C82F80915302882319F0813031F038C0A1
:105430000E9438248232B1F504C00E94382482329E
:1054400061F48C2F0E940B2A811104C08C2F0E94C2
:10545000462724C081E090E021C08C2F0E940D2AB5
:1054600081111BC0C43189F018F4CB3029F010C071
:10547000C93259F0C83361F487E199E00E94950779
:1054800086EA97E00E94950708C0109253020CC06C
:1054900084EA97E00E94950707C081E0817006C00A
:1054A0001092530280E002C080E0F8CFCF910895BF
:1054B00080915F02089508959FB7F8941092560264
:1054C0009FBF90918402943009F057C09091E900F9
:1054D0009F703091EC00232F217030FD20E8922B3B
:1054E00023E02093E9002091EB0020FF43C02091AE
:1054F000EE0027FF3FC020915402222321F020918B
:10550000E80025FF37C01092540226E03091E800F1
:1055100035FD15C030918402343061F53091EB00D7
:1055200035FD28C0215021F481E08093540222C02F
:10553000EFE9FFE03197F1F700C00000E7CF80937B
:10554000F1008091E80085FD0AC08091E80080FFAD
:10555000FCCF8091E8008E778093E80006C08FB77B
:10556000F89421E0209356028FBF9F709093E9003A
:1055700080E008959F709093E9008FEF0895CF9396
:10558000DF9300D01F92CDB7DEB7909184029430A4
:1055900019F589837B836A8382E08093E9008FEF2A
:1055A0009091E800815095FD06C095ED9A95F1F730
:1055B00000008111F5CF8091E80085FF0DC040E02B
:1055C00050E063E070E0CE0101960E94412D809191
:1055D000E8008E778093E8000F900F900F90DF9196
:1055E000CF910895CF93DF93EC010E94242D823058
:1055F00011F0843031F4BE0184E0DF91CF910C943E
:10560000BF2ADF91CF910895BC016058710983E0F2
:105610000C94BF2ACF93DF93EC010E94242D82309B
:1056200011F0843039F581E08093E9008FEF90919B
:10563000E800815095FD06C095ED9A95F1F70000C0
:105640008111F5CF8091E80085FF14C040E050E063
:1056500068E070E0CE010E94412D8091E8008E77D5
:105660008093E80088E0FE01A7E5B2E001900D928A
:105670008A95E1F7DF91CF91089580E59DE00E9442
:10568000950780918302811109C00E94D62E0E9445
:10569000332F8091E20084608093E20008958CE4CF
:1056A0009DE00E94950710928302089588E49DE092
:1056B0000C94950784E49DE00C94950780E49DE0AC
:1056C0000E9495070C945026209155022F5F822F3F
:1056D00062E30E94EC31992319F02093550208955A
:1056E0001092550280915602882371F180918402B4
:1056F000843041F58091E9008F702091EC00922F69
:10570000917020FD90E8892B93E09093E9009091AF
:10571000EB0090FF14C09091EE0097FF10C09091A5
:10572000E80095FF03C01092F100F9CF9091E800D6
:1057300090FF05C09091E8009E779093E8008F70ED
:105740008093E90010925602089542E061EC81E0F6
:105750000E94502E42E261EC82E00E94502E42E212
:1057600061EC83E00C94502E80918602833009F422
:1057700060C030F4813071F0823009F499C008952E
:105780008A3009F485C08B3009F46BC0893009F088
:10579000A7C020C080918502813A09F0A1C0809104
:1057A000E800877F8093E8008091890290918A02C7
:1057B000892B21F468E087E592E003C060E080E097
:1057C00090E070E00E948C2D8091E8008B778093B0
:1057D000E800089580918502813209F081C08091AE
:1057E000890290918A02029708F07AC08091E800BD
:1057F000877F8093E8008091E80082FD05C080915A
:1058000084028111F8CF6CC02091F3008091F200E6
:1058100090E0922B029729F48091F1008B7F8130E8
:1058200021F48091F10080935F028091E8008B77F2
:1058300053C080918502813A09F052C0809189025B
:1058400090918A02892B09F04BC08091E800877FF4
:105850008093E8008091E80080FFFCCF80911C01DC
:1058600036C0809185028132D9F58091890290916C
:105870008A02892BA9F58091E800877F8093E80050
:105880000E94852E8091870280931C010C94831EB8
:1058900080918502813221F58091E800877F809395
:1058A000E8000E94852E809188028093600208950E
:1058B00080918502813AA1F48091E800877F8093EE
:1058C000E8008091E80080FFFCCF80916002809327
:1058D000F1008091E8008E778093E8000C94852E8B
:1058E000089584B7877F84BF0FB6F894A8958091F8
:1058F0006000886180936000109260000FBE90E0AD
:1059000080E80FB6F89480936100909361000FBE19
:105910000E94D6190E94D62E0E94332F8091E20059
:1059200084608093E2008CE59AE20E94E8247894F7
:105930000E94C1310E94DE1982E191E00E94421969
:105940008FE29DE00E94950780918402853089F462
:105950008BE29DE00E9495070E94F32580918202D0
:10596000882391F30E943926882371F30E942B2DFE
:10597000EBCF0E94121AE8CF0C94BE2C292F3327AC
:1059800023303105C9F064F42130310581F0223033
:10599000310509F049C08BE590E02AE73DE048C0B9
:1059A0002132310521F12232310571F13DC082E110
:1059B00090E025ED3DE03CC099278130910571F0E4
:1059C0002CF4892B89F5E6E7FDE00DC082309105C6
:1059D00041F0039749F5E4E5FDE005C0E6E6FDE0AA
:1059E00002C0EAE5FDE0849190E09F0121C06330B0
:1059F0007105D0F4660F771FFB01E653FE4F20813F
:105A0000318189E090E014C06330710568F4FB01D6
:105A1000EE0FFF1FEC53FE4F20813181FB01EF534E
:105A2000FE4F808190E004C080E090E020E030E014
:105A3000FA0131832083089580918402843011F02B
:105A400081E0089582E0089580916102811102C091
:105A50000C941C2D089580E189BD82E189BD09B4B3
:105A600000FEFDCF8091D8008F7D8093D80080917B
:105A7000E00082608093E0008091E00081FDFCCF37
:105A80000895CF92DF92EF92FF920F931F93CF93DF
:105A9000DF93EC018B016A010E94A42E811133C0B7
:105AA000C114D10439F0F60180819181081B190BD2
:105AB000C80FD91FE12CF12C0115110519F18091A6
:105AC000E80085FD16C08091E8008E778093E8009D
:105AD000C114D10449F0F60180819181E80EF91ECC
