:100000000C941D030C94910D0C9464030C946403E4
:100010000C9464030C9464030C9464030C946403C4
:100020000C9464030C9464030C9435240C940725FD
:100030000C94E31A0C9464030C9464030C9464030E
:100040000C9464030C9464030C9464030C94640394
:100050000C9464030C944B1B0C9464030C94640385
:100060000C9464030C9464030C9464030C94640374
:100070000C9464030C9464030C9464030C94640364
:100080000C9464030C9464030C9464030C94640354
:100090000C9464030C9464030C9464030C94640344
:1000A0000C9464030C9464030C9464035D0A600A6A
:1000B000650A6C0A710A760A7B0A800A850A8A0A2E
:1000C0008F0A940A970A970A970A970A970A970A33
:1000D000970A970AD510D5100711071154117411FA
:1000E000D412D412B611531264126412C412D41270
:1000F000D412CD1256135613681368135F13681386
:100100006813681356135613641368136813641343
:1001100074259B258D269B258D26E7250A268D2671
:1001200060266F262E001E001F00200021002200E6
:1001300000442B0014001A00080015001700000FDF
:10014000290004001600070009000A000608E10063
:100150001D001B000600190005001908E000E20060
:10016000E300004200412A004C002D002700260039
:1001700025002400230031022F00130012000C0080
:1001800018001C000007344233420F000E000D001F
:100190000B00A900E50052003700360010001700E0
:1001A000AA004F0051005000380038412C002800B0
:1001B000C35C3A003B003C003D003E000000C45CD4
:1001C0001E021F022F02300231020000C25C200218
:1001D0002102260227023500C85CCB5C22022302E2
:1001E0002F0030003502C75CCA5CCF5CD05CCD5CB0
:1001F0000000C65CC55C4400430042004100400072
:100200003F00000045005500610060005F000000F5
:100210000000000057005E005D005C000000C95C4B
:10022000000054005B005A0059002402CA5CCE5CF6
:100230002E00630062000000BE5CBD5C0000000098
:100240000000000000000000000000000000F000BE
:10025000F000F900000000000000F200F200F100E0
:10026000F30000000000000000000000000000009B
:10027000000000000000000000000000F400F20098
:100280000000A900000000000000000000000000C5
:10029000AA000000000000000000000000000000B4
:1002A0000000BB00AE00BC005000000000000000D9
:1002B0000000000000000000000000000000AA0094
:1002C000A9000000F300000000003A003B003C00E1
:1002D0003D003E00C55C0000005CCD5CC25CC35CC0
:1002E000C65C0000000000000000000000000000EC
:1002F00001000000000000000000000000000000FD
:1003000000000000000000000000000000000000ED
:1003100043004200410040003F00C85C0000000074
:100320000000C95CCA5CC75C00000000000000005F
:1003300000000000000001000000000000000000BC
:1003400000000000000000000000000000000000AD
:10035000000000000000000000000000000000009D
:10036000000000000000000000000000000000008D
:10037000000000000000000000000000000000007D
:10038000000000000000000000000000000000006D
:10039000000000000000000000000000000000005D
:1003A000000000000000005C0000000000000000F1
:1003B000000000000000000000000000000000003D
:1003C000000000000000000000000000000000002D
:1003D000000000000000000000000000000000001D
:1003E00000010101010101010101020202020202F8
:1003F00002020203030303030303030404040404CB
:100400000404050505050506060606060707070791
:100410000708080808090909090A0A0A0B0B0B0C46
:100420000C0C0D0D0D0E0E0E0F0F0F1010111111E3
:100430001212131314141515161617171818191964
:100440001A1A1B1B1C1D1D1E1E1F202021222223C9
:100450002424252626272829292A2B2C2D2D2E2F0A
:1004600030313232333435363738393A3B3C3D3E21
:100470003F404142434445464748494A4C4D4E4F10
:1004800050515354555658595A5B5D5E5F616264D2
:10049000656668696B6C6D6F7072737577787A7B5F
:1004A0007D7E8082838587888A8C8E8F91939596B6
:1004B000989A9C9EA0A2A3A5A7A9ABADAFB1B3B5D6
:1004C000B7BABCBEC0C2C4C6C9CBCDCFD1D4D6D8B2
:1004D000DBDDDFE2E4E7E9EBEEF0F3F5F8FAFDFF50
:1004E000040330000000260354006800650020006B
:1004F0005200650064006F00780020004B0065002A
:10050000790062006F006100720064000000140353
:10051000460061006C0062006100740065006300C9
:10052000680000000403090409023B00020100A066
:10053000FA09040000010301010009211101000171
:100540002240000705810308000A09040100010395
:100550000000000921110100012285000705820326
:1005600020000A1201100100000008EDFE0000004A
:10057000010102030105010902A10185020901A18E
:100580000005091901290515002501950575018149
:100590000295017503810105010930093115812595
:1005A0007F95027508810609381581257F950175AB
:1005B000088106050C0A38021581257F950175080A
:1005C0008106C0C005010980A10185031A81002AA6
:1005D0008300160100260300950175108100C005F7
:1005E0000C0901A10185041A01002A9C02160100D0
:1005F000269C02950175108100C005010906A10124
:10060000050719E029E71500250195087501810204
:100610009501750881010507190029FF150026FFBE
:1006200000950675088100050819012905950575CD
:10063000019102950175039101C011241FBECFEFF6
:10064000DAE0DEBFCDBF04B603FE27C08091B4025E
:100650009091B502A091B602B091B7028730904B4D
:10066000A740B04BD1F41092B4021092B502109290
:10067000B6021092B70214BE84B7877F84BF0FB64C
:10068000F894A89580916000886180936000109232
:1006900060000FBEE0E0F8E3099511E0A0E0B1E0F2
:1006A000E2E7FEE402C005900D92AE39B107D9F73A
:1006B00022E0AEE9B1E001C01D92A43BB207E1F730
:1006C0000E945E210C9437270C9400000C942006A5
:1006D00081E0089581E008950C946A031F93CF93FD
:1006E000DF9300D000D01F92CDB7DEB749835A8385
:1006F0002091C60189819A81211112C0662349F097
:100700000E947B18182F682F89819A810E942018D7
:1007100003C00E944F18182F69817A81812F04C06D
:100720000E947B1869817A810F900F900F900F9033
:100730000F90DF91CF911F910C941C04FC0140811C
:1007400051816281738184810C946E030E94AB1984
:10075000811102C00E944B1A0C9466030C9422066D
:1007600008950C94B00381E008950C94B303CF93E3
:10077000C82F0E94B1038C2F0E94B503CF9108951A
:1007800008950E9446130E94C0032FEF84E39CE06B
:10079000215080409040E1F700C0000087E797E7D4
:1007A00090930108809300080C94711B0F931F9382
:1007B000CF93DF93EC010E949E038C01BE010E9447
:1007C0006C03882379F1BE01C8010E943E0B882387
:1007D00049F1BE01C8010E947F0B882319F1BE01B7
:1007E000C8010E94AA0C8823E9F0BE01C8010E943A
:1007F000460A8823B9F08A81882369F001158CE5BF
:10080000180731F00E3D1C4531F40E944B1A0AC006
:100810000E94C10307C0CE01DF91CF911F910F91BC
:100820000C94680380E0DF91CF911F910F910895A0
:1008300080E090E00895089597E0799FF0011124F9
:1008400096E4899FE00DF11D1124E60FF11DEE0FD6
:10085000FF1FEC5DFE4F859194910895880F991FBD
:10086000FC01E052FC4F859194910895CF93DF9362
:100870000E941C040E944905EC01811520E59207A5
:10088000F0F5811530E4930708F0CDC0883E91055E
:1008900000F5803E910508F0F8C0883A910570F4A3
:1008A000853A910508F09FC08130910509F4EDC0AB
:1008B00008F4E9C0049708F0E8C0E5C08F3B910553
:1008C00008F499C0803C910508F4DDC0805C910972
:1008D0009DC0811540E2940758F4C11581E0D80706
:1008E00008F0D3C0C03FD10508F4CDC0D065CDC05D
:1008F000811520E3920708F08DC09F7087C0811595
:1009000035E5930708F044C0811544E5940708F0E5
:10091000A1C0C11582E5D80708F5C11521E5D207A8
:1009200008F084C08C2F837021E030E002C0220FD9
:10093000331F8A95E2F73C68CE0174E0969587955F
:100940007A95E1F78370382BCF70C695C69580E213
:10095000C89FE0011124C22BD32B97C02C2F2695C2
:100960002695CE0183709927C115D34508F063C041
:1009700040E2249F90011124C1E0D0E002C0CC0FDE
:10098000DD1F8A95E2F72C2B3D2BE901DC687DC049
:10099000811549E59407A0F4C11588E5D80708F04A
:1009A0005EC0C11526E5D20708F06DC08C2F0E94ED
:1009B000DD058F71C82FD0E0DC2FCC27D06265C059
:1009C00081153AE5930708F44FC09056811590427F
:1009D00008F059C08D2F8F710E94DD05DD27D06290
:1009E0008F71D82B52C0C55AD0E0C45BDE4FC8818E
:1009F000D0E0D0644AC0C85AD0E0CC0FDD1FC25E40
:100A0000DE4F0990D881C02DD4643FC00E942E04CF
:100A1000EC013BC09927D3FF03C0EC01D86C35C073
:100A2000EC01D06C32C0DF70D06A2FC0DC2FCC2735
:100A3000C16FD06A2AC040E2249F90011124C1E016
:100A4000D0E002C0CC0FDD1F8A95E2F7C22BD32B7A
:100A5000DA681BC0D82FCC27C46FD06A16C0DC2F31
:100A6000CC27C06FD06A11C08F700E94DD0594E062
:100A7000D695C7959A95E1F7CF70D0E0DC2FCC27BB
:100A8000D069C82B02C0C0E0D0E0CE01DF91CF9189
:100A900008958238910569F1B0F48133910509F424
:100AA0006DC048F48932910509F463C08A3291051A
:100AB00009F469C008958533910509F455C0893357
:100AC0009105B9F00895833E910569F138F4803EAF
:100AD0009105B1F0823E910509F10895863E910598
:100AE000A9F1873E9105B9F1843E910509F064C0F2
:100AF00023C02091A50220FD4FC021FD4DC00895C7
:100B00008091A50280FD44C08091A60280FF44C070
:100B10008091A50284FD42C083EE4DC08091A50264
:100B200082FF38C0F5CF8091A50282FD33C080914D
:100B3000A60280FD31C0ECCF8091A60281FF32C0B9
:100B40008091A50284FD2AC087EE35C08091A50260
:100B500083FF26C0F5CF8091A50283FD21C080913F
:100B6000A60281FD1FC0ECCF8091A50285FD1CC0AF
:100B70001DC08091A50285FD19C016C08091A502F7
:100B800086FD16C017C08091A50286FD13C010C057
:100B900089E311C082EE0FC080EE0DC080E00BC073
:100BA00086EE09C084EE07C089E205C085E303C074
:100BB0008AE201C081E390E008959091A50292FF3E
:100BC0000DC0282F2871283019F4877F846006C053
:100BD000282F2471243011F48B7F886093FF0DC07F
:100BE000282F2871283119F4877E846106C0282FA8
:100BF0002471243111F48B7E88612091A60220FF9C
:100C00000DC0382F3871383019F4877F816006C0E5
:100C1000382F3171313011F48E7F886021FF0DC083
:100C2000282F2871283119F4877E816106C0282F6A
:100C30002171213111F48E7E886194FD877E0895A3
:100C4000089508950C942106E82FF0E0EC59FD4F2B
:100C500080810895089508950E949707809100016A
:100C600080910001811102C095E001C090E0909355
:100C70006F0285E0891B80936E02A6E5B1E041E03A
:100C800050E025E02A0F8D91E82FE295EF70F0E01B
:100C900031A18F70BA0102C0660F771F8A95E2F703
:100CA000CB01962F9095932391A392A1892B82A398
:100CB0002A13E9CFAFE4B1E041E050E027E02A0F8A
:100CC0008D91E82FE295EF70F0E031A18F70BA01BD
:100CD00002C0660F771F8A95E2F7CB01962F909599
:100CE000932391A392A1892B82A32A13E9CFA4E68F
:100CF000B2E0EAE5F2E08AE08E0F11921D928E13C7
:100D0000FCCF85E00E9441070C94A6030E9478075F
:100D1000882321F180916E0290E08C599D4F0E94B2
:100D2000AE07811117C080919E018F5F80939E0155
:100D3000863090F020916E0280E090E030E0FC017F
:100D4000E20FF31FEC59FD4F10820196853091059B
:100D5000B1F702C010929E010C94AE0380916F0215
:100D600090E08C599D4F0E94C9070C942B066F92FE
:100D70007F928F929F92AF92BF92CF92DF92EF922B
:100D8000FF920F931F93CF93DF9366E571E0AAE57F
:100D9000B2E0712C01E010E0D5E06D2E6A0E7D010D
:100DA0009C901C92EB018991BE01E82FE295EF70B7
:100DB000F0E091A18F70A80101C0440F8A95EAF775
:100DC000892F842B81A392A1842F8095982392A3AD
:100DD000D0EADA95F1F7CFE4CC2EC1E0DC2E20E0AA
:100DE00030E0E60199916E01A92EA2945FE0A52260
:100DF000B12CE501A8A08C90B12C9F7002C0B594D5
:100E0000A7949A95E2F7A0FC07C0902F022E01C08C
:100E1000990F0A94EAF701C090E098299C932F5FFC
:100E20003F4F27303105E9F691A1892381A382A1A3
:100E3000482B42A3119681E0F7019081991201C0DD
:100E400080E0782A6A12ABCF60916F0270E06C5933
:100E50007D4F272D45E08AE592E00E9442070E94DF
:100E60008606872DDF91CF911F910F91FF90EF9014
:100E7000DF90CF90BF90AF909F908F907F906F90BA
:100E800008950895FF920F931F93CF93DF938C01E2
:100E9000F62ED72FC42F222349F081E08093A101A1
:100EA0000E94151B9093A00180939F018091A10146
:100EB0008823C1F080919F019091A0010E94211B85
:100EC000069780F0EF2DFD2FD8014C2F50E0CD017B
:100ED000801B910B841795071CF48D918193F7CF9C
:100EE0001092A101DF91CF911F910F91FF90089572
:100EF0008091A201811112C08091D80080618093FD
:100F0000D8008AE18A95F1F700C08091D90080FD70
:100F100002C082E001C081E08093A20181E0909153
:100F2000A201913009F080E008950C9478070E94A6
:100F30009507809300010E94780781110C94A20705
:100F40000C94A80761E070E081E091E00C94360D0C
:100F500061E070E081E091E00C943F0DCF93DF936E
:100F6000D82FC92F0E94E20D892B79F4ED2FFC2F89
:100F700080E090E0DC01AC55BE4F2C9121930196AE
:100F800085309105B9F781E001C080E0DF91CF9114
:100F9000089520E030E0FC014191CF01F901EC55CA
:100FA000FE4F40832F5F3F4F25303105A1F7089555
:100FB000AF92BF92CF92DF92FF920F931F93CF9386
:100FC000DF93D62E372FE82FF0E0711106C0E052E4
:100FD000FC4F6491762F862F75C0C72FD0E0E0526A
:100FE000FC4F2491F22E022F10E046E0649FC001D6
:100FF0001124EFEFF0E0BF010E94C126AB016BEAC4
:101000006403C001659F900D11248D0D911D8D0D00
:10101000911D982F990F890FDF01AC1BBD0B0A9F03
:10102000B0010B9F700D1A9F700D1124972F839F95
:10103000D0011124AB2FBB276F01CA1ADB0A0C9D0C
:10104000D0010D9DB00D1C9DB00D11245F01A81A9B
:10105000B108AC9E6001AD9ED00CBC9ED00C11249A
:10106000CD2DDD27EC1BFD0B0E9FE0010F9FD00D5A
:101070001E9FD00D1124ED2F4230510591F04CF4FC
:1010800041155105E1F041305105B9F4E22F2B2F04
:1010900016C04430510569F044F04630510579F0EE
:1010A0000CC0E22F272F9D2F0AC0272F9F2DEB2F3B
:1010B00006C0E72F922F2D2F02C0E72F9B2F6E2FF8
:1010C000722F892FDF91CF911F910F91FF90DF90A9
:1010D000CF90BF90AF900895CF93DF93762FE90123
:1010E000682F842F0E94D807798368838A83DF91D1
:1010F000CF91089580917002982F9695913021F0AC
:101100008170826080937002089588E090E00C9472
:10111000F726CF93DF9300D000D0CDB7DEB7AB0179
:10112000BC0149835A836B837C830E947A0849817E
:101130005A816B817C8188E090E00F900F900F9036
:101140000F90DF91CF910C941527E0E7F2E083E058
:10115000808311828FEF8283838314826081718107
:10116000828193810C94890880917402833018F4F1
:101170008F5F809374026091700270917102809110
:101180007202909173020C948908809174028823F2
:1011900019F0815080937402609170027091710215
:1011A00080917202909173020C94890860910A01F7
:1011B00070E08091700280FF0AC08091AA0123E054
:1011C000829FC00111248B589D4F0C94CE0A8091B0
:1011D000A90190910901891780F7E82FF0E09F019C
:1011E000220F331FE20FF31FEB58FD4F11821082C5
:1011F00012828F5FF0CFE0E7F2E080818E7F808304
:1012000060817181828193810E9489082FEF80E73C
:1012100092E0215080409040E1F700C000000C9423
:10122000D6089091700290FF16C09091A90120916C
:101230000901921770F4E92FF0E0DF01AA0FBB1F3C
:10124000EA0FFB1FEB58FD4F8183608342839F5F52
:10125000F0CF0C94D6080895EF92FF920F931F934E
:10126000CF93DF9300D01F92CDB7DEB7909170027D
:1012700090FF2CC0E22E142F062FF82EE92FE695B2
:10128000F0E0E05AFE4F80818093AC019E7F923067
:1012900059F49E012F5F3F4F8F2D0E946C084B81A8
:1012A00069818A810E941109F09271020093720291
:1012B00010937302EE2051F06091700270917102F0
:1012C00080917202909173020E9489080F900F9092
:1012D0000F90DF91CF911F910F91FF90EF900895A4
:1012E000E0E7F2E09181282F4381628188E0890F55
:1012F0000C942C0981E00C947009E0E7F2E09181F4
:10130000282F4381628188EF890F0C942C0981E09A
:101310000C947D09E0E7F2E0628121E1620F08F4BC
:101320006FEF282F438181810C942C0981E00C946C
:101330008A09E0E7F2E0628121E1621B08F460E0E3
:10134000282F438181810C942C0981E00C94990908
:10135000E0E7F2E0438121E1420F08F44FEF282F4C
:10136000628181810C942C0981E00C94A809E0E74A
:10137000F2E0438121E1421B08F440E0282F628122
:1013800081810C942C0981E00C94B70920E00C9425
:101390002C098091700280FF18C081708260809358
:1013A0007002662351F06091700270917102809119
:1013B0007202909173020E948908409173026091B9
:1013C0007202809171020C94C6090895682F81E021
:1013D0000C94C90981E00C94E609682F9091700281
:1013E00096958FEF890F09F481E00C94C90981E08B
:1013F0000C94ED0961E00C94C909E0E7F2E080810A
:101400008160808386950C94FA098091700280FD3A
:101410000C94FB080C94FD0960E00C94C9098091C0
:10142000AB0181112CC00E94AB19811104C00E9434
:101430004B1A0E94A5080E94850860937002709361
:10144000710280937202909373026E7F61F40E9426
:10145000A5080E94850860937002709371028093C2
:101460007202909373020E947A088091700280FF4A
:1014700003C086950E940C0A81E08093AB01089519
:10148000882311F0FA0101C0FB0109941F93CF9347
:10149000DF93FB01128111114AC0EC010E94FB187D
:1014A0008272FE01E25CFC45E431F10520F4EA5A67
:1014B000FF4F0C94E92611E03AC00E94050A37C09C
:1014C00047EF59E06AEE79E004C04AEE59E067EF71
:1014D00079E00E94400A2BC047E859E06AE779E0CA
:1014E000F8CF4AE759E067E879E0F3CF45EA59E0F9
:1014F00066E979E0EECF46E959E065EA79E0E9CFBF
:1015000043EC59E064EB79E0E4CF44EB59E063EC61
:1015100079E0DFCF45EC58E064EB78E0DACF44EBDC
:1015200058E065EC78E0D5CF81E00E94FA09812F80
:10153000DF91CF911F9108952BB1342F3095232344
:101540003BB1432B3FB7F894FC01680F791FE617B6
:10155000F70789F0819198E04BB9000000C087FF40
:101560002BB9880F000000C000C000C02BB900C01C
:101570009A9591F7ECCF3FBF08952AB1242B2AB951
:101580009B01220F331F620F731F0E949C0A87EC7E
:1015900090E00197F1F700C00000089548E00C9436
:1015A000BD0A0F931F93CF93DF93C62FD42F022F23
:1015B000FC0182818823C9F06093B0010E94151B51
:1015C0009093AF018093AE0180E28C0F883008F0D9
:1015D00050C0C77081E001C0880FCA95EAF7DF915B
:1015E000CF911F910F910C9495101091B00116138B
:1015F00030C08091AE019091AF010E94211B883CC8
:10160000910538F5C0E2CD0F1D17B9F080E2810FCA
:10161000883040F4177081E001C0880F1A95EAF70E
:101620000E949C10C83048F481E09D2F977001C043
:10163000880F9A95EAF70E949510802F0E948210D9
:10164000C830B8F4D77081E001C0880FDA95EAF7A6
:101650000AC080E28C0F883060F4C77081E001C05E
:10166000880FCA95EAF7DF91CF911F910F910C94E3
:101670009C10DF91CF911F910F9108959C01CB0198
:10168000233F4CE53407F9F078F4283DFCE53F07AB
:10169000B9F0293D4CE5340711F1273D3C4531F5C2
:1016A00026E241EE61EE1EC0253FFCE53F0799F0C2
:1016B00070F0263F3C45D1F427E245EE66EE12C0BD
:1016C00027E245EE0EC026E241EE60EE0BC027E2B7
:1016D00045EE64EE07C026E241EE62EE03C028E26A
:1016E00041E065EE0E94D10A80E00895FC0182810C
:1016F000882319F01092B001089581E00895CF93E6
:10170000DF93EC01FB018281882309F41FC1C23001
:10171000FCE5DF0708F41BC1C6319CE5D90738F0AA
:101720009E012A5F3C452930310508F010C10E9416
:10173000BE199093A6028093A502C031ECE5DE07A6
:1017400009F4C3C008F041C0C8308CE5D80709F4DB
:101750009AC0F0F4C430ECE5DE0709F487C068F401
:10176000C2308CE5D80709F477C0C330DC4509F0F6
:10177000E3C08091A502826076C0C630ECE5DE074A
:1017800009F46EC008F07BC08091A50288606BC030
:10179000CC308CE5D80709F485C068F4CA30ECE594
:1017A000DE0709F474C008F079C00E9446138091E6
:1017B000A502806858C0CE308CE5D80709F476C001
:1017C00008F07FC08091A5028BC0CB3FECE5DE071F
:1017D00009F44FC018F5C3318CE5D80709F47DC072
:1017E00078F4C131ECE5DE0709F473C0C231DC45A1
:1017F00009F0A2C00E9446138091A5028F7733C0E2
:10180000C5318CE5D80709F472C008F486C0CA3F18
:10181000DC4509F091C08091A6023EC0CF3FFCE5B7
:10182000DF0709F45FC058F4CD3F9CE5D90709F400
:1018300044C008F43FC08091A60282602DC0C13030
:10184000FDE5DF0709F475C008F45DC0C230DD4571
:1018500009F072C080E06EC08091A502816003C073
:101860008091A50280618093A50266C08091A50247
:1018700011C08091A60282608093A6025DC0809113
:10188000A5028062F0CF8091A5028064ECCF8091A8
:10189000A50288608460E7CF8160EECF8091A502C9
:1018A0008E7FE1CF8091A5028D7FDDCF8091A50253
:1018B000877FD9CF8091A60218C08091A6028D7F24
:1018C000DBCF8091A5028F7ECECF8091A5028F7D48
:1018D000CACF8091A5028F7BC6CF8091A502877F5A
:1018E0008B7FC1CF8091A6028D7F8E7FC5CF8091E7
:1018F000A50282FB222720F991E0922790FB82F932
:1019000090FB83F9B0CF8091A602982F90959170AB
:101910008E7F892B90FB81F9AFCF0E944613809177
:10192000A50287FB222720F991E0922790FB87F9F7
:101930009ACF81E00E944D1A8091A5029091A60253
:101940000E94CF190E94461380E001C081E0DF9120
:10195000CF910895CF93DF9386319C4541F5EB01FC
:101960000E94FB18282F8A8140910B0150910C0195
:10197000882379F02A7A91E009F490E09093B101FC
:10198000911102C069E201C065E3CA010E94841A94
:101990000AC08091B101811102C069E201C065E312
:1019A000CA010E94861A0E94471980E001C081E0A6
:1019B000DF91CF9108958EE1489B02C08150E1F7FD
:1019C000489BFECF0895589880E28A95F1F7589A7F
:1019D0000895FC013AE03A95F1F798E020E080E0C4
:1019E00031E040E14A95F1F7880F489B02C08160E1
:1019F000232700C0000040E14A95F1F7915089F794
:101A000090E19A95F1F799B100C0000030E13A9564
:101A1000F1F7917092272081920F90830895FF92A1
:101A20000F931F93CF93DF9300D0CDB7DEB719820A
:101A3000F82E8C01802F8F19861760F46A830E941C
:101A4000DB0CCE0101960E94E90CF80181938F0115
:101A50006A81F0CF81E09981911180E00F900F9021
:101A6000DF91CF911F910F91FF9008959093B40152
:101A70008093B3016093B201509A589A089590935D
:101A8000B4018093B3016093B2015098589AE89AD8
:101A9000E9E6F0E080818C7F80830895615091E0D9
:101AA00001C0990F6A95EAF720E031E0992361F0CF
:101AB000492F482319F0589A232701C0589840E22B
:101AC0004A95F1F79695F2CF222311F0589A01C06A
:101AD000589880E28A95F1F758980895EF92FF920E
:101AE0000F931F93CF93DF931F92CDB7DEB7162FBF
:101AF000082F7C018E2D801B811758F4F7018191EE
:101B00007F0189830E94E30C68E089810E944E0D69
:101B1000F1CF0F90DF91CF911F910F91FF90EF9038
:101B200008951F920F920FB60F9211242F933F9397
:101B30004F935F936F937F938F939F93AF93BF93D5
:101B4000CF93DF93EF93FF935898509AC091B301CE
:101B5000D091B4016D81662321F08E819F810E9416
:101B60006E0D0E94E30C80E18A95F1F75898509829
:101B7000589A80E18A95F1F76A81662351F08B814A
:101B80009C810E940F0DE881F981811104C082E0DF
:101B900003C0E881F98188E080830E94DB0CFF911B
:101BA000EF91DF91CF91BF91AF919F918F917F91F5
:101BB0006F915F914F913F912F910F900FBE0F90BA
:101BC0001F901895CF93DF93C091B301D091B401CA
:101BD000F894509A589885E08A95F1F7000050984B
:101BE000589A80E28A95F1F7489B0AC0509A589A11
:101BF000E881F98181E08083789481E090E02CC0D5
:101C00006D81662381F08E819F810E940F0D81116D
:101C10000AC0509A589AE881F98182E080837894CA
:101C200082E090E019C00E94DB0C80E28A95F1F717
:101C30005898509A80E18A95F1F76A81662321F0DD
:101C40008B819C810E946E0D0E94E30CE881F981DA
:101C50001082789480E090E0DF91CF910895909386
:101C6000BA018093B9010895E091B901F091BA01E8
:101C7000309721F00190F081E02D099480E00895E3
:101C8000E091B901F091BA01309721F00280F3811F
:101C9000E02D09940895E091B901F091BA013097CF
:101CA00039F022E0DC012C930480F581E02D0994C9
:101CB00008952091B7013091B8018217930771F010
:101CC0009093B8018093B701E091B901F091BA0106
:101CD000309721F00680F781E02D09940895209136
:101CE000B5013091B6018217930771F09093B60158
:101CF0008093B501E091B901F091BA01309721F0DC
:101D00000084F185E02D0994089585B7806885BF2A
:101D100085B7806885BF0895089508950C948D0E49
:101D200008950C94900E0E94850E0E948C0E0C94C7
:101D30008E0E0E940C1B0E942C060E94821B0E9489
:101D40000F0A0C94910EBF92CF92DF92EF92FF9206
:101D50000F931F93CF93DF93CDB7DEB72B970FB6BB
:101D6000F894DEBF0FBECDBF0E94B7060E94780771
:101D7000811111C08FEF89838A831B820E94151BFA
:101D80008160782F9D838C8349815A816B818D81FD
:101D90000E943A0F42C08CEBC82E81E0D82E00E0A2
:101DA00010E0B02E802F0E942406F601E1906F0112
:101DB000E82631F40F5F1F4F0A30110591F7DACF93
:101DC0009091410291FF04C08B870E942A068B8567
:101DD00090E0FF24F3942F2D2E21D1F09E83BF821B
:101DE0008F2191E009F490E098870E94151B816093
:101DF000782F9A8789874E815F8168858A850E94BE
:101E00003A0FF801E454FE4F8081F826F08205C0B5
:101E10009F5FFF0C9730F9F6CDCF0E94141D1091F3
:101E2000BB010E94340E1817A9F00E94340E809353
:101E3000BB012B960FB6F894DEBF0FBECDBFDF916E
:101E4000CF911F910F91FF90EF90DF90CF90BF90B7
:101E50000C94B7032B960FB6F894DEBF0FBECDBF20
:101E6000DF91CF911F910F91FF90EF90DF90CF9076
:101E7000BF900895CF93DF93CDB7DEB72B970FB602
:101E8000F894DEBF0FBECDBF4F83588769877A872E
:101E90008B87DE01119686E0FD0111928A95E9F7A4
:101EA00085E0FE01379601900D928A95E1F7498110
:101EB0005A816B817C818D819E810E94F0152B96C9
:101EC0000FB6F894DEBF0FBECDBFDF91CF9108955E
:101ED000FC01808191810E94BC180895CF93DF930B
:101EE0001F92CDB7DEB7882309F4A0C0682F8238CF
:101EF000C1F40E94340E81FD99C069E380910B0109
:101F000090910C010E94841A0E9447192FEF81EED4
:101F100094E0215080409040E1F700C0000069E368
:101F200019C0833811F50E94340E80FD7FC063E52F
:101F300080910B0190910C010E94841A0E94471914
:101F40002FEF81EE94E0215080409040E1F700C0F7
:101F5000000063E580910B0190910C010E94861AAC
:101F60000F90DF91CF910C9447198438C1F40E94EF
:101F7000340E82FD5BC067E480910B0190910C01EF
:101F80000E94841A0E9447192FEF81EE94E021509D
:101F900080409040E1F700C0000067E4DBCF8CEFA9
:101FA000860F813A70F4862F69830E94451F6981EC
:101FB00081113CC080910B0190910C010E94841A08
:101FC000CFCF80E2860F883048F4677081E001C08F
:101FD000880F6A95EAF70E94FE18C2CFEBE5E60F7C
:101FE000E33050F4F0E0E057FE4F808190E00F9036
:101FF000DF91CF910C94590EE8E5E60FE73160F4DC
:10200000F0E0EE0FFF1FEE59FE4F808191810F909F
:10201000DF91CF910C946F0E603F40F0862F0E94AD
:102020001C1C0F90DF91CF910C94091D0F90DF9134
:10203000CF910895882309F464C0823879F40E940E
:10204000340E81FF5EC069E380910B0190910C0119
:102050000E94841A0E94471969E310C08338B1F4C2
:102060000E94340E80FF4DC063E580910B0190917A
:102070000C010E94841A0E94471963E580910B01AC
:1020800090910C010E94861A0C944719843879F4B7
:102090000E94340E82FF35C067E480910B0190915D
:1020A0000C010E94841A0E94471967E4E7CF9CEF55
:1020B000980F913A10F4682FE1CF90E2980F983082
:1020C00050F4877091E001C0990F8A95EAF7892F43
:1020D0000E940419D9CF9BE5980F933020F480E03B
:1020E00090E00C94590E98E5980F973120F480E019
:1020F00090E00C946F0E803F20F00E94841C0C94A2
:10210000091D0895CF93C82F0E946E0FC93349F45B
:102110002FEF87EE93E0215080409040E1F700C020
:1021200000008C2FCF910C941A10882321F00E946C
:10213000FE180C9447190895882321F00E94041971
:102140000C9447190895BF92CF92DF92EF92FF92BD
:102150000F931F93CF93DF937C01062FC72FFC01B2
:10216000158112951F70D281D1110E941B190E94F6
:10217000F418882379F0DD2369F080E2800F88303D
:1021800048F082E00E9492190E94F41891E0B82E63
:10219000B92601C0B12CCC2EC2948FE0C822D12C1C
:1021A000F601E659FF4F0C94E9268C2F807FCF7003
:1021B000882311F0C295C07FDD2399F0CC2309F468
:1021C000CEC180E2800F883010F0011104C08C2F46
:1021D0000E94FE1803C08C2F0E940E190E944719FE
:1021E000BEC1802F0E941A10CC2309F4DDC180E209
:1021F000800F883010F0011104C08C2F0E94041948
:1022000003C08C2F0E9414190E944719CDC18C2F36
:10221000807FCF70803211F0C295C07F002319F00B
:102220000130C9F022C0DD2371F0112341F01130DB
:1022300031F40E942E198C2B0E943419B5C10E94D2
:102240002E198C2B1DC0112319F0113009F4ACC1CB
:102250000E943D1925C0DD2321F0163008F0A4C1ED
:102260000EC0153008F0A0C11BC0DD2361F01123A2
:1022700031F0F701858180FF72C18F7085838C2FCB
:102280000E94951091C1112359F0093309F078C1CA
:10229000FFEF27EE83E0F15020408040E1F76EC170
:1022A0008C2F0E949C1080C18C2F86958695837000
:1022B00090E0009719F0019761F076C1DD2321F0DD
:1022C000802F9C2F937002C080E090E00E94590EF6
:1022D00076C1DD2321F0802F9C2F937002C080E017
:1022E00090E00E946F0E6BC1DD23F9F0053F51F0C5
:1022F000063F71F0043FA9F480919F029091A002E3
:1023000081600BC080919F029091A002826005C005
:1023100080919F029091A00284609093A00280938C
:102320009F02802F0E941C1C1EC0053F51F0063FDB
:1023300071F0043FA9F480919F029091A0028E7FDA
:102340000BC080919F029091A0028D7F05C080916B
:102350009F029091A0028B7F9093A00280939F0296
:10236000802F0E94841C0E94091D29C18C2F83701C
:1023700009F049C0D1111FC1402F429546954770C1
:10238000440F440F602F6F70862F90E0A0E0B0E004
:10239000042E04C0880F991FAA1FBB1F0A94D2F7EE
:1023A00004FF10C00FE010E020E030E004C0000F98
:1023B000111F221F331F4A95D2F7009510952095C3
:1023C000309503C000E010E09801C695C695C37033
:1023D000D0E0BC01CD01602B712B822B932BC2303E
:1023E000D10559F0C330D10559F0219719F00E9459
:1023F0003517E1C00E942317DEC00E944717DBC0DB
:102400000E942117D8C0DD2319F08C2F817001C0E4
:102410008695882309F4CFC0402F42954695477092
:10242000440F440F602F6F70862F90E0A0E0B0E063
:10243000042E04C0880F991FAA1FBB1F0A94D2F74D
:1024400004FF10C00FE010E020E030E004C0000FF7
:10245000111F221F331F4A95D2F700951095209522
:10246000309503C000E010E09801C695C695C37092
:10247000D0E0BC01CD01602B712B822B932BC2309D
:10248000D10559F0C330D10559F0219719F00E94B8
:10249000FB1791C00E94E9178EC00E940D188BC0D7
:1024A0000E945C1788C0CF70DD2339F08C2F0E940A
:1024B0008217802F0E9495107EC0802F0E949C1052
:1024C0008C2F0E94A31777C0023F01F128F4003F30
:1024D00041F0013FA1F03FC0033FF9F0043F39F163
:1024E0003AC0DD2341F0153008F05EC08C2F8F71AB
:1024F0000E94C81759C0163008F056C0F7CFDD2328
:1025000039F08C2F8F710E9482174EC0DD23C9F3E2
:102510008C2F8F710E94A31747C0DD2329F08C2FC9
:102520008F710E946D1740C00E9468173DC0DD2367
:1025300049F0CF718C2F0E94821763E08C2F0E948C
:102540007D1932C081E00E949219123068F182E058
:102550000E94921929C0DD2331F0112391F2802FBE
:102560000E946E0F21C0112399F2093349F49FEFA5
:10257000E7EEF3E09150E040F040E1F700C00000EA
:10258000802F0E941A1010C04C2F4F70602FC7016F
:102590000E9418040E94941612C04C2F4F70602F96
:1025A000C7010E941B040BC028E0C21AD10884E0B6
:1025B000C816D10420F40E94340E0E94B703BB2039
:1025C000D1F00E94F01880FD16C0F70112820E941F
:1025D000EA180E948217C7010E9405130E94EA1898
:1025E000DF91CF911F910F91FF90EF90DF90CF90EF
:1025F000BF900C94A317DF91CF911F910F91FF9083
:10260000EF90DF90CF90BF9008950F931F93CF93DB
:10261000DF93EC01888199812B813C81232BB9F0D8
:102620009F3F11F48F3F99F0CE010E94D60388237B
:1026300071F0688179818A810E94C7188C010E949B
:102640001F180E942017B801CE010E94A310DF912D
:10265000CF911F910F9108950E941B190E942B1971
:102660000E9447190E94AF1D0E94091D80E090E062
:102670000E94590E80E090E00C946F0E80910B0147
:1026800090910C010E94881A0C942C130E940B1933
:102690000C943E13E92FE295EF70F0E03297EE30A4
:1026A000F105B0F4E658FF4F0C94E926803F91F015
:1026B00018F4883E68F40EC0843F51F40BC0883E85
:1026C00048F0813F29F406C093FB882780F90895DC
:1026D00080E0089581E008950E94BC180E944A138A
:1026E0000895CF93DF9300D000D01F92CDB7DEB70F
:1026F0000F900F900F900F900F90DF91CF91089552
:10270000CF93DF9300D000D000D0CDB7DEB72696B0
:102710000FB6F894DEBF0FBECDBFDF91CF91089505
:102720001F93CF93DF93C091C70116E08091C8013A
:10273000C81799F0D0E01C9FF0011D9FF00D1124E7
:10274000E753FE4F4081518162817381848195817D
:102750000E9480132196C770E9CFDF91CF911F911E
:1027600008954091F9015091FA016091FB01709137
:10277000FC018091FD019091FE010C9480138091E9
:10278000FE0182958F7009F054C08091FB0188236F
:1027900009F44FC08091C701A091C8016091F9016F
:1027A0007091FA014091FC015091FD01B6E08A1749
:1027B00009F43FC090E041155105C1F17F3F11F48C
:1027C0006F3FA1F1B89FF001B99FF00D1124E753BD
:1027D000FE4F218172132AC02081621327C02281FB
:1027E000211124C0238134812417350710F421508E
:1027F0003109241B350B283C3105C0F42091FE0122
:102800002F7020612093FE0126E0289FF001299F70
:10281000F00D1124E253FE4F80818F708061808320
:1028200089EF91E00E9405130C9490130196877034
:10283000BECF0895CF92DF92EF92FF920F931F9336
:10284000CF93DF93CDB7DEB762970FB6F894DEBFB4
:102850000FBECDBF8C0185E0F801DE011D96019011
:102860000D928A95E1F7D8014C9111965C911197E0
:1028700012966C9112971396CD90DC90149730912C
:10288000F9017091FA018091FC019091FD0100978E
:1028900009F46BC17F3F19F43F3F09F466C1E09032
:1028A000FB01EE2009F4C0C02091FE01C816D90634
:1028B00028F0F601E81BF90BCF0104C08095909534
:1028C0008C0D9D1DFF24F394883C910578F0F12C2C
:1028D000207F09F0C6C07C2DD98AC88A89890E94C8
:1028E000711389EF91E00E940513B1C0822F807FA0
:1028F00009F046C0751314C0341312C0611110C022
:102900002F7020612093FE010E94B11389EF91E0A6
:102910000E9405138091FE01D80115968C932EC05C
:10292000CD2819F15F3F11F44F3FF9F0F62E6111F8
:102930001CC08091C7012091C80136E0821709F4BC
:102940005AC090E0389FF001399FF00D1124E753F1
:10295000FE4F7181571306C07081471303C0728107
:10296000711103C001968770E9CFF62E662309F432
:1029700027C18091FE0181608093FE01F12C20C16E
:10298000751308C0341306C0611104C08091FE01A4
:10299000D801C3C04D875E878D859E856A8B0E9456
:1029A0006C136A898823E1F16623D1F12091FE013D
:1029B000822F82958F7090E0029774F08091F901D8
:1029C0009091FA0198878F831986DB86CA862C87B7
:1029D000CE0107960E94051386E0F801A9EFB1E049
:1029E00001900D928A95E1F70E94BF130E94B113E6
:1029F000FF24F394E5C04D875E878D859E850E94F8
:102A0000BC18292F22952F7030E0223031050CF0B0
:102A1000CBC09F7009F0C5C0805E883008F4D0C07C
:102A2000C8010E940513E4CFC816D90608F453C0A4
:102A3000F601E81BF90BCF01883C910508F450C062
:102A4000F12C7C2DD98AC88A89890E947113E9EFFB
:102A5000F1E086E0DF011D928A95E9F70E94B1134B
:102A6000AFC0751314C0341312C0611110C080912F
:102A7000FE01F8018583C8010E94051386E0E9EF95
:102A8000F1E0DF011D928A95E9F7FE2C99C04D8790
:102A90005E878D859E856A8B0E946C136A89882368
:102AA00009F4BECF662309F4BBCF2091FE01822F2B
:102AB00082958F7090E002970CF48ECF8091F9018F
:102AC0009091FA019A8389831B82DD82CC822E83C6
:102AD000CE0101967FCF809590958C0D9D1DACCF3A
:102AE000F62E662309F49CCF75132EC034132CC028
:102AF0002091FE0120FD1FC0822F82958F70D9F09A
:102B0000D80115962C9315978F3049F08F5F982F29
:102B10009295907F822F8F70892B15968C93C80188
:102B20000E94051386E0F801A9EFB1E001900D9233
:102B30008A95E1F793CF86E0F801A9EFB1E0019023
:102B40000D928A95E1F73CC04D875E878D859E8505
:102B50000E946C13811140CF8091FE0181608093AF
:102B6000FE01C8010E9405132BC0662309F458CF4B
:102B70004D875E878D859E850E946C13F82E882375
:102B800009F44ECF86E0F801A9EFB1E001900D9273
:102B90008A95E1F789EF91E00E94680F0E94BF13C8
:102BA0005DCF811139CF0CC0243031050CF038CF06
:102BB0009F7009F431CFF8019581907F09F02CCFF7
:102BC0008F2D62960FB6F894DEBF0FBECDBFDF919A
:102BD000CF911F910F91FF90EF90DF90CF900895CC
:102BE0001F93CF93DF93CDB7DEB72C970FB6F89432
:102BF000DEBF0FBECDBF4F83588769877A878B872B
:102C00009C87CE0107960E941A14882369F08F8151
:102C100098852A853B85232BF1F19F3F09F063C0FE
:102C20008F3F09F060C037C086E0FE013796DE01B5
:102C3000119601900D928A95E1F76F817885EA856A
:102C4000FB85309741F17F3F11F46F3F21F12091D7
:102C5000C80130E0C9010196877099274091C701EA
:102C600050E08417950709F447C069837A83FD8390
:102C7000EC8396E0929FD001939FB00D1124A7534F
:102C8000BE4FFE01319601900D929A95E1F7809327
:102C9000C8010E94901316E08091C7019091C8016D
:102CA0008917C1F1189FC001112487539E4F0E94BC
:102CB0001A14882379F1E091C7011E9FF0011124B5
:102CC000E753FE4F408151816281738184819581F8
:102CD0000E9480138091C70190E001968770992728
:102CE0008093C701D9CF4F81588569857A858B85B7
:102CF0009C850E948013CFCF0E9446131092C8017A
:102D00001092C701E9EFF1E086E0DF011D928A959C
:102D1000E9F7C1CF2C960FB6F894DEBF0FBECDBF3A
:102D2000DF91CF911F910895EF92FF920F931F9320
:102D3000CF93DF938C01892B09F46CC0F12CEE2426
:102D4000E394E8012196F8018491843740F48430BB
:102D500008F051C0813081F0823019F15BC08537B5
:102D600009F444C0A8F19CE7980F903708F052C0CE
:102D70008F770E941A1041C00E5F1F4FFE01C49151
:102D800080E28C0F883048F4C7708E2D01C0880F08
:102D9000CA95EAF70E941E1914C08C2F0E946E0F6C
:102DA0002DC00E5F1F4FFE01C49180E28C0F883052
:102DB00058F4C7708E2D01C0880FCA95EAF70E949B
:102DC00024190E9447191AC08C2F0E941A1016C08D
:102DD0000E5F1F4FFE01C491CC2381F08FE99FE06D
:102DE0000197F1F700C00000C150F6CF0E5F1F4FF2
:102DF000FE01F49003C00E946E0F8E018F2D882378
:102E000009F49FCFEFE9FFE03197F1F700C0000030
:102E10008150F5CFDF91CF911F910F91FF90EF90EF
:102E2000089508950C9411170E94121760933002B0
:102E30007093310280933202909333020C942C13DE
:102E400008950C9414170F931F9300913002109162
:102E500031022091320230913302602B712B822B90
:102E6000932B1F910F910C9414170F931F930091A4
:102E700030021091310220913202309133026023EE
:102E80007123822393231F910F910C9414170F9396
:102E90001F93009130021091310220913202309143
:102EA000330260277127822793271F910F910C947B
:102EB000141708950C9459170E945A1760932C0206
:102EC00070932D0280932E0290932F020C942C135A
:102ED00060E070E0CB010C945C170F931F9341E00E
:102EE00050E060E070E08A019B0104C0000F111FF8
:102EF000221F331F8A95D2F7C901B8011F910F9184
:102F00000C945C170F931F9341E050E060E070E079
:102F100004C0440F551F661F771F8A95D2F7809112
:102F20002C0290912D02A0912E02B0912F028A01C5
:102F30009B01082B192B2A2B3B2BC901B8011F9190
:102F40000F910C945C170F931F9341E050E060E0E9
:102F500070E004C0440F551F661F771F8A95D2F793
:102F6000409550956095709580912C0290912D021E
:102F7000A0912E02B0912F028A019B0108231923F0
:102F80002A233B23C901B8011F910F910C945C17B0
:102F90000F931F9341E050E060E070E004C0440FE5
:102FA000551F661F771F8A95D2F780912C0290914A
:102FB0002D02A0912E02B0912F028A019B010827B9
:102FC00019272A273B27C901B8011F910F910C949B
:102FD0005C170F931F9300912C0210912D022091EA
:102FE0002E0230912F02602B712B822B932B1F917D
:102FF0000F910C945C170F931F9300912C0210916A
:103000002D0220912E0230912F0260237123822302
:1030100093231F910F910C945C170F931F930091B2
:103020002C0210912D0220912E0230912F02602748
:103030007127822793271F910F910C945C17089595
:1030400027E0929F800D1124A82FA695A695A695FE
:10305000877051E001C0550F8A95EAF785E0A89F77
:10306000D001112420E030E070E0F901EA0FFB1FED
:10307000E150FE4F4081CB01022E02C0969587950C
:103080000A94E2F781709927819584278523842704
:1030900080832F5F3F4F2530310539F7089527E0B2
:1030A000929F800D1124682F669566956695982FDE
:1030B000977085E0689FB001112440E050E080E007
:1030C000FA01E60FF71FE150FE4F208130E0092E94
:1030D00002C0369527950A94E2F721703327042E13
:1030E00001C0220F0A94EAF7822B4F5F5F4F4530F1
:1030F000510531F70895BF92CF92DF92EF92FF9280
:103100000F931F93CF93DF938C01C0903002D09028
:103110003102E0903202F090330280912C029091C3
:103120002D02A0912E02B0912F02C82AD92AEA2A94
:10313000FB2ACFE1D0E0D701C6010C2E04C0B69522
:10314000A795979587950A94D2F780FF07C0BC2E64
:10315000B8018C2F0E943604019719F4219758F773
:10316000B12C8B2DDF91CF911F910F91FF90EF909C
:10317000DF90CF90BF900895CF93DF93EC010E9432
:103180007B18BE010E943604DF91CF9108951F93F2
:10319000CF93DF93EB019091C601992321F0CB01EE
:1031A0000E94BC1813C0882349F0CB010E947B18F1
:1031B000182F682FCE010E94201804C0CB010E9456
:1031C0004F18182FBE01812F0E943604DF91CF9136
:1031D0001F91089580913402859585958595089570
:1031E000809134028770089590913402977081E045
:1031F00009F480E008958091400208959091400282
:10320000892B8093400208958095909140028923F4
:1032100080934002089510924002089590913F02D9
:10322000892B80933F020895809590913F028923D6
:1032300080933F02089510923F02089590913E02BC
:10324000892B80933E020895809590913E028923B8
:1032500080933E02089510923E02089580913502B7
:10326000089508950C94311990913502981721F022
:10327000809335020C943219089580913502882389
:1032800029F01092350280E00C9432190895E091F3
:103290000B01F0910C01809140028083E0910B01C1
:1032A000F0910C01908180913F02892B8083E09105
:1032B0000B01F0910C01908180913E02892B80835B
:1032C00080913502882381F0E0910B01F0910C018F
:1032D0009081892B808380910B0190910C010E9439
:1032E000521A81110E943D1980910B0190910C019D
:1032F0000C94400E08950C947A1998E0899F9001DF
:103300001124262B209334020E94821780913402CC
:103310008595859585950C947B191092340280E0F3
:103320000C947B192091340280958223809334027F
:10333000982F977079F430E0482F082E000C550B29
:103340002417350739F08595859585950E94A31733
:103350000C948D19089580E090E00E94FD2621E0F4
:103360008C3E9E4F09F020E0822F089582E090E08D
:103370000C94EF2683E090E00C94EF26CF9384E04A
:1033800090E00E94EF26C82F81E290E00E94EF2695
:103390002C2F30E0A901582BCA01CF910895CF936B
:1033A000C92F682F84E090E00E9403276C2F81E2F0
:1033B00090E0CF910C940327AB01BC018FE090E02B
:1033C0000C941527AB01BC0183E190E00C94152708
:1033D00060E070E0CB010C94E21960E070E0CB019A
:1033E0000E94DC190C94E8196CEE7EEF80E090E00E
:1033F0000E94212760E082E090E00E94032760E0C5
:1034000083E090E00E940327109230021092310274
:10341000109232021092330260E084E090E00E9449
:10342000032760E081E290E00E94032760E085E0EE
:1034300090E00E94032760E086E090E00E9403276E
:103440006FEF87E090E00E94032740E050E0BA0170
:1034500088E090E00E94152760E08DE090E00E94F7
:10346000032740E050E0BA0188E190E00E94152770
:1034700060E087E190E00E94032740E050E0BA015D
:103480008CE190E00E94152760E080E290E00E94CD
:1034900003270C94ED190C94F419682F8EE090E03A
:1034A0000C940327FC01329697E080E0915029F0BC
:1034B00021912223D9F38F5FF9CF08959C01FC015C
:1034C00032969FEF80E04191461789F09F3F19F4B3
:1034D000411101C0982F8F5F8630A9F79F3F39F0C7
:1034E000F901E90FF11D97FDFA956283089508959A
:1034F000FC01329608962081261301C01082319675
:10350000E817F907C1F708950C945E1A0C94781A1D
:10351000029626E0FC0111922A95E9F70895089594
:103520000C948F1A0E94901A8091AB02843049F15A
:103530001092420220E488E190E00FB6F894A8953A
:10354000809360000FBE2093600080E00E94B7036C
:103550000E94901A83B7817F846083BF83B78160A4
:1035600083BF7894889583B78E7F83BF0FB6F89416
:10357000A89580916000886180936000109260003F
:103580000FBE089508950895CF930E94C21A0E9415
:10359000B7060E94C31AC0E08C2F0E942406811136
:1035A00004C0CF5FCA30C1F701C081E0CF91089558
:1035B00008950C94D81A0E9446130E94340E0E945B
:1035C000B7030C94D91A1F920F920FB60F921124C1
:1035D0008F939F93AF93BF9380914202811113C049
:1035E0008091A1029091A202A091A302B091A402A5
:1035F0004196A11DB11D8093A1029093A202A093B8
:10360000A302B093A402BF91AF919F918F910F90AD
:103610000FBE0F901F90189582E084BD93E095BD7A
:103620009AEF97BD80936E0008952FB7F89480911C
:10363000A1029091A202A091A302B091A4022FBF77
:103640000895CF92DF92EF92FF920F931F932FB7BF
:10365000F8944091A1025091A2026091A30270914E
:10366000A4022FBF6A017B01EE24FF248C0120E01D
:1036700030E0C016D106E206F30610F441505109BD
:103680009A01281B390BC9011F910F91FF90EF90F0
:10369000DF90CF90089578941F920F920FB60F92FB
:1036A00011248F939F93AF93BF938091A102909128
:1036B000A202A091A302B091A4020196A11DB11D86
:1036C0008093A1029093A202A093A302B093A402BC
:1036D000BF91AF919F918F910F900FBE0F901F9050
:1036E000189587E797E790930108809300089AE080
:1036F00088E10FB6F894A895809360000FBE909370
:103700006000FFCF0E94AB19811102C00E944B1ACA
:103710000E94B619809341020E94BE199093A6029E
:103720008093A5020E94BA19682F70E080E090E0B3
:103730000C9421178091460280FF0BC0609110010C
:1037400085E0689FB001112475956795759567951B
:103750002BC081FF09C06091100185E0689FB00116
:1037600011247595679520C082FF07C060911001F4
:1037700085E0689FB001112417C0909145029923FC
:10378000D1F060910F01961788F72091100185E024
:10379000289F90011124929FA001939F500D112406
:1037A00070E0CA010E94D5266038710540F46115A9
:1037B000710539F002C065E070E0862F08958FE74B
:1037C000089581E008958091460280FF08C06091CD
:1037D0000E0170E0759567957595679521C081FF1D
:1037E00006C060910E0170E07595679519C082FF63
:1037F00004C060910E0170E010C0909145029923C1
:10380000C1F060910D019617A0F780910E01899F7C
:10381000C001112470E00E94D5266038710528F49B
:103820006115710521F0862F08958FE7089581E0D5
:10383000089561E070E0F4CF803F21F40E949A1B6C
:10384000819504C0813F29F40E949A1B80934A020B
:103850000895823F21F40E949A1B819504C0833F02
:1038600029F40E949A1B809349020895893F19F414
:103870000E94E31B05C08A3F31F40E94E31B81953F
:1038800080934B0208958B3F21F40E94E31B8195A6
:1038900004C08C3F29F40E94E31B80934C020895DE
:1038A000843F21F480914802816017C0853F21F454
:1038B00080914802826011C0863F21F480914802C5
:1038C00084600BC0873F21F480914802886005C066
:1038D000883F31F4809148028061809348020895C6
:1038E0008D3F21F48091460281600BC08E3F21F410
:1038F00080914602826005C08F3F29F48091460284
:103900008460809346020895803F39F480914A0292
:1039100087FF6CC010924A0269C0813F29F48091F0
:103920004A021816BCF362C090914902823F29F402
:1039300097FF5CC01092490259C0833F19F41916D1
:10394000CCF354C0893F41F480914B0218160CF01F
:103950004DC010924B024AC08A3F29F480914B021D
:1039600087FF44C0F6CF8B3F39F480914C0287FF2C
:103970003DC010924C023AC08C3F29F480914C0219
:103980001816BCF333C0843F21F4809148028E7F27
:1039900017C0853F21F4809148028D7F11C0863F7A
:1039A00021F4809148028B7F0BC0873F21F48091E6
:1039B0004802877F05C0883F31F4809148028F7E9E
:1039C0008093480213C08D3F21F4809146028E7F80
:1039D0000BC08E3F21F4809146028D7F05C08F3F42
:1039E00029F4809146028B7F8093460280914902A0
:1039F00081110EC080914A0281110AC080914B0250
:103A0000811106C080914C02811102C010924502C2
:103A1000089587E492E00E944B0E0E94151B90933C
:103A200044028093430208951F93CF93DF938091C4
:103A30004302909144020E94211BAC0190914502E7
:103A4000992321F02091110130E006C0209112014C
:103A50008AE0289F900111244217530708F47BC085
:103A600080914902C0914A02D0914B0210914C02C0
:103A7000811107C0C1116BC0D11169C0111167C09C
:103A80006AC09F3F19F09F5F90934502181624F477
:103A90000E949A1B809349028091490287FF05C0CA
:103AA0000E949A1B8195809349021C1624F40E945F
:103AB0009A1B80934A0280914A0287FF05C00E94A8
:103AC0009A1B819580934A02309149023323E1F099
:103AD00020914A022223C1F045EB3403C001112496
:103AE000892F990F990B009709F481E0809349027F
:103AF00035EB2303C0011124892F990F990B0097EF
:103B000009F481E080934A021D1624F40E94E31B0D
:103B100080934B0280914B0287FF05C00E94E31BFC
:103B2000819580934B02111624F40E94E31B80932D
:103B30004C0280914C0287FF05C00E94E31B8195D7
:103B400080934C02DF91CF911F910C94091D9F3FF0
:103B500009F099CFA1CFDF91CF911F910895E7E4AC
:103B6000F2E086E0DF011D928A95E9F710924502A6
:103B7000109246020895833081F128F4813059F083
:103B80008230D1F00895853009F449C0B8F186300B
:103B900009F456C0089580911201262F30E0280FB5
:103BA000311D2F3F310524F4680F609312010895F1
:103BB0008FEF80931201089580911101262F30E03C
:103BC000280F311D2F3F310524F4680F6093110138
:103BD00008958FEF80931101089580911001262F91
:103BE00030E0280F311D2F3F310524F4680F60931A
:103BF000100108958FEF80931001089580910F01B7
:103C0000262F30E0280F311D2F3F310524F4680F97
:103C100060930F0108958FEF80930F0108958091B5
:103C20000E01262F30E0280F311D2F3F310524F4DF
:103C3000680F60930E0108958FEF80930E01089531
:103C400080910D01262F30E0280F311D2F3F3105C7
:103C500024F4680F60930D0108958FEF80930D0198
:103C60000895833011F128F4813049F0823091F0C9
:103C70000895853081F120F18630C1F10895809159
:103C80001201681720F4861B809312010895109288
:103C90001201089580911101681720F4861B80930A
:103CA0001101089510921101089580911001681773
:103CB00020F4861B8093100108951092100108953E
:103CC00080910F01681720F4861B80930F010895DF
:103CD00010920F01089580910E01681720F4861B41
:103CE00080930E01089510920E01089580910D01A8
:103CF000681720F4861B80930D01089510920D0122
:103D000008950F931F938B3109F474C058F58B30CD
:103D100009F4A1C078F4863009F446C020F4853057
:103D200009F44CC09FC0873009F456C0883009F4AC
:103D300092C098C0803109F470C068F48E3009F0E8
:103D400091C08091410282FB222720F991E09227C5
:103D500090FB82F958C0863109F47DC0893109F49D
:103D60007AC080C08A32E9F060F4873209F475C005
:103D700028F48E3108F476C08D515AC08932F1F0A2
:103D800071C0833450F48A3308F051C0853309F48C
:103D900064C0883309F45FC065C0833409F45DC032
:103DA00061C00E944B1A57C080914102817F8E7F73
:103DB0008093410281E080934E0255C00E944613D9
:103DC0000FEF13ED20E3015010402040E1F700C059
:103DD00000000E94711B3FC080914102982F909576
:103DE000917090FB80F980934102911134C0897FDA
:103DF000877F10C08091410281FB222720F991E04A
:103E0000922790FB81F980934102992321F18091BF
:103E100041028160809341021EC08091410283FB78
:103E2000222720F991E0922790FB83F9ECCF895368
:103E300041E050E060E070E08A019B0104C0000FA7
:103E4000111F221F331F8A95D2F7C901B8010E94A2
:103E500021170E94461381E006C061E070E080E017
:103E600090E0F5CF80E01F910F91089580E00895D4
:103E700080E008958E518A3030F4E82FF0E0ED565E
:103E8000FE4F8081089580E00895CF93C82F8091E0
:103E90004E02813051F018F0823099F17DC00E94BD
:103EA000FB18823209F07AC004C00E94FB188232EB
:103EB00061F48C2F0E94361F811104C08C2F0E9448
:103EC000811E1DC081E090E01AC08C2F0E94381F17
:103ED000811114C0C43179F048F4CB3079F0C0318D
:103EE00009F060C082E080934E0208C0C93219F028
:103EF000C83321F057C010924E0254C081E0817047
:103F000053C0C93289F118F5C43171F1B0F4C7302A
:103F100009F046C08EE18093120182E38093110183
:103F20008AE08093100184E180930F0188E0809300
:103F30000E0188E280930D0133C082EE8C0F863033
:103F400078F58C2F0E943A1F80934D0229C0CE3401
:103F5000E9F020F4CB3421F56AE013C0C13579F0E3
:103F6000C235F1F461E00DC080914D02882319F053
:103F700010924D0215C081E080934E0215C061E0A1
:103F800006C080914D020E94BB1D0AC06AE080916C
:103F90004D020E94311E04C010924E0280E004C007
:103FA00081E002C080E0ABCFCF91089580915702AD
:103FB0000895CF93DF9300D01F92CDB7DEB79091D5
:103FC000AB02943019F589837B836A8382E0809306
:103FD000E9008FEF9091E800815095FD06C095EDC6
:103FE0009A95F1F700008111F5CF8091E80085FFE7
:103FF0000DC040E050E063E070E0CE0101960E9409
:1040000025228091E8008E778093E8000F900F9032
:104010000F90DF91CF910895CF93DF93EC010E9431
:104020000822823011F0843031F4BE0184E0DF9147
:10403000CF910C94D91FDF91CF910895BC016058A6
:10404000710983E00C94D91FCF93DF93EC010E9498
:104050000822823011F08430F9F482E08093E90084
:104060009FEF8091E800915085FD06C085ED8A950F
:10407000F1F700009111F5CF8091E80085FF0CC0A9
:1040800040E050E066E070E0CE010E942522809181
:10409000E8008E778093E800DF91CF910895CF9369
:1040A000DF93EC010E940822823011F0843039F550
:1040B00081E08093E9008FEF9091E800815095FDB9
:1040C00006C095ED9A95F1F700008111F5CF80912A
:1040D000E80085FF14C040E050E068E070E0CE01E9
:1040E0000E9425228091E8008E778093E80088E086
:1040F000FE01AFE4B2E001900D928A95E1F7DF9105
:10410000CF9108958091AA02811109C00E94BA231B
:104110000E9417248091E20084608093E200089559
:104120001092AA020895089508950C94DB1A42E0B3
:1041300061EC81E00E94342342E261EC82E00C9465
:1041400034238091AD02833009F460C030F48130B3
:1041500071F0823009F499C008958A3009F485C05D
:104160008B3009F46BC0893009F0A7C020C0809162
:10417000AC02813A09F0A1C08091E800877F80936A
:10418000E8008091B0029091B102892B21F468E09F
:104190008FE492E003C060E080E090E070E00E9475
:1041A00070228091E8008B778093E80008958091D9
:1041B000AC02813209F081C08091B0029091B102CD
:1041C000029708F07AC08091E800877F8093E8002A
:1041D0008091E80082FD05C08091AB028111F8CF8B
:1041E0006CC02091F3008091F20090E0922B029736
:1041F00029F48091F1008B7F813021F48091F100CE
:10420000809357028091E8008B7753C08091AC0275
:10421000813A09F052C08091B0029091B102892B8D
:1042200009F04BC08091E800877F8093E80080917F
:10423000E80080FFFCCF80911D0136C08091AC0268
:104240008132D9F58091B0029091B102892BA9F504
:104250008091E800877F8093E8000E946923809125
:10426000AE0280931D010C9446138091AC02813202
:1042700021F58091E800877F8093E8000E94692300
:104280008091AF028093580208958091AC02813AE8
:10429000A1F48091E800877F8093E8008091E80096
:1042A00080FFFCCF809158028093F1008091E8005C
:1042B0008E778093E8000C946923089584B7877FF4
:1042C00084BF0FB6F894A8958091600088618093B0
:1042D0006000109260000FBE90E080E80FB6F89486
:1042E00080936100909361000FBE0E94930E0E9424
:1042F000BA230E9417248091E20084608093E20038
:1043000078940E94A6260E94990E83E191E00E9473
:104310002F0E8091AB02853069F40E94921A809131
:10432000A9028823B1F30E94C41A882391F30E9442
:104330000F22EFCF0E94A30EECCF0C949F21292FC8
:10434000332723303105C9F064F42130310581F081
:104350002230310509F04CC08BE390E028E235E0D3
:104360004BC02132310521F12232310589F140C0A3
:1043700082E190E023E635E03FC099278130910546
:1043800071F02CF4892BA1F5E4E2F5E00DC0823048
:10439000910541F0039761F5E0EEF4E005C0EEE031
:1043A000F5E002C0E6EEF4E0849190E09F0124C0C5
:1043B0006115710541F061307105D1F489E090E03B
:1043C00023E535E019C089E090E02AE335E014C028
:1043D0006115710541F06130710551F485E890E097
:1043E00025E735E009C080E490E02AEF35E004C01D
:1043F00080E090E020E030E0FA01318320830895EE
:104400008091AB02843011F081E0089582E008953C
:1044100080915902811102C00C940022089580E11C
:1044200089BD82E189BD09B400FEFDCF8091D8002D
:104430008F7D8093D8008091E00082608093E000BF
:104440008091E00081FDFCCF0895CF92DF92EF9242
:10445000FF920F931F93CF93DF93EC018B016A01BF
:104460000E948823811133C0C114D10439F0F601B0
:1044700080819181081B190BC80FD91FE12CF12CE9
:104480000115110519F18091E80085FD16C0809194
:10449000E8008E778093E800C114D10449F0F6015A
:1044A00080819181E80EF91EF182E08285E00FC0E3
:1044B0000E948823882321F30AC089918093F10008
:1044C00001501109FFEFEF1AFF0ADACF80E0DF9108
:1044D000CF911F910F91FF90EF90DF90CF900895B3
:1044E0002091B2023091B3022617370748F06115C8
:1044F000710539F42091E8002E772093E80001C07F
:10450000B90140E061157105A9F12091AB022223A8
:1045100009F443C0253009F442C02091E80023FD8E
:1045200040C02091E80022FD32C02091E80020FF29
:10453000E9CF4091F3002091F20030E0342BFC01F0
:10454000CF016115710559F02830310540F4819192
:104550008093F100615071092F5F3F4FF1CF41E02F
:104560002830310509F040E02091E8002E772093B3
:10457000E800C8CF4111C9CF0AC08091AB0288239F
:1045800061F0853061F08091E80083FD0AC0809180
:10459000E80082FFF2CF80E0089582E0089583E092
:1045A000089581E008952091B2023091B302261758
:1045B000370748F06115710539F42091E8002E772E
:1045C0002093E80001C0B901FC0120E061157105EC
:1045D00091F18091AB02882309F440C0853009F441
:1045E0003FC08091E80083FD3DC08091E80082FDDE
:1045F0002FC08091E80080FFE9CF2091F3008091E7
:10460000F20090E0922B6115710559F08830910508
:1046100040F424912093F100319661507109019684
:10462000F2CF21E0089709F020E08091E8008E7732
:104630008093E800CBCF2111CCCF0AC08091AB0290
:10464000882361F0853061F08091E80083FD0AC025
:104650008091E80082FFF2CF80E0089582E0089523
:1046600083E0089581E00895982F973058F590934E
:10467000E900981739F07091EC002091ED0050910D
:10468000F00003C0242F762F50E021FF19C0309195
:10469000EB003E7F3093EB003091ED003D7F309397
:1046A000ED003091EB0031603093EB007093EC0043
:1046B0002093ED005093F0002091EE0027FF07C0FB
:1046C0009F5FD3CF8F708093E90081E0089580E0F1
:1046D00008958091AC0287FF11C08091E80082FDAF
:1046E00005C08091AB028111F8CF11C08091E80024
:1046F0008B770BC08091AB02882349F08091E80052
:1047000080FFF8CF8091E8008E778093E8000895CD
:104710002091E4003091E50095E64091EC00842F73
:10472000817040FF22C08091E80080FD1CC0809114
:10473000AB02882391F0853091F08091EB0085FDEC
:1047400010C04091E4005091E5004217530729F34F
:104750009A01915011F784E0089582E0089583E072
:10476000089581E0089580E008954091E80042FFB7
:10477000DECF08950E9428240E943024E0EEF0E06D
:10478000808181608083E8EDF0E080818F77808395
:1047900019BCA7EDB0E08C918E7F8C9380818F7EC9
:1047A00080831092AA0208950F931F93CF93DF93F3
:1047B0000E9428240E943024C8EDD0E088818F77A1
:1047C000888388818068888388818F7D888319BCED
:1047D0001092AB021092A7021092A9021092A802A6
:1047E00000EE10E0F80180818B7F808388818160FA
:1047F000888342E060E080E00E943423E1EEF0E054
:1048000080818E7F8083E2EEF0E080818160808312
:10481000808188608083F80180818E7F8083888199
:1048200080618883DF91CF911F910F910895E8ED0A
:10483000F0E080818F7E8083E7EDF0E08081816011
:10484000808384E082BF81E08093AA020C94D42309
:10485000E8EDF0E080818E7F80831092E200089581
:104860001092DA001092E10008951F920F920FB695
:104870000F9211242F933F934F935F936F937F93E6
:104880008F939F93AF93BF93EF93FF938091E1003A
:1048900082FF0BC08091E20082FF07C08091E1009F
:1048A0008B7F8093E1000E94A5268091DA0080FF33
:1048B0001FC08091D80080FF1BC08091DA008E7FDE
:1048C0008093DA008091D90080FF0DC080E189BD1E
:1048D00082E189BD09B400FEFDCF81E08093AB0287
:1048E0000E94822005C019BC1092AB020E94902049
:1048F0008091E10080FF19C08091E20080FF15C027
:104900008091E2008E7F8093E2008091E2008061DE
:104910008093E2008091D80080628093D80019BC17
:1049200085E08093AB020E9494208091E10084FF97
:1049300030C08091E20084FF2CC080E189BD82E11B
:1049400089BD09B400FEFDCF8091D8008F7D809392
:10495000D8008091E1008F7E8093E1008091E20099
:104960008F7E8093E2008091E20081608093E2007C
:104970008091A702882311F084E007C08091E300B2
:1049800087FD02C081E001C083E08093AB020E94FA
:1049900095208091E10083FF29C08091E20083FF90
:1049A00025C08091E100877F8093E10082E08093C1
:1049B000AB021092A7028091E1008E7F8093E1000C
:1049C0008091E2008E7F8093E2008091E20080611E
:1049D0008093E20042E060E080E00E943423809116
:1049E000F00088608093F0000E949320FF91EF9187
:1049F000BF91AF919F918F917F916F915F914F91F7
:104A00003F912F910F900FBE0F901F9018951F92FE
:104A10000F920FB60F9211242F933F934F935F93F2
:104A20006F937F938F939F93AF93BF93CF93DF93B6
:104A3000EF93FF93C091E900CF708091EC00D82FE5
:104A4000D17080FDD0E81092E9008091F000877F5E
:104A50008093F00078940E944B251092E900809199
:104A6000F00088608093F000CD2BCF70C093E900F8
:104A7000FF91EF91DF91CF91BF91AF919F918F9176
:104A80007F916F915F914F913F912F910F900FBE4A
:104A90000F901F9018951F93CF93DF93CDB7DEB77C
:104AA000AA970FB6F894DEBF0FBECDBFECEAF2E0D6
:104AB00088E08E0F9091F10091938E13FBCF0E94AE
:104AC000A1208091E80083FF28C18091AC029091E1
:104AD000AD02492F50E04A30510508F01EC1FA01DD
:104AE000E857FF4F0C94E926803821F0823809F00E
:104AF00014C108C08091A8029091A902992389F05D
:104B000082600FC08091B0028F70873008F005C1BD
:104B10008093E9008091EB0085FB882780F9109253
:104B2000E9009091E800977F9093E8008093F1006E
:104B30001092F100D0C0282F2D7F09F0EEC08823FD
:104B400019F0823061F0E9C08091AE02813009F045
:104B5000E4C0933009F080E08093A9022EC08091D8
:104B6000AE0281112AC08091B0028F702FEF280F02
:104B7000263008F0D2C08093E9002091EB0020FF9E
:104B80001CC0933021F48091EB00806214C090919E
:104B9000EB0090619093EB0021E030E0A90102C0AE
:104BA000440F551F8A95E2F74093EA001092EA00FD
:104BB0008091EB0088608093EB001092E900809177
:104BC000E800877F8093E8000E946923A6C08111D6
:104BD000A4C01091AE021F778091E3008078812BF2
:104BE0008093E3008091E800877F8093E8000E9433
:104BF00069238091E80080FFFCCF8091E30080680A
:104C00008093E300111102C082E001C083E0809331
:104C1000AB0283C08058823008F07FC08091AE0222
:104C20009091AF028C3D53E0950779F583E08A833C
:104C30008AE289834FB7F894DE01139620E03EE0C4
:104C400051E2E32FF0E050935700E49120FF03C0BE
:104C5000E295EF703F5FEF708E2F90E0EA3010F03A
:104C6000C79601C0C0968D939D932F5F243149F75D
:104C70004FBF8091E800877F8093E8006AE270E090
:104C8000CE0101960E94702215C06091B002709111
:104C9000B102AE014F5F5F4F0E949D21BC01892B85
:104CA000E1F19091E800977F9093E80089819A81E3
:104CB0000E94D3228091E8008B778093E8002DC07A
:104CC000803859F58091E800877F8093E8008091D3
:104CD000A7028093F1008091E8008E7773CF811155
:104CE0001CC09091AE029230C0F48091E800877FA2
:104CF0008093E8009093A7020E9469238091A70205
:104D0000811106C08091E30087FD02C081E001C0EF
:104D100084E08093AB020E9497208091E80083FF9B
:104D20000AC08091E800877F8093E8008091EB00C3
:104D300080628093EB00AA960FB6F894DEBF0FBE98
:104D4000CDBFDF91CF911F9108950895CF938091AA
:104D5000AB028823A1F0C091E900CF709091EC00E4
:104D6000892F817090FD80E8C82B1092E900809116
:104D7000E80083FD0E944B25CF70C093E900CF91DE
:104D80000895AA1BBB1B51E107C0AA1FBB1FA61792
:104D9000B70710F0A61BB70B881F991F5A95A9F7E4
:104DA00080959095BC01CD01089597FB072E16F4D0
:104DB000009407D077FD09D00E94C12607FC05D0DA
:104DC0003EF4909581959F4F0895709561957F4F22
:104DD0000895EE0FFF1F0590F491E02D0994F999C5
:104DE000FECF92BD81BDF89A992780B50895A6E1BE
:104DF000B0E044E050E00C942927A8E1B0E042E0A4
:104E000050E00C942927262FF999FECF92BD81BD41
:104E1000F89A019700B4021639F01FBA20BD0FB6F8
:104E2000F894FA9AF99A0FBE08950396272F0E94D4
:104E300004270E940327252F0E940427242F0C9467
:104E400004270196272F0E9404270C940327DC01D6
:104E5000CB01FC01F999FECF06C0F2BDE1BDF89A85
:104E6000319600B40D9241505040B8F70895F8942F
:024E7000FFCF72
:104E720001A30100A40105A4010E0E3602280814A4
:104E82000A321ED61F4F2024201E200C2001E200D1
:104E9200E900EA00B500B600B700CD008301CC00FE
:104EA2008A01920194012102230224022502260290
:104EB20027022A02B300B4006F007000818283F5DA
:104EC200F6F7313332369497C634350000000000CD
:104ED2000001E200E900EA00B500B600B700CD002B
:104EE2008301CC008A01920194012102230224024F
:104EF2002502260227022A02B300B4006F007000C6
:0E4F02008182830102030405060708090000EE
:00000001FF
