:100000000C94FC010C94250B0C9443020C944302B9
:100010000C9443020C9443020C9443020C9443024C
:100020000C9443020C9443020C94FE210C94D022B5
:100030000C94AC180C9443020C9443020C944302AD
:100040000C9443020C9443020C9443020C9443021C
:100050000C9443020C9414190C9443020C94430224
:100060000C9443020C9443020C9443020C944302FC
:100070000C9443020C9443020C9443020C944302EC
:100080000C9443020C9443020C9443020C944302DC
:100090000C9443020C9443020C9443020C944302CC
:1000A0000C9443020C9443020C9443026B0E6B0EAF
:1000B0009D0E9D0EEA0E0A0F8F108F104C0FE90F48
:1000C000FA0FFA0F5B1064108F10881011111111C4
:1000D000231123111A1123112311231111111111AD
:1000E0001F11231123111F113D2364235624642360
:1000F0005624B023D3235624292438242E001E004E
:100100001F0020002100220035002B0014001A00DF
:100110000800150017002D00290004001600070034
:1001200009000A000000E1001D001B000600190084
:1001300005002800E0000000E300E20000000000ED
:100140002A002D002700260025002400230031006E
:100150002F00130012000C0018001C000000344295
:1001600033420F000E000D000B000000E5005200AE
:10017000370036001000110000004F005100500001
:100180003800000028002C4101003A003B003C00F0
:100190003D003E0035022D0201001E022F023002FA
:1001A000210222022E0201001F0226022702300035
:1001B0003100010001002002251426143500000042
:1001C000010001000100010001002A002A00450091
:1001D000440043004200410040003F00A900570096
:1001E000610060005F0024022302AA0085005E0017
:1001F0005D005C002D020000000067005B005A00FB
:100200005900010000000000000063006200AB0024
:1002100000000100010035023A003B003C003D00B7
:100220003E002D0201001E001F00200021002200C0
:100230002E023A003B003C003D003E003F00010022
:10024000400041004200430044004500010001001D
:10025000010001000100035101004500440043007A
:100260004200410040003F0030022F0227002600DC
:1002700025002400230001000100AB00AE00AC000B
:100280002D000100010001000100010064003200A6
:100290000100A800AE00A900AA00AB000100010007
:1002A0000403300000002A035400680065002000A9
:1002B0005600690074006500720062006900200049
:1002C0004B006500790062006F00610072006400FD
:1002D00000000E034B0065006500620069006F00BE
:1002E00000000403090409023B00020100A0FA090E
:1002F0000400000103010100092111010001224055
:10030000000705810308000A090401000103000039
:100310000009211101000122850007058203200048
:100320000A120110010000000810CB571100020151
:1003300002030105010902A10185020901A10005CD
:1003400009190129051500250195057501810295F9
:1003500001750381010501093009311581257F955A
:10036000027508810609381581257F950175088178
:1003700006050C0A38021581257F9501750881064E
:10038000C0C005010980A10185031A81002A8300EC
:10039000160100260300950175108100C0050C09A7
:1003A00001A10185041A01002A9C02160100269C65
:1003B00002950175108100C005010906A10105071C
:1003C00019E029E7150025019508750181029501BD
:1003D000750881010507190029FF150026FF009502
:1003E0000675088100050819012905950575019113
:1003F00002950175039101C011241FBECFEFDAE011
:10040000DEBFCDBF04B603FE27C080917E0290916F
:100410007F02A0918002B09181028730904BA7406B
:10042000B04BD1F410927E0210927F0210928002A3
:100430001092810214BE84B7877F84BF0FB6F894F0
:10044000A8958091600088618093600010926000A0
:100450000FBEE0E0F8E3099511E0A0E0B1E0E0E9CB
:10046000FAE402C005900D92AA39B107D9F722E04B
:10047000AAE9B1E001C01D92AE37B207E1F70E94D0
:10048000271F0C9446250C94000081E0089581E01C
:1004900008950C9447021F93CF93DF9300D000D0B0
:1004A0001F92CDB7DEB749835A832091BE0189815F
:1004B0009A81211112C0662349F00E943616182F26
:1004C000682F89819A810E94DB1503C00E940A1659
:1004D000182F69817A81812F04C00E9436166981A4
:1004E0007A810F900F900F900F900F90DF91CF9126
:1004F0001F910C94F502FC0140815181628173814E
:1005000084810C944B020E946617811102C00E94E4
:100510000F180E9453080C9436050C943905089561
:100520000C948F0281E008950C949202CF93C82F0F
:100530000E9490028C2F0E949402CF9108950895FA
:100540000E9401110E949F022FEF84E39CE0215042
:1005500080409040E1F700C0000087E797E7909364
:100560000108809300080C943A190F931F93CF93BE
:10057000DF93EC010E947B028C01BE010E944902C4
:10058000882349F1BE01C8010E94D208882319F1CD
:10059000BE01C8010E9413098823E9F0BE01C80109
:1005A0000E943E0A8823B9F08A81882369F00115E8
:1005B0008CE5180731F00E3D1C4531F40E940F18F0
:1005C0000AC00E94A00207C0CE01DF91CF911F9107
:1005D0000F910C94450280E0DF91CF911F910F9114
:1005E000089580E090E00895089597E0799FF001E4
:1005F000112496E4899FE00DF11D1124E60FF11DF1
:10060000EE0FFF1FE450FF4F859194910895880FDE
:10061000991FFC01E056FD4F859194910895CF9369
:10062000DF930E94F5020E945E04EC01811521E532
:10063000920708F042C0811560E5960708F0D8C01F
:10064000883E910500F5803E910508F033C1883A57
:10065000910570F4853A910508F0A4C081309105A8
:1006600009F428C108F424C1049708F023C120C16B
:100670008F3B910508F49EC0803C910508F418C199
:10068000805C9109A4C0C11580E3D80780F4C1152E
:1006900090E2D90708F099C0C03FD10508F408C11D
:1006A000CF3FD10511F008F005C1D06503C1C115D8
:1006B00020E4D20708F099C08EC0811569E596073D
:1006C00060F5C11588E5D80708F0DEC0C11594E5CE
:1006D000D90778F4C11523E5D20708F0BAC0C115CF
:1006E00062E5D60708F09FC0DC2FCC27C16FD06A27
:1006F000E1C0C11585E5D80708F4C1C0C11596E56C
:10070000D90708F0D5C08C2F0E94F2048F71C82F32
:10071000D0E0DC2FCC27D062CDC08D3B2CE59207FA
:1007200009F4BDC0E0F4CB3B8CE5D80709F4B1C0B7
:1007300008F0B2C0C1152AE5D20708F0B9C08C2F65
:100740008F700E94F20494E0D695C7959A95E1F7D0
:10075000CF70D0E0DC2FCC27D069C82BABC0803C59
:100760009C4509F4A2C0C13C8CE5D80760F4CE3B9F
:100770009CE5D90709F496C0CF3BDC4509F098C049
:10078000C0E0D2ED97C0CE0190568115904208F09E
:100790008FC08D2F8F710E94F204DD27D0628F7180
:1007A000D82B88C0C55AD0E0C65BDE4FC881D0E0E8
:1007B000D06480C0C85AD0E0CC0FDD1FC45EDE4FCD
:1007C0000990D881C02DD46475C0CE019F700E945D
:1007D0000703EC016FC0CE019927D3FF03C0EC01E2
:1007E000D86C68C0EC01D06C65C0DF70D06A62C0A4
:1007F000837021E030E002C0220F331F8A95E2F7B8
:100800003C68CE0174E0969587957A95E1F7837000
:10081000382BCF70C695C69580E2C89FE0011124A1
:10082000C22BD32B47C04C2F4695469590E2499F4B
:10083000A0011124C370DD2721E030E0C90102C00E
:10084000880F991FCA95E2F7EC01C42BD52BDC6801
:1008500031C04C2F4695469580E2489FA001112457
:10086000C370DD2721E030E0C90102C0880F991F65
:10087000CA95E2F7EC01C42BD52BDA681BC0DC2F3C
:10088000CC27C46FD06A16C0DC2FCC27C06FD06ACB
:1008900011C0C0E0D4ED0EC0C0E0D5ED0BC0C0E08B
:1008A000D1ED08C0C0E0D0ED05C0C0E0D3ED02C07E
:1008B000C0E0D0E0CE01DF91CF910895823891055C
:1008C00069F1B0F48133910509F46DC048F48932BF
:1008D000910509F463C08A32910509F469C008954D
:1008E0008533910509F455C089339105B9F0089510
:1008F000833E910569F138F4803E9105B1F0823E66
:10090000910509F10895863E9105A9F1873E91056B
:10091000B9F1843E910509F064C023C020916F02B3
:1009200020FD4FC021FD4DC0089580916F0280FDD4
:1009300044C08091700280FF44C080916F0284FDAA
:1009400042C083EE4DC080916F0282FF38C0F5CF68
:1009500080916F0282FD33C08091700280FD31C0B2
:10096000ECCF8091700281FF32C080916F0284FDD4
:100970002AC087EE35C080916F0283FF26C0F5CF75
:1009800080916F0283FD21C08091700281FD1FC0A4
:10099000ECCF80916F0285FD1CC01DC080916F025D
:1009A00085FD19C016C080916F0286FD16C017C064
:1009B00080916F0286FD13C010C089E311C082EEE2
:1009C0000FC080EE0DC080E00BC086EE09C084EE43
:1009D00007C089E205C085E303C08AE201C081E364
:1009E00090E0089590916F0292FF0DC0282F28711A
:1009F000283019F4877F846006C0282F24712430A2
:100A000011F48B7F886093FF0DC0282F2871283147
:100A100019F4877E846106C0282F2471243111F4D3
:100A20008B7E88612091700220FF0DC0382F3871B5
:100A3000383019F4877F816006C0382F317131302A
:100A400011F48E7F886021FF0DC0282F2871283176
:100A500019F4877E816106C0282F2171213111F49C
:100A60008E7E886194FD877E089508950C943505E7
:100A700008950C943805E82FF0E0E45AFD4F80818A
:100A80000895089508950E94B30680910001809111
:100A90000001811102C095E001C090E090936702CF
:100AA00085E0891B80936602A4E5B1E041E050E057
:100AB00025E02A0F8D91E82FE295EF70F0E031A14B
:100AC0008F70BA0102C0660F771F8A95E2F7CB01DB
:100AD000962F9095932391A392A1892B82A32A13F9
:100AE000E9CFADE4B1E041E050E027E02A0F8D917D
:100AF000E82FE295EF70F0E031A18F70BA0102C0EB
:100B0000660F771F8A95E2F7CB01962F9095932376
:100B100091A392A1892B82A32A13E9CFACE5B2E07D
:100B2000E2E5F2E08AE08E0F11921D928E13FCCF67
:100B300085E00E9458060C9483020E949606882342
:100B400021F18091660290E0845A9D4F0E94CA066E
:100B5000811117C080919A018F5F80939A0186302E
:100B600090F02091660280E090E030E0FC01E20F1E
:100B7000F31FE45AFD4F1082019685309105B1F7BD
:100B800002C010929A010C948D028091670290E04D
:100B9000845A9D4F0E94EF060C9442056F927F92FB
:100BA0008F929F92AF92BF92CF92DF92EF92FF927D
:100BB0000F931F93CF93DF9364E571E0A2E5B2E05A
:100BC000712C01E010E0D5E06D2E6A0E7D019C9045
:100BD0001C92EB018991BE01E82FE295EF70F0E0E5
:100BE00091A18F70A80101C0440F8A95EAF7892F5F
:100BF000842B81A392A1842F8095982392A3D0EA7D
:100C0000DA95F1F7CDE4CC2EC1E0DC2E20E030E027
:100C1000E60199916E01A92EA2945FE0A522B12C64
:100C2000E501A8A08C90B12C9F7002C0B594A79448
:100C30009A95E2F7A0FC07C0902F022E01C0990FF1
:100C40000A94EAF701C090E098299C932F5F3F4FE8
:100C500027303105E9F691A1892381A382A1482B90
:100C600042A3119681E0F7019081991201C080E0C2
:100C7000782A6A12ABCF6091670270E0645A7D4FA8
:100C8000272D45E082E592E00E9459060E949D05CD
:100C9000872DDF91CF911F910F91FF90EF90DF9003
:100CA000CF90BF90AF909F908F907F906F9008955E
:100CB0000895FF920F931F93CF93DF938C01F62E2D
:100CC000D72FC42F222349F081E080939D010E94F9
:100CD000DE1890939C0180939B0180919D01882355
:100CE000C1F080919B0190919C010E94EA180697A7
:100CF00080F0EF2DFD2FD8014C2F50E0CD01801B4F
:100D0000910B841795071CF48D918193F7CF109266
:100D10009D01DF91CF911F910F91FF9008955298FF
:100D20005A9889B182FB882780F9089580919E01A5
:100D3000811112C08091D80080618093D8008AE12F
:100D40008A95F1F700C08091D90080FD02C082E051
:100D500001C081E080939E0181E090919E019130DD
:100D600009F080E008950E948F06809300010E94A0
:100D7000960681110C94BE060C94C40661E070E0E6
:100D800081E091E00C94CA0A61E070E081E091E0BA
:100D90000C94D30ACF93DF93D82FC92F0E94760BE0
:100DA000892BC9F4ED2FFC2F80E090E0DC01AF55DA
:100DB000BE4F2C912193019685309105B9F70E9481
:100DC0000107882319F00E94050701C080E0809385
:100DD000A00181E001C080E0DF91CF91089520E083
:100DE00030E0FC014191CF01F901EF55FE4F408306
:100DF0002F5F3F4F25303105A1F78091A0010C9462
:100E0000F607809168028170089580916802869546
:100E10008695869508950E946617811102C00E94EA
:100E20000F180E94971780936802282F2695269501
:100E3000269530E02830310524F087708863809350
:100E400068028091680280FF04C086958695869529
:100E500001C080E00C94F60720916802822F8695ED
:100E600086958695482F50E04730510554F48F5FA2
:100E7000982F990F990F990F822F8770892B809344
:100E80006802809168028160809368020E949B17CB
:100E9000809168028695869586950C94F6078091D8
:100EA0006802982F969596959695A1F0915E990F68
:100EB000990F990F8770892B80936802887F91E042
:100EC00009F490E08091680290FB80F980936802B9
:100ED0000E949B17809168028695869586950C9452
:100EE000F6078091680280FD13C0816080936802DC
:100EF000813019F489E080936802809168020E9431
:100F00009B17809168028695869586950C94F607C6
:100F100008958091680280FF08C08E7F80936802E8
:100F20000E949B1780E00C94F60708958091680258
:100F300080FD0C9489070C94710790916802892FA9
:100F40008695869586958F5F8F719770883038F477
:100F5000880F880F880F892B8093680202C09093B6
:100F6000680280916802887F91E009F490E08091A6
:100F7000680290FB80F9809368020E949B17809121
:100F800068028695869586950C94F607883008F059
:100F900087E0909168029770282F220F220F220F6E
:100FA000922B90936802987F21E009F420E09091C1
:100FB000680220FB90F9909368020C94F6070E9457
:100FC000C607809168020C949B17E82FE295EF709A
:100FD000F0E032A1282F2F7081E090E001C0880F4F
:100FE0002A95EAF78095832382A30895CF92DF9212
:100FF000EF92FF92883030F4811105C0909180000B
:101000009F7D04C087E09091800090629093800063
:10101000282F30E0AFEFBFEF0E94EA2427E030E056
:1010200040E050E00E94C2242C3784E1380741059B
:10103000510530F4C90169E070E00E949A2429C08A
:10104000DA01C9018A50974DAF4FBF4F6627782FFD
:10105000892F9A2F25EF38E241E050E00E94C22408
:1010600069017A01CA01B9010E948A249B01AC017D
:10107000C701B6010E948A24BB27A92F982F872F6A
:10108000009721E0A207B10511F0BC0102C06FEF8B
:101090007FEF70938B0060938A00FF90EF90DF905A
:1010A000CF9008950895269A86E30E94E50782E28C
:1010B0008093800089E1809381008FEF9FEF909370
:1010C0008700809386000C940B070F931F93CF9398
:1010D000DF93C62FD42F022FFC0182818823C9F011
:1010E0006093A8010E94DE189093A7018093A60147
:1010F00080E28C0F883008F050C0C77081E001C0DA
:10110000880FCA95EAF7DF91CF911F910F910C9448
:101110002B0E1091A801161330C08091A60190915A
:10112000A7010E94EA18883C910538F5C0E2CD0F6E
:101130001D17B9F080E2810F883040F4177081E00C
:1011400001C0880F1A95EAF70E94320EC83048F4A1
:1011500081E09D2F977001C0880F9A95EAF70E9451
:101160002B0E802F0E94180EC830B8F4D77081E083
:1011700001C0880FDA95EAF70AC080E28C0F883048
:1011800060F4C77081E001C0880FCA95EAF7DF916B
:10119000CF911F910F910C94320EDF91CF911F913F
:1011A0000F9108959C01CB01233F4CE53407F9F0E2
:1011B00078F4283DFCE53F07B9F0293D4CE53407BC
:1011C00011F1273D3C4531F526E241EE61EE1EC0AE
:1011D000253FFCE53F0799F070F0263F3C45D1F4F0
:1011E00027E245EE66EE12C027E245EE0EC026E28B
:1011F00041EE60EE0BC027E245EE64EE07C026E24A
:1012000041EE62EE03C028E241E065EE0E9465080F
:1012100080E00895FC018281882319F01092A801D2
:10122000089581E00895CF93DF93EC01FB01828163
:10123000882309F41FC1C230FCE5DF0708F41BC195
:10124000C6319CE5D90738F09E012A5F3C4529301C
:10125000310508F010C10E947917909370028093B5
:101260006F02C031ECE5DE0709F4C3C008F041C0ED
:10127000C8308CE5D80709F49AC0F0F4C430ECE526
:10128000DE0709F487C068F4C2308CE5D80709F49A
:1012900077C0C330DC4509F0E3C080916F02826003
:1012A00076C0C630ECE5DE0709F46EC008F07BC0FE
:1012B00080916F0288606BC0CC308CE5D80709F450
:1012C00085C068F4CA30ECE5DE0709F474C008F0A4
:1012D00079C00E94011180916F02806858C0CE30A1
:1012E0008CE5D80709F476C008F07FC080916F02C2
:1012F0008BC0CB3FECE5DE0709F44FC018F5C331D6
:101300008CE5D80709F47DC078F4C131ECE5DE073F
:1013100009F473C0C231DC4509F0A2C00E9401117A
:1013200080916F028F7733C0C5318CE5D80709F4FF
:1013300072C008F486C0CA3FDC4509F091C08091B4
:1013400070023EC0CF3FFCE5DF0709F45FC058F4F0
:10135000CD3F9CE5D90709F444C008F43FC0809113
:10136000700282602DC0C130FDE5DF0709F475C051
:1013700008F45DC0C230DD4509F072C080E06EC087
:1013800080916F02816003C080916F0280618093C1
:101390006F0266C080916F0211C0809170028260FE
:1013A000809370025DC080916F028062F0CF809167
:1013B0006F028064ECCF80916F0288608460E7CF19
:1013C0008160EECF80916F028E7FE1CF80916F02BE
:1013D0008D7FDDCF80916F02877FD9CF80917002A2
:1013E00018C0809170028D7FDBCF80916F028F7E5D
:1013F000CECF80916F028F7DCACF80916F028F7B9D
:10140000C6CF80916F02877F8B7FC1CF80917002A2
:101410008D7F8E7FC5CF80916F0282FB222720F9BE
:1014200091E0922790FB82F990FB83F9B0CF8091F5
:101430007002982F909591708E7F892B90FB81F987
:10144000AFCF0E94011180916F0287FB222720F904
:1014500091E0922790FB87F99ACF81E00E941118C2
:1014600080916F02909170020E948A170E94011170
:1014700080E001C081E0DF91CF910895CF93DF93A9
:1014800086319C4541F5EB010E94B616282F8A81D2
:101490004091090150910A01882379F02A7A91E05C
:1014A00009F490E09093A901911102C069E201C092
:1014B00065E3CA010E9448180AC08091A901811100
:1014C00002C069E201C065E3CA010E944A180E9495
:1014D000021780E001C081E0DF91CF9108958EE195
:1014E000489B02C08150E1F7489BFECF0895589871
:1014F00080E28A95F1F7589A0895FC013AE03A950E
:10150000F1F798E020E080E031E040E14A95F1F722
:10151000880F489B02C08160232700C0000040E183
:101520004A95F1F7915089F790E19A95F1F799B1C1
:1015300000C0000030E13A95F1F7917092272081C8
:10154000920F90830895FF920F931F93CF93DF9391
:1015500000D0CDB7DEB71982F82E8C01802F8F19FD
:10156000861760F46A830E946F0ACE0101960E947A
:101570007D0AF80181938F016A81F0CF81E0998122
:10158000911180E00F900F90DF91CF911F910F91FB
:10159000FF9008959093AC018093AB016093AA01F2
:1015A000509A589A08959093AC018093AB01609340
:1015B000AA015098589AE89AE9E6F0E080818C7F79
:1015C00080830895615091E001C0990F6A95EAF710
:1015D00020E031E0992361F0492F482319F0589A0F
:1015E000232701C0589840E24A95F1F79695F2CF2B
:1015F000222311F0589A01C0589880E28A95F1F799
:1016000058980895EF92FF920F931F93CF93DF9313
:101610001F92CDB7DEB7162F082F7C018E2D801BB1
:10162000811758F4F70181917F0189830E94770A1D
:1016300068E089810E94E20AF1CF0F90DF91CF919B
:101640001F910F91FF90EF9008951F920F920FB688
:101650000F9211242F933F934F935F936F937F9338
:101660008F939F93AF93BF93CF93DF93EF93FF93AA
:101670005898509AC091AB01D091AC016D8166230E
:1016800021F08E819F810E94020B0E94770A80E1E7
:101690008A95F1F758985098589A80E18A95F1F711
:1016A0006A81662351F08B819C810E94A30AE881A4
:1016B000F981811104C082E003C0E881F98188E0EA
:1016C00080830E946F0AFF91EF91DF91CF91BF91CC
:1016D000AF919F918F917F916F915F914F913F91CA
:1016E0002F910F900FBE0F901F901895CF93DF93FF
:1016F000C091AB01D091AC01F894509A589885E014
:101700008A95F1F700005098589A80E28A95F1F78F
:10171000489B0AC0509A589AE881F98181E08083F9
:10172000789481E090E02CC06D81662381F08E81F9
:101730009F810E94A30A81110AC0509A589AE88199
:10174000F98182E08083789482E090E019C00E9461
:101750006F0A80E28A95F1F75898509A80E18A954D
:10176000F1F76A81662321F08B819C810E94020B34
:101770000E94770AE881F9811082789480E090E0F5
:10178000DF91CF9108959093B2018093B1010895B4
:10179000E091B101F091B201309721F00190F08118
:1017A000E02D099480E00895E091B101F091B2013B
:1017B000309721F00280F381E02D09940895E091A3
:1017C000B101F091B201309739F022E0DC012C93A5
:1017D0000480F581E02D099408952091AF013091A6
:1017E000B0018217930771F09093B0018093AF011D
:1017F000E091B101F091B201309721F00680F781BC
:10180000E02D099408952091AD013091AE01821729
:10181000930771F09093AE018093AD01E091B10117
:10182000F091B201309721F00084F185E02D099408
:10183000089585B7806885BF85B7806885BF08959E
:10184000089508950C94210C08950C94240C0E9482
:10185000190C0E94200C0C94220C0E94D5180E9496
:1018600043050E944B190E940B070C94250CBF9254
:10187000CF92DF92EF92FF920F931F93CF93DF935C
:10188000CDB7DEB72B970FB6F894DEBF0FBECDBF36
:101890000E94CE050E949606811111C08FEF8983A8
:1018A0008A831B820E94DE188160782F9D838C833F
:1018B00049815A816B818D810E94D00C42C084EB9A
:1018C000C82E81E0D82E00E010E0B02E802F0E94BC
:1018D0003B05F601E1906F01E82631F40F5F1F4FE1
:1018E0000A30110591F7DACF9091390291FF04C0C7
:1018F0008B870E9441058B8590E0FF24F3942F2D68
:101900002E21D1F09E83BF828F2191E009F490E0D7
:1019100098870E94DE188160782F9A8789874E8188
:101920005F8168858A850E94D00CF801EC54FE4FD7
:101930008081F826F08205C09F5FFF0C9730F9F692
:10194000CDCF0E9452080E94DD1A1091B3010E946F
:10195000C80B1817A9F00E94C80B8093B3012B96EF
:101960000FB6F894DEBF0FBECDBFDF91CF911F91B0
:101970000F91FF90EF90DF90CF90BF900C94960264
:101980002B960FB6F894DEBF0FBECDBFDF91CF917F
:101990001F910F91FF90EF90DF90CF90BF9008952F
:1019A000CF93DF93CDB7DEB72B970FB6F894DEBF9A
:1019B0000FBECDBF4F83588769877A878B87DE013B
:1019C000119686E0FD0111928A95E9F785E0FE0106
:1019D000379601900D928A95E1F749815A816B8182
:1019E0007C818D819E810E94AB132B960FB6F8945B
:1019F000DEBF0FBECDBFDF91CF910895FC01808186
:101A000091810E9477160895CF93DF931F92CDB7EF
:101A1000DEB7882309F4A0C0682F8238C1F40E9481
:101A2000C80B81FD99C069E38091090190910A0179
:101A30000E9448180E9402172FEF81EE94E0215077
:101A400080409040E1F700C0000069E319C083388E
:101A500011F50E94C80B80FD7FC063E580910901EC
:101A600090910A010E9448180E9402172FEF81EE00
:101A700094E0215080409040E1F700C0000063E511
:101A80008091090190910A010E944A180F90DF91FC
:101A9000CF910C9402178438C1F40E94C80B82FDC8
:101AA0005BC067E48091090190910A010E94481887
:101AB0000E9402172FEF81EE94E021508040904069
:101AC000E1F700C0000067E4DBCF8CEF860F813ABE
:101AD00070F4862F69830E940E1D698181113CC0BC
:101AE0008091090190910A010E944818CFCF80E2AD
:101AF000860F883048F4677081E001C0880F6A95CE
:101B0000EAF70E94B916C2CFEBE5E60FE33050F4D6
:101B1000F0E0E457FE4F808190E00F90DF91CF918D
:101B20000C94ED0BE8E5E60FE73160F4F0E0EE0F22
:101B3000FF1FE25AFE4F808191810F90DF91CF917C
:101B40000C94030C603F40F0862F0E94E5190F9023
:101B5000DF91CF910C94D21A0F90DF91CF9108951D
:101B6000882309F464C0823879F40E94C80B81FF8D
:101B70005EC069E38091090190910A010E944818B2
:101B80000E94021769E310C08338B1F40E94C80BA9
:101B900080FF4DC063E58091090190910A010E9488
:101BA00048180E94021763E58091090190910A018B
:101BB0000E944A180C940217843879F40E94C80BCA
:101BC00082FF35C067E48091090190910A010E946B
:101BD00048180E94021767E4E7CF9CEF980F913AEC
:101BE00010F4682FE1CF90E2980F983050F487708E
:101BF00091E001C0990F8A95EAF7892F0E94BF16DC
:101C0000D9CF9BE5980F933020F480E090E00C94BE
:101C1000ED0B98E5980F973120F480E090E00C945C
:101C2000030C803F20F00E944D1A0C94D21A0895A4
:101C3000CF93C82F0E94040DC93349F42FEF87EECC
:101C400093E0215080409040E1F700C000008C2FCD
:101C5000CF910C94B00D882321F00E94B9160C94FA
:101C600002170895882321F00E94BF160C940217D2
:101C70000895BF92CF92DF92EF92FF920F931F933E
:101C8000CF93DF937C01062FC72FFC01158112959E
:101C90001F70D281D1110E94D6160E94AF168823E0
:101CA00079F0DD2369F080E2800F883048F082E02F
:101CB0000E944D170E94AF1691E0B82EB92601C0C0
:101CC000B12CCC2EC2948FE0C822D12CF601EA5A56
:101CD000FF4F0C94E4248C2F807FCF70882311F069
:101CE000C295C07FDD2399F0CC2309F4CFC180E2F7
:101CF000800F883010F0011104C08C2F0E94B9169B
:101D000003C08C2F0E94C9160E940217BFC1802FEA
:101D10000E94B00DCC2309F402C280E2800F88300B
:101D200010F0011104C08C2F0E94BF1603C08C2F2D
:101D30000E94CF160E940217F2C18C2F807FCF70B5
:101D4000803211F0C295C07F002319F00130C9F034
:101D500022C0DD2371F0112341F0113031F40E94D3
:101D6000E9168C2B0E94EF16DAC10E94E9168C2B23
:101D70001DC0112319F0113009F4D1C10E94F816C9
:101D800025C0DD2321F0163008F0C9C10EC0153082
:101D900008F0C5C11BC0DD2361F0112331F0F7014C
:101DA000858180FF73C18F7085838C2F0E942B0EDD
:101DB000B6C1112359F0093309F079C1FFEF27EEBD
:101DC00083E0F15020408040E1F76FC18C2F0E94EA
:101DD000320EA5C18C2F86958695837090E0009772
:101DE00019F0019761F09BC1DD2321F0802F9C2F1A
:101DF000937002C080E090E00E94ED0B9BC1DD2358
:101E000021F0802F9C2F937002C080E090E00E9410
:101E1000030C90C1DD23F9F0053F51F0063F71F04E
:101E2000043FA9F48091690290916A0281600BC01D
:101E30008091690290916A02826005C08091690276
:101E400090916A02846090936A0280936902802F65
:101E50000E94E5191EC0053F51F0063F71F0043F96
:101E6000A9F48091690290916A028E7F0BC08091E3
:101E7000690290916A028D7F05C0809169029091FC
:101E80006A028B7F90936A0280936902802F0E947E
:101E90004D1A0E94D21A4EC18C2F837009F049C08E
:101EA000D11144C1402F429546954770440F440FCD
:101EB000602F6F70862F90E0A0E0B0E0042E04C089
:101EC000880F991FAA1FBB1F0A94D2F704FF10C0E6
:101ED0000FE010E020E030E004C0000F111F221FCF
:101EE000331F4A95D2F7009510952095309503C081
:101EF00000E010E09801C695C695C370D0E0BC0123
:101F0000CD01602B712B822B932BC230D10559F060
:101F1000C330D10559F0219719F00E94F01406C181
:101F20000E94DE1403C10E94021500C10E94DC144D
:101F3000FDC0DD2319F08C2F817001C086958823A8
:101F400009F4F4C0402F429546954770440F440F62
:101F5000602F6F70862F90E0A0E0B0E0042E04C0E8
:101F6000880F991FAA1FBB1F0A94D2F704FF10C045
:101F70000FE010E020E030E004C0000F111F221F2E
:101F8000331F4A95D2F7009510952095309503C0E0
:101F900000E010E09801C695C695C370D0E0BC0182
:101FA000CD01602B712B822B932BC230D10559F0C0
:101FB000C330D10559F0219719F00E94B615B6C06B
:101FC0000E94A415B3C00E94C815B0C00E94171586
:101FD000ADC0CF70DD2339F08C2F0E943D15802FCE
:101FE0000E942B0EA3C0802F0E94320E8C2F0E94C5
:101FF0005E159CC0023F01F128F4003F41F0013F13
:10200000A1F040C0033FF9F0043F39F13BC0DD23AC
:1020100041F0153008F083C08C2F8F710E9483151A
:102020007EC0163008F07BC0F7CFDD2339F08C2F4F
:102030008F710E943D1573C0DD23C9F38C2F8F7102
:102040000E945E156CC0DD2329F08C2F8F710E94D9
:10205000281565C00E94231562C0DD2349F0CF71A9
:102060008C2F0E943D1563E08C2F0E94381757C0BB
:1020700081E00E944D17123008F451C082E00E94A6
:102080004D174DC0DD2331F0112389F2802F0E94BE
:10209000040D45C0112391F2093349F49FEFE7EE97
:1020A000F3E09150E040F040E1F700C00000802FE5
:1020B0000E94B00D34C04C2F4F70602FC7010E949A
:1020C000F1020E944F1436C0D11134C0CF70D0E05D
:1020D000C230D10599F03CF4209769F02197F9F4CA
:1020E0000E944F0727C0C430D10571F054F02597E6
:1020F000B1F480E00AC00E942C071CC00E94960721
:1021000019C00E949D0716C087E00E94DF0712C019
:102110004C2F4F70602FC7010E94F4020BC028E0C3
:10212000C21AD10884E0C816D10420F40E94C80B5A
:102130000E949602BB20D1F00E94AB1680FD16C013
:10214000F70112820E94A5160E943D15C7010E9448
:10215000C0100E94A516DF91CF911F910F91FF90A3
:10216000EF90DF90CF90BF900C945E15DF91CF91F0
:102170001F910F91FF90EF90DF90CF90BF90089547
:102180000F931F93CF93DF93EC01888199812B816B
:102190003C81232BB9F09F3F11F48F3F99F0CE0182
:1021A0000E94B502882371F0688179818A810E943A
:1021B00082168C010E94DA150E94DB14B801CE0150
:1021C0000E94390EDF91CF911F910F9108950E94C7
:1021D000D6160E94E6160E9402170E94781B0E94E3
:1021E000D21A80E090E00E94ED0B80E090E00C9429
:1021F000030C8091090190910A010E944C180C94E3
:10220000E7100E94C6160C94F910E92FE295EF70C2
:10221000F0E03297EE30F105B0F4EA59FF4F0C943C
:10222000E424803F91F018F4883E68F40EC0843FA7
:1022300051F40BC0883E48F0813F29F406C093FB5F
:10224000882780F9089580E0089581E008950E942C
:1022500077160E9405110895CF93DF9300D000D028
:102260001F92CDB7DEB70F900F900F900F900F9089
:10227000DF91CF910895CF93DF9300D000D000D0AD
:10228000CDB7DEB726960FB6F894DEBF0FBECDBF32
:10229000DF91CF9108951F93CF93DF93C091BF013A
:1022A00016E08091C001C81799F0D0E01C9FF001A2
:1022B0001D9FF00D1124EF53FE4F4081518162812B
:1022C0007381848195810E943B112196C770E9CF6B
:1022D000DF91CF911F9108954091F1015091F2014A
:1022E0006091F3017091F4018091F5019091F601F4
:1022F0000C943B118091F60182958F7009F054C0C7
:102300008091F301882309F44FC08091BF01A0910F
:10231000C0016091F1017091F2014091F40150917E
:10232000F501B6E08A1709F43FC090E04115510568
:10233000C1F17F3F11F46F3FA1F1B89FF001B99F48
:10234000F00D1124EF53FE4F218172132AC020811A
:10235000621327C02281211124C0238134812417D4
:10236000350710F421503109241B350B283C310569
:10237000C0F42091F6012F7020612093F60126E031
:10238000289FF001299FF00D1124EA53FE4F808110
:102390008F708061808381EF91E00E94C0100C9467
:1023A0004B1101968770BECF0895CF92DF92EF92C6
:1023B000FF920F931F93CF93DF93CDB7DEB7629752
:1023C0000FB6F894DEBF0FBECDBF8C0185E0F801DB
:1023D000DE011D9601900D928A95E1F7D8014C918E
:1023E00011965C91119712966C9112971396CD905D
:1023F000DC9014973091F1017091F2018091F40119
:102400009091F501009709F46BC17F3F19F43F3FAC
:1024100009F466C1E090F301EE2009F4C0C02091F8
:10242000F601C816D90628F0F601E81BF90BCF0112
:1024300004C0809590958C0D9D1DFF24F394883CDD
:10244000910578F0F12C207F09F0C6C07C2DD98A47
:10245000C88A89890E942C1181EF91E00E94C010E6
:10246000B1C0822F807F09F046C0751314C03413A9
:1024700012C0611110C02F7020612093F6010E94DC
:102480006C1181EF91E00E94C0108091F601D8019B
:1024900015968C932EC0CD2819F15F3F11F44F3F54
:1024A000F9F0F62E61111CC08091BF012091C0018E
:1024B00036E0821709F45AC090E0389FF001399F46
:1024C000F00D1124EF53FE4F7181571306C0708138
:1024D000471303C07281711103C001968770E9CF61
:1024E000F62E662309F427C18091F601816080935E
:1024F000F601F12C20C1751308C0341306C0611118
:1025000004C08091F601D801C3C04D875E878D85D8
:102510009E856A8B0E9427116A898823E1F16623D0
:10252000D1F12091F601822F82958F7090E0029771
:1025300074F08091F1019091F20198878F83198650
:10254000DB86CA862C87CE0107960E94C01086E0E3
:10255000F801A1EFB1E001900D928A95E1F70E9498
:102560007A110E946C11FF24F394E5C04D875E87B9
:102570008D859E850E947716292F22952F7030E039
:10258000223031050CF0CBC09F7009F0C5C0805ED1
:10259000883008F4D0C0C8010E94C010E4CFC8162B
:1025A000D90608F453C0F601E81BF90BCF01883CAB
:1025B000910508F450C0F12C7C2DD98AC88A8989EC
:1025C0000E942C11E1EFF1E086E0DF011D928A9577
:1025D000E9F70E946C11AFC0751314C0341312C018
:1025E000611110C08091F601F8018583C8010E9435
:1025F000C01086E0E1EFF1E0DF011D928A95E9F776
:10260000FE2C99C04D875E878D859E856A8B0E94C2
:1026100027116A89882309F4BECF662309F4BBCF4A
:102620002091F601822F82958F7090E002970CF432
:102630008ECF8091F1019091F2019A8389831B8260
:10264000DD82CC822E83CE0101967FCF809590953E
:102650008C0D9D1DACCFF62E662309F49CCF75130F
:102660002EC034132CC02091F60120FD1FC0822FF4
:1026700082958F70D9F0D80115962C9315978F30CD
:1026800049F08F5F982F9295907F822F8F70892BC2
:1026900015968C93C8010E94C01086E0F801A1EF46
:1026A000B1E001900D928A95E1F793CF86E0F801B1
:1026B000A1EFB1E001900D928A95E1F73CC04D8702
:1026C0005E878D859E850E942711811140CF809164
:1026D000F60181608093F601C8010E94C0102BC0F2
:1026E000662309F458CF4D875E878D859E850E94AD
:1026F0002711F82E882309F44ECF86E0F801A1EFC8
:10270000B1E001900D928A95E1F781EF91E00E948E
:10271000FE0C0E947A115DCF811139CF0CC024309C
:1027200031050CF038CF9F7009F431CFF801958155
:10273000907F09F02CCF8F2D62960FB6F894DEBFF4
:102740000FBECDBFDF91CF911F910F91FF90EF9002
:10275000DF90CF9008951F93CF93DF93CDB7DEB76F
:102760002C970FB6F894DEBF0FBECDBF4F835887AE
:1027700069877A878B879C87CE0107960E94D5113F
:10278000882369F08F8198852A853B85232BF1F179
:102790009F3F09F063C08F3F09F060C037C086E0FB
:1027A000FE013796DE01119601900D928A95E1F7B0
:1027B0006F817885EA85FB85309741F17F3F11F481
:1027C0006F3F21F12091C00130E0C901019687706F
:1027D00099274091BF0150E08417950709F447C03D
:1027E00069837A83FD83EC8396E0929FD001939F67
:1027F000B00D1124AF53BE4FFE01319601900D92E2
:102800009A95E1F78093C0010E944B1116E08091E8
:10281000BF019091C0018917C1F1189FC001112417
:102820008F539E4F0E94D511882379F1E091BF010B
:102830001E9FF0011124EF53FE4F408151816281B0
:102840007381848195810E943B118091BF0190E04A
:102850000196877099278093BF01D9CF4F81588502
:1028600069857A858B859C850E943B11CFCF0E941C
:1028700001111092C0011092BF01E1EFF1E086E07A
:10288000DF011D928A95E9F7C1CF2C960FB6F89417
:10289000DEBF0FBECDBFDF91CF911F910895EF92A4
:1028A000FF920F931F93CF93DF938C01892B09F431
:1028B0006CC0F12CEE24E394E8012196F801849198
:1028C000843740F4843008F051C0813081F0823088
:1028D00019F15BC0853709F444C0A8F19CE7980F53
:1028E000903708F052C08F770E94B00D41C00E5F44
:1028F0001F4FFE01C49180E28C0F883048F4C770EE
:102900008E2D01C0880FCA95EAF70E94D91614C00F
:102910008C2F0E94040D2DC00E5F1F4FFE01C4912D
:1029200080E28C0F883058F4C7708E2D01C0880F5C
:10293000CA95EAF70E94DF160E9402171AC08C2F70
:102940000E94B00D16C00E5F1F4FFE01C491CC2334
:1029500081F08FE99FE00197F1F700C00000C150BE
:10296000F6CF0E5F1F4FFE01F49003C00E94040DCE
:102970008E018F2D882309F49FCFEFE9FFE0319777
:10298000F1F700C000008150F5CFDF91CF911F918A
:102990000F91FF90EF90089508950C94CC140E942D
:1029A000CD14609328027093290280932A02909399
:1029B0002B020C94E71008950C94CF140F931F93DF
:1029C000009128021091290220912A0230912B02B5
:1029D000602B712B822B932B1F910F910C94CF1492
:1029E0000F931F93009128021091290220912A022F
:1029F00030912B0260237123822393231F910F9127
:102A00000C94CF140F931F93009128021091290268
:102A100020912A0230912B02602771278227932769
:102A20001F910F910C94CF1408950C9414150E94CB
:102A300015156093240270932502809326029093CB
:102A400027020C94E71060E070E0CB010C9417159E
:102A50000F931F9341E050E060E070E08A019B011A
:102A600004C0000F111F221F331F8A95D2F7C9011E
:102A7000B8011F910F910C9417150F931F9341E00C
:102A800050E060E070E004C0440F551F661F771FE0
:102A90008A95D2F78091240290912502A091260276
:102AA000B09127028A019B01082B192B2A2B3B2B63
:102AB000C901B8011F910F910C9417150F931F9323
:102AC00041E050E060E070E004C0440F551F661F15
:102AD000771F8A95D2F740955095609570958091B3
:102AE000240290912502A0912602B09127028A012A
:102AF0009B01082319232A233B23C901B8011F91F5
:102B00000F910C9417150F931F9341E050E060E074
:102B100070E004C0440F551F661F771F8A95D2F7D7
:102B20008091240290912502A0912602B091270263
:102B30008A019B01082719272A273B27C901B801C9
:102B40001F910F910C9417150F931F93009124025E
:102B5000109125022091260230912702602B712BC3
:102B6000822B932B1F910F910C9417150F931F938A
:102B70000091240210912502209126023091270213
:102B800060237123822393231F910F910C941715B7
:102B90000F931F9300912402109125022091260289
:102BA0003091270260277127822793271F910F9169
:102BB0000C941715089527E0929F800D1124A82FDB
:102BC000A695A695A695877051E001C0550F8A95E8
:102BD000EAF785E0A89FD001112420E030E070E002
:102BE000F901EA0FFB1FE950FE4F4081CB01022E95
:102BF00002C0969587950A94E2F78170992781958E
:102C000084278523842780832F5F3F4F253031051C
:102C100039F7089527E0929F800D1124682F66955B
:102C200066956695982F977085E0689FB00111248E
:102C300040E050E080E0FA01E60FF71FE950FE4F58
:102C4000208130E0092E02C0369527950A94E2F7DC
:102C500021703327042E01C0220F0A94EAF7822B39
:102C60004F5F5F4F4530510531F70895BF92CF92C6
:102C7000DF92EF92FF920F931F93CF93DF938C011C
:102C8000C0902802D0902902E0902A02F0902B02F6
:102C90008091240290912502A0912602B0912702F2
:102CA000C82AD92AEA2AFB2ACFE1D0E0D701C601F7
:102CB0000C2E04C0B695A795979587950A94D2F7E0
:102CC00080FF07C0BC2EB8018C2F0E940F03019714
:102CD00019F4219758F7B12C8B2DDF91CF911F91CB
:102CE0000F91FF90EF90DF90CF90BF900895CF931A
:102CF000DF93EC010E943616BE010E940F03DF91A4
:102D0000CF9108951F93CF93DF93EB019091BE0174
:102D1000992321F0CB010E94771613C0882349F034
:102D2000CB010E943616182F682FCE010E94DB15AA
:102D300004C0CB010E940A16182FBE01812F0E94E9
:102D40000F03DF91CF911F91089580912C028595FB
:102D500085958595089580912C02877008959091AE
:102D60002C02977081E009F480E008958091380288
:102D7000089590913802892B8093380208958095A8
:102D80009091380289238093380208951092380276
:102D9000089590913702892B80933702089580958A
:102DA0009091370289238093370208951092370259
:102DB000089590913602892B80933602089580956C
:102DC000909136028923809336020895109236023C
:102DD000089580912D02089508950C94EC16909119
:102DE0002D02981721F080932D020C94ED16089572
:102DF00080912D02882329F010922D0280E00C94FE
:102E0000ED160895E0910901F0910A0180913802D0
:102E10008083E0910901F0910A019081809137024D
:102E2000892B8083E0910901F0910A0190818091C2
:102E30003602892B808380912D02882381F0E091D6
:102E40000901F0910A019081892B80838091090109
:102E500090910A010E94161881110E94F816809123
:102E6000090190910A010C94D40B08950C94351724
:102E700098E0899F90011124262B20932C020E9418
:102E80003D1580912C028595859585950C94361776
:102E900010922C0280E00C94361720912C02809521
:102EA000822380932C02982F977079F430E0482F7A
:102EB000082E000C550B2417350739F0859585959C
:102EC00085950E945E150C944817089580E090E067
:102ED0000E940C2521E08C3E9E4F09F020E0822FBD
:102EE000089582E090E00C94042583E090E00C9437
:102EF0000425CF9384E090E00E940425C82F81E24E
:102F000090E00E9404252C2F30E0A901582BCA0123
:102F1000CF910895CF93C92F682F84E090E00E944D
:102F200012256C2F81E290E0CF910C94122586E05F
:102F300090E00C940425682F86E090E00C94122514
:102F4000AB01BC018FE090E00C942425AB01BC01E7
:102F500083E190E00C94242560E070E0CB010C94B8
:102F6000A61760E070E0CB010E94A0170C94AC178C
:102F70006CEE7EEF80E090E00E94302560E082E021
:102F800090E00E94122560E083E090E00E9412250C
:102F9000109228021092290210922A0210922B02FB
:102FA00060E084E090E00E94122560E081E290E021
:102FB0000E94122560E085E090E00E94122560E00A
:102FC00086E090E00E9412256FEF87E090E00E947B
:102FD000122540E050E0BA0188E090E00E942425EC
:102FE00060E08DE090E00E94122540E050E0BA01E0
:102FF00088E190E00E94242560E087E190E00E9453
:10300000122540E050E0BA018CE190E00E942425B6
:1030100060E080E290E00E9412250C94B1170C94BD
:10302000B817682F8EE090E00C941225FC013296C0
:1030300097E080E0915029F021912223D9F38F5F0E
:10304000F9CF08959C01FC0132969FEF80E04191F9
:10305000461789F09F3F19F4411101C0982F8F5FE7
:103060008630A9F79F3F39F0F901E90FF11D97FD6F
:10307000FA95628308950895FC013296089620819E
:10308000261301C010823196E817F907C1F7089599
:103090000C9422180C943C18029626E0FC01119224
:1030A0002A95E9F7089508950C9453180E9454182E
:1030B00080917502843061F110923A0220E488E137
:1030C00090E00FB6F894A895809360000FBE20930F
:1030D000600080E00E94F60780E00E9496020E9455
:1030E000541883B7817F846083BF83B7816083BFB7
:1030F0007894889583B78E7F83BF0FB6F894A89590
:1031000080916000886180936000109260000FBE23
:10311000089508950895CF930E9489180E94CE05BE
:103120000E948A18C0E08C2F0E943B05811104C0C8
:10313000CF5FCA30C1F701C081E0CF9108950895F3
:103140000C949F180E9401110E940B070E94C80B4B
:103150000E9496020C94A0181F920F920FB60F9225
:1031600011248F939F93AF93BF9380913A02811163
:1031700013C080916B0290916C02A0916D02B0918E
:103180006E024196A11DB11D80936B0290936C025B
:10319000A0936D02B0936E02BF91AF919F918F91FA
:1031A0000F900FBE0F901F90189582E084BD93E0A2
:1031B00095BD9AEF97BD80936E0008952FB7F89450
:1031C00080916B0290916C02A0916D02B0916E02A1
:1031D0002FBF0895CF92DF92EF92FF920F931F932C
:1031E0002FB7F89440916B0250916C0260916D0280
:1031F00070916E022FBF6A017B01EE24FF248C01C7
:1032000020E030E0C016D106E206F30610F441508B
:1032100051099A01281B390BC9011F910F91FF9089
:10322000EF90DF90CF90089578941F920F920FB691
:103230000F9211248F939F93AF93BF9380916B0252
:1032400090916C02A0916D02B0916E020196A11D49
:10325000B11D80936B0290936C02A0936D02B093AA
:103260006E02BF91AF919F918F910F900FBE0F9003
:103270001F90189587E797E79093010880930008BF
:103280009AE088E10FB6F894A895809360000FBE8D
:1032900090936000FFCF0E946617811102C00E94C8
:1032A0000F180E947117809339020E94791790932A
:1032B000700280936F020E947517682F70E080E0A3
:1032C00090E00C94DC1480913E0280FF0BC0609172
:1032D0000E0185E0689FB00111247595679575957D
:1032E00067952BC081FF09C060910E0185E0689F42
:1032F000B00111247595679520C082FF07C06091C9
:103300000E0185E0689FB001112417C090913D0225
:103310009923D1F060910D01961788F720910E0145
:1033200085E0289F90011124929FA001939F500D4A
:10333000112470E0CA010E94AE246038710540F487
:103340006115710539F002C065E070E0862F0895BF
:103350008FE7089581E0089580913E0280FF08C0C4
:1033600060910C0170E0759567957595679521C022
:1033700081FF06C060910C0170E07595679519C0DA
:1033800082FF04C060910C0170E010C090913D027A
:103390009923C1F060910B019617A0F780910C0161
:1033A000899FC001112470E00E94AE24603871052D
:1033B00028F46115710521F0862F08958FE708958F
:1033C00081E0089561E070E0F4CF803F21F40E9435
:1033D0006319819504C0813F29F40E946319809389
:1033E00042020895823F21F40E946319819504C02E
:1033F000833F29F40E946319809341020895893F15
:1034000019F40E94AC1905C08A3F31F40E94AC192E
:1034100081958093430208958B3F21F40E94AC195B
:10342000819504C08C3F29F40E94AC19809344021A
:103430000895843F21F480914002816017C0853F48
:1034400021F480914002826011C0863F21F4809176
:10345000400284600BC0873F21F480914002886065
:1034600005C0883F31F48091400280618093400222
:1034700008958D3F21F480913E0281600BC08E3F04
:1034800021F480913E02826005C08F3F29F4809133
:103490003E02846080933E020895803F39F480911B
:1034A000420287FF6CC01092420269C0813F29F43A
:1034B000809142021816BCF362C090914102823F93
:1034C00029F497FF5CC01092410259C0833F19F460
:1034D0001916CCF354C0893F41F480914302181669
:1034E0000CF04DC0109243024AC08A3F29F48091EB
:1034F000430287FF44C0F6CF8B3F39F480914402EA
:1035000087FF3DC0109244023AC08C3F29F480915D
:1035100044021816BCF333C0843F21F4809140026A
:103520008E7F17C0853F21F4809140028D7F11C0AE
:10353000863F21F4809140028B7F0BC0873F21F4AE
:1035400080914002877F05C0883F31F4809140021E
:103550008F7E8093400213C08D3F21F480913E0204
:103560008E7F0BC08E3F21F480913E028D7F05C07F
:103570008F3F29F480913E028B7F80933E028091A1
:10358000410281110EC08091420281110AC08091D6
:103590004302811106C080914402811102C0109241
:1035A0003D0208958FE392E00E94DF0B0E94DE1837
:1035B00090933C0280933B0208951F93CF93DF9337
:1035C00080913B0290913C020E94EA18AC019091DC
:1035D0003D02992321F020910F0130E006C0209197
:1035E00010018AE0289F900111244217530708F424
:1035F0007BC080914102C0914202D0914302109160
:103600004402811107C0C1116BC0D11169C01111F1
:1036100067C06AC09F3F19F09F5F90933D021816E4
:1036200024F40E946319809341028091410287FF34
:1036300005C00E9463198195809341021C1624F4F1
:103640000E946319809342028091420287FF05C065
:103650000E94631981958093420230914102332385
:10366000E1F0209142022223C1F045EB3403C00176
:103670001124892F990F990B009709F481E0809309
:10368000410235EB2303C0011124892F990F990BB7
:10369000009709F481E0809342021D1624F40E94F1
:1036A000AC19809343028091430287FF05C00E94BA
:1036B000AC19819580934302111624F40E94AC1931
:1036C000809344028091440287FF05C00E94AC1998
:1036D000819580934402DF91CF911F910C94D21A6F
:1036E0009F3F09F099CFA1CFDF91CF911F9108950E
:1036F000EFE3F2E086E0DF011D928A95E9F7109290
:103700003D0210923E020895833081F128F4813009
:1037100059F08230D1F00895853009F449C0B8F1EC
:10372000863009F456C0089580911001262F30E0AC
:10373000280F311D2F3F310524F4680F60931001CD
:1037400008958FEF80931001089580910F01262F27
:1037500030E0280F311D2F3F310524F4680F6093AE
:103760000F0108958FEF80930F01089580910E014E
:10377000262F30E0280F311D2F3F310524F4680F2C
:1037800060930E0108958FEF80930E01089580914C
:103790000D01262F30E0280F311D2F3F310524F475
:1037A000680F60930D0108958FEF80930D010895C8
:1037B00080910C01262F30E0280F311D2F3F31055D
:1037C00024F4680F60930C0108958FEF80930C012F
:1037D000089580910B01262F30E0280F311D2F3FD7
:1037E000310524F4680F60930B0108958FEF8093E7
:1037F0000B010895833011F128F4813049F08230B3
:1038000091F00895853081F120F18630C1F108955D
:1038100080911001681720F4861B80931001089591
:1038200010921001089580910F01681720F4861BF3
:1038300080930F01089510920F01089580910E0159
:10384000681720F4861B80930E01089510920E01D4
:10385000089580910D01681720F4861B80930D0157
:10386000089510920D01089580910C01681720F4BD
:10387000861B80930C01089510920C01089580918D
:103880000B01681720F4861B80930B01089510929A
:103890000B0108950F931F938B3109F474C058F5F1
:1038A0008B3009F4A1C078F4863009F446C020F4C6
:1038B000853009F44CC09FC0873009F456C0883069
:1038C00009F492C098C0803109F470C068F48E3059
:1038D00009F091C08091390282FB222720F991E002
:1038E000922790FB82F958C0863109F47DC0893156
:1038F00009F47AC080C08A32E9F060F4873209F4B2
:1039000075C028F48E3108F476C08D515AC08932C2
:10391000F1F071C0833450F48A3308F051C085331C
:1039200009F464C0883309F45FC065C0833409F4C6
:103930005DC061C00E940F1857C080913902817F1D
:103940008E7F8093390281E08093460255C00E94A9
:1039500001110FEF13ED20E3015010402040E1F77B
:1039600000C000000E943A193FC080913902982F90
:103970009095917090FB80F980933902911134C039
:10398000897F877F10C08091390281FB222720F92F
:1039900091E0922790FB81F980933902992321F1DC
:1039A000809139028160809339021EC08091390272
:1039B00083FB222720F991E0922790FB83F9ECCF3B
:1039C000895341E050E060E070E08A019B0104C04F
:1039D000000F111F221F331F8A95D2F7C901B801AA
:1039E0000E94DC140E94011181E006C061E070E0D9
:1039F00080E090E0F5CF80E01F910F91089580E086
:103A0000089580E008958E518A3030F4E82FF0E078
:103A1000E157FE4F8081089580E00895CF93C82F2D
:103A200080914602813051F018F0823099F17DC0CA
:103A30000E94B616823209F07AC004C00E94B616FF
:103A4000823261F48C2F0E94FF1C811104C08C2FE4
:103A50000E944A1C1DC081E090E01AC08C2F0E9479
:103A6000011D811114C0C43179F048F4CB3079F0D4
:103A7000C03109F060C082E08093460208C0C932BC
:103A800019F0C83321F057C01092460254C081E0AB
:103A9000817053C0C93289F118F5C43171F1B0F4A5
:103AA000C73009F046C08EE18093100182E3809315
:103AB0000F018AE080930E0184E180930D0188E07C
:103AC00080930C0188E280930B0133C082EE8C0F4F
:103AD000863078F58C2F0E94031D8093450229C003
:103AE000CE34E9F020F4CB3421F56AE013C0C135BF
:103AF00079F0C235F1F461E00DC080914502882370
:103B000019F01092450215C081E08093460215C05D
:103B100061E006C0809145020E94841B0AC06AE0F1
:103B2000809145020E94FA1B04C01092460280E078
:103B300004C081E002C080E0ABCFCF9108958091B6
:103B40004F020895CF93DF9300D01F92CDB7DEB719
:103B500090917502943019F589837B836A8382E0A2
:103B60008093E9008FEF9091E800815095FD06C0A9
:103B700095ED9A95F1F700008111F5CF8091E8005D
:103B800085FF0DC040E050E063E070E0CE0101969B
:103B90000E94EE1F8091E8008E778093E8000F90DE
:103BA0000F900F90DF91CF910895CF93DF93EC01A9
:103BB0000E94D11F823011F0843031F4BE0184E0C4
:103BC000DF91CF910C94A21DDF91CF910895BC019C
:103BD0006058710983E00C94A21DCF93DF93EC0130
:103BE0000E94D11F823011F08430F9F482E080937A
:103BF000E9009FEF8091E800915085FD06C085EDBA
:103C00008A95F1F700009111F5CF8091E80085FFCA
:103C10000CC040E050E066E070E0CE010E94EE1F74
:103C20008091E8008E778093E800DF91CF9108952E
:103C3000CF93DF93EC010E94D11F823011F08430CA
:103C400039F581E08093E9008FEF9091E800815091
:103C500095FD06C095ED9A95F1F700008111F5CF1D
:103C60008091E80085FF14C040E050E068E070E01B
:103C7000CE010E94EE1F8091E8008E778093E800CD
:103C800088E0FE01A7E4B2E001900D928A95E1F789
:103C9000DF91CF91089580917402811109C00E9433
:103CA00083210E94E0218091E20084608093E20001
:103CB0000895109274020895089508950C94A2181E
:103CC00042E061EC81E00E94FD2042E261EC82E092
:103CD0000C94FD2080917702833009F460C030F4A9
:103CE000813071F0823009F499C008958A3009F466
:103CF00085C08B3009F46BC0893009F0A7C020C0A3
:103D000080917602813A09F0A1C08091E800877F16
:103D10008093E80080917A0290917B02892B21F4B4
:103D200068E087E492E003C060E080E090E070E04B
:103D30000E9439208091E8008B778093E8000895F5
:103D400080917602813209F081C080917A0290914F
:103D50007B02029708F07AC08091E800877F809309
:103D6000E8008091E80082FD05C080917502811114
:103D7000F8CF6CC02091F3008091F20090E0922B7C
:103D8000029729F48091F1008B7F813021F480919A
:103D9000F10080934F028091E8008B7753C08091AF
:103DA0007602813A09F052C080917A0290917B02AA
:103DB000892B09F04BC08091E800877F8093E80051
:103DC0008091E80080FFFCCF80911B0136C080917C
:103DD00076028132D9F580917A0290917B02892B0B
:103DE000A9F58091E800877F8093E8000E94322146
:103DF0008091780280931B010C94011180917602CE
:103E0000813221F58091E800877F8093E8000E944D
:103E10003221809179028093500208958091760238
:103E2000813AA1F48091E800877F8093E800809137
:103E3000E80080FFFCCF809150028093F1008091D8
:103E4000E8008E778093E8000C943221089584B7BF
:103E5000877F84BF0FB6F894A89580916000886131
:103E600080936000109260000FBE90E080E80FB673
:103E7000F89480936100909361000FBE0E94270C1C
:103E80000E9483210E94E0218091E200846080935F
:103E9000E20078940E946F240E942D0C81E191E051
:103EA0000E94C30B80917502853069F40E945618F8
:103EB000809173028823B1F30E948B18882391F3B9
:103EC0000E94D81FEFCF0E94370CECCF0C94681FD4
:103ED000292F332723303105C9F064F4213031050F
:103EE00081F02230310509F04CC08BE390E026EEE2
:103EF00032E04BC02132310521F12232310589F106
:103F000040C082E190E021E233E03FC09927813058
:103F1000910571F02CF4892BA1F5E2EEF2E00DC0D1
:103F20008230910541F0039761F5E0EAF2E005C0C7
:103F3000E2EDF2E002C0E6EAF2E0849190E09F0157
:103F400024C06115710541F061307105D1F489E03B
:103F500090E021E133E019C089E090E028EF32E001
:103F600014C06115710541F06130710551F485E8A7
:103F700090E023E333E009C080E490E028EB33E0F5
:103F800004C080E090E020E030E0FA01318320833B
:103F9000089580917502843011F081E0089582E0E7
:103FA000089580915102811102C00C94C91F089597
:103FB00080E189BD82E189BD09B400FEFDCF809119
:103FC000D8008F7D8093D8008091E000826080933C
:103FD000E0008091E00081FDFCCF0895CF92DF9258
:103FE000EF92FF920F931F93CF93DF93EC018B011E
:103FF0006A010E945121811133C0C114D10439F0EA
:10400000F60180819181081B190BC80FD91FE12C83
:10401000F12C0115110519F18091E80085FD16C0FC
:104020008091E8008E778093E800C114D10449F0B4
:10403000F60180819181E80EF91EF182E08285E02F
:104040000FC00E945121882321F30AC089918093D7
:10405000F10001501109FFEFEF1AFF0ADACF80E0FB
:10406000DF91CF911F910F91FF90EF90DF90CF9054
:10407000089520917C0230917D022617370748F081
:104080006115710539F42091E8002E772093E8003E
:1040900001C0B90140E061157105A9F120917502D7
:1040A000222309F443C0253009F442C02091E800DE
:1040B00023FD40C02091E80022FD32C02091E8009D
:1040C00020FFE9CF4091F3002091F20030E0342B43
:1040D000FC01CF016115710559F02830310540F41C
:1040E00081918093F100615071092F5F3F4FF1CFB3
:1040F00041E02830310509F040E02091E8002E77BA
:104100002093E800C8CF4111C9CF0AC08091750241
:10411000882361F0853061F08091E80083FD0AC05A
:104120008091E80082FFF2CF80E0089582E0089558
:1041300083E0089581E0089520917C0230917D0212
:104140002617370748F06115710539F42091E8000A
:104150002E772093E80001C0B901FC0120E0611531
:10416000710591F180917502882309F440C0853072
:1041700009F43FC08091E80083FD3DC08091E800D4
:1041800082FD2FC08091E80080FFE9CF2091F300ED
:104190008091F20090E0922B6115710559F0883002
:1041A000910540F424912093F100319661507109FA
:1041B0000196F2CF21E0089709F020E08091E80015
:1041C0008E778093E800CBCF2111CCCF0AC08091AD
:1041D0007502882361F0853061F08091E80083FDED
:1041E0000AC08091E80082FFF2CF80E0089582E06B
:1041F000089583E0089581E00895982F973058F549
:104200009093E900981739F07091EC002091ED003F
:104210005091F00003C0242F762F50E021FF19C0E9
:104220003091EB003E7F3093EB003091ED003D7F0D
:104230003093ED003091EB0031603093EB007093E0
:10424000EC002093ED005093F0002091EE0027FF4A
:1042500007C09F5FD3CF8F708093E90081E00895FE
:1042600080E008958091760287FF11C08091E80078
:1042700082FD05C0809175028111F8CF11C0809137
:10428000E8008B770BC080917502882349F08091FC
:10429000E80080FFF8CF8091E8008E778093E800F7
:1042A00008952091E4003091E50095E64091EC00FE
:1042B000842F817040FF22C08091E80080FD1CC0E7
:1042C00080917502882391F0853091F08091EB0008
:1042D00085FD10C04091E4005091E500421753075E
:1042E00029F39A01915011F784E0089582E008952E
:1042F00083E0089581E0089580E008954091E8000A
:1043000042FFDECF08950E94F1210E94F921E0EEE4
:10431000F0E0808181608083E8EDF0E080818F773C
:10432000808319BCA7EDB0E08C918E7F8C93808147
:104330008F7E80831092740208950F931F93CF9302
:10434000DF930E94F1210E94F921C8EDD0E088811D
:104350008F77888388818068888388818F7D888330
:1043600019BC109275021092710210927302109291
:10437000720200EE10E0F80180818B7F80838881DB
:104380008160888342E060E080E00E94FD20E1EEF1
:10439000F0E080818E7F8083E2EEF0E080818160BA
:1043A0008083808188608083F80180818E7F808314
:1043B000888180618883DF91CF911F910F9108954B
:1043C000E8EDF0E080818F7E8083E7EDF0E0808192
:1043D0008160808384E082BF81E0809374020C94CA
:1043E0009D21E8EDF0E080818E7F80831092E200D5
:1043F00008951092DA001092E10008951F920F9232
:104400000FB60F9211242F933F934F935F936F93A7
:104410007F938F939F93AF93BF93EF93FF9380917D
:10442000E10082FF0BC08091E20082FF07C0809113
:10443000E1008B7F8093E1000E946E248091DA007E
:1044400080FF1FC08091D80080FF1BC08091DA00E0
:104450008E7F8093DA008091D90080FF0DC080E1CB
:1044600089BD82E189BD09B400FEFDCF81E0809362
:1044700075020E944B1E05C019BC109275020E9465
:10448000591E8091E10080FF19C08091E20080FFF9
:1044900015C08091E2008E7F8093E2008091E2005F
:1044A00080618093E2008091D80080628093D80080
:1044B00019BC85E0809375020E945D1E8091E10029
:1044C00084FF30C08091E20084FF2CC080E189BD70
:1044D00082E189BD09B400FEFDCF8091D8008F7DB7
:1044E0008093D8008091E1008F7E8093E1008091DD
:1044F000E2008F7E8093E2008091E20081608093F1
:10450000E20080917102882311F084E007C080915D
:10451000E30087FD02C081E001C083E08093750263
:104520000E945E1E8091E10083FF29C08091E2001D
:1045300083FF25C08091E100877F8093E10082E0C6
:1045400080937502109271028091E1008E7F8093BA
:10455000E1008091E2008E7F8093E2008091E20092
:1045600080618093E20042E060E080E00E94FD20F4
:104570008091F00088608093F0000E945C1EFF91A3
:10458000EF91BF91AF919F918F917F916F915F91CB
:104590004F913F912F910F900FBE0F901F90189544
:1045A0001F920F920FB60F9211242F933F934F93A8
:1045B0005F936F937F938F939F93AF93BF93CF93AB
:1045C000DF93EF93FF93C091E900CF708091EC00EF
:1045D000D82FD17080FDD0E81092E9008091F000D2
:1045E000877F8093F00078940E9414231092E90052
:1045F0008091F00088608093F000CD2BCF70C09345
:10460000E900FF91EF91DF91CF91BF91AF919F9121
:104610008F917F916F915F914F913F912F910F906B
:104620000FBE0F901F9018951F93CF93DF93CDB7B8
:10463000DEB7AA970FB6F894DEBF0FBECDBFE6E790
:10464000F2E088E08E0F9091F10091938E13FBCFF2
:104650000E946A1E8091E80083FF28C18091760243
:1046600090917702492F50E04A30510508F01EC161
:10467000FA01EC58FF4F0C94E424803821F0823882
:1046800009F014C108C080917202909173029923BD
:1046900089F082600FC080917A028F70873008F0B5
:1046A00005C18093E9008091EB0085FB882780F9A4
:1046B0001092E9009091E800977F9093E800809332
:1046C000F1001092F100D0C0282F2D7F09F0EEC02C
:1046D000882319F0823061F0E9C08091780281303E
:1046E00009F0E4C0933009F080E0809373022EC09B
:1046F0008091780281112AC080917A028F702FEF09
:10470000280F263008F0D2C08093E9002091EB00FA
:1047100020FF1CC0933021F48091EB00806214C014
:104720009091EB0090619093EB0021E030E0A901C3
:1047300002C0440F551F8A95E2F74093EA00109299
:10474000EA008091EB0088608093EB001092E90012
:104750008091E800877F8093E8000E943221A6C004
:104760008111A4C0109178021F778091E3008078B6
:10477000812B8093E3008091E800877F8093E8009D
:104780000E9432218091E80080FFFCCF8091E300FD
:1047900080688093E300111102C082E001C083E0D1
:1047A0008093750283C08058823008F07FC080916A
:1047B0007802909179028C3D53E0950779F583E07A
:1047C0008A838AE289834FB7F894DE01139620E04A
:1047D0003EE051E2E32FF0E050935700E49120FFD8
:1047E00003C0E295EF703F5FEF708E2F90E0EA30EC
:1047F00010F0C79601C0C0968D939D932F5F243112
:1048000049F74FBF8091E800877F8093E8006AE214
:1048100070E0CE0101960E94392015C060917A02A5
:1048200070917B02AE014F5F5F4F0E94661FBC011B
:10483000892BE1F19091E800977F9093E8008981BE
:104840009A810E949C208091E8008B778093E800F9
:104850002DC0803859F58091E800877F8093E8006B
:10486000809171028093F1008091E8008E7773CF80
:1048700081111CC0909178029230C0F48091E800C0
:10488000877F8093E800909371020E94322180918B
:104890007102811106C08091E30087FD02C081E0B2
:1048A00001C084E0809375020E94601E8091E80040
:1048B00083FF0AC08091E800877F8093E8008091A1
:1048C000EB0080628093EB00AA960FB6F894DEBFEF
:1048D0000FBECDBFDF91CF911F9108950895CF9363
:1048E000809175028823A1F0C091E900CF7090916A
:1048F000EC00892F817090FD80E8C82B1092E900B0
:104900008091E80083FD0E941423CF70C093E900DA
:10491000CF910895DB018F939F930E94F924BF915B
:10492000AF91A29F800D911DA39F900DB29F900DFE
:1049300011240895AA1BBB1B51E107C0AA1FBB1F6E
:10494000A617B70710F0A61BB70B881F991F5A951B
:10495000A9F780959095BC01CD01089597FB072E8E
:1049600016F4009407D077FD09D00E949A2407FC22
:1049700005D03EF4909581959F4F0895709561956F
:104980007F4F0895A1E21A2EAA1BBB1BFD010DC08B
:10499000AA1FBB1FEE1FFF1FA217B307E407F507EF
:1049A00020F0A21BB30BE40BF50B661F771F881FCB
:1049B000991F1A9469F760957095809590959B0161
:1049C000AC01BD01CF010895EE0FFF1F0590F491DA
:1049D000E02D0994A29FB001B39FC001A39F700D69
:1049E000811D1124911DB29F700D811D1124911DF7
:1049F00008950E94EA24A59F900DB49F900DA49F56
:104A0000800D911D11240895F999FECF92BD81BDAD
:104A1000F89A992780B50895A8E1B0E042E050E007
:104A20000C943825262FF999FECF92BD81BDF89AB6
:104A3000019700B4021639F01FBA20BD0FB6F894E2
:104A4000FA9AF99A0FBE08950396272F0E9413250C
:104A50000E941225252F0E941325242F0C94132524
:104A60000196272F0E9413250C941225DC01CB01FF
:104A7000FC01F999FECF06C0F2BDE1BDF89A31966E
:104A800000B40D9241505040B8F70895F894FFCF0C
:104A9000019F0101A00105A1012E022808140A327C
:104AA0001E9F1D181EED1DE71DD51D01E200E9002A
:104AB000EA00B500B600B700CD008301CC008A0142
:104AC00092019401210223022402250226022702D8
:104AD0002A02B300B4006F007000818283F4F5F6FF
:104AE000F73133329497C634350000000000E200FD
:104AF000E900EA00B500B600B700CD008301CC00A4
:104B00008A01920194012102230224022502260235
:104B100027022A02B300B4006F0070008182830173
:0A4B2000020304050607080900005F
:00000001FF
